{
	"contracts/KYCManager.sol": {
		"KYCManager": {
			"abi": [
				{
					"anonymous": false,
					"inputs": [
						{
							"indexed": true,
							"internalType": "address",
							"name": "previousOwner",
							"type": "address"
						},
						{
							"indexed": true,
							"internalType": "address",
							"name": "newOwner",
							"type": "address"
						}
					],
					"name": "OwnershipTransferred",
					"type": "event"
				},
				{
					"inputs": [
						{
							"internalType": "address",
							"name": "managerAddr",
							"type": "address"
						}
					],
					"name": "NFTIdOfManager",
					"outputs": [
						{
							"internalType": "uint256",
							"name": "",
							"type": "uint256"
						}
					],
					"stateMutability": "view",
					"type": "function"
				},
				{
					"inputs": [
						{
							"internalType": "uint256",
							"name": "NFTid",
							"type": "uint256"
						}
					],
					"name": "availableOfNFTId",
					"outputs": [
						{
							"internalType": "bool",
							"name": "",
							"type": "bool"
						}
					],
					"stateMutability": "view",
					"type": "function"
				},
				{
					"inputs": [
						{
							"internalType": "string",
							"name": "tokenUrl",
							"type": "string"
						},
						{
							"internalType": "address",
							"name": "manager",
							"type": "address"
						},
						{
							"internalType": "uint256",
							"name": "expirationTime",
							"type": "uint256"
						}
					],
					"name": "createKYCNFT",
					"outputs": [],
					"stateMutability": "nonpayable",
					"type": "function"
				},
				{
					"inputs": [
						{
							"internalType": "uint256",
							"name": "NFTid",
							"type": "uint256"
						},
						{
							"internalType": "address",
							"name": "manager",
							"type": "address"
						}
					],
					"name": "initManagerAddr",
					"outputs": [],
					"stateMutability": "nonpayable",
					"type": "function"
				},
				{
					"inputs": [
						{
							"internalType": "uint256",
							"name": "NFTid",
							"type": "uint256"
						}
					],
					"name": "managerOfNFTId",
					"outputs": [
						{
							"internalType": "address",
							"name": "",
							"type": "address"
						}
					],
					"stateMutability": "view",
					"type": "function"
				},
				{
					"inputs": [
						{
							"internalType": "uint256",
							"name": "NFTid",
							"type": "uint256"
						},
						{
							"internalType": "address",
							"name": "newManager",
							"type": "address"
						}
					],
					"name": "modifyManagerAddr",
					"outputs": [],
					"stateMutability": "nonpayable",
					"type": "function"
				},
				{
					"inputs": [],
					"name": "owner",
					"outputs": [
						{
							"internalType": "address",
							"name": "",
							"type": "address"
						}
					],
					"stateMutability": "view",
					"type": "function"
				},
				{
					"inputs": [],
					"name": "renounceOwnership",
					"outputs": [],
					"stateMutability": "nonpayable",
					"type": "function"
				},
				{
					"inputs": [
						{
							"internalType": "address",
							"name": "_kycnftContractAddr",
							"type": "address"
						}
					],
					"name": "setKYCNFTContractAddress",
					"outputs": [],
					"stateMutability": "nonpayable",
					"type": "function"
				},
				{
					"inputs": [
						{
							"internalType": "uint256",
							"name": "NFTid",
							"type": "uint256"
						},
						{
							"internalType": "bool",
							"name": "_available",
							"type": "bool"
						}
					],
					"name": "setNFTAvailableOfNFTId",
					"outputs": [],
					"stateMutability": "nonpayable",
					"type": "function"
				},
				{
					"inputs": [
						{
							"internalType": "address",
							"name": "newOwner",
							"type": "address"
						}
					],
					"name": "transferOwnership",
					"outputs": [],
					"stateMutability": "nonpayable",
					"type": "function"
				},
				{
					"inputs": [
						{
							"internalType": "string",
							"name": "_accumulator",
							"type": "string"
						},
						{
							"internalType": "string",
							"name": "_n",
							"type": "string"
						},
						{
							"internalType": "uint256",
							"name": "_g",
							"type": "uint256"
						}
					],
					"name": "updateAccumulator",
					"outputs": [],
					"stateMutability": "nonpayable",
					"type": "function"
				},
				{
					"inputs": [
						{
							"internalType": "string",
							"name": "_n",
							"type": "string"
						},
						{
							"internalType": "uint256",
							"name": "_g",
							"type": "uint256"
						}
					],
					"name": "updateAccumulatorPublicKey",
					"outputs": [],
					"stateMutability": "nonpayable",
					"type": "function"
				},
				{
					"inputs": [
						{
							"internalType": "string",
							"name": "_accumulator",
							"type": "string"
						}
					],
					"name": "updateAccumulatorValue",
					"outputs": [],
					"stateMutability": "nonpayable",
					"type": "function"
				},
				{
					"inputs": [
						{
							"internalType": "address",
							"name": "managerAddr",
							"type": "address"
						}
					],
					"name": "userDataOfManager",
					"outputs": [
						{
							"components": [
								{
									"internalType": "uint256",
									"name": "NFTid",
									"type": "uint256"
								},
								{
									"internalType": "string",
									"name": "accumulator",
									"type": "string"
								},
								{
									"internalType": "string",
									"name": "n",
									"type": "string"
								},
								{
									"internalType": "uint256",
									"name": "g",
									"type": "uint256"
								}
							],
							"internalType": "struct KYCManager.UserData",
							"name": "",
							"type": "tuple"
						}
					],
					"stateMutability": "view",
					"type": "function"
				},
				{
					"inputs": [
						{
							"internalType": "uint256",
							"name": "NFTid",
							"type": "uint256"
						}
					],
					"name": "userDataOfNFTId",
					"outputs": [
						{
							"components": [
								{
									"internalType": "uint256",
									"name": "NFTid",
									"type": "uint256"
								},
								{
									"internalType": "string",
									"name": "accumulator",
									"type": "string"
								},
								{
									"internalType": "string",
									"name": "n",
									"type": "string"
								},
								{
									"internalType": "uint256",
									"name": "g",
									"type": "uint256"
								}
							],
							"internalType": "struct KYCManager.UserData",
							"name": "",
							"type": "tuple"
						}
					],
					"stateMutability": "view",
					"type": "function"
				}
			],
			"devdoc": {
				"kind": "dev",
				"methods": {
					"owner()": {
						"details": "Returns the address of the current owner."
					},
					"renounceOwnership()": {
						"details": "Leaves the contract without owner. It will not be possible to call `onlyOwner` functions anymore. Can only be called by the current owner. NOTE: Renouncing ownership will leave the contract without an owner, thereby removing any functionality that is only available to the owner."
					},
					"transferOwnership(address)": {
						"details": "Transfers ownership of the contract to a new account (`newOwner`). Can only be called by the current owner."
					}
				},
				"version": 1
			},
			"evm": {
				"assembly": "    /* \"contracts/KYCManager.sol\":609:3916  contract KYCManager is Ownable {... */\n  mstore(0x40, 0x80)\n    /* \"contracts/KYCManager.sol\":773:815  0xfAe53841d623a35851C00F66742768Cf28B01268 */\n  0xfae53841d623a35851c00f66742768cf28b01268\n    /* \"contracts/KYCManager.sol\":740:815  address KYCNFTInterFaceAddress = 0xfAe53841d623a35851C00F66742768Cf28B01268 */\n  0x01\n  exp(0x0100, 0x00)\n  dup2\n  sload\n  dup2\n  0xffffffffffffffffffffffffffffffffffffffff\n  mul\n  not\n  and\n  swap1\n  dup4\n  0xffffffffffffffffffffffffffffffffffffffff\n  and\n  mul\n  or\n  swap1\n  sstore\n  pop\n    /* \"contracts/KYCManager.sol\":868:890  KYCNFTInterFaceAddress */\n  0x01\n  0x00\n  swap1\n  sload\n  swap1\n  0x0100\n  exp\n  swap1\n  div\n  0xffffffffffffffffffffffffffffffffffffffff\n  and\n    /* \"contracts/KYCManager.sol\":819:891  KYCNFTInterface kycNFTContract = KYCNFTInterface(KYCNFTInterFaceAddress) */\n  0x02\n  exp(0x0100, 0x00)\n  dup2\n  sload\n  dup2\n  0xffffffffffffffffffffffffffffffffffffffff\n  mul\n  not\n  and\n  swap1\n  dup4\n  0xffffffffffffffffffffffffffffffffffffffff\n  and\n  mul\n  or\n  swap1\n  sstore\n  pop\n    /* \"contracts/KYCManager.sol\":609:3916  contract KYCManager is Ownable {... */\n  callvalue\n  dup1\n  iszero\n  tag_1\n  jumpi\n  0x00\n  dup1\n  revert\ntag_1:\n  pop\n    /* \"@openzeppelin/contracts/access/Ownable.sol\":921:953  _transferOwnership(_msgSender()) */\n  tag_4\n    /* \"@openzeppelin/contracts/access/Ownable.sol\":940:952  _msgSender() */\n  tag_5\n    /* \"@openzeppelin/contracts/access/Ownable.sol\":940:950  _msgSender */\n  shl(0x20, tag_6)\n    /* \"@openzeppelin/contracts/access/Ownable.sol\":940:952  _msgSender() */\n  0x20\n  shr\n  jump\t// in\ntag_5:\n    /* \"@openzeppelin/contracts/access/Ownable.sol\":921:939  _transferOwnership */\n  shl(0x20, tag_7)\n    /* \"@openzeppelin/contracts/access/Ownable.sol\":921:953  _transferOwnership(_msgSender()) */\n  0x20\n  shr\n  jump\t// in\ntag_4:\n    /* \"contracts/KYCManager.sol\":609:3916  contract KYCManager is Ownable {... */\n  jump(tag_8)\n    /* \"@openzeppelin/contracts/utils/Context.sol\":640:736  function _msgSender() internal view virtual returns (address) {... */\ntag_6:\n    /* \"@openzeppelin/contracts/utils/Context.sol\":693:700  address */\n  0x00\n    /* \"@openzeppelin/contracts/utils/Context.sol\":719:729  msg.sender */\n  caller\n    /* \"@openzeppelin/contracts/utils/Context.sol\":712:729  return msg.sender */\n  swap1\n  pop\n    /* \"@openzeppelin/contracts/utils/Context.sol\":640:736  function _msgSender() internal view virtual returns (address) {... */\n  swap1\n  jump\t// out\n    /* \"@openzeppelin/contracts/access/Ownable.sol\":2270:2457  function _transferOwnership(address newOwner) internal virtual {... */\ntag_7:\n    /* \"@openzeppelin/contracts/access/Ownable.sol\":2343:2359  address oldOwner */\n  0x00\n    /* \"@openzeppelin/contracts/access/Ownable.sol\":2362:2368  _owner */\n  dup1\n  0x00\n  swap1\n  sload\n  swap1\n  0x0100\n  exp\n  swap1\n  div\n  0xffffffffffffffffffffffffffffffffffffffff\n  and\n    /* \"@openzeppelin/contracts/access/Ownable.sol\":2343:2368  address oldOwner = _owner */\n  swap1\n  pop\n    /* \"@openzeppelin/contracts/access/Ownable.sol\":2387:2395  newOwner */\n  dup2\n    /* \"@openzeppelin/contracts/access/Ownable.sol\":2378:2384  _owner */\n  0x00\n  dup1\n    /* \"@openzeppelin/contracts/access/Ownable.sol\":2378:2395  _owner = newOwner */\n  0x0100\n  exp\n  dup2\n  sload\n  dup2\n  0xffffffffffffffffffffffffffffffffffffffff\n  mul\n  not\n  and\n  swap1\n  dup4\n  0xffffffffffffffffffffffffffffffffffffffff\n  and\n  mul\n  or\n  swap1\n  sstore\n  pop\n    /* \"@openzeppelin/contracts/access/Ownable.sol\":2441:2449  newOwner */\n  dup2\n    /* \"@openzeppelin/contracts/access/Ownable.sol\":2410:2450  OwnershipTransferred(oldOwner, newOwner) */\n  0xffffffffffffffffffffffffffffffffffffffff\n  and\n    /* \"@openzeppelin/contracts/access/Ownable.sol\":2431:2439  oldOwner */\n  dup2\n    /* \"@openzeppelin/contracts/access/Ownable.sol\":2410:2450  OwnershipTransferred(oldOwner, newOwner) */\n  0xffffffffffffffffffffffffffffffffffffffff\n  and\n  0x8be0079c531659141344cd1fd0a4f28419497f9722a3daafe3b4186f6b6457e0\n  mload(0x40)\n  mload(0x40)\n  dup1\n  swap2\n  sub\n  swap1\n  log3\n    /* \"@openzeppelin/contracts/access/Ownable.sol\":2333:2457  {... */\n  pop\n    /* \"@openzeppelin/contracts/access/Ownable.sol\":2270:2457  function _transferOwnership(address newOwner) internal virtual {... */\n  pop\n  jump\t// out\n    /* \"contracts/KYCManager.sol\":609:3916  contract KYCManager is Ownable {... */\ntag_8:\n  dataSize(sub_0)\n  dup1\n  dataOffset(sub_0)\n  0x00\n  codecopy\n  0x00\n  return\nstop\n\nsub_0: assembly {\n        /* \"contracts/KYCManager.sol\":609:3916  contract KYCManager is Ownable {... */\n      mstore(0x40, 0x80)\n      callvalue\n      dup1\n      iszero\n      tag_1\n      jumpi\n      0x00\n      dup1\n      revert\n    tag_1:\n      pop\n      jumpi(tag_2, lt(calldatasize, 0x04))\n      shr(0xe0, calldataload(0x00))\n      dup1\n      0xad575035\n      gt\n      tag_19\n      jumpi\n      dup1\n      0xd6f70eb3\n      gt\n      tag_20\n      jumpi\n      dup1\n      0xd6f70eb3\n      eq\n      tag_15\n      jumpi\n      dup1\n      0xf2fde38b\n      eq\n      tag_16\n      jumpi\n      dup1\n      0xfa0e9e41\n      eq\n      tag_17\n      jumpi\n      dup1\n      0xfbc2cf13\n      eq\n      tag_18\n      jumpi\n      jump(tag_2)\n    tag_20:\n      dup1\n      0xad575035\n      eq\n      tag_11\n      jumpi\n      dup1\n      0xb2b72bc4\n      eq\n      tag_12\n      jumpi\n      dup1\n      0xbafdee14\n      eq\n      tag_13\n      jumpi\n      dup1\n      0xd1933ddd\n      eq\n      tag_14\n      jumpi\n      jump(tag_2)\n    tag_19:\n      dup1\n      0x715018a6\n      gt\n      tag_21\n      jumpi\n      dup1\n      0x715018a6\n      eq\n      tag_7\n      jumpi\n      dup1\n      0x717b9b6c\n      eq\n      tag_8\n      jumpi\n      dup1\n      0x8da5cb5b\n      eq\n      tag_9\n      jumpi\n      dup1\n      0x917b8fd0\n      eq\n      tag_10\n      jumpi\n      jump(tag_2)\n    tag_21:\n      dup1\n      0x0e197dc9\n      eq\n      tag_3\n      jumpi\n      dup1\n      0x3960a892\n      eq\n      tag_4\n      jumpi\n      dup1\n      0x4b3cef44\n      eq\n      tag_5\n      jumpi\n      dup1\n      0x622a47e6\n      eq\n      tag_6\n      jumpi\n    tag_2:\n      0x00\n      dup1\n      revert\n        /* \"contracts/KYCManager.sol\":3635:3741  function availableOfNFTId(uint NFTid) public view returns(bool){... */\n    tag_3:\n      tag_22\n      0x04\n      dup1\n      calldatasize\n      sub\n      dup2\n      add\n      swap1\n      tag_23\n      swap2\n      swap1\n      tag_24\n      jump\t// in\n    tag_23:\n      tag_25\n      jump\t// in\n    tag_22:\n      mload(0x40)\n      tag_26\n      swap2\n      swap1\n      tag_27\n      jump\t// in\n    tag_26:\n      mload(0x40)\n      dup1\n      swap2\n      sub\n      swap1\n      return\n        /* \"contracts/KYCManager.sol\":1959:2118  function initManagerAddr(uint NFTid, address manager) public onlyOwner {... */\n    tag_4:\n      tag_28\n      0x04\n      dup1\n      calldatasize\n      sub\n      dup2\n      add\n      swap1\n      tag_29\n      swap2\n      swap1\n      tag_30\n      jump\t// in\n    tag_29:\n      tag_31\n      jump\t// in\n    tag_28:\n      stop\n        /* \"contracts/KYCManager.sol\":3110:3243  function managerOfNFTId(uint NFTid) public view returns(address) {... */\n    tag_5:\n      tag_32\n      0x04\n      dup1\n      calldatasize\n      sub\n      dup2\n      add\n      swap1\n      tag_33\n      swap2\n      swap1\n      tag_24\n      jump\t// in\n    tag_33:\n      tag_34\n      jump\t// in\n    tag_32:\n      mload(0x40)\n      tag_35\n      swap2\n      swap1\n      tag_36\n      jump\t// in\n    tag_35:\n      mload(0x40)\n      dup1\n      swap2\n      sub\n      swap1\n      return\n        /* \"contracts/KYCManager.sol\":2124:2413  function modifyManagerAddr(uint NFTid, address newManager) public onlyManagerOf(NFTid) {... */\n    tag_6:\n      tag_37\n      0x04\n      dup1\n      calldatasize\n      sub\n      dup2\n      add\n      swap1\n      tag_38\n      swap2\n      swap1\n      tag_30\n      jump\t// in\n    tag_38:\n      tag_39\n      jump\t// in\n    tag_37:\n      stop\n        /* \"@openzeppelin/contracts/access/Ownable.sol\":1668:1769  function renounceOwnership() public virtual onlyOwner {... */\n    tag_7:\n      tag_40\n      tag_41\n      jump\t// in\n    tag_40:\n      stop\n        /* \"contracts/KYCManager.sol\":1795:1920  function setNFTAvailableOfNFTId(uint NFTid, bool _available)  public onlyOwner{... */\n    tag_8:\n      tag_42\n      0x04\n      dup1\n      calldatasize\n      sub\n      dup2\n      add\n      swap1\n      tag_43\n      swap2\n      swap1\n      tag_44\n      jump\t// in\n    tag_43:\n      tag_45\n      jump\t// in\n    tag_42:\n      stop\n        /* \"@openzeppelin/contracts/access/Ownable.sol\":1036:1121  function owner() public view virtual returns (address) {... */\n    tag_9:\n      tag_46\n      tag_47\n      jump\t// in\n    tag_46:\n      mload(0x40)\n      tag_48\n      swap2\n      swap1\n      tag_36\n      jump\t// in\n    tag_48:\n      mload(0x40)\n      dup1\n      swap2\n      sub\n      swap1\n      return\n        /* \"contracts/KYCManager.sol\":3247:3450  function userDataOfNFTId(uint NFTid) public view returns(UserData memory){... */\n    tag_10:\n      tag_49\n      0x04\n      dup1\n      calldatasize\n      sub\n      dup2\n      add\n      swap1\n      tag_50\n      swap2\n      swap1\n      tag_24\n      jump\t// in\n    tag_50:\n      tag_51\n      jump\t// in\n    tag_49:\n      mload(0x40)\n      tag_52\n      swap2\n      swap1\n      tag_53\n      jump\t// in\n    tag_52:\n      mload(0x40)\n      dup1\n      swap2\n      sub\n      swap1\n      return\n        /* \"contracts/KYCManager.sol\":3454:3631  function userDataOfManager(address managerAddr) public view returns(UserData memory){... */\n    tag_11:\n      tag_54\n      0x04\n      dup1\n      calldatasize\n      sub\n      dup2\n      add\n      swap1\n      tag_55\n      swap2\n      swap1\n      tag_56\n      jump\t// in\n    tag_55:\n      tag_57\n      jump\t// in\n    tag_54:\n      mload(0x40)\n      tag_58\n      swap2\n      swap1\n      tag_53\n      jump\t// in\n    tag_58:\n      mload(0x40)\n      dup1\n      swap2\n      sub\n      swap1\n      return\n        /* \"contracts/KYCManager.sol\":3745:3914  function NFTIdOfManager(address managerAddr) public view returns(uint){... */\n    tag_12:\n      tag_59\n      0x04\n      dup1\n      calldatasize\n      sub\n      dup2\n      add\n      swap1\n      tag_60\n      swap2\n      swap1\n      tag_56\n      jump\t// in\n    tag_60:\n      tag_61\n      jump\t// in\n    tag_59:\n      mload(0x40)\n      tag_62\n      swap2\n      swap1\n      tag_63\n      jump\t// in\n    tag_62:\n      mload(0x40)\n      dup1\n      swap2\n      sub\n      swap1\n      return\n        /* \"contracts/KYCManager.sol\":2450:2701  function updateAccumulator(string memory _accumulator, string memory _n, uint256 _g) public {... */\n    tag_13:\n      tag_64\n      0x04\n      dup1\n      calldatasize\n      sub\n      dup2\n      add\n      swap1\n      tag_65\n      swap2\n      swap1\n      tag_66\n      jump\t// in\n    tag_65:\n      tag_67\n      jump\t// in\n    tag_64:\n      stop\n        /* \"contracts/KYCManager.sol\":1319:1786  function createKYCNFT(string memory tokenUrl, address manager, uint expirationTime) public onlyOwner{... */\n    tag_14:\n      tag_68\n      0x04\n      dup1\n      calldatasize\n      sub\n      dup2\n      add\n      swap1\n      tag_69\n      swap2\n      swap1\n      tag_70\n      jump\t// in\n    tag_69:\n      tag_71\n      jump\t// in\n    tag_68:\n      stop\n        /* \"contracts/KYCManager.sol\":2895:3075  function updateAccumulatorValue(string memory _accumulator) public {... */\n    tag_15:\n      tag_72\n      0x04\n      dup1\n      calldatasize\n      sub\n      dup2\n      add\n      swap1\n      tag_73\n      swap2\n      swap1\n      tag_74\n      jump\t// in\n    tag_73:\n      tag_75\n      jump\t// in\n    tag_72:\n      stop\n        /* \"@openzeppelin/contracts/access/Ownable.sol\":1918:2116  function transferOwnership(address newOwner) public virtual onlyOwner {... */\n    tag_16:\n      tag_76\n      0x04\n      dup1\n      calldatasize\n      sub\n      dup2\n      add\n      swap1\n      tag_77\n      swap2\n      swap1\n      tag_56\n      jump\t// in\n    tag_77:\n      tag_78\n      jump\t// in\n    tag_76:\n      stop\n        /* \"contracts/KYCManager.sol\":2705:2891  function updateAccumulatorPublicKey(string memory _n, uint _g) public {... */\n    tag_17:\n      tag_79\n      0x04\n      dup1\n      calldatasize\n      sub\n      dup2\n      add\n      swap1\n      tag_80\n      swap2\n      swap1\n      tag_81\n      jump\t// in\n    tag_80:\n      tag_82\n      jump\t// in\n    tag_79:\n      stop\n        /* \"contracts/KYCManager.sol\":1163:1307  function setKYCNFTContractAddress(address _kycnftContractAddr) public onlyOwner {... */\n    tag_18:\n      tag_83\n      0x04\n      dup1\n      calldatasize\n      sub\n      dup2\n      add\n      swap1\n      tag_84\n      swap2\n      swap1\n      tag_56\n      jump\t// in\n    tag_84:\n      tag_85\n      jump\t// in\n    tag_83:\n      stop\n        /* \"contracts/KYCManager.sol\":3635:3741  function availableOfNFTId(uint NFTid) public view returns(bool){... */\n    tag_25:\n        /* \"contracts/KYCManager.sol\":3693:3697  bool */\n      0x00\n        /* \"contracts/KYCManager.sol\":3713:3729  NFTIdToAvailable */\n      0x05\n        /* \"contracts/KYCManager.sol\":3713:3736  NFTIdToAvailable[NFTid] */\n      0x00\n        /* \"contracts/KYCManager.sol\":3730:3735  NFTid */\n      dup4\n        /* \"contracts/KYCManager.sol\":3713:3736  NFTIdToAvailable[NFTid] */\n      dup2\n      mstore\n      0x20\n      add\n      swap1\n      dup2\n      mstore\n      0x20\n      add\n      0x00\n      keccak256\n      0x00\n      swap1\n      sload\n      swap1\n      0x0100\n      exp\n      swap1\n      div\n      0xff\n      and\n        /* \"contracts/KYCManager.sol\":3706:3736  return NFTIdToAvailable[NFTid] */\n      swap1\n      pop\n        /* \"contracts/KYCManager.sol\":3635:3741  function availableOfNFTId(uint NFTid) public view returns(bool){... */\n      swap2\n      swap1\n      pop\n      jump\t// out\n        /* \"contracts/KYCManager.sol\":1959:2118  function initManagerAddr(uint NFTid, address manager) public onlyOwner {... */\n    tag_31:\n        /* \"@openzeppelin/contracts/access/Ownable.sol\":1259:1271  _msgSender() */\n      tag_88\n        /* \"@openzeppelin/contracts/access/Ownable.sol\":1259:1269  _msgSender */\n      tag_89\n        /* \"@openzeppelin/contracts/access/Ownable.sol\":1259:1271  _msgSender() */\n      jump\t// in\n    tag_88:\n        /* \"@openzeppelin/contracts/access/Ownable.sol\":1248:1271  owner() == _msgSender() */\n      0xffffffffffffffffffffffffffffffffffffffff\n      and\n        /* \"@openzeppelin/contracts/access/Ownable.sol\":1248:1255  owner() */\n      tag_90\n        /* \"@openzeppelin/contracts/access/Ownable.sol\":1248:1253  owner */\n      tag_47\n        /* \"@openzeppelin/contracts/access/Ownable.sol\":1248:1255  owner() */\n      jump\t// in\n    tag_90:\n        /* \"@openzeppelin/contracts/access/Ownable.sol\":1248:1271  owner() == _msgSender() */\n      0xffffffffffffffffffffffffffffffffffffffff\n      and\n      eq\n        /* \"@openzeppelin/contracts/access/Ownable.sol\":1240:1308  require(owner() == _msgSender(), \"Ownable: caller is not the owner\") */\n      tag_91\n      jumpi\n      mload(0x40)\n      0x08c379a000000000000000000000000000000000000000000000000000000000\n      dup2\n      mstore\n      0x04\n      add\n      tag_92\n      swap1\n      tag_93\n      jump\t// in\n    tag_92:\n      mload(0x40)\n      dup1\n      swap2\n      sub\n      swap1\n      revert\n    tag_91:\n        /* \"contracts/KYCManager.sol\":2060:2067  manager */\n      dup1\n        /* \"contracts/KYCManager.sol\":2036:2050  NFTIdToManager */\n      0x03\n        /* \"contracts/KYCManager.sol\":2036:2057  NFTIdToManager[NFTid] */\n      0x00\n        /* \"contracts/KYCManager.sol\":2051:2056  NFTid */\n      dup5\n        /* \"contracts/KYCManager.sol\":2036:2057  NFTIdToManager[NFTid] */\n      dup2\n      mstore\n      0x20\n      add\n      swap1\n      dup2\n      mstore\n      0x20\n      add\n      0x00\n      keccak256\n      0x00\n        /* \"contracts/KYCManager.sol\":2036:2067  NFTIdToManager[NFTid] = manager */\n      0x0100\n      exp\n      dup2\n      sload\n      dup2\n      0xffffffffffffffffffffffffffffffffffffffff\n      mul\n      not\n      and\n      swap1\n      dup4\n      0xffffffffffffffffffffffffffffffffffffffff\n      and\n      mul\n      or\n      swap1\n      sstore\n      pop\n        /* \"contracts/KYCManager.sol\":2108:2113  NFTid */\n      dup2\n        /* \"contracts/KYCManager.sol\":2073:2090  ManagerToUserData */\n      0x04\n        /* \"contracts/KYCManager.sol\":2073:2099  ManagerToUserData[manager] */\n      0x00\n        /* \"contracts/KYCManager.sol\":2091:2098  manager */\n      dup4\n        /* \"contracts/KYCManager.sol\":2073:2099  ManagerToUserData[manager] */\n      0xffffffffffffffffffffffffffffffffffffffff\n      and\n      0xffffffffffffffffffffffffffffffffffffffff\n      and\n      dup2\n      mstore\n      0x20\n      add\n      swap1\n      dup2\n      mstore\n      0x20\n      add\n      0x00\n      keccak256\n        /* \"contracts/KYCManager.sol\":2073:2105  ManagerToUserData[manager].NFTid */\n      0x00\n      add\n        /* \"contracts/KYCManager.sol\":2073:2113  ManagerToUserData[manager].NFTid = NFTid */\n      dup2\n      swap1\n      sstore\n      pop\n        /* \"contracts/KYCManager.sol\":1959:2118  function initManagerAddr(uint NFTid, address manager) public onlyOwner {... */\n      pop\n      pop\n      jump\t// out\n        /* \"contracts/KYCManager.sol\":3110:3243  function managerOfNFTId(uint NFTid) public view returns(address) {... */\n    tag_34:\n        /* \"contracts/KYCManager.sol\":3166:3173  address */\n      0x00\n        /* \"contracts/KYCManager.sol\":3183:3195  address addr */\n      dup1\n        /* \"contracts/KYCManager.sol\":3198:3212  NFTIdToManager */\n      0x03\n        /* \"contracts/KYCManager.sol\":3198:3219  NFTIdToManager[NFTid] */\n      0x00\n        /* \"contracts/KYCManager.sol\":3213:3218  NFTid */\n      dup5\n        /* \"contracts/KYCManager.sol\":3198:3219  NFTIdToManager[NFTid] */\n      dup2\n      mstore\n      0x20\n      add\n      swap1\n      dup2\n      mstore\n      0x20\n      add\n      0x00\n      keccak256\n      0x00\n      swap1\n      sload\n      swap1\n      0x0100\n      exp\n      swap1\n      div\n      0xffffffffffffffffffffffffffffffffffffffff\n      and\n        /* \"contracts/KYCManager.sol\":3183:3219  address addr = NFTIdToManager[NFTid] */\n      swap1\n      pop\n        /* \"contracts/KYCManager.sol\":3234:3238  addr */\n      dup1\n        /* \"contracts/KYCManager.sol\":3227:3238  return addr */\n      swap2\n      pop\n      pop\n        /* \"contracts/KYCManager.sol\":3110:3243  function managerOfNFTId(uint NFTid) public view returns(address) {... */\n      swap2\n      swap1\n      pop\n      jump\t// out\n        /* \"contracts/KYCManager.sol\":2124:2413  function modifyManagerAddr(uint NFTid, address newManager) public onlyManagerOf(NFTid) {... */\n    tag_39:\n        /* \"contracts/KYCManager.sol\":2204:2209  NFTid */\n      dup2\n        /* \"contracts/KYCManager.sol\":1122:1136  NFTIdToManager */\n      0x03\n        /* \"contracts/KYCManager.sol\":1122:1144  NFTIdToManager[_NFTid] */\n      0x00\n        /* \"contracts/KYCManager.sol\":1137:1143  _NFTid */\n      dup3\n        /* \"contracts/KYCManager.sol\":1122:1144  NFTIdToManager[_NFTid] */\n      dup2\n      mstore\n      0x20\n      add\n      swap1\n      dup2\n      mstore\n      0x20\n      add\n      0x00\n      keccak256\n      0x00\n      swap1\n      sload\n      swap1\n      0x0100\n      exp\n      swap1\n      div\n      0xffffffffffffffffffffffffffffffffffffffff\n      and\n        /* \"contracts/KYCManager.sol\":1108:1144  msg.sender == NFTIdToManager[_NFTid] */\n      0xffffffffffffffffffffffffffffffffffffffff\n      and\n        /* \"contracts/KYCManager.sol\":1108:1118  msg.sender */\n      caller\n        /* \"contracts/KYCManager.sol\":1108:1144  msg.sender == NFTIdToManager[_NFTid] */\n      0xffffffffffffffffffffffffffffffffffffffff\n      and\n      eq\n        /* \"contracts/KYCManager.sol\":1100:1145  require(msg.sender == NFTIdToManager[_NFTid]) */\n      tag_97\n      jumpi\n      0x00\n      dup1\n      revert\n    tag_97:\n        /* \"contracts/KYCManager.sol\":2217:2235  address oldmanager */\n      0x00\n        /* \"contracts/KYCManager.sol\":2238:2252  NFTIdToManager */\n      0x03\n        /* \"contracts/KYCManager.sol\":2238:2259  NFTIdToManager[NFTid] */\n      0x00\n        /* \"contracts/KYCManager.sol\":2253:2258  NFTid */\n      dup6\n        /* \"contracts/KYCManager.sol\":2238:2259  NFTIdToManager[NFTid] */\n      dup2\n      mstore\n      0x20\n      add\n      swap1\n      dup2\n      mstore\n      0x20\n      add\n      0x00\n      keccak256\n      0x00\n      swap1\n      sload\n      swap1\n      0x0100\n      exp\n      swap1\n      div\n      0xffffffffffffffffffffffffffffffffffffffff\n      and\n        /* \"contracts/KYCManager.sol\":2217:2259  address oldmanager = NFTIdToManager[NFTid] */\n      swap1\n      pop\n        /* \"contracts/KYCManager.sol\":2265:2290  UserData storage userdata */\n      0x00\n        /* \"contracts/KYCManager.sol\":2293:2310  ManagerToUserData */\n      0x04\n        /* \"contracts/KYCManager.sol\":2293:2322  ManagerToUserData[oldmanager] */\n      0x00\n        /* \"contracts/KYCManager.sol\":2311:2321  oldmanager */\n      dup4\n        /* \"contracts/KYCManager.sol\":2293:2322  ManagerToUserData[oldmanager] */\n      0xffffffffffffffffffffffffffffffffffffffff\n      and\n      0xffffffffffffffffffffffffffffffffffffffff\n      and\n      dup2\n      mstore\n      0x20\n      add\n      swap1\n      dup2\n      mstore\n      0x20\n      add\n      0x00\n      keccak256\n        /* \"contracts/KYCManager.sol\":2265:2322  UserData storage userdata = ManagerToUserData[oldmanager] */\n      swap1\n      pop\n        /* \"contracts/KYCManager.sol\":2360:2368  userdata */\n      dup1\n        /* \"contracts/KYCManager.sol\":2328:2345  ManagerToUserData */\n      0x04\n        /* \"contracts/KYCManager.sol\":2328:2357  ManagerToUserData[newManager] */\n      0x00\n        /* \"contracts/KYCManager.sol\":2346:2356  newManager */\n      dup7\n        /* \"contracts/KYCManager.sol\":2328:2357  ManagerToUserData[newManager] */\n      0xffffffffffffffffffffffffffffffffffffffff\n      and\n      0xffffffffffffffffffffffffffffffffffffffff\n      and\n      dup2\n      mstore\n      0x20\n      add\n      swap1\n      dup2\n      mstore\n      0x20\n      add\n      0x00\n      keccak256\n        /* \"contracts/KYCManager.sol\":2328:2368  ManagerToUserData[newManager] = userdata */\n      0x00\n      dup3\n      add\n      sload\n      dup2\n      0x00\n      add\n      sstore\n      0x01\n      dup3\n      add\n      dup2\n      0x01\n      add\n      swap1\n      dup1\n      sload\n      tag_99\n      swap1\n      tag_100\n      jump\t// in\n    tag_99:\n      tag_101\n      swap3\n      swap2\n      swap1\n      tag_102\n      jump\t// in\n    tag_101:\n      pop\n      0x02\n      dup3\n      add\n      dup2\n      0x02\n      add\n      swap1\n      dup1\n      sload\n      tag_103\n      swap1\n      tag_100\n      jump\t// in\n    tag_103:\n      tag_104\n      swap3\n      swap2\n      swap1\n      tag_102\n      jump\t// in\n    tag_104:\n      pop\n      0x03\n      dup3\n      add\n      sload\n      dup2\n      0x03\n      add\n      sstore\n      swap1\n      pop\n      pop\n        /* \"contracts/KYCManager.sol\":2398:2408  newManager */\n      dup4\n        /* \"contracts/KYCManager.sol\":2374:2388  NFTIdToManager */\n      0x03\n        /* \"contracts/KYCManager.sol\":2374:2395  NFTIdToManager[NFTid] */\n      0x00\n        /* \"contracts/KYCManager.sol\":2389:2394  NFTid */\n      dup8\n        /* \"contracts/KYCManager.sol\":2374:2395  NFTIdToManager[NFTid] */\n      dup2\n      mstore\n      0x20\n      add\n      swap1\n      dup2\n      mstore\n      0x20\n      add\n      0x00\n      keccak256\n      0x00\n        /* \"contracts/KYCManager.sol\":2374:2408  NFTIdToManager[NFTid] = newManager */\n      0x0100\n      exp\n      dup2\n      sload\n      dup2\n      0xffffffffffffffffffffffffffffffffffffffff\n      mul\n      not\n      and\n      swap1\n      dup4\n      0xffffffffffffffffffffffffffffffffffffffff\n      and\n      mul\n      or\n      swap1\n      sstore\n      pop\n        /* \"contracts/KYCManager.sol\":2211:2413  {... */\n      pop\n      pop\n        /* \"contracts/KYCManager.sol\":2124:2413  function modifyManagerAddr(uint NFTid, address newManager) public onlyManagerOf(NFTid) {... */\n      pop\n      pop\n      pop\n      jump\t// out\n        /* \"@openzeppelin/contracts/access/Ownable.sol\":1668:1769  function renounceOwnership() public virtual onlyOwner {... */\n    tag_41:\n        /* \"@openzeppelin/contracts/access/Ownable.sol\":1259:1271  _msgSender() */\n      tag_106\n        /* \"@openzeppelin/contracts/access/Ownable.sol\":1259:1269  _msgSender */\n      tag_89\n        /* \"@openzeppelin/contracts/access/Ownable.sol\":1259:1271  _msgSender() */\n      jump\t// in\n    tag_106:\n        /* \"@openzeppelin/contracts/access/Ownable.sol\":1248:1271  owner() == _msgSender() */\n      0xffffffffffffffffffffffffffffffffffffffff\n      and\n        /* \"@openzeppelin/contracts/access/Ownable.sol\":1248:1255  owner() */\n      tag_107\n        /* \"@openzeppelin/contracts/access/Ownable.sol\":1248:1253  owner */\n      tag_47\n        /* \"@openzeppelin/contracts/access/Ownable.sol\":1248:1255  owner() */\n      jump\t// in\n    tag_107:\n        /* \"@openzeppelin/contracts/access/Ownable.sol\":1248:1271  owner() == _msgSender() */\n      0xffffffffffffffffffffffffffffffffffffffff\n      and\n      eq\n        /* \"@openzeppelin/contracts/access/Ownable.sol\":1240:1308  require(owner() == _msgSender(), \"Ownable: caller is not the owner\") */\n      tag_108\n      jumpi\n      mload(0x40)\n      0x08c379a000000000000000000000000000000000000000000000000000000000\n      dup2\n      mstore\n      0x04\n      add\n      tag_109\n      swap1\n      tag_93\n      jump\t// in\n    tag_109:\n      mload(0x40)\n      dup1\n      swap2\n      sub\n      swap1\n      revert\n    tag_108:\n        /* \"@openzeppelin/contracts/access/Ownable.sol\":1732:1762  _transferOwnership(address(0)) */\n      tag_111\n        /* \"@openzeppelin/contracts/access/Ownable.sol\":1759:1760  0 */\n      0x00\n        /* \"@openzeppelin/contracts/access/Ownable.sol\":1732:1750  _transferOwnership */\n      tag_112\n        /* \"@openzeppelin/contracts/access/Ownable.sol\":1732:1762  _transferOwnership(address(0)) */\n      jump\t// in\n    tag_111:\n        /* \"@openzeppelin/contracts/access/Ownable.sol\":1668:1769  function renounceOwnership() public virtual onlyOwner {... */\n      jump\t// out\n        /* \"contracts/KYCManager.sol\":1795:1920  function setNFTAvailableOfNFTId(uint NFTid, bool _available)  public onlyOwner{... */\n    tag_45:\n        /* \"@openzeppelin/contracts/access/Ownable.sol\":1259:1271  _msgSender() */\n      tag_114\n        /* \"@openzeppelin/contracts/access/Ownable.sol\":1259:1269  _msgSender */\n      tag_89\n        /* \"@openzeppelin/contracts/access/Ownable.sol\":1259:1271  _msgSender() */\n      jump\t// in\n    tag_114:\n        /* \"@openzeppelin/contracts/access/Ownable.sol\":1248:1271  owner() == _msgSender() */\n      0xffffffffffffffffffffffffffffffffffffffff\n      and\n        /* \"@openzeppelin/contracts/access/Ownable.sol\":1248:1255  owner() */\n      tag_115\n        /* \"@openzeppelin/contracts/access/Ownable.sol\":1248:1253  owner */\n      tag_47\n        /* \"@openzeppelin/contracts/access/Ownable.sol\":1248:1255  owner() */\n      jump\t// in\n    tag_115:\n        /* \"@openzeppelin/contracts/access/Ownable.sol\":1248:1271  owner() == _msgSender() */\n      0xffffffffffffffffffffffffffffffffffffffff\n      and\n      eq\n        /* \"@openzeppelin/contracts/access/Ownable.sol\":1240:1308  require(owner() == _msgSender(), \"Ownable: caller is not the owner\") */\n      tag_116\n      jumpi\n      mload(0x40)\n      0x08c379a000000000000000000000000000000000000000000000000000000000\n      dup2\n      mstore\n      0x04\n      add\n      tag_117\n      swap1\n      tag_93\n      jump\t// in\n    tag_117:\n      mload(0x40)\n      dup1\n      swap2\n      sub\n      swap1\n      revert\n    tag_116:\n        /* \"contracts/KYCManager.sol\":1905:1915  _available */\n      dup1\n        /* \"contracts/KYCManager.sol\":1879:1895  NFTIdToAvailable */\n      0x05\n        /* \"contracts/KYCManager.sol\":1879:1902  NFTIdToAvailable[NFTid] */\n      0x00\n        /* \"contracts/KYCManager.sol\":1896:1901  NFTid */\n      dup5\n        /* \"contracts/KYCManager.sol\":1879:1902  NFTIdToAvailable[NFTid] */\n      dup2\n      mstore\n      0x20\n      add\n      swap1\n      dup2\n      mstore\n      0x20\n      add\n      0x00\n      keccak256\n      0x00\n        /* \"contracts/KYCManager.sol\":1879:1915  NFTIdToAvailable[NFTid] = _available */\n      0x0100\n      exp\n      dup2\n      sload\n      dup2\n      0xff\n      mul\n      not\n      and\n      swap1\n      dup4\n      iszero\n      iszero\n      mul\n      or\n      swap1\n      sstore\n      pop\n        /* \"contracts/KYCManager.sol\":1795:1920  function setNFTAvailableOfNFTId(uint NFTid, bool _available)  public onlyOwner{... */\n      pop\n      pop\n      jump\t// out\n        /* \"@openzeppelin/contracts/access/Ownable.sol\":1036:1121  function owner() public view virtual returns (address) {... */\n    tag_47:\n        /* \"@openzeppelin/contracts/access/Ownable.sol\":1082:1089  address */\n      0x00\n        /* \"@openzeppelin/contracts/access/Ownable.sol\":1108:1114  _owner */\n      dup1\n      0x00\n      swap1\n      sload\n      swap1\n      0x0100\n      exp\n      swap1\n      div\n      0xffffffffffffffffffffffffffffffffffffffff\n      and\n        /* \"@openzeppelin/contracts/access/Ownable.sol\":1101:1114  return _owner */\n      swap1\n      pop\n        /* \"@openzeppelin/contracts/access/Ownable.sol\":1036:1121  function owner() public view virtual returns (address) {... */\n      swap1\n      jump\t// out\n        /* \"contracts/KYCManager.sol\":3247:3450  function userDataOfNFTId(uint NFTid) public view returns(UserData memory){... */\n    tag_51:\n        /* \"contracts/KYCManager.sol\":3304:3319  UserData memory */\n      tag_120\n      tag_121\n      jump\t// in\n    tag_120:\n        /* \"contracts/KYCManager.sol\":3328:3340  address addr */\n      0x00\n        /* \"contracts/KYCManager.sol\":3343:3357  NFTIdToManager */\n      0x03\n        /* \"contracts/KYCManager.sol\":3343:3364  NFTIdToManager[NFTid] */\n      0x00\n        /* \"contracts/KYCManager.sol\":3358:3363  NFTid */\n      dup5\n        /* \"contracts/KYCManager.sol\":3343:3364  NFTIdToManager[NFTid] */\n      dup2\n      mstore\n      0x20\n      add\n      swap1\n      dup2\n      mstore\n      0x20\n      add\n      0x00\n      keccak256\n      0x00\n      swap1\n      sload\n      swap1\n      0x0100\n      exp\n      swap1\n      div\n      0xffffffffffffffffffffffffffffffffffffffff\n      and\n        /* \"contracts/KYCManager.sol\":3328:3364  address addr = NFTIdToManager[NFTid] */\n      swap1\n      pop\n        /* \"contracts/KYCManager.sol\":3372:3396  UserData memory userdata */\n      0x00\n        /* \"contracts/KYCManager.sol\":3399:3416  ManagerToUserData */\n      0x04\n        /* \"contracts/KYCManager.sol\":3399:3422  ManagerToUserData[addr] */\n      0x00\n        /* \"contracts/KYCManager.sol\":3417:3421  addr */\n      dup4\n        /* \"contracts/KYCManager.sol\":3399:3422  ManagerToUserData[addr] */\n      0xffffffffffffffffffffffffffffffffffffffff\n      and\n      0xffffffffffffffffffffffffffffffffffffffff\n      and\n      dup2\n      mstore\n      0x20\n      add\n      swap1\n      dup2\n      mstore\n      0x20\n      add\n      0x00\n      keccak256\n        /* \"contracts/KYCManager.sol\":3372:3422  UserData memory userdata = ManagerToUserData[addr] */\n      mload(0x40)\n      dup1\n      0x80\n      add\n      0x40\n      mstore\n      swap1\n      dup2\n      0x00\n      dup3\n      add\n      sload\n      dup2\n      mstore\n      0x20\n      add\n      0x01\n      dup3\n      add\n      dup1\n      sload\n      tag_123\n      swap1\n      tag_100\n      jump\t// in\n    tag_123:\n      dup1\n      0x1f\n      add\n      0x20\n      dup1\n      swap2\n      div\n      mul\n      0x20\n      add\n      mload(0x40)\n      swap1\n      dup2\n      add\n      0x40\n      mstore\n      dup1\n      swap3\n      swap2\n      swap1\n      dup2\n      dup2\n      mstore\n      0x20\n      add\n      dup3\n      dup1\n      sload\n      tag_124\n      swap1\n      tag_100\n      jump\t// in\n    tag_124:\n      dup1\n      iszero\n      tag_125\n      jumpi\n      dup1\n      0x1f\n      lt\n      tag_126\n      jumpi\n      0x0100\n      dup1\n      dup4\n      sload\n      div\n      mul\n      dup4\n      mstore\n      swap2\n      0x20\n      add\n      swap2\n      jump(tag_125)\n    tag_126:\n      dup3\n      add\n      swap2\n      swap1\n      0x00\n      mstore\n      keccak256(0x00, 0x20)\n      swap1\n    tag_127:\n      dup2\n      sload\n      dup2\n      mstore\n      swap1\n      0x01\n      add\n      swap1\n      0x20\n      add\n      dup1\n      dup4\n      gt\n      tag_127\n      jumpi\n      dup3\n      swap1\n      sub\n      0x1f\n      and\n      dup3\n      add\n      swap2\n    tag_125:\n      pop\n      pop\n      pop\n      pop\n      pop\n      dup2\n      mstore\n      0x20\n      add\n      0x02\n      dup3\n      add\n      dup1\n      sload\n      tag_128\n      swap1\n      tag_100\n      jump\t// in\n    tag_128:\n      dup1\n      0x1f\n      add\n      0x20\n      dup1\n      swap2\n      div\n      mul\n      0x20\n      add\n      mload(0x40)\n      swap1\n      dup2\n      add\n      0x40\n      mstore\n      dup1\n      swap3\n      swap2\n      swap1\n      dup2\n      dup2\n      mstore\n      0x20\n      add\n      dup3\n      dup1\n      sload\n      tag_129\n      swap1\n      tag_100\n      jump\t// in\n    tag_129:\n      dup1\n      iszero\n      tag_130\n      jumpi\n      dup1\n      0x1f\n      lt\n      tag_131\n      jumpi\n      0x0100\n      dup1\n      dup4\n      sload\n      div\n      mul\n      dup4\n      mstore\n      swap2\n      0x20\n      add\n      swap2\n      jump(tag_130)\n    tag_131:\n      dup3\n      add\n      swap2\n      swap1\n      0x00\n      mstore\n      keccak256(0x00, 0x20)\n      swap1\n    tag_132:\n      dup2\n      sload\n      dup2\n      mstore\n      swap1\n      0x01\n      add\n      swap1\n      0x20\n      add\n      dup1\n      dup4\n      gt\n      tag_132\n      jumpi\n      dup3\n      swap1\n      sub\n      0x1f\n      and\n      dup3\n      add\n      swap2\n    tag_130:\n      pop\n      pop\n      pop\n      pop\n      pop\n      dup2\n      mstore\n      0x20\n      add\n      0x03\n      dup3\n      add\n      sload\n      dup2\n      mstore\n      pop\n      pop\n      swap1\n      pop\n        /* \"contracts/KYCManager.sol\":3437:3445  userdata */\n      dup1\n        /* \"contracts/KYCManager.sol\":3430:3445  return userdata */\n      swap3\n      pop\n      pop\n      pop\n        /* \"contracts/KYCManager.sol\":3247:3450  function userDataOfNFTId(uint NFTid) public view returns(UserData memory){... */\n      swap2\n      swap1\n      pop\n      jump\t// out\n        /* \"contracts/KYCManager.sol\":3454:3631  function userDataOfManager(address managerAddr) public view returns(UserData memory){... */\n    tag_57:\n        /* \"contracts/KYCManager.sol\":3522:3537  UserData memory */\n      tag_133\n      tag_121\n      jump\t// in\n    tag_133:\n        /* \"contracts/KYCManager.sol\":3546:3570  UserData memory userdata */\n      0x00\n        /* \"contracts/KYCManager.sol\":3573:3590  ManagerToUserData */\n      0x04\n        /* \"contracts/KYCManager.sol\":3573:3603  ManagerToUserData[managerAddr] */\n      0x00\n        /* \"contracts/KYCManager.sol\":3591:3602  managerAddr */\n      dup5\n        /* \"contracts/KYCManager.sol\":3573:3603  ManagerToUserData[managerAddr] */\n      0xffffffffffffffffffffffffffffffffffffffff\n      and\n      0xffffffffffffffffffffffffffffffffffffffff\n      and\n      dup2\n      mstore\n      0x20\n      add\n      swap1\n      dup2\n      mstore\n      0x20\n      add\n      0x00\n      keccak256\n        /* \"contracts/KYCManager.sol\":3546:3603  UserData memory userdata = ManagerToUserData[managerAddr] */\n      mload(0x40)\n      dup1\n      0x80\n      add\n      0x40\n      mstore\n      swap1\n      dup2\n      0x00\n      dup3\n      add\n      sload\n      dup2\n      mstore\n      0x20\n      add\n      0x01\n      dup3\n      add\n      dup1\n      sload\n      tag_135\n      swap1\n      tag_100\n      jump\t// in\n    tag_135:\n      dup1\n      0x1f\n      add\n      0x20\n      dup1\n      swap2\n      div\n      mul\n      0x20\n      add\n      mload(0x40)\n      swap1\n      dup2\n      add\n      0x40\n      mstore\n      dup1\n      swap3\n      swap2\n      swap1\n      dup2\n      dup2\n      mstore\n      0x20\n      add\n      dup3\n      dup1\n      sload\n      tag_136\n      swap1\n      tag_100\n      jump\t// in\n    tag_136:\n      dup1\n      iszero\n      tag_137\n      jumpi\n      dup1\n      0x1f\n      lt\n      tag_138\n      jumpi\n      0x0100\n      dup1\n      dup4\n      sload\n      div\n      mul\n      dup4\n      mstore\n      swap2\n      0x20\n      add\n      swap2\n      jump(tag_137)\n    tag_138:\n      dup3\n      add\n      swap2\n      swap1\n      0x00\n      mstore\n      keccak256(0x00, 0x20)\n      swap1\n    tag_139:\n      dup2\n      sload\n      dup2\n      mstore\n      swap1\n      0x01\n      add\n      swap1\n      0x20\n      add\n      dup1\n      dup4\n      gt\n      tag_139\n      jumpi\n      dup3\n      swap1\n      sub\n      0x1f\n      and\n      dup3\n      add\n      swap2\n    tag_137:\n      pop\n      pop\n      pop\n      pop\n      pop\n      dup2\n      mstore\n      0x20\n      add\n      0x02\n      dup3\n      add\n      dup1\n      sload\n      tag_140\n      swap1\n      tag_100\n      jump\t// in\n    tag_140:\n      dup1\n      0x1f\n      add\n      0x20\n      dup1\n      swap2\n      div\n      mul\n      0x20\n      add\n      mload(0x40)\n      swap1\n      dup2\n      add\n      0x40\n      mstore\n      dup1\n      swap3\n      swap2\n      swap1\n      dup2\n      dup2\n      mstore\n      0x20\n      add\n      dup3\n      dup1\n      sload\n      tag_141\n      swap1\n      tag_100\n      jump\t// in\n    tag_141:\n      dup1\n      iszero\n      tag_142\n      jumpi\n      dup1\n      0x1f\n      lt\n      tag_143\n      jumpi\n      0x0100\n      dup1\n      dup4\n      sload\n      div\n      mul\n      dup4\n      mstore\n      swap2\n      0x20\n      add\n      swap2\n      jump(tag_142)\n    tag_143:\n      dup3\n      add\n      swap2\n      swap1\n      0x00\n      mstore\n      keccak256(0x00, 0x20)\n      swap1\n    tag_144:\n      dup2\n      sload\n      dup2\n      mstore\n      swap1\n      0x01\n      add\n      swap1\n      0x20\n      add\n      dup1\n      dup4\n      gt\n      tag_144\n      jumpi\n      dup3\n      swap1\n      sub\n      0x1f\n      and\n      dup3\n      add\n      swap2\n    tag_142:\n      pop\n      pop\n      pop\n      pop\n      pop\n      dup2\n      mstore\n      0x20\n      add\n      0x03\n      dup3\n      add\n      sload\n      dup2\n      mstore\n      pop\n      pop\n      swap1\n      pop\n        /* \"contracts/KYCManager.sol\":3618:3626  userdata */\n      dup1\n        /* \"contracts/KYCManager.sol\":3611:3626  return userdata */\n      swap2\n      pop\n      pop\n        /* \"contracts/KYCManager.sol\":3454:3631  function userDataOfManager(address managerAddr) public view returns(UserData memory){... */\n      swap2\n      swap1\n      pop\n      jump\t// out\n        /* \"contracts/KYCManager.sol\":3745:3914  function NFTIdOfManager(address managerAddr) public view returns(uint){... */\n    tag_61:\n        /* \"contracts/KYCManager.sol\":3810:3814  uint */\n      0x00\n        /* \"contracts/KYCManager.sol\":3823:3847  UserData memory userdata */\n      dup1\n        /* \"contracts/KYCManager.sol\":3850:3867  ManagerToUserData */\n      0x04\n        /* \"contracts/KYCManager.sol\":3850:3880  ManagerToUserData[managerAddr] */\n      0x00\n        /* \"contracts/KYCManager.sol\":3868:3879  managerAddr */\n      dup5\n        /* \"contracts/KYCManager.sol\":3850:3880  ManagerToUserData[managerAddr] */\n      0xffffffffffffffffffffffffffffffffffffffff\n      and\n      0xffffffffffffffffffffffffffffffffffffffff\n      and\n      dup2\n      mstore\n      0x20\n      add\n      swap1\n      dup2\n      mstore\n      0x20\n      add\n      0x00\n      keccak256\n        /* \"contracts/KYCManager.sol\":3823:3880  UserData memory userdata = ManagerToUserData[managerAddr] */\n      mload(0x40)\n      dup1\n      0x80\n      add\n      0x40\n      mstore\n      swap1\n      dup2\n      0x00\n      dup3\n      add\n      sload\n      dup2\n      mstore\n      0x20\n      add\n      0x01\n      dup3\n      add\n      dup1\n      sload\n      tag_146\n      swap1\n      tag_100\n      jump\t// in\n    tag_146:\n      dup1\n      0x1f\n      add\n      0x20\n      dup1\n      swap2\n      div\n      mul\n      0x20\n      add\n      mload(0x40)\n      swap1\n      dup2\n      add\n      0x40\n      mstore\n      dup1\n      swap3\n      swap2\n      swap1\n      dup2\n      dup2\n      mstore\n      0x20\n      add\n      dup3\n      dup1\n      sload\n      tag_147\n      swap1\n      tag_100\n      jump\t// in\n    tag_147:\n      dup1\n      iszero\n      tag_148\n      jumpi\n      dup1\n      0x1f\n      lt\n      tag_149\n      jumpi\n      0x0100\n      dup1\n      dup4\n      sload\n      div\n      mul\n      dup4\n      mstore\n      swap2\n      0x20\n      add\n      swap2\n      jump(tag_148)\n    tag_149:\n      dup3\n      add\n      swap2\n      swap1\n      0x00\n      mstore\n      keccak256(0x00, 0x20)\n      swap1\n    tag_150:\n      dup2\n      sload\n      dup2\n      mstore\n      swap1\n      0x01\n      add\n      swap1\n      0x20\n      add\n      dup1\n      dup4\n      gt\n      tag_150\n      jumpi\n      dup3\n      swap1\n      sub\n      0x1f\n      and\n      dup3\n      add\n      swap2\n    tag_148:\n      pop\n      pop\n      pop\n      pop\n      pop\n      dup2\n      mstore\n      0x20\n      add\n      0x02\n      dup3\n      add\n      dup1\n      sload\n      tag_151\n      swap1\n      tag_100\n      jump\t// in\n    tag_151:\n      dup1\n      0x1f\n      add\n      0x20\n      dup1\n      swap2\n      div\n      mul\n      0x20\n      add\n      mload(0x40)\n      swap1\n      dup2\n      add\n      0x40\n      mstore\n      dup1\n      swap3\n      swap2\n      swap1\n      dup2\n      dup2\n      mstore\n      0x20\n      add\n      dup3\n      dup1\n      sload\n      tag_152\n      swap1\n      tag_100\n      jump\t// in\n    tag_152:\n      dup1\n      iszero\n      tag_153\n      jumpi\n      dup1\n      0x1f\n      lt\n      tag_154\n      jumpi\n      0x0100\n      dup1\n      dup4\n      sload\n      div\n      mul\n      dup4\n      mstore\n      swap2\n      0x20\n      add\n      swap2\n      jump(tag_153)\n    tag_154:\n      dup3\n      add\n      swap2\n      swap1\n      0x00\n      mstore\n      keccak256(0x00, 0x20)\n      swap1\n    tag_155:\n      dup2\n      sload\n      dup2\n      mstore\n      swap1\n      0x01\n      add\n      swap1\n      0x20\n      add\n      dup1\n      dup4\n      gt\n      tag_155\n      jumpi\n      dup3\n      swap1\n      sub\n      0x1f\n      and\n      dup3\n      add\n      swap2\n    tag_153:\n      pop\n      pop\n      pop\n      pop\n      pop\n      dup2\n      mstore\n      0x20\n      add\n      0x03\n      dup3\n      add\n      sload\n      dup2\n      mstore\n      pop\n      pop\n      swap1\n      pop\n        /* \"contracts/KYCManager.sol\":3895:3903  userdata */\n      dup1\n        /* \"contracts/KYCManager.sol\":3895:3909  userdata.NFTid */\n      0x00\n      add\n      mload\n        /* \"contracts/KYCManager.sol\":3888:3909  return userdata.NFTid */\n      swap2\n      pop\n      pop\n        /* \"contracts/KYCManager.sol\":3745:3914  function NFTIdOfManager(address managerAddr) public view returns(uint){... */\n      swap2\n      swap1\n      pop\n      jump\t// out\n        /* \"contracts/KYCManager.sol\":2450:2701  function updateAccumulator(string memory _accumulator, string memory _n, uint256 _g) public {... */\n    tag_67:\n        /* \"contracts/KYCManager.sol\":2550:2575  UserData storage userdata */\n      0x00\n        /* \"contracts/KYCManager.sol\":2578:2595  ManagerToUserData */\n      0x04\n        /* \"contracts/KYCManager.sol\":2578:2607  ManagerToUserData[msg.sender] */\n      0x00\n        /* \"contracts/KYCManager.sol\":2596:2606  msg.sender */\n      caller\n        /* \"contracts/KYCManager.sol\":2578:2607  ManagerToUserData[msg.sender] */\n      0xffffffffffffffffffffffffffffffffffffffff\n      and\n      0xffffffffffffffffffffffffffffffffffffffff\n      and\n      dup2\n      mstore\n      0x20\n      add\n      swap1\n      dup2\n      mstore\n      0x20\n      add\n      0x00\n      keccak256\n        /* \"contracts/KYCManager.sol\":2550:2607  UserData storage userdata = ManagerToUserData[msg.sender] */\n      swap1\n      pop\n        /* \"contracts/KYCManager.sol\":2638:2650  _accumulator */\n      dup4\n        /* \"contracts/KYCManager.sol\":2615:2623  userdata */\n      dup2\n        /* \"contracts/KYCManager.sol\":2615:2635  userdata.accumulator */\n      0x01\n      add\n        /* \"contracts/KYCManager.sol\":2615:2650  userdata.accumulator = _accumulator */\n      swap1\n      dup1\n      mload\n      swap1\n      0x20\n      add\n      swap1\n      tag_157\n      swap3\n      swap2\n      swap1\n      tag_158\n      jump\t// in\n    tag_157:\n      pop\n        /* \"contracts/KYCManager.sol\":2671:2673  _n */\n      dup3\n        /* \"contracts/KYCManager.sol\":2658:2666  userdata */\n      dup2\n        /* \"contracts/KYCManager.sol\":2658:2668  userdata.n */\n      0x02\n      add\n        /* \"contracts/KYCManager.sol\":2658:2673  userdata.n = _n */\n      swap1\n      dup1\n      mload\n      swap1\n      0x20\n      add\n      swap1\n      tag_159\n      swap3\n      swap2\n      swap1\n      tag_158\n      jump\t// in\n    tag_159:\n      pop\n        /* \"contracts/KYCManager.sol\":2694:2696  _g */\n      dup2\n        /* \"contracts/KYCManager.sol\":2681:2689  userdata */\n      dup2\n        /* \"contracts/KYCManager.sol\":2681:2691  userdata.g */\n      0x03\n      add\n        /* \"contracts/KYCManager.sol\":2681:2696  userdata.g = _g */\n      dup2\n      swap1\n      sstore\n      pop\n        /* \"contracts/KYCManager.sol\":2542:2701  {... */\n      pop\n        /* \"contracts/KYCManager.sol\":2450:2701  function updateAccumulator(string memory _accumulator, string memory _n, uint256 _g) public {... */\n      pop\n      pop\n      pop\n      jump\t// out\n        /* \"contracts/KYCManager.sol\":1319:1786  function createKYCNFT(string memory tokenUrl, address manager, uint expirationTime) public onlyOwner{... */\n    tag_71:\n        /* \"@openzeppelin/contracts/access/Ownable.sol\":1259:1271  _msgSender() */\n      tag_161\n        /* \"@openzeppelin/contracts/access/Ownable.sol\":1259:1269  _msgSender */\n      tag_89\n        /* \"@openzeppelin/contracts/access/Ownable.sol\":1259:1271  _msgSender() */\n      jump\t// in\n    tag_161:\n        /* \"@openzeppelin/contracts/access/Ownable.sol\":1248:1271  owner() == _msgSender() */\n      0xffffffffffffffffffffffffffffffffffffffff\n      and\n        /* \"@openzeppelin/contracts/access/Ownable.sol\":1248:1255  owner() */\n      tag_162\n        /* \"@openzeppelin/contracts/access/Ownable.sol\":1248:1253  owner */\n      tag_47\n        /* \"@openzeppelin/contracts/access/Ownable.sol\":1248:1255  owner() */\n      jump\t// in\n    tag_162:\n        /* \"@openzeppelin/contracts/access/Ownable.sol\":1248:1271  owner() == _msgSender() */\n      0xffffffffffffffffffffffffffffffffffffffff\n      and\n      eq\n        /* \"@openzeppelin/contracts/access/Ownable.sol\":1240:1308  require(owner() == _msgSender(), \"Ownable: caller is not the owner\") */\n      tag_163\n      jumpi\n      mload(0x40)\n      0x08c379a000000000000000000000000000000000000000000000000000000000\n      dup2\n      mstore\n      0x04\n      add\n      tag_164\n      swap1\n      tag_93\n      jump\t// in\n    tag_164:\n      mload(0x40)\n      dup1\n      swap2\n      sub\n      swap1\n      revert\n    tag_163:\n        /* \"contracts/KYCManager.sol\":1458:1480  KYCNFTInterFaceAddress */\n      0x01\n      0x00\n      swap1\n      sload\n      swap1\n      0x0100\n      exp\n      swap1\n      div\n      0xffffffffffffffffffffffffffffffffffffffff\n      and\n        /* \"contracts/KYCManager.sol\":1425:1439  kycNFTContract */\n      0x02\n      0x00\n        /* \"contracts/KYCManager.sol\":1425:1481  kycNFTContract = KYCNFTInterface(KYCNFTInterFaceAddress) */\n      0x0100\n      exp\n      dup2\n      sload\n      dup2\n      0xffffffffffffffffffffffffffffffffffffffff\n      mul\n      not\n      and\n      swap1\n      dup4\n      0xffffffffffffffffffffffffffffffffffffffff\n      and\n      mul\n      or\n      swap1\n      sstore\n      pop\n        /* \"contracts/KYCManager.sol\":1529:1550  address kycnftmanager */\n      0x00\n        /* \"contracts/KYCManager.sol\":1563:1567  this */\n      address\n        /* \"contracts/KYCManager.sol\":1529:1568  address kycnftmanager = (address)(this) */\n      swap1\n      pop\n        /* \"contracts/KYCManager.sol\":1574:1587  uint256 NFTid */\n      0x00\n        /* \"contracts/KYCManager.sol\":1590:1604  kycNFTContract */\n      0x02\n      0x00\n      swap1\n      sload\n      swap1\n      0x0100\n      exp\n      swap1\n      div\n      0xffffffffffffffffffffffffffffffffffffffff\n      and\n        /* \"contracts/KYCManager.sol\":1590:1614  kycNFTContract.awardItem */\n      0xffffffffffffffffffffffffffffffffffffffff\n      and\n      0xcf378343\n        /* \"contracts/KYCManager.sol\":1615:1628  kycnftmanager */\n      dup4\n        /* \"contracts/KYCManager.sol\":1630:1638  tokenUrl */\n      dup8\n        /* \"contracts/KYCManager.sol\":1590:1639  kycNFTContract.awardItem(kycnftmanager, tokenUrl) */\n      mload(0x40)\n      dup4\n      0xffffffff\n      and\n      0xe0\n      shl\n      dup2\n      mstore\n      0x04\n      add\n      tag_166\n      swap3\n      swap2\n      swap1\n      tag_167\n      jump\t// in\n    tag_166:\n      0x20\n      mload(0x40)\n      dup1\n      dup4\n      sub\n      dup2\n      0x00\n      dup8\n      gas\n      call\n      iszero\n      dup1\n      iszero\n      tag_169\n      jumpi\n      returndatasize\n      0x00\n      dup1\n      returndatacopy\n      revert(0x00, returndatasize)\n    tag_169:\n      pop\n      pop\n      pop\n      pop\n      mload(0x40)\n      returndatasize\n      not(0x1f)\n      0x1f\n      dup3\n      add\n      and\n      dup3\n      add\n      dup1\n      0x40\n      mstore\n      pop\n      dup2\n      add\n      swap1\n      tag_170\n      swap2\n      swap1\n      tag_171\n      jump\t// in\n    tag_170:\n        /* \"contracts/KYCManager.sol\":1574:1639  uint256 NFTid = kycNFTContract.awardItem(kycnftmanager, tokenUrl) */\n      swap1\n      pop\n        /* \"contracts/KYCManager.sol\":1645:1659  kycNFTContract */\n      0x02\n      0x00\n      swap1\n      sload\n      swap1\n      0x0100\n      exp\n      swap1\n      div\n      0xffffffffffffffffffffffffffffffffffffffff\n      and\n        /* \"contracts/KYCManager.sol\":1645:1680  kycNFTContract.updateExpirationTime */\n      0xffffffffffffffffffffffffffffffffffffffff\n      and\n      0xe1b2e979\n        /* \"contracts/KYCManager.sol\":1681:1686  NFTid */\n      dup3\n        /* \"contracts/KYCManager.sol\":1688:1702  expirationTime */\n      dup6\n        /* \"contracts/KYCManager.sol\":1645:1703  kycNFTContract.updateExpirationTime(NFTid, expirationTime) */\n      mload(0x40)\n      dup4\n      0xffffffff\n      and\n      0xe0\n      shl\n      dup2\n      mstore\n      0x04\n      add\n      tag_172\n      swap3\n      swap2\n      swap1\n      tag_173\n      jump\t// in\n    tag_172:\n      0x00\n      mload(0x40)\n      dup1\n      dup4\n      sub\n      dup2\n      0x00\n      dup8\n      dup1\n      extcodesize\n      iszero\n      dup1\n      iszero\n      tag_174\n      jumpi\n      0x00\n      dup1\n      revert\n    tag_174:\n      pop\n      gas\n      call\n      iszero\n      dup1\n      iszero\n      tag_176\n      jumpi\n      returndatasize\n      0x00\n      dup1\n      returndatacopy\n      revert(0x00, returndatasize)\n    tag_176:\n      pop\n      pop\n      pop\n      pop\n        /* \"contracts/KYCManager.sol\":1709:1744  setNFTAvailableOfNFTId(NFTid, true) */\n      tag_177\n        /* \"contracts/KYCManager.sol\":1732:1737  NFTid */\n      dup2\n        /* \"contracts/KYCManager.sol\":1739:1743  true */\n      0x01\n        /* \"contracts/KYCManager.sol\":1709:1731  setNFTAvailableOfNFTId */\n      tag_45\n        /* \"contracts/KYCManager.sol\":1709:1744  setNFTAvailableOfNFTId(NFTid, true) */\n      jump\t// in\n    tag_177:\n        /* \"contracts/KYCManager.sol\":1750:1781  initManagerAddr(NFTid, manager) */\n      tag_178\n        /* \"contracts/KYCManager.sol\":1766:1771  NFTid */\n      dup2\n        /* \"contracts/KYCManager.sol\":1773:1780  manager */\n      dup6\n        /* \"contracts/KYCManager.sol\":1750:1765  initManagerAddr */\n      tag_31\n        /* \"contracts/KYCManager.sol\":1750:1781  initManagerAddr(NFTid, manager) */\n      jump\t// in\n    tag_178:\n        /* \"contracts/KYCManager.sol\":1419:1786  {... */\n      pop\n      pop\n        /* \"contracts/KYCManager.sol\":1319:1786  function createKYCNFT(string memory tokenUrl, address manager, uint expirationTime) public onlyOwner{... */\n      pop\n      pop\n      pop\n      jump\t// out\n        /* \"contracts/KYCManager.sol\":2895:3075  function updateAccumulatorValue(string memory _accumulator) public {... */\n    tag_75:\n        /* \"contracts/KYCManager.sol\":2970:2995  UserData storage userdata */\n      0x00\n        /* \"contracts/KYCManager.sol\":2998:3015  ManagerToUserData */\n      0x04\n        /* \"contracts/KYCManager.sol\":2998:3027  ManagerToUserData[msg.sender] */\n      0x00\n        /* \"contracts/KYCManager.sol\":3016:3026  msg.sender */\n      caller\n        /* \"contracts/KYCManager.sol\":2998:3027  ManagerToUserData[msg.sender] */\n      0xffffffffffffffffffffffffffffffffffffffff\n      and\n      0xffffffffffffffffffffffffffffffffffffffff\n      and\n      dup2\n      mstore\n      0x20\n      add\n      swap1\n      dup2\n      mstore\n      0x20\n      add\n      0x00\n      keccak256\n        /* \"contracts/KYCManager.sol\":2970:3027  UserData storage userdata = ManagerToUserData[msg.sender] */\n      swap1\n      pop\n        /* \"contracts/KYCManager.sol\":3058:3070  _accumulator */\n      dup2\n        /* \"contracts/KYCManager.sol\":3035:3043  userdata */\n      dup2\n        /* \"contracts/KYCManager.sol\":3035:3055  userdata.accumulator */\n      0x01\n      add\n        /* \"contracts/KYCManager.sol\":3035:3070  userdata.accumulator = _accumulator */\n      swap1\n      dup1\n      mload\n      swap1\n      0x20\n      add\n      swap1\n      tag_180\n      swap3\n      swap2\n      swap1\n      tag_158\n      jump\t// in\n    tag_180:\n      pop\n        /* \"contracts/KYCManager.sol\":2962:3075  {... */\n      pop\n        /* \"contracts/KYCManager.sol\":2895:3075  function updateAccumulatorValue(string memory _accumulator) public {... */\n      pop\n      jump\t// out\n        /* \"@openzeppelin/contracts/access/Ownable.sol\":1918:2116  function transferOwnership(address newOwner) public virtual onlyOwner {... */\n    tag_78:\n        /* \"@openzeppelin/contracts/access/Ownable.sol\":1259:1271  _msgSender() */\n      tag_182\n        /* \"@openzeppelin/contracts/access/Ownable.sol\":1259:1269  _msgSender */\n      tag_89\n        /* \"@openzeppelin/contracts/access/Ownable.sol\":1259:1271  _msgSender() */\n      jump\t// in\n    tag_182:\n        /* \"@openzeppelin/contracts/access/Ownable.sol\":1248:1271  owner() == _msgSender() */\n      0xffffffffffffffffffffffffffffffffffffffff\n      and\n        /* \"@openzeppelin/contracts/access/Ownable.sol\":1248:1255  owner() */\n      tag_183\n        /* \"@openzeppelin/contracts/access/Ownable.sol\":1248:1253  owner */\n      tag_47\n        /* \"@openzeppelin/contracts/access/Ownable.sol\":1248:1255  owner() */\n      jump\t// in\n    tag_183:\n        /* \"@openzeppelin/contracts/access/Ownable.sol\":1248:1271  owner() == _msgSender() */\n      0xffffffffffffffffffffffffffffffffffffffff\n      and\n      eq\n        /* \"@openzeppelin/contracts/access/Ownable.sol\":1240:1308  require(owner() == _msgSender(), \"Ownable: caller is not the owner\") */\n      tag_184\n      jumpi\n      mload(0x40)\n      0x08c379a000000000000000000000000000000000000000000000000000000000\n      dup2\n      mstore\n      0x04\n      add\n      tag_185\n      swap1\n      tag_93\n      jump\t// in\n    tag_185:\n      mload(0x40)\n      dup1\n      swap2\n      sub\n      swap1\n      revert\n    tag_184:\n        /* \"@openzeppelin/contracts/access/Ownable.sol\":2026:2027  0 */\n      0x00\n        /* \"@openzeppelin/contracts/access/Ownable.sol\":2006:2028  newOwner != address(0) */\n      0xffffffffffffffffffffffffffffffffffffffff\n      and\n        /* \"@openzeppelin/contracts/access/Ownable.sol\":2006:2014  newOwner */\n      dup2\n        /* \"@openzeppelin/contracts/access/Ownable.sol\":2006:2028  newOwner != address(0) */\n      0xffffffffffffffffffffffffffffffffffffffff\n      and\n      sub\n        /* \"@openzeppelin/contracts/access/Ownable.sol\":1998:2071  require(newOwner != address(0), \"Ownable: new owner is the zero address\") */\n      tag_187\n      jumpi\n      mload(0x40)\n      0x08c379a000000000000000000000000000000000000000000000000000000000\n      dup2\n      mstore\n      0x04\n      add\n      tag_188\n      swap1\n      tag_189\n      jump\t// in\n    tag_188:\n      mload(0x40)\n      dup1\n      swap2\n      sub\n      swap1\n      revert\n    tag_187:\n        /* \"@openzeppelin/contracts/access/Ownable.sol\":2081:2109  _transferOwnership(newOwner) */\n      tag_190\n        /* \"@openzeppelin/contracts/access/Ownable.sol\":2100:2108  newOwner */\n      dup2\n        /* \"@openzeppelin/contracts/access/Ownable.sol\":2081:2099  _transferOwnership */\n      tag_112\n        /* \"@openzeppelin/contracts/access/Ownable.sol\":2081:2109  _transferOwnership(newOwner) */\n      jump\t// in\n    tag_190:\n        /* \"@openzeppelin/contracts/access/Ownable.sol\":1918:2116  function transferOwnership(address newOwner) public virtual onlyOwner {... */\n      pop\n      jump\t// out\n        /* \"contracts/KYCManager.sol\":2705:2891  function updateAccumulatorPublicKey(string memory _n, uint _g) public {... */\n    tag_82:\n        /* \"contracts/KYCManager.sol\":2783:2808  UserData storage userdata */\n      0x00\n        /* \"contracts/KYCManager.sol\":2811:2828  ManagerToUserData */\n      0x04\n        /* \"contracts/KYCManager.sol\":2811:2840  ManagerToUserData[msg.sender] */\n      0x00\n        /* \"contracts/KYCManager.sol\":2829:2839  msg.sender */\n      caller\n        /* \"contracts/KYCManager.sol\":2811:2840  ManagerToUserData[msg.sender] */\n      0xffffffffffffffffffffffffffffffffffffffff\n      and\n      0xffffffffffffffffffffffffffffffffffffffff\n      and\n      dup2\n      mstore\n      0x20\n      add\n      swap1\n      dup2\n      mstore\n      0x20\n      add\n      0x00\n      keccak256\n        /* \"contracts/KYCManager.sol\":2783:2840  UserData storage userdata = ManagerToUserData[msg.sender] */\n      swap1\n      pop\n        /* \"contracts/KYCManager.sol\":2861:2863  _n */\n      dup3\n        /* \"contracts/KYCManager.sol\":2848:2856  userdata */\n      dup2\n        /* \"contracts/KYCManager.sol\":2848:2858  userdata.n */\n      0x02\n      add\n        /* \"contracts/KYCManager.sol\":2848:2863  userdata.n = _n */\n      swap1\n      dup1\n      mload\n      swap1\n      0x20\n      add\n      swap1\n      tag_192\n      swap3\n      swap2\n      swap1\n      tag_158\n      jump\t// in\n    tag_192:\n      pop\n        /* \"contracts/KYCManager.sol\":2884:2886  _g */\n      dup2\n        /* \"contracts/KYCManager.sol\":2871:2879  userdata */\n      dup2\n        /* \"contracts/KYCManager.sol\":2871:2881  userdata.g */\n      0x03\n      add\n        /* \"contracts/KYCManager.sol\":2871:2886  userdata.g = _g */\n      dup2\n      swap1\n      sstore\n      pop\n        /* \"contracts/KYCManager.sol\":2775:2891  {... */\n      pop\n        /* \"contracts/KYCManager.sol\":2705:2891  function updateAccumulatorPublicKey(string memory _n, uint _g) public {... */\n      pop\n      pop\n      jump\t// out\n        /* \"contracts/KYCManager.sol\":1163:1307  function setKYCNFTContractAddress(address _kycnftContractAddr) public onlyOwner {... */\n    tag_85:\n        /* \"@openzeppelin/contracts/access/Ownable.sol\":1259:1271  _msgSender() */\n      tag_194\n        /* \"@openzeppelin/contracts/access/Ownable.sol\":1259:1269  _msgSender */\n      tag_89\n        /* \"@openzeppelin/contracts/access/Ownable.sol\":1259:1271  _msgSender() */\n      jump\t// in\n    tag_194:\n        /* \"@openzeppelin/contracts/access/Ownable.sol\":1248:1271  owner() == _msgSender() */\n      0xffffffffffffffffffffffffffffffffffffffff\n      and\n        /* \"@openzeppelin/contracts/access/Ownable.sol\":1248:1255  owner() */\n      tag_195\n        /* \"@openzeppelin/contracts/access/Ownable.sol\":1248:1253  owner */\n      tag_47\n        /* \"@openzeppelin/contracts/access/Ownable.sol\":1248:1255  owner() */\n      jump\t// in\n    tag_195:\n        /* \"@openzeppelin/contracts/access/Ownable.sol\":1248:1271  owner() == _msgSender() */\n      0xffffffffffffffffffffffffffffffffffffffff\n      and\n      eq\n        /* \"@openzeppelin/contracts/access/Ownable.sol\":1240:1308  require(owner() == _msgSender(), \"Ownable: caller is not the owner\") */\n      tag_196\n      jumpi\n      mload(0x40)\n      0x08c379a000000000000000000000000000000000000000000000000000000000\n      dup2\n      mstore\n      0x04\n      add\n      tag_197\n      swap1\n      tag_93\n      jump\t// in\n    tag_197:\n      mload(0x40)\n      dup1\n      swap2\n      sub\n      swap1\n      revert\n    tag_196:\n        /* \"contracts/KYCManager.sol\":1282:1301  _kycnftContractAddr */\n      dup1\n        /* \"contracts/KYCManager.sol\":1249:1263  kycNFTContract */\n      0x02\n      0x00\n        /* \"contracts/KYCManager.sol\":1249:1302  kycNFTContract = KYCNFTInterface(_kycnftContractAddr) */\n      0x0100\n      exp\n      dup2\n      sload\n      dup2\n      0xffffffffffffffffffffffffffffffffffffffff\n      mul\n      not\n      and\n      swap1\n      dup4\n      0xffffffffffffffffffffffffffffffffffffffff\n      and\n      mul\n      or\n      swap1\n      sstore\n      pop\n        /* \"contracts/KYCManager.sol\":1163:1307  function setKYCNFTContractAddress(address _kycnftContractAddr) public onlyOwner {... */\n      pop\n      jump\t// out\n        /* \"@openzeppelin/contracts/utils/Context.sol\":640:736  function _msgSender() internal view virtual returns (address) {... */\n    tag_89:\n        /* \"@openzeppelin/contracts/utils/Context.sol\":693:700  address */\n      0x00\n        /* \"@openzeppelin/contracts/utils/Context.sol\":719:729  msg.sender */\n      caller\n        /* \"@openzeppelin/contracts/utils/Context.sol\":712:729  return msg.sender */\n      swap1\n      pop\n        /* \"@openzeppelin/contracts/utils/Context.sol\":640:736  function _msgSender() internal view virtual returns (address) {... */\n      swap1\n      jump\t// out\n        /* \"@openzeppelin/contracts/access/Ownable.sol\":2270:2457  function _transferOwnership(address newOwner) internal virtual {... */\n    tag_112:\n        /* \"@openzeppelin/contracts/access/Ownable.sol\":2343:2359  address oldOwner */\n      0x00\n        /* \"@openzeppelin/contracts/access/Ownable.sol\":2362:2368  _owner */\n      dup1\n      0x00\n      swap1\n      sload\n      swap1\n      0x0100\n      exp\n      swap1\n      div\n      0xffffffffffffffffffffffffffffffffffffffff\n      and\n        /* \"@openzeppelin/contracts/access/Ownable.sol\":2343:2368  address oldOwner = _owner */\n      swap1\n      pop\n        /* \"@openzeppelin/contracts/access/Ownable.sol\":2387:2395  newOwner */\n      dup2\n        /* \"@openzeppelin/contracts/access/Ownable.sol\":2378:2384  _owner */\n      0x00\n      dup1\n        /* \"@openzeppelin/contracts/access/Ownable.sol\":2378:2395  _owner = newOwner */\n      0x0100\n      exp\n      dup2\n      sload\n      dup2\n      0xffffffffffffffffffffffffffffffffffffffff\n      mul\n      not\n      and\n      swap1\n      dup4\n      0xffffffffffffffffffffffffffffffffffffffff\n      and\n      mul\n      or\n      swap1\n      sstore\n      pop\n        /* \"@openzeppelin/contracts/access/Ownable.sol\":2441:2449  newOwner */\n      dup2\n        /* \"@openzeppelin/contracts/access/Ownable.sol\":2410:2450  OwnershipTransferred(oldOwner, newOwner) */\n      0xffffffffffffffffffffffffffffffffffffffff\n      and\n        /* \"@openzeppelin/contracts/access/Ownable.sol\":2431:2439  oldOwner */\n      dup2\n        /* \"@openzeppelin/contracts/access/Ownable.sol\":2410:2450  OwnershipTransferred(oldOwner, newOwner) */\n      0xffffffffffffffffffffffffffffffffffffffff\n      and\n      0x8be0079c531659141344cd1fd0a4f28419497f9722a3daafe3b4186f6b6457e0\n      mload(0x40)\n      mload(0x40)\n      dup1\n      swap2\n      sub\n      swap1\n      log3\n        /* \"@openzeppelin/contracts/access/Ownable.sol\":2333:2457  {... */\n      pop\n        /* \"@openzeppelin/contracts/access/Ownable.sol\":2270:2457  function _transferOwnership(address newOwner) internal virtual {... */\n      pop\n      jump\t// out\n    tag_102:\n      dup3\n      dup1\n      sload\n      tag_201\n      swap1\n      tag_100\n      jump\t// in\n    tag_201:\n      swap1\n      0x00\n      mstore\n      keccak256(0x00, 0x20)\n      swap1\n      0x1f\n      add\n      0x20\n      swap1\n      div\n      dup2\n      add\n      swap3\n      dup3\n      tag_203\n      jumpi\n      0x00\n      dup6\n      sstore\n      jump(tag_202)\n    tag_203:\n      dup3\n      0x1f\n      lt\n      tag_204\n      jumpi\n      dup1\n      sload\n      dup6\n      sstore\n      jump(tag_202)\n    tag_204:\n      dup3\n      dup1\n      add\n      0x01\n      add\n      dup6\n      sstore\n      dup3\n      iszero\n      tag_202\n      jumpi\n      0x00\n      mstore\n      keccak256(0x00, 0x20)\n      swap2\n      0x1f\n      add\n      0x20\n      swap1\n      div\n      dup3\n      add\n    tag_205:\n      dup3\n      dup2\n      gt\n      iszero\n      tag_206\n      jumpi\n      dup3\n      sload\n      dup3\n      sstore\n      swap2\n      0x01\n      add\n      swap2\n      swap1\n      0x01\n      add\n      swap1\n      jump(tag_205)\n    tag_206:\n    tag_202:\n      pop\n      swap1\n      pop\n      tag_207\n      swap2\n      swap1\n      tag_208\n      jump\t// in\n    tag_207:\n      pop\n      swap1\n      jump\t// out\n    tag_121:\n      mload(0x40)\n      dup1\n      0x80\n      add\n      0x40\n      mstore\n      dup1\n      0x00\n      dup2\n      mstore\n      0x20\n      add\n      0x60\n      dup2\n      mstore\n      0x20\n      add\n      0x60\n      dup2\n      mstore\n      0x20\n      add\n      0x00\n      dup2\n      mstore\n      pop\n      swap1\n      jump\t// out\n    tag_158:\n      dup3\n      dup1\n      sload\n      tag_209\n      swap1\n      tag_100\n      jump\t// in\n    tag_209:\n      swap1\n      0x00\n      mstore\n      keccak256(0x00, 0x20)\n      swap1\n      0x1f\n      add\n      0x20\n      swap1\n      div\n      dup2\n      add\n      swap3\n      dup3\n      tag_211\n      jumpi\n      0x00\n      dup6\n      sstore\n      jump(tag_210)\n    tag_211:\n      dup3\n      0x1f\n      lt\n      tag_212\n      jumpi\n      dup1\n      mload\n      not(0xff)\n      and\n      dup4\n      dup1\n      add\n      or\n      dup6\n      sstore\n      jump(tag_210)\n    tag_212:\n      dup3\n      dup1\n      add\n      0x01\n      add\n      dup6\n      sstore\n      dup3\n      iszero\n      tag_210\n      jumpi\n      swap2\n      dup3\n      add\n    tag_213:\n      dup3\n      dup2\n      gt\n      iszero\n      tag_214\n      jumpi\n      dup3\n      mload\n      dup3\n      sstore\n      swap2\n      0x20\n      add\n      swap2\n      swap1\n      0x01\n      add\n      swap1\n      jump(tag_213)\n    tag_214:\n    tag_210:\n      pop\n      swap1\n      pop\n      tag_215\n      swap2\n      swap1\n      tag_208\n      jump\t// in\n    tag_215:\n      pop\n      swap1\n      jump\t// out\n    tag_208:\n    tag_216:\n      dup1\n      dup3\n      gt\n      iszero\n      tag_217\n      jumpi\n      0x00\n      dup2\n      0x00\n      swap1\n      sstore\n      pop\n      0x01\n      add\n      jump(tag_216)\n    tag_217:\n      pop\n      swap1\n      jump\t// out\n        /* \"#utility.yul\":7:82   */\n    tag_218:\n        /* \"#utility.yul\":40:46   */\n      0x00\n        /* \"#utility.yul\":73:75   */\n      0x40\n        /* \"#utility.yul\":67:76   */\n      mload\n        /* \"#utility.yul\":57:76   */\n      swap1\n      pop\n        /* \"#utility.yul\":7:82   */\n      swap1\n      jump\t// out\n        /* \"#utility.yul\":88:205   */\n    tag_219:\n        /* \"#utility.yul\":197:198   */\n      0x00\n        /* \"#utility.yul\":194:195   */\n      dup1\n        /* \"#utility.yul\":187:199   */\n      revert\n        /* \"#utility.yul\":211:328   */\n    tag_220:\n        /* \"#utility.yul\":320:321   */\n      0x00\n        /* \"#utility.yul\":317:318   */\n      dup1\n        /* \"#utility.yul\":310:322   */\n      revert\n        /* \"#utility.yul\":334:411   */\n    tag_221:\n        /* \"#utility.yul\":371:378   */\n      0x00\n        /* \"#utility.yul\":400:405   */\n      dup2\n        /* \"#utility.yul\":389:405   */\n      swap1\n      pop\n        /* \"#utility.yul\":334:411   */\n      swap2\n      swap1\n      pop\n      jump\t// out\n        /* \"#utility.yul\":417:539   */\n    tag_222:\n        /* \"#utility.yul\":490:514   */\n      tag_264\n        /* \"#utility.yul\":508:513   */\n      dup2\n        /* \"#utility.yul\":490:514   */\n      tag_221\n      jump\t// in\n    tag_264:\n        /* \"#utility.yul\":483:488   */\n      dup2\n        /* \"#utility.yul\":480:515   */\n      eq\n        /* \"#utility.yul\":470:533   */\n      tag_265\n      jumpi\n        /* \"#utility.yul\":529:530   */\n      0x00\n        /* \"#utility.yul\":526:527   */\n      dup1\n        /* \"#utility.yul\":519:531   */\n      revert\n        /* \"#utility.yul\":470:533   */\n    tag_265:\n        /* \"#utility.yul\":417:539   */\n      pop\n      jump\t// out\n        /* \"#utility.yul\":545:684   */\n    tag_223:\n        /* \"#utility.yul\":591:596   */\n      0x00\n        /* \"#utility.yul\":629:635   */\n      dup2\n        /* \"#utility.yul\":616:636   */\n      calldataload\n        /* \"#utility.yul\":607:636   */\n      swap1\n      pop\n        /* \"#utility.yul\":645:678   */\n      tag_267\n        /* \"#utility.yul\":672:677   */\n      dup2\n        /* \"#utility.yul\":645:678   */\n      tag_222\n      jump\t// in\n    tag_267:\n        /* \"#utility.yul\":545:684   */\n      swap3\n      swap2\n      pop\n      pop\n      jump\t// out\n        /* \"#utility.yul\":690:1019   */\n    tag_24:\n        /* \"#utility.yul\":749:755   */\n      0x00\n        /* \"#utility.yul\":798:800   */\n      0x20\n        /* \"#utility.yul\":786:795   */\n      dup3\n        /* \"#utility.yul\":777:784   */\n      dup5\n        /* \"#utility.yul\":773:796   */\n      sub\n        /* \"#utility.yul\":769:801   */\n      slt\n        /* \"#utility.yul\":766:885   */\n      iszero\n      tag_269\n      jumpi\n        /* \"#utility.yul\":804:883   */\n      tag_270\n      tag_219\n      jump\t// in\n    tag_270:\n        /* \"#utility.yul\":766:885   */\n    tag_269:\n        /* \"#utility.yul\":924:925   */\n      0x00\n        /* \"#utility.yul\":949:1002   */\n      tag_271\n        /* \"#utility.yul\":994:1001   */\n      dup5\n        /* \"#utility.yul\":985:991   */\n      dup3\n        /* \"#utility.yul\":974:983   */\n      dup6\n        /* \"#utility.yul\":970:992   */\n      add\n        /* \"#utility.yul\":949:1002   */\n      tag_223\n      jump\t// in\n    tag_271:\n        /* \"#utility.yul\":939:1002   */\n      swap2\n      pop\n        /* \"#utility.yul\":895:1012   */\n      pop\n        /* \"#utility.yul\":690:1019   */\n      swap3\n      swap2\n      pop\n      pop\n      jump\t// out\n        /* \"#utility.yul\":1025:1115   */\n    tag_224:\n        /* \"#utility.yul\":1059:1066   */\n      0x00\n        /* \"#utility.yul\":1102:1107   */\n      dup2\n        /* \"#utility.yul\":1095:1108   */\n      iszero\n        /* \"#utility.yul\":1088:1109   */\n      iszero\n        /* \"#utility.yul\":1077:1109   */\n      swap1\n      pop\n        /* \"#utility.yul\":1025:1115   */\n      swap2\n      swap1\n      pop\n      jump\t// out\n        /* \"#utility.yul\":1121:1230   */\n    tag_225:\n        /* \"#utility.yul\":1202:1223   */\n      tag_274\n        /* \"#utility.yul\":1217:1222   */\n      dup2\n        /* \"#utility.yul\":1202:1223   */\n      tag_224\n      jump\t// in\n    tag_274:\n        /* \"#utility.yul\":1197:1200   */\n      dup3\n        /* \"#utility.yul\":1190:1224   */\n      mstore\n        /* \"#utility.yul\":1121:1230   */\n      pop\n      pop\n      jump\t// out\n        /* \"#utility.yul\":1236:1446   */\n    tag_27:\n        /* \"#utility.yul\":1323:1327   */\n      0x00\n        /* \"#utility.yul\":1361:1363   */\n      0x20\n        /* \"#utility.yul\":1350:1359   */\n      dup3\n        /* \"#utility.yul\":1346:1364   */\n      add\n        /* \"#utility.yul\":1338:1364   */\n      swap1\n      pop\n        /* \"#utility.yul\":1374:1439   */\n      tag_276\n        /* \"#utility.yul\":1436:1437   */\n      0x00\n        /* \"#utility.yul\":1425:1434   */\n      dup4\n        /* \"#utility.yul\":1421:1438   */\n      add\n        /* \"#utility.yul\":1412:1418   */\n      dup5\n        /* \"#utility.yul\":1374:1439   */\n      tag_225\n      jump\t// in\n    tag_276:\n        /* \"#utility.yul\":1236:1446   */\n      swap3\n      swap2\n      pop\n      pop\n      jump\t// out\n        /* \"#utility.yul\":1452:1578   */\n    tag_226:\n        /* \"#utility.yul\":1489:1496   */\n      0x00\n        /* \"#utility.yul\":1529:1571   */\n      0xffffffffffffffffffffffffffffffffffffffff\n        /* \"#utility.yul\":1522:1527   */\n      dup3\n        /* \"#utility.yul\":1518:1572   */\n      and\n        /* \"#utility.yul\":1507:1572   */\n      swap1\n      pop\n        /* \"#utility.yul\":1452:1578   */\n      swap2\n      swap1\n      pop\n      jump\t// out\n        /* \"#utility.yul\":1584:1680   */\n    tag_227:\n        /* \"#utility.yul\":1621:1628   */\n      0x00\n        /* \"#utility.yul\":1650:1674   */\n      tag_279\n        /* \"#utility.yul\":1668:1673   */\n      dup3\n        /* \"#utility.yul\":1650:1674   */\n      tag_226\n      jump\t// in\n    tag_279:\n        /* \"#utility.yul\":1639:1674   */\n      swap1\n      pop\n        /* \"#utility.yul\":1584:1680   */\n      swap2\n      swap1\n      pop\n      jump\t// out\n        /* \"#utility.yul\":1686:1808   */\n    tag_228:\n        /* \"#utility.yul\":1759:1783   */\n      tag_281\n        /* \"#utility.yul\":1777:1782   */\n      dup2\n        /* \"#utility.yul\":1759:1783   */\n      tag_227\n      jump\t// in\n    tag_281:\n        /* \"#utility.yul\":1752:1757   */\n      dup2\n        /* \"#utility.yul\":1749:1784   */\n      eq\n        /* \"#utility.yul\":1739:1802   */\n      tag_282\n      jumpi\n        /* \"#utility.yul\":1798:1799   */\n      0x00\n        /* \"#utility.yul\":1795:1796   */\n      dup1\n        /* \"#utility.yul\":1788:1800   */\n      revert\n        /* \"#utility.yul\":1739:1802   */\n    tag_282:\n        /* \"#utility.yul\":1686:1808   */\n      pop\n      jump\t// out\n        /* \"#utility.yul\":1814:1953   */\n    tag_229:\n        /* \"#utility.yul\":1860:1865   */\n      0x00\n        /* \"#utility.yul\":1898:1904   */\n      dup2\n        /* \"#utility.yul\":1885:1905   */\n      calldataload\n        /* \"#utility.yul\":1876:1905   */\n      swap1\n      pop\n        /* \"#utility.yul\":1914:1947   */\n      tag_284\n        /* \"#utility.yul\":1941:1946   */\n      dup2\n        /* \"#utility.yul\":1914:1947   */\n      tag_228\n      jump\t// in\n    tag_284:\n        /* \"#utility.yul\":1814:1953   */\n      swap3\n      swap2\n      pop\n      pop\n      jump\t// out\n        /* \"#utility.yul\":1959:2433   */\n    tag_30:\n        /* \"#utility.yul\":2027:2033   */\n      0x00\n        /* \"#utility.yul\":2035:2041   */\n      dup1\n        /* \"#utility.yul\":2084:2086   */\n      0x40\n        /* \"#utility.yul\":2072:2081   */\n      dup4\n        /* \"#utility.yul\":2063:2070   */\n      dup6\n        /* \"#utility.yul\":2059:2082   */\n      sub\n        /* \"#utility.yul\":2055:2087   */\n      slt\n        /* \"#utility.yul\":2052:2171   */\n      iszero\n      tag_286\n      jumpi\n        /* \"#utility.yul\":2090:2169   */\n      tag_287\n      tag_219\n      jump\t// in\n    tag_287:\n        /* \"#utility.yul\":2052:2171   */\n    tag_286:\n        /* \"#utility.yul\":2210:2211   */\n      0x00\n        /* \"#utility.yul\":2235:2288   */\n      tag_288\n        /* \"#utility.yul\":2280:2287   */\n      dup6\n        /* \"#utility.yul\":2271:2277   */\n      dup3\n        /* \"#utility.yul\":2260:2269   */\n      dup7\n        /* \"#utility.yul\":2256:2278   */\n      add\n        /* \"#utility.yul\":2235:2288   */\n      tag_223\n      jump\t// in\n    tag_288:\n        /* \"#utility.yul\":2225:2288   */\n      swap3\n      pop\n        /* \"#utility.yul\":2181:2298   */\n      pop\n        /* \"#utility.yul\":2337:2339   */\n      0x20\n        /* \"#utility.yul\":2363:2416   */\n      tag_289\n        /* \"#utility.yul\":2408:2415   */\n      dup6\n        /* \"#utility.yul\":2399:2405   */\n      dup3\n        /* \"#utility.yul\":2388:2397   */\n      dup7\n        /* \"#utility.yul\":2384:2406   */\n      add\n        /* \"#utility.yul\":2363:2416   */\n      tag_229\n      jump\t// in\n    tag_289:\n        /* \"#utility.yul\":2353:2416   */\n      swap2\n      pop\n        /* \"#utility.yul\":2308:2426   */\n      pop\n        /* \"#utility.yul\":1959:2433   */\n      swap3\n      pop\n      swap3\n      swap1\n      pop\n      jump\t// out\n        /* \"#utility.yul\":2439:2557   */\n    tag_230:\n        /* \"#utility.yul\":2526:2550   */\n      tag_291\n        /* \"#utility.yul\":2544:2549   */\n      dup2\n        /* \"#utility.yul\":2526:2550   */\n      tag_227\n      jump\t// in\n    tag_291:\n        /* \"#utility.yul\":2521:2524   */\n      dup3\n        /* \"#utility.yul\":2514:2551   */\n      mstore\n        /* \"#utility.yul\":2439:2557   */\n      pop\n      pop\n      jump\t// out\n        /* \"#utility.yul\":2563:2785   */\n    tag_36:\n        /* \"#utility.yul\":2656:2660   */\n      0x00\n        /* \"#utility.yul\":2694:2696   */\n      0x20\n        /* \"#utility.yul\":2683:2692   */\n      dup3\n        /* \"#utility.yul\":2679:2697   */\n      add\n        /* \"#utility.yul\":2671:2697   */\n      swap1\n      pop\n        /* \"#utility.yul\":2707:2778   */\n      tag_293\n        /* \"#utility.yul\":2775:2776   */\n      0x00\n        /* \"#utility.yul\":2764:2773   */\n      dup4\n        /* \"#utility.yul\":2760:2777   */\n      add\n        /* \"#utility.yul\":2751:2757   */\n      dup5\n        /* \"#utility.yul\":2707:2778   */\n      tag_230\n      jump\t// in\n    tag_293:\n        /* \"#utility.yul\":2563:2785   */\n      swap3\n      swap2\n      pop\n      pop\n      jump\t// out\n        /* \"#utility.yul\":2791:2907   */\n    tag_231:\n        /* \"#utility.yul\":2861:2882   */\n      tag_295\n        /* \"#utility.yul\":2876:2881   */\n      dup2\n        /* \"#utility.yul\":2861:2882   */\n      tag_224\n      jump\t// in\n    tag_295:\n        /* \"#utility.yul\":2854:2859   */\n      dup2\n        /* \"#utility.yul\":2851:2883   */\n      eq\n        /* \"#utility.yul\":2841:2901   */\n      tag_296\n      jumpi\n        /* \"#utility.yul\":2897:2898   */\n      0x00\n        /* \"#utility.yul\":2894:2895   */\n      dup1\n        /* \"#utility.yul\":2887:2899   */\n      revert\n        /* \"#utility.yul\":2841:2901   */\n    tag_296:\n        /* \"#utility.yul\":2791:2907   */\n      pop\n      jump\t// out\n        /* \"#utility.yul\":2913:3046   */\n    tag_232:\n        /* \"#utility.yul\":2956:2961   */\n      0x00\n        /* \"#utility.yul\":2994:3000   */\n      dup2\n        /* \"#utility.yul\":2981:3001   */\n      calldataload\n        /* \"#utility.yul\":2972:3001   */\n      swap1\n      pop\n        /* \"#utility.yul\":3010:3040   */\n      tag_298\n        /* \"#utility.yul\":3034:3039   */\n      dup2\n        /* \"#utility.yul\":3010:3040   */\n      tag_231\n      jump\t// in\n    tag_298:\n        /* \"#utility.yul\":2913:3046   */\n      swap3\n      swap2\n      pop\n      pop\n      jump\t// out\n        /* \"#utility.yul\":3052:3520   */\n    tag_44:\n        /* \"#utility.yul\":3117:3123   */\n      0x00\n        /* \"#utility.yul\":3125:3131   */\n      dup1\n        /* \"#utility.yul\":3174:3176   */\n      0x40\n        /* \"#utility.yul\":3162:3171   */\n      dup4\n        /* \"#utility.yul\":3153:3160   */\n      dup6\n        /* \"#utility.yul\":3149:3172   */\n      sub\n        /* \"#utility.yul\":3145:3177   */\n      slt\n        /* \"#utility.yul\":3142:3261   */\n      iszero\n      tag_300\n      jumpi\n        /* \"#utility.yul\":3180:3259   */\n      tag_301\n      tag_219\n      jump\t// in\n    tag_301:\n        /* \"#utility.yul\":3142:3261   */\n    tag_300:\n        /* \"#utility.yul\":3300:3301   */\n      0x00\n        /* \"#utility.yul\":3325:3378   */\n      tag_302\n        /* \"#utility.yul\":3370:3377   */\n      dup6\n        /* \"#utility.yul\":3361:3367   */\n      dup3\n        /* \"#utility.yul\":3350:3359   */\n      dup7\n        /* \"#utility.yul\":3346:3368   */\n      add\n        /* \"#utility.yul\":3325:3378   */\n      tag_223\n      jump\t// in\n    tag_302:\n        /* \"#utility.yul\":3315:3378   */\n      swap3\n      pop\n        /* \"#utility.yul\":3271:3388   */\n      pop\n        /* \"#utility.yul\":3427:3429   */\n      0x20\n        /* \"#utility.yul\":3453:3503   */\n      tag_303\n        /* \"#utility.yul\":3495:3502   */\n      dup6\n        /* \"#utility.yul\":3486:3492   */\n      dup3\n        /* \"#utility.yul\":3475:3484   */\n      dup7\n        /* \"#utility.yul\":3471:3493   */\n      add\n        /* \"#utility.yul\":3453:3503   */\n      tag_232\n      jump\t// in\n    tag_303:\n        /* \"#utility.yul\":3443:3503   */\n      swap2\n      pop\n        /* \"#utility.yul\":3398:3513   */\n      pop\n        /* \"#utility.yul\":3052:3520   */\n      swap3\n      pop\n      swap3\n      swap1\n      pop\n      jump\t// out\n        /* \"#utility.yul\":3526:3634   */\n    tag_233:\n        /* \"#utility.yul\":3603:3627   */\n      tag_305\n        /* \"#utility.yul\":3621:3626   */\n      dup2\n        /* \"#utility.yul\":3603:3627   */\n      tag_221\n      jump\t// in\n    tag_305:\n        /* \"#utility.yul\":3598:3601   */\n      dup3\n        /* \"#utility.yul\":3591:3628   */\n      mstore\n        /* \"#utility.yul\":3526:3634   */\n      pop\n      pop\n      jump\t// out\n        /* \"#utility.yul\":3640:3739   */\n    tag_234:\n        /* \"#utility.yul\":3692:3698   */\n      0x00\n        /* \"#utility.yul\":3726:3731   */\n      dup2\n        /* \"#utility.yul\":3720:3732   */\n      mload\n        /* \"#utility.yul\":3710:3732   */\n      swap1\n      pop\n        /* \"#utility.yul\":3640:3739   */\n      swap2\n      swap1\n      pop\n      jump\t// out\n        /* \"#utility.yul\":3745:3904   */\n    tag_235:\n        /* \"#utility.yul\":3819:3830   */\n      0x00\n        /* \"#utility.yul\":3853:3859   */\n      dup3\n        /* \"#utility.yul\":3848:3851   */\n      dup3\n        /* \"#utility.yul\":3841:3860   */\n      mstore\n        /* \"#utility.yul\":3893:3897   */\n      0x20\n        /* \"#utility.yul\":3888:3891   */\n      dup3\n        /* \"#utility.yul\":3884:3898   */\n      add\n        /* \"#utility.yul\":3869:3898   */\n      swap1\n      pop\n        /* \"#utility.yul\":3745:3904   */\n      swap3\n      swap2\n      pop\n      pop\n      jump\t// out\n        /* \"#utility.yul\":3910:4217   */\n    tag_236:\n        /* \"#utility.yul\":3978:3979   */\n      0x00\n        /* \"#utility.yul\":3988:4101   */\n    tag_309:\n        /* \"#utility.yul\":4002:4008   */\n      dup4\n        /* \"#utility.yul\":3999:4000   */\n      dup2\n        /* \"#utility.yul\":3996:4009   */\n      lt\n        /* \"#utility.yul\":3988:4101   */\n      iszero\n      tag_311\n      jumpi\n        /* \"#utility.yul\":4087:4088   */\n      dup1\n        /* \"#utility.yul\":4082:4085   */\n      dup3\n        /* \"#utility.yul\":4078:4089   */\n      add\n        /* \"#utility.yul\":4072:4090   */\n      mload\n        /* \"#utility.yul\":4068:4069   */\n      dup2\n        /* \"#utility.yul\":4063:4066   */\n      dup5\n        /* \"#utility.yul\":4059:4070   */\n      add\n        /* \"#utility.yul\":4052:4091   */\n      mstore\n        /* \"#utility.yul\":4024:4026   */\n      0x20\n        /* \"#utility.yul\":4021:4022   */\n      dup2\n        /* \"#utility.yul\":4017:4027   */\n      add\n        /* \"#utility.yul\":4012:4027   */\n      swap1\n      pop\n        /* \"#utility.yul\":3988:4101   */\n      jump(tag_309)\n    tag_311:\n        /* \"#utility.yul\":4119:4125   */\n      dup4\n        /* \"#utility.yul\":4116:4117   */\n      dup2\n        /* \"#utility.yul\":4113:4126   */\n      gt\n        /* \"#utility.yul\":4110:4211   */\n      iszero\n      tag_312\n      jumpi\n        /* \"#utility.yul\":4199:4200   */\n      0x00\n        /* \"#utility.yul\":4190:4196   */\n      dup5\n        /* \"#utility.yul\":4185:4188   */\n      dup5\n        /* \"#utility.yul\":4181:4197   */\n      add\n        /* \"#utility.yul\":4174:4201   */\n      mstore\n        /* \"#utility.yul\":4110:4211   */\n    tag_312:\n        /* \"#utility.yul\":3959:4217   */\n      pop\n        /* \"#utility.yul\":3910:4217   */\n      pop\n      pop\n      pop\n      jump\t// out\n        /* \"#utility.yul\":4223:4325   */\n    tag_237:\n        /* \"#utility.yul\":4264:4270   */\n      0x00\n        /* \"#utility.yul\":4315:4317   */\n      0x1f\n        /* \"#utility.yul\":4311:4318   */\n      not\n        /* \"#utility.yul\":4306:4308   */\n      0x1f\n        /* \"#utility.yul\":4299:4304   */\n      dup4\n        /* \"#utility.yul\":4295:4309   */\n      add\n        /* \"#utility.yul\":4291:4319   */\n      and\n        /* \"#utility.yul\":4281:4319   */\n      swap1\n      pop\n        /* \"#utility.yul\":4223:4325   */\n      swap2\n      swap1\n      pop\n      jump\t// out\n        /* \"#utility.yul\":4331:4675   */\n    tag_238:\n        /* \"#utility.yul\":4409:4412   */\n      0x00\n        /* \"#utility.yul\":4437:4476   */\n      tag_315\n        /* \"#utility.yul\":4470:4475   */\n      dup3\n        /* \"#utility.yul\":4437:4476   */\n      tag_234\n      jump\t// in\n    tag_315:\n        /* \"#utility.yul\":4492:4553   */\n      tag_316\n        /* \"#utility.yul\":4546:4552   */\n      dup2\n        /* \"#utility.yul\":4541:4544   */\n      dup6\n        /* \"#utility.yul\":4492:4553   */\n      tag_235\n      jump\t// in\n    tag_316:\n        /* \"#utility.yul\":4485:4553   */\n      swap4\n      pop\n        /* \"#utility.yul\":4562:4614   */\n      tag_317\n        /* \"#utility.yul\":4607:4613   */\n      dup2\n        /* \"#utility.yul\":4602:4605   */\n      dup6\n        /* \"#utility.yul\":4595:4599   */\n      0x20\n        /* \"#utility.yul\":4588:4593   */\n      dup7\n        /* \"#utility.yul\":4584:4600   */\n      add\n        /* \"#utility.yul\":4562:4614   */\n      tag_236\n      jump\t// in\n    tag_317:\n        /* \"#utility.yul\":4639:4668   */\n      tag_318\n        /* \"#utility.yul\":4661:4667   */\n      dup2\n        /* \"#utility.yul\":4639:4668   */\n      tag_237\n      jump\t// in\n    tag_318:\n        /* \"#utility.yul\":4634:4637   */\n      dup5\n        /* \"#utility.yul\":4630:4669   */\n      add\n        /* \"#utility.yul\":4623:4669   */\n      swap2\n      pop\n        /* \"#utility.yul\":4413:4675   */\n      pop\n        /* \"#utility.yul\":4331:4675   */\n      swap3\n      swap2\n      pop\n      pop\n      jump\t// out\n        /* \"#utility.yul\":4745:5774   */\n    tag_239:\n        /* \"#utility.yul\":4866:4869   */\n      0x00\n        /* \"#utility.yul\":4902:4906   */\n      0x80\n        /* \"#utility.yul\":4897:4900   */\n      dup4\n        /* \"#utility.yul\":4893:4907   */\n      add\n        /* \"#utility.yul\":4990:4994   */\n      0x00\n        /* \"#utility.yul\":4983:4988   */\n      dup4\n        /* \"#utility.yul\":4979:4995   */\n      add\n        /* \"#utility.yul\":4973:4996   */\n      mload\n        /* \"#utility.yul\":5009:5072   */\n      tag_320\n        /* \"#utility.yul\":5066:5070   */\n      0x00\n        /* \"#utility.yul\":5061:5064   */\n      dup7\n        /* \"#utility.yul\":5057:5071   */\n      add\n        /* \"#utility.yul\":5043:5055   */\n      dup3\n        /* \"#utility.yul\":5009:5072   */\n      tag_233\n      jump\t// in\n    tag_320:\n        /* \"#utility.yul\":4917:5082   */\n      pop\n        /* \"#utility.yul\":5171:5175   */\n      0x20\n        /* \"#utility.yul\":5164:5169   */\n      dup4\n        /* \"#utility.yul\":5160:5176   */\n      add\n        /* \"#utility.yul\":5154:5177   */\n      mload\n        /* \"#utility.yul\":5224:5227   */\n      dup5\n        /* \"#utility.yul\":5218:5222   */\n      dup3\n        /* \"#utility.yul\":5214:5228   */\n      sub\n        /* \"#utility.yul\":5207:5211   */\n      0x20\n        /* \"#utility.yul\":5202:5205   */\n      dup7\n        /* \"#utility.yul\":5198:5212   */\n      add\n        /* \"#utility.yul\":5191:5229   */\n      mstore\n        /* \"#utility.yul\":5250:5323   */\n      tag_321\n        /* \"#utility.yul\":5318:5322   */\n      dup3\n        /* \"#utility.yul\":5304:5316   */\n      dup3\n        /* \"#utility.yul\":5250:5323   */\n      tag_238\n      jump\t// in\n    tag_321:\n        /* \"#utility.yul\":5242:5323   */\n      swap2\n      pop\n        /* \"#utility.yul\":5092:5334   */\n      pop\n        /* \"#utility.yul\":5413:5417   */\n      0x40\n        /* \"#utility.yul\":5406:5411   */\n      dup4\n        /* \"#utility.yul\":5402:5418   */\n      add\n        /* \"#utility.yul\":5396:5419   */\n      mload\n        /* \"#utility.yul\":5466:5469   */\n      dup5\n        /* \"#utility.yul\":5460:5464   */\n      dup3\n        /* \"#utility.yul\":5456:5470   */\n      sub\n        /* \"#utility.yul\":5449:5453   */\n      0x40\n        /* \"#utility.yul\":5444:5447   */\n      dup7\n        /* \"#utility.yul\":5440:5454   */\n      add\n        /* \"#utility.yul\":5433:5471   */\n      mstore\n        /* \"#utility.yul\":5492:5565   */\n      tag_322\n        /* \"#utility.yul\":5560:5564   */\n      dup3\n        /* \"#utility.yul\":5546:5558   */\n      dup3\n        /* \"#utility.yul\":5492:5565   */\n      tag_238\n      jump\t// in\n    tag_322:\n        /* \"#utility.yul\":5484:5565   */\n      swap2\n      pop\n        /* \"#utility.yul\":5344:5576   */\n      pop\n        /* \"#utility.yul\":5655:5659   */\n      0x60\n        /* \"#utility.yul\":5648:5653   */\n      dup4\n        /* \"#utility.yul\":5644:5660   */\n      add\n        /* \"#utility.yul\":5638:5661   */\n      mload\n        /* \"#utility.yul\":5674:5737   */\n      tag_323\n        /* \"#utility.yul\":5731:5735   */\n      0x60\n        /* \"#utility.yul\":5726:5729   */\n      dup7\n        /* \"#utility.yul\":5722:5736   */\n      add\n        /* \"#utility.yul\":5708:5720   */\n      dup3\n        /* \"#utility.yul\":5674:5737   */\n      tag_233\n      jump\t// in\n    tag_323:\n        /* \"#utility.yul\":5586:5747   */\n      pop\n        /* \"#utility.yul\":5764:5768   */\n      dup1\n        /* \"#utility.yul\":5757:5768   */\n      swap2\n      pop\n        /* \"#utility.yul\":4871:5774   */\n      pop\n        /* \"#utility.yul\":4745:5774   */\n      swap3\n      swap2\n      pop\n      pop\n      jump\t// out\n        /* \"#utility.yul\":5780:6157   */\n    tag_53:\n        /* \"#utility.yul\":5925:5929   */\n      0x00\n        /* \"#utility.yul\":5963:5965   */\n      0x20\n        /* \"#utility.yul\":5952:5961   */\n      dup3\n        /* \"#utility.yul\":5948:5966   */\n      add\n        /* \"#utility.yul\":5940:5966   */\n      swap1\n      pop\n        /* \"#utility.yul\":6012:6021   */\n      dup2\n        /* \"#utility.yul\":6006:6010   */\n      dup2\n        /* \"#utility.yul\":6002:6022   */\n      sub\n        /* \"#utility.yul\":5998:5999   */\n      0x00\n        /* \"#utility.yul\":5987:5996   */\n      dup4\n        /* \"#utility.yul\":5983:6000   */\n      add\n        /* \"#utility.yul\":5976:6023   */\n      mstore\n        /* \"#utility.yul\":6040:6150   */\n      tag_325\n        /* \"#utility.yul\":6145:6149   */\n      dup2\n        /* \"#utility.yul\":6136:6142   */\n      dup5\n        /* \"#utility.yul\":6040:6150   */\n      tag_239\n      jump\t// in\n    tag_325:\n        /* \"#utility.yul\":6032:6150   */\n      swap1\n      pop\n        /* \"#utility.yul\":5780:6157   */\n      swap3\n      swap2\n      pop\n      pop\n      jump\t// out\n        /* \"#utility.yul\":6163:6492   */\n    tag_56:\n        /* \"#utility.yul\":6222:6228   */\n      0x00\n        /* \"#utility.yul\":6271:6273   */\n      0x20\n        /* \"#utility.yul\":6259:6268   */\n      dup3\n        /* \"#utility.yul\":6250:6257   */\n      dup5\n        /* \"#utility.yul\":6246:6269   */\n      sub\n        /* \"#utility.yul\":6242:6274   */\n      slt\n        /* \"#utility.yul\":6239:6358   */\n      iszero\n      tag_327\n      jumpi\n        /* \"#utility.yul\":6277:6356   */\n      tag_328\n      tag_219\n      jump\t// in\n    tag_328:\n        /* \"#utility.yul\":6239:6358   */\n    tag_327:\n        /* \"#utility.yul\":6397:6398   */\n      0x00\n        /* \"#utility.yul\":6422:6475   */\n      tag_329\n        /* \"#utility.yul\":6467:6474   */\n      dup5\n        /* \"#utility.yul\":6458:6464   */\n      dup3\n        /* \"#utility.yul\":6447:6456   */\n      dup6\n        /* \"#utility.yul\":6443:6465   */\n      add\n        /* \"#utility.yul\":6422:6475   */\n      tag_229\n      jump\t// in\n    tag_329:\n        /* \"#utility.yul\":6412:6475   */\n      swap2\n      pop\n        /* \"#utility.yul\":6368:6485   */\n      pop\n        /* \"#utility.yul\":6163:6492   */\n      swap3\n      swap2\n      pop\n      pop\n      jump\t// out\n        /* \"#utility.yul\":6498:6616   */\n    tag_240:\n        /* \"#utility.yul\":6585:6609   */\n      tag_331\n        /* \"#utility.yul\":6603:6608   */\n      dup2\n        /* \"#utility.yul\":6585:6609   */\n      tag_221\n      jump\t// in\n    tag_331:\n        /* \"#utility.yul\":6580:6583   */\n      dup3\n        /* \"#utility.yul\":6573:6610   */\n      mstore\n        /* \"#utility.yul\":6498:6616   */\n      pop\n      pop\n      jump\t// out\n        /* \"#utility.yul\":6622:6844   */\n    tag_63:\n        /* \"#utility.yul\":6715:6719   */\n      0x00\n        /* \"#utility.yul\":6753:6755   */\n      0x20\n        /* \"#utility.yul\":6742:6751   */\n      dup3\n        /* \"#utility.yul\":6738:6756   */\n      add\n        /* \"#utility.yul\":6730:6756   */\n      swap1\n      pop\n        /* \"#utility.yul\":6766:6837   */\n      tag_333\n        /* \"#utility.yul\":6834:6835   */\n      0x00\n        /* \"#utility.yul\":6823:6832   */\n      dup4\n        /* \"#utility.yul\":6819:6836   */\n      add\n        /* \"#utility.yul\":6810:6816   */\n      dup5\n        /* \"#utility.yul\":6766:6837   */\n      tag_240\n      jump\t// in\n    tag_333:\n        /* \"#utility.yul\":6622:6844   */\n      swap3\n      swap2\n      pop\n      pop\n      jump\t// out\n        /* \"#utility.yul\":6850:6967   */\n    tag_241:\n        /* \"#utility.yul\":6959:6960   */\n      0x00\n        /* \"#utility.yul\":6956:6957   */\n      dup1\n        /* \"#utility.yul\":6949:6961   */\n      revert\n        /* \"#utility.yul\":6973:7090   */\n    tag_242:\n        /* \"#utility.yul\":7082:7083   */\n      0x00\n        /* \"#utility.yul\":7079:7080   */\n      dup1\n        /* \"#utility.yul\":7072:7084   */\n      revert\n        /* \"#utility.yul\":7096:7276   */\n    tag_243:\n        /* \"#utility.yul\":7144:7221   */\n      0x4e487b7100000000000000000000000000000000000000000000000000000000\n        /* \"#utility.yul\":7141:7142   */\n      0x00\n        /* \"#utility.yul\":7134:7222   */\n      mstore\n        /* \"#utility.yul\":7241:7245   */\n      0x41\n        /* \"#utility.yul\":7238:7239   */\n      0x04\n        /* \"#utility.yul\":7231:7246   */\n      mstore\n        /* \"#utility.yul\":7265:7269   */\n      0x24\n        /* \"#utility.yul\":7262:7263   */\n      0x00\n        /* \"#utility.yul\":7255:7270   */\n      revert\n        /* \"#utility.yul\":7282:7563   */\n    tag_244:\n        /* \"#utility.yul\":7365:7392   */\n      tag_338\n        /* \"#utility.yul\":7387:7391   */\n      dup3\n        /* \"#utility.yul\":7365:7392   */\n      tag_237\n      jump\t// in\n    tag_338:\n        /* \"#utility.yul\":7357:7363   */\n      dup2\n        /* \"#utility.yul\":7353:7393   */\n      add\n        /* \"#utility.yul\":7495:7501   */\n      dup2\n        /* \"#utility.yul\":7483:7493   */\n      dup2\n        /* \"#utility.yul\":7480:7502   */\n      lt\n        /* \"#utility.yul\":7459:7477   */\n      0xffffffffffffffff\n        /* \"#utility.yul\":7447:7457   */\n      dup3\n        /* \"#utility.yul\":7444:7478   */\n      gt\n        /* \"#utility.yul\":7441:7503   */\n      or\n        /* \"#utility.yul\":7438:7526   */\n      iszero\n      tag_339\n      jumpi\n        /* \"#utility.yul\":7506:7524   */\n      tag_340\n      tag_243\n      jump\t// in\n    tag_340:\n        /* \"#utility.yul\":7438:7526   */\n    tag_339:\n        /* \"#utility.yul\":7546:7556   */\n      dup1\n        /* \"#utility.yul\":7542:7544   */\n      0x40\n        /* \"#utility.yul\":7535:7557   */\n      mstore\n        /* \"#utility.yul\":7325:7563   */\n      pop\n        /* \"#utility.yul\":7282:7563   */\n      pop\n      pop\n      jump\t// out\n        /* \"#utility.yul\":7569:7698   */\n    tag_245:\n        /* \"#utility.yul\":7603:7609   */\n      0x00\n        /* \"#utility.yul\":7630:7650   */\n      tag_342\n      tag_218\n      jump\t// in\n    tag_342:\n        /* \"#utility.yul\":7620:7650   */\n      swap1\n      pop\n        /* \"#utility.yul\":7659:7692   */\n      tag_343\n        /* \"#utility.yul\":7687:7691   */\n      dup3\n        /* \"#utility.yul\":7679:7685   */\n      dup3\n        /* \"#utility.yul\":7659:7692   */\n      tag_244\n      jump\t// in\n    tag_343:\n        /* \"#utility.yul\":7569:7698   */\n      swap2\n      swap1\n      pop\n      jump\t// out\n        /* \"#utility.yul\":7704:8012   */\n    tag_246:\n        /* \"#utility.yul\":7766:7770   */\n      0x00\n        /* \"#utility.yul\":7856:7874   */\n      0xffffffffffffffff\n        /* \"#utility.yul\":7848:7854   */\n      dup3\n        /* \"#utility.yul\":7845:7875   */\n      gt\n        /* \"#utility.yul\":7842:7898   */\n      iszero\n      tag_345\n      jumpi\n        /* \"#utility.yul\":7878:7896   */\n      tag_346\n      tag_243\n      jump\t// in\n    tag_346:\n        /* \"#utility.yul\":7842:7898   */\n    tag_345:\n        /* \"#utility.yul\":7916:7945   */\n      tag_347\n        /* \"#utility.yul\":7938:7944   */\n      dup3\n        /* \"#utility.yul\":7916:7945   */\n      tag_237\n      jump\t// in\n    tag_347:\n        /* \"#utility.yul\":7908:7945   */\n      swap1\n      pop\n        /* \"#utility.yul\":8000:8004   */\n      0x20\n        /* \"#utility.yul\":7994:7998   */\n      dup2\n        /* \"#utility.yul\":7990:8005   */\n      add\n        /* \"#utility.yul\":7982:8005   */\n      swap1\n      pop\n        /* \"#utility.yul\":7704:8012   */\n      swap2\n      swap1\n      pop\n      jump\t// out\n        /* \"#utility.yul\":8018:8172   */\n    tag_247:\n        /* \"#utility.yul\":8102:8108   */\n      dup3\n        /* \"#utility.yul\":8097:8100   */\n      dup2\n        /* \"#utility.yul\":8092:8095   */\n      dup4\n        /* \"#utility.yul\":8079:8109   */\n      calldatacopy\n        /* \"#utility.yul\":8164:8165   */\n      0x00\n        /* \"#utility.yul\":8155:8161   */\n      dup4\n        /* \"#utility.yul\":8150:8153   */\n      dup4\n        /* \"#utility.yul\":8146:8162   */\n      add\n        /* \"#utility.yul\":8139:8166   */\n      mstore\n        /* \"#utility.yul\":8018:8172   */\n      pop\n      pop\n      pop\n      jump\t// out\n        /* \"#utility.yul\":8178:8590   */\n    tag_248:\n        /* \"#utility.yul\":8256:8261   */\n      0x00\n        /* \"#utility.yul\":8281:8347   */\n      tag_350\n        /* \"#utility.yul\":8297:8346   */\n      tag_351\n        /* \"#utility.yul\":8339:8345   */\n      dup5\n        /* \"#utility.yul\":8297:8346   */\n      tag_246\n      jump\t// in\n    tag_351:\n        /* \"#utility.yul\":8281:8347   */\n      tag_245\n      jump\t// in\n    tag_350:\n        /* \"#utility.yul\":8272:8347   */\n      swap1\n      pop\n        /* \"#utility.yul\":8370:8376   */\n      dup3\n        /* \"#utility.yul\":8363:8368   */\n      dup2\n        /* \"#utility.yul\":8356:8377   */\n      mstore\n        /* \"#utility.yul\":8408:8412   */\n      0x20\n        /* \"#utility.yul\":8401:8406   */\n      dup2\n        /* \"#utility.yul\":8397:8413   */\n      add\n        /* \"#utility.yul\":8446:8449   */\n      dup5\n        /* \"#utility.yul\":8437:8443   */\n      dup5\n        /* \"#utility.yul\":8432:8435   */\n      dup5\n        /* \"#utility.yul\":8428:8444   */\n      add\n        /* \"#utility.yul\":8425:8450   */\n      gt\n        /* \"#utility.yul\":8422:8534   */\n      iszero\n      tag_352\n      jumpi\n        /* \"#utility.yul\":8453:8532   */\n      tag_353\n      tag_242\n      jump\t// in\n    tag_353:\n        /* \"#utility.yul\":8422:8534   */\n    tag_352:\n        /* \"#utility.yul\":8543:8584   */\n      tag_354\n        /* \"#utility.yul\":8577:8583   */\n      dup5\n        /* \"#utility.yul\":8572:8575   */\n      dup3\n        /* \"#utility.yul\":8567:8570   */\n      dup6\n        /* \"#utility.yul\":8543:8584   */\n      tag_247\n      jump\t// in\n    tag_354:\n        /* \"#utility.yul\":8262:8590   */\n      pop\n        /* \"#utility.yul\":8178:8590   */\n      swap4\n      swap3\n      pop\n      pop\n      pop\n      jump\t// out\n        /* \"#utility.yul\":8610:8950   */\n    tag_249:\n        /* \"#utility.yul\":8666:8671   */\n      0x00\n        /* \"#utility.yul\":8715:8718   */\n      dup3\n        /* \"#utility.yul\":8708:8712   */\n      0x1f\n        /* \"#utility.yul\":8700:8706   */\n      dup4\n        /* \"#utility.yul\":8696:8713   */\n      add\n        /* \"#utility.yul\":8692:8719   */\n      slt\n        /* \"#utility.yul\":8682:8804   */\n      tag_356\n      jumpi\n        /* \"#utility.yul\":8723:8802   */\n      tag_357\n      tag_241\n      jump\t// in\n    tag_357:\n        /* \"#utility.yul\":8682:8804   */\n    tag_356:\n        /* \"#utility.yul\":8840:8846   */\n      dup2\n        /* \"#utility.yul\":8827:8847   */\n      calldataload\n        /* \"#utility.yul\":8865:8944   */\n      tag_358\n        /* \"#utility.yul\":8940:8943   */\n      dup5\n        /* \"#utility.yul\":8932:8938   */\n      dup3\n        /* \"#utility.yul\":8925:8929   */\n      0x20\n        /* \"#utility.yul\":8917:8923   */\n      dup7\n        /* \"#utility.yul\":8913:8930   */\n      add\n        /* \"#utility.yul\":8865:8944   */\n      tag_248\n      jump\t// in\n    tag_358:\n        /* \"#utility.yul\":8856:8944   */\n      swap2\n      pop\n        /* \"#utility.yul\":8672:8950   */\n      pop\n        /* \"#utility.yul\":8610:8950   */\n      swap3\n      swap2\n      pop\n      pop\n      jump\t// out\n        /* \"#utility.yul\":8956:9935   */\n    tag_66:\n        /* \"#utility.yul\":9053:9059   */\n      0x00\n        /* \"#utility.yul\":9061:9067   */\n      dup1\n        /* \"#utility.yul\":9069:9075   */\n      0x00\n        /* \"#utility.yul\":9118:9120   */\n      0x60\n        /* \"#utility.yul\":9106:9115   */\n      dup5\n        /* \"#utility.yul\":9097:9104   */\n      dup7\n        /* \"#utility.yul\":9093:9116   */\n      sub\n        /* \"#utility.yul\":9089:9121   */\n      slt\n        /* \"#utility.yul\":9086:9205   */\n      iszero\n      tag_360\n      jumpi\n        /* \"#utility.yul\":9124:9203   */\n      tag_361\n      tag_219\n      jump\t// in\n    tag_361:\n        /* \"#utility.yul\":9086:9205   */\n    tag_360:\n        /* \"#utility.yul\":9272:9273   */\n      0x00\n        /* \"#utility.yul\":9261:9270   */\n      dup5\n        /* \"#utility.yul\":9257:9274   */\n      add\n        /* \"#utility.yul\":9244:9275   */\n      calldataload\n        /* \"#utility.yul\":9302:9320   */\n      0xffffffffffffffff\n        /* \"#utility.yul\":9294:9300   */\n      dup2\n        /* \"#utility.yul\":9291:9321   */\n      gt\n        /* \"#utility.yul\":9288:9405   */\n      iszero\n      tag_362\n      jumpi\n        /* \"#utility.yul\":9324:9403   */\n      tag_363\n      tag_220\n      jump\t// in\n    tag_363:\n        /* \"#utility.yul\":9288:9405   */\n    tag_362:\n        /* \"#utility.yul\":9429:9492   */\n      tag_364\n        /* \"#utility.yul\":9484:9491   */\n      dup7\n        /* \"#utility.yul\":9475:9481   */\n      dup3\n        /* \"#utility.yul\":9464:9473   */\n      dup8\n        /* \"#utility.yul\":9460:9482   */\n      add\n        /* \"#utility.yul\":9429:9492   */\n      tag_249\n      jump\t// in\n    tag_364:\n        /* \"#utility.yul\":9419:9492   */\n      swap4\n      pop\n        /* \"#utility.yul\":9215:9502   */\n      pop\n        /* \"#utility.yul\":9569:9571   */\n      0x20\n        /* \"#utility.yul\":9558:9567   */\n      dup5\n        /* \"#utility.yul\":9554:9572   */\n      add\n        /* \"#utility.yul\":9541:9573   */\n      calldataload\n        /* \"#utility.yul\":9600:9618   */\n      0xffffffffffffffff\n        /* \"#utility.yul\":9592:9598   */\n      dup2\n        /* \"#utility.yul\":9589:9619   */\n      gt\n        /* \"#utility.yul\":9586:9703   */\n      iszero\n      tag_365\n      jumpi\n        /* \"#utility.yul\":9622:9701   */\n      tag_366\n      tag_220\n      jump\t// in\n    tag_366:\n        /* \"#utility.yul\":9586:9703   */\n    tag_365:\n        /* \"#utility.yul\":9727:9790   */\n      tag_367\n        /* \"#utility.yul\":9782:9789   */\n      dup7\n        /* \"#utility.yul\":9773:9779   */\n      dup3\n        /* \"#utility.yul\":9762:9771   */\n      dup8\n        /* \"#utility.yul\":9758:9780   */\n      add\n        /* \"#utility.yul\":9727:9790   */\n      tag_249\n      jump\t// in\n    tag_367:\n        /* \"#utility.yul\":9717:9790   */\n      swap3\n      pop\n        /* \"#utility.yul\":9512:9800   */\n      pop\n        /* \"#utility.yul\":9839:9841   */\n      0x40\n        /* \"#utility.yul\":9865:9918   */\n      tag_368\n        /* \"#utility.yul\":9910:9917   */\n      dup7\n        /* \"#utility.yul\":9901:9907   */\n      dup3\n        /* \"#utility.yul\":9890:9899   */\n      dup8\n        /* \"#utility.yul\":9886:9908   */\n      add\n        /* \"#utility.yul\":9865:9918   */\n      tag_223\n      jump\t// in\n    tag_368:\n        /* \"#utility.yul\":9855:9918   */\n      swap2\n      pop\n        /* \"#utility.yul\":9810:9928   */\n      pop\n        /* \"#utility.yul\":8956:9935   */\n      swap3\n      pop\n      swap3\n      pop\n      swap3\n      jump\t// out\n        /* \"#utility.yul\":9941:10740   */\n    tag_70:\n        /* \"#utility.yul\":10028:10034   */\n      0x00\n        /* \"#utility.yul\":10036:10042   */\n      dup1\n        /* \"#utility.yul\":10044:10050   */\n      0x00\n        /* \"#utility.yul\":10093:10095   */\n      0x60\n        /* \"#utility.yul\":10081:10090   */\n      dup5\n        /* \"#utility.yul\":10072:10079   */\n      dup7\n        /* \"#utility.yul\":10068:10091   */\n      sub\n        /* \"#utility.yul\":10064:10096   */\n      slt\n        /* \"#utility.yul\":10061:10180   */\n      iszero\n      tag_370\n      jumpi\n        /* \"#utility.yul\":10099:10178   */\n      tag_371\n      tag_219\n      jump\t// in\n    tag_371:\n        /* \"#utility.yul\":10061:10180   */\n    tag_370:\n        /* \"#utility.yul\":10247:10248   */\n      0x00\n        /* \"#utility.yul\":10236:10245   */\n      dup5\n        /* \"#utility.yul\":10232:10249   */\n      add\n        /* \"#utility.yul\":10219:10250   */\n      calldataload\n        /* \"#utility.yul\":10277:10295   */\n      0xffffffffffffffff\n        /* \"#utility.yul\":10269:10275   */\n      dup2\n        /* \"#utility.yul\":10266:10296   */\n      gt\n        /* \"#utility.yul\":10263:10380   */\n      iszero\n      tag_372\n      jumpi\n        /* \"#utility.yul\":10299:10378   */\n      tag_373\n      tag_220\n      jump\t// in\n    tag_373:\n        /* \"#utility.yul\":10263:10380   */\n    tag_372:\n        /* \"#utility.yul\":10404:10467   */\n      tag_374\n        /* \"#utility.yul\":10459:10466   */\n      dup7\n        /* \"#utility.yul\":10450:10456   */\n      dup3\n        /* \"#utility.yul\":10439:10448   */\n      dup8\n        /* \"#utility.yul\":10435:10457   */\n      add\n        /* \"#utility.yul\":10404:10467   */\n      tag_249\n      jump\t// in\n    tag_374:\n        /* \"#utility.yul\":10394:10467   */\n      swap4\n      pop\n        /* \"#utility.yul\":10190:10477   */\n      pop\n        /* \"#utility.yul\":10516:10518   */\n      0x20\n        /* \"#utility.yul\":10542:10595   */\n      tag_375\n        /* \"#utility.yul\":10587:10594   */\n      dup7\n        /* \"#utility.yul\":10578:10584   */\n      dup3\n        /* \"#utility.yul\":10567:10576   */\n      dup8\n        /* \"#utility.yul\":10563:10585   */\n      add\n        /* \"#utility.yul\":10542:10595   */\n      tag_229\n      jump\t// in\n    tag_375:\n        /* \"#utility.yul\":10532:10595   */\n      swap3\n      pop\n        /* \"#utility.yul\":10487:10605   */\n      pop\n        /* \"#utility.yul\":10644:10646   */\n      0x40\n        /* \"#utility.yul\":10670:10723   */\n      tag_376\n        /* \"#utility.yul\":10715:10722   */\n      dup7\n        /* \"#utility.yul\":10706:10712   */\n      dup3\n        /* \"#utility.yul\":10695:10704   */\n      dup8\n        /* \"#utility.yul\":10691:10713   */\n      add\n        /* \"#utility.yul\":10670:10723   */\n      tag_223\n      jump\t// in\n    tag_376:\n        /* \"#utility.yul\":10660:10723   */\n      swap2\n      pop\n        /* \"#utility.yul\":10615:10733   */\n      pop\n        /* \"#utility.yul\":9941:10740   */\n      swap3\n      pop\n      swap3\n      pop\n      swap3\n      jump\t// out\n        /* \"#utility.yul\":10746:11255   */\n    tag_74:\n        /* \"#utility.yul\":10815:10821   */\n      0x00\n        /* \"#utility.yul\":10864:10866   */\n      0x20\n        /* \"#utility.yul\":10852:10861   */\n      dup3\n        /* \"#utility.yul\":10843:10850   */\n      dup5\n        /* \"#utility.yul\":10839:10862   */\n      sub\n        /* \"#utility.yul\":10835:10867   */\n      slt\n        /* \"#utility.yul\":10832:10951   */\n      iszero\n      tag_378\n      jumpi\n        /* \"#utility.yul\":10870:10949   */\n      tag_379\n      tag_219\n      jump\t// in\n    tag_379:\n        /* \"#utility.yul\":10832:10951   */\n    tag_378:\n        /* \"#utility.yul\":11018:11019   */\n      0x00\n        /* \"#utility.yul\":11007:11016   */\n      dup3\n        /* \"#utility.yul\":11003:11020   */\n      add\n        /* \"#utility.yul\":10990:11021   */\n      calldataload\n        /* \"#utility.yul\":11048:11066   */\n      0xffffffffffffffff\n        /* \"#utility.yul\":11040:11046   */\n      dup2\n        /* \"#utility.yul\":11037:11067   */\n      gt\n        /* \"#utility.yul\":11034:11151   */\n      iszero\n      tag_380\n      jumpi\n        /* \"#utility.yul\":11070:11149   */\n      tag_381\n      tag_220\n      jump\t// in\n    tag_381:\n        /* \"#utility.yul\":11034:11151   */\n    tag_380:\n        /* \"#utility.yul\":11175:11238   */\n      tag_382\n        /* \"#utility.yul\":11230:11237   */\n      dup5\n        /* \"#utility.yul\":11221:11227   */\n      dup3\n        /* \"#utility.yul\":11210:11219   */\n      dup6\n        /* \"#utility.yul\":11206:11228   */\n      add\n        /* \"#utility.yul\":11175:11238   */\n      tag_249\n      jump\t// in\n    tag_382:\n        /* \"#utility.yul\":11165:11238   */\n      swap2\n      pop\n        /* \"#utility.yul\":10961:11248   */\n      pop\n        /* \"#utility.yul\":10746:11255   */\n      swap3\n      swap2\n      pop\n      pop\n      jump\t// out\n        /* \"#utility.yul\":11261:11915   */\n    tag_81:\n        /* \"#utility.yul\":11339:11345   */\n      0x00\n        /* \"#utility.yul\":11347:11353   */\n      dup1\n        /* \"#utility.yul\":11396:11398   */\n      0x40\n        /* \"#utility.yul\":11384:11393   */\n      dup4\n        /* \"#utility.yul\":11375:11382   */\n      dup6\n        /* \"#utility.yul\":11371:11394   */\n      sub\n        /* \"#utility.yul\":11367:11399   */\n      slt\n        /* \"#utility.yul\":11364:11483   */\n      iszero\n      tag_384\n      jumpi\n        /* \"#utility.yul\":11402:11481   */\n      tag_385\n      tag_219\n      jump\t// in\n    tag_385:\n        /* \"#utility.yul\":11364:11483   */\n    tag_384:\n        /* \"#utility.yul\":11550:11551   */\n      0x00\n        /* \"#utility.yul\":11539:11548   */\n      dup4\n        /* \"#utility.yul\":11535:11552   */\n      add\n        /* \"#utility.yul\":11522:11553   */\n      calldataload\n        /* \"#utility.yul\":11580:11598   */\n      0xffffffffffffffff\n        /* \"#utility.yul\":11572:11578   */\n      dup2\n        /* \"#utility.yul\":11569:11599   */\n      gt\n        /* \"#utility.yul\":11566:11683   */\n      iszero\n      tag_386\n      jumpi\n        /* \"#utility.yul\":11602:11681   */\n      tag_387\n      tag_220\n      jump\t// in\n    tag_387:\n        /* \"#utility.yul\":11566:11683   */\n    tag_386:\n        /* \"#utility.yul\":11707:11770   */\n      tag_388\n        /* \"#utility.yul\":11762:11769   */\n      dup6\n        /* \"#utility.yul\":11753:11759   */\n      dup3\n        /* \"#utility.yul\":11742:11751   */\n      dup7\n        /* \"#utility.yul\":11738:11760   */\n      add\n        /* \"#utility.yul\":11707:11770   */\n      tag_249\n      jump\t// in\n    tag_388:\n        /* \"#utility.yul\":11697:11770   */\n      swap3\n      pop\n        /* \"#utility.yul\":11493:11780   */\n      pop\n        /* \"#utility.yul\":11819:11821   */\n      0x20\n        /* \"#utility.yul\":11845:11898   */\n      tag_389\n        /* \"#utility.yul\":11890:11897   */\n      dup6\n        /* \"#utility.yul\":11881:11887   */\n      dup3\n        /* \"#utility.yul\":11870:11879   */\n      dup7\n        /* \"#utility.yul\":11866:11888   */\n      add\n        /* \"#utility.yul\":11845:11898   */\n      tag_223\n      jump\t// in\n    tag_389:\n        /* \"#utility.yul\":11835:11898   */\n      swap2\n      pop\n        /* \"#utility.yul\":11790:11908   */\n      pop\n        /* \"#utility.yul\":11261:11915   */\n      swap3\n      pop\n      swap3\n      swap1\n      pop\n      jump\t// out\n        /* \"#utility.yul\":11921:12090   */\n    tag_250:\n        /* \"#utility.yul\":12005:12016   */\n      0x00\n        /* \"#utility.yul\":12039:12045   */\n      dup3\n        /* \"#utility.yul\":12034:12037   */\n      dup3\n        /* \"#utility.yul\":12027:12046   */\n      mstore\n        /* \"#utility.yul\":12079:12083   */\n      0x20\n        /* \"#utility.yul\":12074:12077   */\n      dup3\n        /* \"#utility.yul\":12070:12084   */\n      add\n        /* \"#utility.yul\":12055:12084   */\n      swap1\n      pop\n        /* \"#utility.yul\":11921:12090   */\n      swap3\n      swap2\n      pop\n      pop\n      jump\t// out\n        /* \"#utility.yul\":12096:12278   */\n    tag_251:\n        /* \"#utility.yul\":12236:12270   */\n      0x4f776e61626c653a2063616c6c6572206973206e6f7420746865206f776e6572\n        /* \"#utility.yul\":12232:12233   */\n      0x00\n        /* \"#utility.yul\":12224:12230   */\n      dup3\n        /* \"#utility.yul\":12220:12234   */\n      add\n        /* \"#utility.yul\":12213:12271   */\n      mstore\n        /* \"#utility.yul\":12096:12278   */\n      pop\n      jump\t// out\n        /* \"#utility.yul\":12284:12650   */\n    tag_252:\n        /* \"#utility.yul\":12426:12429   */\n      0x00\n        /* \"#utility.yul\":12447:12514   */\n      tag_393\n        /* \"#utility.yul\":12511:12513   */\n      0x20\n        /* \"#utility.yul\":12506:12509   */\n      dup4\n        /* \"#utility.yul\":12447:12514   */\n      tag_250\n      jump\t// in\n    tag_393:\n        /* \"#utility.yul\":12440:12514   */\n      swap2\n      pop\n        /* \"#utility.yul\":12523:12616   */\n      tag_394\n        /* \"#utility.yul\":12612:12615   */\n      dup3\n        /* \"#utility.yul\":12523:12616   */\n      tag_251\n      jump\t// in\n    tag_394:\n        /* \"#utility.yul\":12641:12643   */\n      0x20\n        /* \"#utility.yul\":12636:12639   */\n      dup3\n        /* \"#utility.yul\":12632:12644   */\n      add\n        /* \"#utility.yul\":12625:12644   */\n      swap1\n      pop\n        /* \"#utility.yul\":12284:12650   */\n      swap2\n      swap1\n      pop\n      jump\t// out\n        /* \"#utility.yul\":12656:13075   */\n    tag_93:\n        /* \"#utility.yul\":12822:12826   */\n      0x00\n        /* \"#utility.yul\":12860:12862   */\n      0x20\n        /* \"#utility.yul\":12849:12858   */\n      dup3\n        /* \"#utility.yul\":12845:12863   */\n      add\n        /* \"#utility.yul\":12837:12863   */\n      swap1\n      pop\n        /* \"#utility.yul\":12909:12918   */\n      dup2\n        /* \"#utility.yul\":12903:12907   */\n      dup2\n        /* \"#utility.yul\":12899:12919   */\n      sub\n        /* \"#utility.yul\":12895:12896   */\n      0x00\n        /* \"#utility.yul\":12884:12893   */\n      dup4\n        /* \"#utility.yul\":12880:12897   */\n      add\n        /* \"#utility.yul\":12873:12920   */\n      mstore\n        /* \"#utility.yul\":12937:13068   */\n      tag_396\n        /* \"#utility.yul\":13063:13067   */\n      dup2\n        /* \"#utility.yul\":12937:13068   */\n      tag_252\n      jump\t// in\n    tag_396:\n        /* \"#utility.yul\":12929:13068   */\n      swap1\n      pop\n        /* \"#utility.yul\":12656:13075   */\n      swap2\n      swap1\n      pop\n      jump\t// out\n        /* \"#utility.yul\":13081:13261   */\n    tag_253:\n        /* \"#utility.yul\":13129:13206   */\n      0x4e487b7100000000000000000000000000000000000000000000000000000000\n        /* \"#utility.yul\":13126:13127   */\n      0x00\n        /* \"#utility.yul\":13119:13207   */\n      mstore\n        /* \"#utility.yul\":13226:13230   */\n      0x22\n        /* \"#utility.yul\":13223:13224   */\n      0x04\n        /* \"#utility.yul\":13216:13231   */\n      mstore\n        /* \"#utility.yul\":13250:13254   */\n      0x24\n        /* \"#utility.yul\":13247:13248   */\n      0x00\n        /* \"#utility.yul\":13240:13255   */\n      revert\n        /* \"#utility.yul\":13267:13587   */\n    tag_100:\n        /* \"#utility.yul\":13311:13317   */\n      0x00\n        /* \"#utility.yul\":13348:13349   */\n      0x02\n        /* \"#utility.yul\":13342:13346   */\n      dup3\n        /* \"#utility.yul\":13338:13350   */\n      div\n        /* \"#utility.yul\":13328:13350   */\n      swap1\n      pop\n        /* \"#utility.yul\":13395:13396   */\n      0x01\n        /* \"#utility.yul\":13389:13393   */\n      dup3\n        /* \"#utility.yul\":13385:13397   */\n      and\n        /* \"#utility.yul\":13416:13434   */\n      dup1\n        /* \"#utility.yul\":13406:13487   */\n      tag_399\n      jumpi\n        /* \"#utility.yul\":13472:13476   */\n      0x7f\n        /* \"#utility.yul\":13464:13470   */\n      dup3\n        /* \"#utility.yul\":13460:13477   */\n      and\n        /* \"#utility.yul\":13450:13477   */\n      swap2\n      pop\n        /* \"#utility.yul\":13406:13487   */\n    tag_399:\n        /* \"#utility.yul\":13534:13536   */\n      0x20\n        /* \"#utility.yul\":13526:13532   */\n      dup3\n        /* \"#utility.yul\":13523:13537   */\n      lt\n        /* \"#utility.yul\":13503:13521   */\n      dup2\n        /* \"#utility.yul\":13500:13538   */\n      sub\n        /* \"#utility.yul\":13497:13581   */\n      tag_400\n      jumpi\n        /* \"#utility.yul\":13553:13571   */\n      tag_401\n      tag_253\n      jump\t// in\n    tag_401:\n        /* \"#utility.yul\":13497:13581   */\n    tag_400:\n        /* \"#utility.yul\":13318:13587   */\n      pop\n        /* \"#utility.yul\":13267:13587   */\n      swap2\n      swap1\n      pop\n      jump\t// out\n        /* \"#utility.yul\":13593:13957   */\n    tag_254:\n        /* \"#utility.yul\":13681:13684   */\n      0x00\n        /* \"#utility.yul\":13709:13748   */\n      tag_403\n        /* \"#utility.yul\":13742:13747   */\n      dup3\n        /* \"#utility.yul\":13709:13748   */\n      tag_234\n      jump\t// in\n    tag_403:\n        /* \"#utility.yul\":13764:13835   */\n      tag_404\n        /* \"#utility.yul\":13828:13834   */\n      dup2\n        /* \"#utility.yul\":13823:13826   */\n      dup6\n        /* \"#utility.yul\":13764:13835   */\n      tag_250\n      jump\t// in\n    tag_404:\n        /* \"#utility.yul\":13757:13835   */\n      swap4\n      pop\n        /* \"#utility.yul\":13844:13896   */\n      tag_405\n        /* \"#utility.yul\":13889:13895   */\n      dup2\n        /* \"#utility.yul\":13884:13887   */\n      dup6\n        /* \"#utility.yul\":13877:13881   */\n      0x20\n        /* \"#utility.yul\":13870:13875   */\n      dup7\n        /* \"#utility.yul\":13866:13882   */\n      add\n        /* \"#utility.yul\":13844:13896   */\n      tag_236\n      jump\t// in\n    tag_405:\n        /* \"#utility.yul\":13921:13950   */\n      tag_406\n        /* \"#utility.yul\":13943:13949   */\n      dup2\n        /* \"#utility.yul\":13921:13950   */\n      tag_237\n      jump\t// in\n    tag_406:\n        /* \"#utility.yul\":13916:13919   */\n      dup5\n        /* \"#utility.yul\":13912:13951   */\n      add\n        /* \"#utility.yul\":13905:13951   */\n      swap2\n      pop\n        /* \"#utility.yul\":13685:13957   */\n      pop\n        /* \"#utility.yul\":13593:13957   */\n      swap3\n      swap2\n      pop\n      pop\n      jump\t// out\n        /* \"#utility.yul\":13963:14386   */\n    tag_167:\n        /* \"#utility.yul\":14104:14108   */\n      0x00\n        /* \"#utility.yul\":14142:14144   */\n      0x40\n        /* \"#utility.yul\":14131:14140   */\n      dup3\n        /* \"#utility.yul\":14127:14145   */\n      add\n        /* \"#utility.yul\":14119:14145   */\n      swap1\n      pop\n        /* \"#utility.yul\":14155:14226   */\n      tag_408\n        /* \"#utility.yul\":14223:14224   */\n      0x00\n        /* \"#utility.yul\":14212:14221   */\n      dup4\n        /* \"#utility.yul\":14208:14225   */\n      add\n        /* \"#utility.yul\":14199:14205   */\n      dup6\n        /* \"#utility.yul\":14155:14226   */\n      tag_230\n      jump\t// in\n    tag_408:\n        /* \"#utility.yul\":14273:14282   */\n      dup2\n        /* \"#utility.yul\":14267:14271   */\n      dup2\n        /* \"#utility.yul\":14263:14283   */\n      sub\n        /* \"#utility.yul\":14258:14260   */\n      0x20\n        /* \"#utility.yul\":14247:14256   */\n      dup4\n        /* \"#utility.yul\":14243:14261   */\n      add\n        /* \"#utility.yul\":14236:14284   */\n      mstore\n        /* \"#utility.yul\":14301:14379   */\n      tag_409\n        /* \"#utility.yul\":14374:14378   */\n      dup2\n        /* \"#utility.yul\":14365:14371   */\n      dup5\n        /* \"#utility.yul\":14301:14379   */\n      tag_254\n      jump\t// in\n    tag_409:\n        /* \"#utility.yul\":14293:14379   */\n      swap1\n      pop\n        /* \"#utility.yul\":13963:14386   */\n      swap4\n      swap3\n      pop\n      pop\n      pop\n      jump\t// out\n        /* \"#utility.yul\":14392:14535   */\n    tag_255:\n        /* \"#utility.yul\":14449:14454   */\n      0x00\n        /* \"#utility.yul\":14480:14486   */\n      dup2\n        /* \"#utility.yul\":14474:14487   */\n      mload\n        /* \"#utility.yul\":14465:14487   */\n      swap1\n      pop\n        /* \"#utility.yul\":14496:14529   */\n      tag_411\n        /* \"#utility.yul\":14523:14528   */\n      dup2\n        /* \"#utility.yul\":14496:14529   */\n      tag_222\n      jump\t// in\n    tag_411:\n        /* \"#utility.yul\":14392:14535   */\n      swap3\n      swap2\n      pop\n      pop\n      jump\t// out\n        /* \"#utility.yul\":14541:14892   */\n    tag_171:\n        /* \"#utility.yul\":14611:14617   */\n      0x00\n        /* \"#utility.yul\":14660:14662   */\n      0x20\n        /* \"#utility.yul\":14648:14657   */\n      dup3\n        /* \"#utility.yul\":14639:14646   */\n      dup5\n        /* \"#utility.yul\":14635:14658   */\n      sub\n        /* \"#utility.yul\":14631:14663   */\n      slt\n        /* \"#utility.yul\":14628:14747   */\n      iszero\n      tag_413\n      jumpi\n        /* \"#utility.yul\":14666:14745   */\n      tag_414\n      tag_219\n      jump\t// in\n    tag_414:\n        /* \"#utility.yul\":14628:14747   */\n    tag_413:\n        /* \"#utility.yul\":14786:14787   */\n      0x00\n        /* \"#utility.yul\":14811:14875   */\n      tag_415\n        /* \"#utility.yul\":14867:14874   */\n      dup5\n        /* \"#utility.yul\":14858:14864   */\n      dup3\n        /* \"#utility.yul\":14847:14856   */\n      dup6\n        /* \"#utility.yul\":14843:14865   */\n      add\n        /* \"#utility.yul\":14811:14875   */\n      tag_255\n      jump\t// in\n    tag_415:\n        /* \"#utility.yul\":14801:14875   */\n      swap2\n      pop\n        /* \"#utility.yul\":14757:14885   */\n      pop\n        /* \"#utility.yul\":14541:14892   */\n      swap3\n      swap2\n      pop\n      pop\n      jump\t// out\n        /* \"#utility.yul\":14898:15230   */\n    tag_173:\n        /* \"#utility.yul\":15019:15023   */\n      0x00\n        /* \"#utility.yul\":15057:15059   */\n      0x40\n        /* \"#utility.yul\":15046:15055   */\n      dup3\n        /* \"#utility.yul\":15042:15060   */\n      add\n        /* \"#utility.yul\":15034:15060   */\n      swap1\n      pop\n        /* \"#utility.yul\":15070:15141   */\n      tag_417\n        /* \"#utility.yul\":15138:15139   */\n      0x00\n        /* \"#utility.yul\":15127:15136   */\n      dup4\n        /* \"#utility.yul\":15123:15140   */\n      add\n        /* \"#utility.yul\":15114:15120   */\n      dup6\n        /* \"#utility.yul\":15070:15141   */\n      tag_240\n      jump\t// in\n    tag_417:\n        /* \"#utility.yul\":15151:15223   */\n      tag_418\n        /* \"#utility.yul\":15219:15221   */\n      0x20\n        /* \"#utility.yul\":15208:15217   */\n      dup4\n        /* \"#utility.yul\":15204:15222   */\n      add\n        /* \"#utility.yul\":15195:15201   */\n      dup5\n        /* \"#utility.yul\":15151:15223   */\n      tag_240\n      jump\t// in\n    tag_418:\n        /* \"#utility.yul\":14898:15230   */\n      swap4\n      swap3\n      pop\n      pop\n      pop\n      jump\t// out\n        /* \"#utility.yul\":15236:15461   */\n    tag_256:\n        /* \"#utility.yul\":15376:15410   */\n      0x4f776e61626c653a206e6577206f776e657220697320746865207a65726f2061\n        /* \"#utility.yul\":15372:15373   */\n      0x00\n        /* \"#utility.yul\":15364:15370   */\n      dup3\n        /* \"#utility.yul\":15360:15374   */\n      add\n        /* \"#utility.yul\":15353:15411   */\n      mstore\n        /* \"#utility.yul\":15445:15453   */\n      0x6464726573730000000000000000000000000000000000000000000000000000\n        /* \"#utility.yul\":15440:15442   */\n      0x20\n        /* \"#utility.yul\":15432:15438   */\n      dup3\n        /* \"#utility.yul\":15428:15443   */\n      add\n        /* \"#utility.yul\":15421:15454   */\n      mstore\n        /* \"#utility.yul\":15236:15461   */\n      pop\n      jump\t// out\n        /* \"#utility.yul\":15467:15833   */\n    tag_257:\n        /* \"#utility.yul\":15609:15612   */\n      0x00\n        /* \"#utility.yul\":15630:15697   */\n      tag_421\n        /* \"#utility.yul\":15694:15696   */\n      0x26\n        /* \"#utility.yul\":15689:15692   */\n      dup4\n        /* \"#utility.yul\":15630:15697   */\n      tag_250\n      jump\t// in\n    tag_421:\n        /* \"#utility.yul\":15623:15697   */\n      swap2\n      pop\n        /* \"#utility.yul\":15706:15799   */\n      tag_422\n        /* \"#utility.yul\":15795:15798   */\n      dup3\n        /* \"#utility.yul\":15706:15799   */\n      tag_256\n      jump\t// in\n    tag_422:\n        /* \"#utility.yul\":15824:15826   */\n      0x40\n        /* \"#utility.yul\":15819:15822   */\n      dup3\n        /* \"#utility.yul\":15815:15827   */\n      add\n        /* \"#utility.yul\":15808:15827   */\n      swap1\n      pop\n        /* \"#utility.yul\":15467:15833   */\n      swap2\n      swap1\n      pop\n      jump\t// out\n        /* \"#utility.yul\":15839:16258   */\n    tag_189:\n        /* \"#utility.yul\":16005:16009   */\n      0x00\n        /* \"#utility.yul\":16043:16045   */\n      0x20\n        /* \"#utility.yul\":16032:16041   */\n      dup3\n        /* \"#utility.yul\":16028:16046   */\n      add\n        /* \"#utility.yul\":16020:16046   */\n      swap1\n      pop\n        /* \"#utility.yul\":16092:16101   */\n      dup2\n        /* \"#utility.yul\":16086:16090   */\n      dup2\n        /* \"#utility.yul\":16082:16102   */\n      sub\n        /* \"#utility.yul\":16078:16079   */\n      0x00\n        /* \"#utility.yul\":16067:16076   */\n      dup4\n        /* \"#utility.yul\":16063:16080   */\n      add\n        /* \"#utility.yul\":16056:16103   */\n      mstore\n        /* \"#utility.yul\":16120:16251   */\n      tag_424\n        /* \"#utility.yul\":16246:16250   */\n      dup2\n        /* \"#utility.yul\":16120:16251   */\n      tag_257\n      jump\t// in\n    tag_424:\n        /* \"#utility.yul\":16112:16251   */\n      swap1\n      pop\n        /* \"#utility.yul\":15839:16258   */\n      swap2\n      swap1\n      pop\n      jump\t// out\n\n    auxdata: 0xa264697066735822122041f790c0395d7d64a80c98910087d92827a6db3ae3707ab272bd4ec07e207e3164736f6c634300080d0033\n}\n",
				"bytecode": {
					"linkReferences": {},
					"object": "608060405273fae53841d623a35851c00f66742768cf28b01268600160006101000a81548173ffffffffffffffffffffffffffffffffffffffff021916908373ffffffffffffffffffffffffffffffffffffffff160217905550600160009054906101000a900473ffffffffffffffffffffffffffffffffffffffff16600260006101000a81548173ffffffffffffffffffffffffffffffffffffffff021916908373ffffffffffffffffffffffffffffffffffffffff1602179055503480156100c857600080fd5b506100e56100da6100ea60201b60201c565b6100f260201b60201c565b6101b6565b600033905090565b60008060009054906101000a900473ffffffffffffffffffffffffffffffffffffffff169050816000806101000a81548173ffffffffffffffffffffffffffffffffffffffff021916908373ffffffffffffffffffffffffffffffffffffffff1602179055508173ffffffffffffffffffffffffffffffffffffffff168173ffffffffffffffffffffffffffffffffffffffff167f8be0079c531659141344cd1fd0a4f28419497f9722a3daafe3b4186f6b6457e060405160405180910390a35050565b611ce1806101c56000396000f3fe608060405234801561001057600080fd5b50600436106101005760003560e01c8063ad57503511610097578063d6f70eb311610066578063d6f70eb3146102a9578063f2fde38b146102c5578063fa0e9e41146102e1578063fbc2cf13146102fd57610100565b8063ad57503514610211578063b2b72bc414610241578063bafdee1414610271578063d1933ddd1461028d57610100565b8063715018a6116100d3578063715018a61461019d578063717b9b6c146101a75780638da5cb5b146101c3578063917b8fd0146101e157610100565b80630e197dc9146101055780633960a892146101355780634b3cef4414610151578063622a47e614610181575b600080fd5b61011f600480360381019061011a9190611472565b610319565b60405161012c91906114ba565b60405180910390f35b61014f600480360381019061014a9190611533565b610343565b005b61016b60048036038101906101669190611472565b61045c565b6040516101789190611582565b60405180910390f35b61019b60048036038101906101969190611533565b61049e565b005b6101a5610675565b005b6101c160048036038101906101bc91906115c9565b6106fd565b005b6101cb6107a8565b6040516101d89190611582565b60405180910390f35b6101fb60048036038101906101f69190611472565b6107d1565b604051610208919061171b565b60405180910390f35b61022b6004803603810190610226919061173d565b6109a1565b604051610238919061171b565b60405180910390f35b61025b6004803603810190610256919061173d565b610b38565b6040516102689190611779565b60405180910390f35b61028b600480360381019061028691906118c9565b610ccc565b005b6102a760048036038101906102a29190611954565b610d50565b005b6102c360048036038101906102be91906119c3565b610f83565b005b6102df60048036038101906102da919061173d565b610fe3565b005b6102fb60048036038101906102f69190611a0c565b6110da565b005b6103176004803603810190610312919061173d565b611144565b005b60006005600083815260200190815260200160002060009054906101000a900460ff169050919050565b61034b611204565b73ffffffffffffffffffffffffffffffffffffffff166103696107a8565b73ffffffffffffffffffffffffffffffffffffffff16146103bf576040517f08c379a00000000000000000000000000000000000000000000000000000000081526004016103b690611ac5565b60405180910390fd5b806003600084815260200190815260200160002060006101000a81548173ffffffffffffffffffffffffffffffffffffffff021916908373ffffffffffffffffffffffffffffffffffffffff16021790555081600460008373ffffffffffffffffffffffffffffffffffffffff1673ffffffffffffffffffffffffffffffffffffffff168152602001908152602001600020600001819055505050565b6000806003600084815260200190815260200160002060009054906101000a900473ffffffffffffffffffffffffffffffffffffffff16905080915050919050565b816003600082815260200190815260200160002060009054906101000a900473ffffffffffffffffffffffffffffffffffffffff1673ffffffffffffffffffffffffffffffffffffffff163373ffffffffffffffffffffffffffffffffffffffff161461050a57600080fd5b60006003600085815260200190815260200160002060009054906101000a900473ffffffffffffffffffffffffffffffffffffffff1690506000600460008373ffffffffffffffffffffffffffffffffffffffff1673ffffffffffffffffffffffffffffffffffffffff168152602001908152602001600020905080600460008673ffffffffffffffffffffffffffffffffffffffff1673ffffffffffffffffffffffffffffffffffffffff1681526020019081526020016000206000820154816000015560018201816001019080546105e390611b14565b6105ee9291906112d0565b50600282018160020190805461060390611b14565b61060e9291906112d0565b5060038201548160030155905050836003600087815260200190815260200160002060006101000a81548173ffffffffffffffffffffffffffffffffffffffff021916908373ffffffffffffffffffffffffffffffffffffffff1602179055505050505050565b61067d611204565b73ffffffffffffffffffffffffffffffffffffffff1661069b6107a8565b73ffffffffffffffffffffffffffffffffffffffff16146106f1576040517f08c379a00000000000000000000000000000000000000000000000000000000081526004016106e890611ac5565b60405180910390fd5b6106fb600061120c565b565b610705611204565b73ffffffffffffffffffffffffffffffffffffffff166107236107a8565b73ffffffffffffffffffffffffffffffffffffffff1614610779576040517f08c379a000000000000000000000000000000000000000000000000000000000815260040161077090611ac5565b60405180910390fd5b806005600084815260200190815260200160002060006101000a81548160ff0219169083151502179055505050565b60008060009054906101000a900473ffffffffffffffffffffffffffffffffffffffff16905090565b6107d961135d565b60006003600084815260200190815260200160002060009054906101000a900473ffffffffffffffffffffffffffffffffffffffff1690506000600460008373ffffffffffffffffffffffffffffffffffffffff1673ffffffffffffffffffffffffffffffffffffffff1681526020019081526020016000206040518060800160405290816000820154815260200160018201805461087790611b14565b80601f01602080910402602001604051908101604052809291908181526020018280546108a390611b14565b80156108f05780601f106108c5576101008083540402835291602001916108f0565b820191906000526020600020905b8154815290600101906020018083116108d357829003601f168201915b5050505050815260200160028201805461090990611b14565b80601f016020809104026020016040519081016040528092919081815260200182805461093590611b14565b80156109825780601f1061095757610100808354040283529160200191610982565b820191906000526020600020905b81548152906001019060200180831161096557829003601f168201915b5050505050815260200160038201548152505090508092505050919050565b6109a961135d565b6000600460008473ffffffffffffffffffffffffffffffffffffffff1673ffffffffffffffffffffffffffffffffffffffff16815260200190815260200160002060405180608001604052908160008201548152602001600182018054610a0f90611b14565b80601f0160208091040260200160405190810160405280929190818152602001828054610a3b90611b14565b8015610a885780601f10610a5d57610100808354040283529160200191610a88565b820191906000526020600020905b815481529060010190602001808311610a6b57829003601f168201915b50505050508152602001600282018054610aa190611b14565b80601f0160208091040260200160405190810160405280929190818152602001828054610acd90611b14565b8015610b1a5780601f10610aef57610100808354040283529160200191610b1a565b820191906000526020600020905b815481529060010190602001808311610afd57829003601f168201915b50505050508152602001600382015481525050905080915050919050565b600080600460008473ffffffffffffffffffffffffffffffffffffffff1673ffffffffffffffffffffffffffffffffffffffff16815260200190815260200160002060405180608001604052908160008201548152602001600182018054610b9f90611b14565b80601f0160208091040260200160405190810160405280929190818152602001828054610bcb90611b14565b8015610c185780601f10610bed57610100808354040283529160200191610c18565b820191906000526020600020905b815481529060010190602001808311610bfb57829003601f168201915b50505050508152602001600282018054610c3190611b14565b80601f0160208091040260200160405190810160405280929190818152602001828054610c5d90611b14565b8015610caa5780601f10610c7f57610100808354040283529160200191610caa565b820191906000526020600020905b815481529060010190602001808311610c8d57829003601f168201915b5050505050815260200160038201548152505090508060000151915050919050565b6000600460003373ffffffffffffffffffffffffffffffffffffffff1673ffffffffffffffffffffffffffffffffffffffff168152602001908152602001600020905083816001019080519060200190610d27929190611385565b5082816002019080519060200190610d40929190611385565b5081816003018190555050505050565b610d58611204565b73ffffffffffffffffffffffffffffffffffffffff16610d766107a8565b73ffffffffffffffffffffffffffffffffffffffff1614610dcc576040517f08c379a0000000000000000000000000000000000000000000000000000000008152600401610dc390611ac5565b60405180910390fd5b600160009054906101000a900473ffffffffffffffffffffffffffffffffffffffff16600260006101000a81548173ffffffffffffffffffffffffffffffffffffffff021916908373ffffffffffffffffffffffffffffffffffffffff16021790555060003090506000600260009054906101000a900473ffffffffffffffffffffffffffffffffffffffff1673ffffffffffffffffffffffffffffffffffffffff1663cf37834383876040518363ffffffff1660e01b8152600401610e93929190611b7e565b6020604051808303816000875af1158015610eb2573d6000803e3d6000fd5b505050506040513d601f19601f82011682018060405250810190610ed69190611bc3565b9050600260009054906101000a900473ffffffffffffffffffffffffffffffffffffffff1673ffffffffffffffffffffffffffffffffffffffff1663e1b2e97982856040518363ffffffff1660e01b8152600401610f35929190611bf0565b600060405180830381600087803b158015610f4f57600080fd5b505af1158015610f63573d6000803e3d6000fd5b50505050610f728160016106fd565b610f7c8185610343565b5050505050565b6000600460003373ffffffffffffffffffffffffffffffffffffffff1673ffffffffffffffffffffffffffffffffffffffff168152602001908152602001600020905081816001019080519060200190610fde929190611385565b505050565b610feb611204565b73ffffffffffffffffffffffffffffffffffffffff166110096107a8565b73ffffffffffffffffffffffffffffffffffffffff161461105f576040517f08c379a000000000000000000000000000000000000000000000000000000000815260040161105690611ac5565b60405180910390fd5b600073ffffffffffffffffffffffffffffffffffffffff168173ffffffffffffffffffffffffffffffffffffffff16036110ce576040517f08c379a00000000000000000000000000000000000000000000000000000000081526004016110c590611c8b565b60405180910390fd5b6110d78161120c565b50565b6000600460003373ffffffffffffffffffffffffffffffffffffffff1673ffffffffffffffffffffffffffffffffffffffff168152602001908152602001600020905082816002019080519060200190611135929190611385565b50818160030181905550505050565b61114c611204565b73ffffffffffffffffffffffffffffffffffffffff1661116a6107a8565b73ffffffffffffffffffffffffffffffffffffffff16146111c0576040517f08c379a00000000000000000000000000000000000000000000000000000000081526004016111b790611ac5565b60405180910390fd5b80600260006101000a81548173ffffffffffffffffffffffffffffffffffffffff021916908373ffffffffffffffffffffffffffffffffffffffff16021790555050565b600033905090565b60008060009054906101000a900473ffffffffffffffffffffffffffffffffffffffff169050816000806101000a81548173ffffffffffffffffffffffffffffffffffffffff021916908373ffffffffffffffffffffffffffffffffffffffff1602179055508173ffffffffffffffffffffffffffffffffffffffff168173ffffffffffffffffffffffffffffffffffffffff167f8be0079c531659141344cd1fd0a4f28419497f9722a3daafe3b4186f6b6457e060405160405180910390a35050565b8280546112dc90611b14565b90600052602060002090601f0160209004810192826112fe576000855561134c565b82601f1061130f578054855561134c565b8280016001018555821561134c57600052602060002091601f016020900482015b8281111561134b578254825591600101919060010190611330565b5b509050611359919061140b565b5090565b6040518060800160405280600081526020016060815260200160608152602001600081525090565b82805461139190611b14565b90600052602060002090601f0160209004810192826113b357600085556113fa565b82601f106113cc57805160ff19168380011785556113fa565b828001600101855582156113fa579182015b828111156113f95782518255916020019190600101906113de565b5b509050611407919061140b565b5090565b5b8082111561142457600081600090555060010161140c565b5090565b6000604051905090565b600080fd5b600080fd5b6000819050919050565b61144f8161143c565b811461145a57600080fd5b50565b60008135905061146c81611446565b92915050565b60006020828403121561148857611487611432565b5b60006114968482850161145d565b91505092915050565b60008115159050919050565b6114b48161149f565b82525050565b60006020820190506114cf60008301846114ab565b92915050565b600073ffffffffffffffffffffffffffffffffffffffff82169050919050565b6000611500826114d5565b9050919050565b611510816114f5565b811461151b57600080fd5b50565b60008135905061152d81611507565b92915050565b6000806040838503121561154a57611549611432565b5b60006115588582860161145d565b92505060206115698582860161151e565b9150509250929050565b61157c816114f5565b82525050565b60006020820190506115976000830184611573565b92915050565b6115a68161149f565b81146115b157600080fd5b50565b6000813590506115c38161159d565b92915050565b600080604083850312156115e0576115df611432565b5b60006115ee8582860161145d565b92505060206115ff858286016115b4565b9150509250929050565b6116128161143c565b82525050565b600081519050919050565b600082825260208201905092915050565b60005b83811015611652578082015181840152602081019050611637565b83811115611661576000848401525b50505050565b6000601f19601f8301169050919050565b600061168382611618565b61168d8185611623565b935061169d818560208601611634565b6116a681611667565b840191505092915050565b60006080830160008301516116c96000860182611609565b50602083015184820360208601526116e18282611678565b915050604083015184820360408601526116fb8282611678565b91505060608301516117106060860182611609565b508091505092915050565b6000602082019050818103600083015261173581846116b1565b905092915050565b60006020828403121561175357611752611432565b5b60006117618482850161151e565b91505092915050565b6117738161143c565b82525050565b600060208201905061178e600083018461176a565b92915050565b600080fd5b600080fd5b7f4e487b7100000000000000000000000000000000000000000000000000000000600052604160045260246000fd5b6117d682611667565b810181811067ffffffffffffffff821117156117f5576117f461179e565b5b80604052505050565b6000611808611428565b905061181482826117cd565b919050565b600067ffffffffffffffff8211156118345761183361179e565b5b61183d82611667565b9050602081019050919050565b82818337600083830152505050565b600061186c61186784611819565b6117fe565b90508281526020810184848401111561188857611887611799565b5b61189384828561184a565b509392505050565b600082601f8301126118b0576118af611794565b5b81356118c0848260208601611859565b91505092915050565b6000806000606084860312156118e2576118e1611432565b5b600084013567ffffffffffffffff811115611900576118ff611437565b5b61190c8682870161189b565b935050602084013567ffffffffffffffff81111561192d5761192c611437565b5b6119398682870161189b565b925050604061194a8682870161145d565b9150509250925092565b60008060006060848603121561196d5761196c611432565b5b600084013567ffffffffffffffff81111561198b5761198a611437565b5b6119978682870161189b565b93505060206119a88682870161151e565b92505060406119b98682870161145d565b9150509250925092565b6000602082840312156119d9576119d8611432565b5b600082013567ffffffffffffffff8111156119f7576119f6611437565b5b611a038482850161189b565b91505092915050565b60008060408385031215611a2357611a22611432565b5b600083013567ffffffffffffffff811115611a4157611a40611437565b5b611a4d8582860161189b565b9250506020611a5e8582860161145d565b9150509250929050565b600082825260208201905092915050565b7f4f776e61626c653a2063616c6c6572206973206e6f7420746865206f776e6572600082015250565b6000611aaf602083611a68565b9150611aba82611a79565b602082019050919050565b60006020820190508181036000830152611ade81611aa2565b9050919050565b7f4e487b7100000000000000000000000000000000000000000000000000000000600052602260045260246000fd5b60006002820490506001821680611b2c57607f821691505b602082108103611b3f57611b3e611ae5565b5b50919050565b6000611b5082611618565b611b5a8185611a68565b9350611b6a818560208601611634565b611b7381611667565b840191505092915050565b6000604082019050611b936000830185611573565b8181036020830152611ba58184611b45565b90509392505050565b600081519050611bbd81611446565b92915050565b600060208284031215611bd957611bd8611432565b5b6000611be784828501611bae565b91505092915050565b6000604082019050611c05600083018561176a565b611c12602083018461176a565b9392505050565b7f4f776e61626c653a206e6577206f776e657220697320746865207a65726f206160008201527f6464726573730000000000000000000000000000000000000000000000000000602082015250565b6000611c75602683611a68565b9150611c8082611c19565b604082019050919050565b60006020820190508181036000830152611ca481611c68565b905091905056fea264697066735822122041f790c0395d7d64a80c98910087d92827a6db3ae3707ab272bd4ec07e207e3164736f6c634300080d0033",
					"opcodes": "PUSH1 0x80 PUSH1 0x40 MSTORE PUSH20 0xFAE53841D623A35851C00F66742768CF28B01268 PUSH1 0x1 PUSH1 0x0 PUSH2 0x100 EXP DUP2 SLOAD DUP2 PUSH20 0xFFFFFFFFFFFFFFFFFFFFFFFFFFFFFFFFFFFFFFFF MUL NOT AND SWAP1 DUP4 PUSH20 0xFFFFFFFFFFFFFFFFFFFFFFFFFFFFFFFFFFFFFFFF AND MUL OR SWAP1 SSTORE POP PUSH1 0x1 PUSH1 0x0 SWAP1 SLOAD SWAP1 PUSH2 0x100 EXP SWAP1 DIV PUSH20 0xFFFFFFFFFFFFFFFFFFFFFFFFFFFFFFFFFFFFFFFF AND PUSH1 0x2 PUSH1 0x0 PUSH2 0x100 EXP DUP2 SLOAD DUP2 PUSH20 0xFFFFFFFFFFFFFFFFFFFFFFFFFFFFFFFFFFFFFFFF MUL NOT AND SWAP1 DUP4 PUSH20 0xFFFFFFFFFFFFFFFFFFFFFFFFFFFFFFFFFFFFFFFF AND MUL OR SWAP1 SSTORE POP CALLVALUE DUP1 ISZERO PUSH2 0xC8 JUMPI PUSH1 0x0 DUP1 REVERT JUMPDEST POP PUSH2 0xE5 PUSH2 0xDA PUSH2 0xEA PUSH1 0x20 SHL PUSH1 0x20 SHR JUMP JUMPDEST PUSH2 0xF2 PUSH1 0x20 SHL PUSH1 0x20 SHR JUMP JUMPDEST PUSH2 0x1B6 JUMP JUMPDEST PUSH1 0x0 CALLER SWAP1 POP SWAP1 JUMP JUMPDEST PUSH1 0x0 DUP1 PUSH1 0x0 SWAP1 SLOAD SWAP1 PUSH2 0x100 EXP SWAP1 DIV PUSH20 0xFFFFFFFFFFFFFFFFFFFFFFFFFFFFFFFFFFFFFFFF AND SWAP1 POP DUP2 PUSH1 0x0 DUP1 PUSH2 0x100 EXP DUP2 SLOAD DUP2 PUSH20 0xFFFFFFFFFFFFFFFFFFFFFFFFFFFFFFFFFFFFFFFF MUL NOT AND SWAP1 DUP4 PUSH20 0xFFFFFFFFFFFFFFFFFFFFFFFFFFFFFFFFFFFFFFFF AND MUL OR SWAP1 SSTORE POP DUP2 PUSH20 0xFFFFFFFFFFFFFFFFFFFFFFFFFFFFFFFFFFFFFFFF AND DUP2 PUSH20 0xFFFFFFFFFFFFFFFFFFFFFFFFFFFFFFFFFFFFFFFF AND PUSH32 0x8BE0079C531659141344CD1FD0A4F28419497F9722A3DAAFE3B4186F6B6457E0 PUSH1 0x40 MLOAD PUSH1 0x40 MLOAD DUP1 SWAP2 SUB SWAP1 LOG3 POP POP JUMP JUMPDEST PUSH2 0x1CE1 DUP1 PUSH2 0x1C5 PUSH1 0x0 CODECOPY PUSH1 0x0 RETURN INVALID PUSH1 0x80 PUSH1 0x40 MSTORE CALLVALUE DUP1 ISZERO PUSH2 0x10 JUMPI PUSH1 0x0 DUP1 REVERT JUMPDEST POP PUSH1 0x4 CALLDATASIZE LT PUSH2 0x100 JUMPI PUSH1 0x0 CALLDATALOAD PUSH1 0xE0 SHR DUP1 PUSH4 0xAD575035 GT PUSH2 0x97 JUMPI DUP1 PUSH4 0xD6F70EB3 GT PUSH2 0x66 JUMPI DUP1 PUSH4 0xD6F70EB3 EQ PUSH2 0x2A9 JUMPI DUP1 PUSH4 0xF2FDE38B EQ PUSH2 0x2C5 JUMPI DUP1 PUSH4 0xFA0E9E41 EQ PUSH2 0x2E1 JUMPI DUP1 PUSH4 0xFBC2CF13 EQ PUSH2 0x2FD JUMPI PUSH2 0x100 JUMP JUMPDEST DUP1 PUSH4 0xAD575035 EQ PUSH2 0x211 JUMPI DUP1 PUSH4 0xB2B72BC4 EQ PUSH2 0x241 JUMPI DUP1 PUSH4 0xBAFDEE14 EQ PUSH2 0x271 JUMPI DUP1 PUSH4 0xD1933DDD EQ PUSH2 0x28D JUMPI PUSH2 0x100 JUMP JUMPDEST DUP1 PUSH4 0x715018A6 GT PUSH2 0xD3 JUMPI DUP1 PUSH4 0x715018A6 EQ PUSH2 0x19D JUMPI DUP1 PUSH4 0x717B9B6C EQ PUSH2 0x1A7 JUMPI DUP1 PUSH4 0x8DA5CB5B EQ PUSH2 0x1C3 JUMPI DUP1 PUSH4 0x917B8FD0 EQ PUSH2 0x1E1 JUMPI PUSH2 0x100 JUMP JUMPDEST DUP1 PUSH4 0xE197DC9 EQ PUSH2 0x105 JUMPI DUP1 PUSH4 0x3960A892 EQ PUSH2 0x135 JUMPI DUP1 PUSH4 0x4B3CEF44 EQ PUSH2 0x151 JUMPI DUP1 PUSH4 0x622A47E6 EQ PUSH2 0x181 JUMPI JUMPDEST PUSH1 0x0 DUP1 REVERT JUMPDEST PUSH2 0x11F PUSH1 0x4 DUP1 CALLDATASIZE SUB DUP2 ADD SWAP1 PUSH2 0x11A SWAP2 SWAP1 PUSH2 0x1472 JUMP JUMPDEST PUSH2 0x319 JUMP JUMPDEST PUSH1 0x40 MLOAD PUSH2 0x12C SWAP2 SWAP1 PUSH2 0x14BA JUMP JUMPDEST PUSH1 0x40 MLOAD DUP1 SWAP2 SUB SWAP1 RETURN JUMPDEST PUSH2 0x14F PUSH1 0x4 DUP1 CALLDATASIZE SUB DUP2 ADD SWAP1 PUSH2 0x14A SWAP2 SWAP1 PUSH2 0x1533 JUMP JUMPDEST PUSH2 0x343 JUMP JUMPDEST STOP JUMPDEST PUSH2 0x16B PUSH1 0x4 DUP1 CALLDATASIZE SUB DUP2 ADD SWAP1 PUSH2 0x166 SWAP2 SWAP1 PUSH2 0x1472 JUMP JUMPDEST PUSH2 0x45C JUMP JUMPDEST PUSH1 0x40 MLOAD PUSH2 0x178 SWAP2 SWAP1 PUSH2 0x1582 JUMP JUMPDEST PUSH1 0x40 MLOAD DUP1 SWAP2 SUB SWAP1 RETURN JUMPDEST PUSH2 0x19B PUSH1 0x4 DUP1 CALLDATASIZE SUB DUP2 ADD SWAP1 PUSH2 0x196 SWAP2 SWAP1 PUSH2 0x1533 JUMP JUMPDEST PUSH2 0x49E JUMP JUMPDEST STOP JUMPDEST PUSH2 0x1A5 PUSH2 0x675 JUMP JUMPDEST STOP JUMPDEST PUSH2 0x1C1 PUSH1 0x4 DUP1 CALLDATASIZE SUB DUP2 ADD SWAP1 PUSH2 0x1BC SWAP2 SWAP1 PUSH2 0x15C9 JUMP JUMPDEST PUSH2 0x6FD JUMP JUMPDEST STOP JUMPDEST PUSH2 0x1CB PUSH2 0x7A8 JUMP JUMPDEST PUSH1 0x40 MLOAD PUSH2 0x1D8 SWAP2 SWAP1 PUSH2 0x1582 JUMP JUMPDEST PUSH1 0x40 MLOAD DUP1 SWAP2 SUB SWAP1 RETURN JUMPDEST PUSH2 0x1FB PUSH1 0x4 DUP1 CALLDATASIZE SUB DUP2 ADD SWAP1 PUSH2 0x1F6 SWAP2 SWAP1 PUSH2 0x1472 JUMP JUMPDEST PUSH2 0x7D1 JUMP JUMPDEST PUSH1 0x40 MLOAD PUSH2 0x208 SWAP2 SWAP1 PUSH2 0x171B JUMP JUMPDEST PUSH1 0x40 MLOAD DUP1 SWAP2 SUB SWAP1 RETURN JUMPDEST PUSH2 0x22B PUSH1 0x4 DUP1 CALLDATASIZE SUB DUP2 ADD SWAP1 PUSH2 0x226 SWAP2 SWAP1 PUSH2 0x173D JUMP JUMPDEST PUSH2 0x9A1 JUMP JUMPDEST PUSH1 0x40 MLOAD PUSH2 0x238 SWAP2 SWAP1 PUSH2 0x171B JUMP JUMPDEST PUSH1 0x40 MLOAD DUP1 SWAP2 SUB SWAP1 RETURN JUMPDEST PUSH2 0x25B PUSH1 0x4 DUP1 CALLDATASIZE SUB DUP2 ADD SWAP1 PUSH2 0x256 SWAP2 SWAP1 PUSH2 0x173D JUMP JUMPDEST PUSH2 0xB38 JUMP JUMPDEST PUSH1 0x40 MLOAD PUSH2 0x268 SWAP2 SWAP1 PUSH2 0x1779 JUMP JUMPDEST PUSH1 0x40 MLOAD DUP1 SWAP2 SUB SWAP1 RETURN JUMPDEST PUSH2 0x28B PUSH1 0x4 DUP1 CALLDATASIZE SUB DUP2 ADD SWAP1 PUSH2 0x286 SWAP2 SWAP1 PUSH2 0x18C9 JUMP JUMPDEST PUSH2 0xCCC JUMP JUMPDEST STOP JUMPDEST PUSH2 0x2A7 PUSH1 0x4 DUP1 CALLDATASIZE SUB DUP2 ADD SWAP1 PUSH2 0x2A2 SWAP2 SWAP1 PUSH2 0x1954 JUMP JUMPDEST PUSH2 0xD50 JUMP JUMPDEST STOP JUMPDEST PUSH2 0x2C3 PUSH1 0x4 DUP1 CALLDATASIZE SUB DUP2 ADD SWAP1 PUSH2 0x2BE SWAP2 SWAP1 PUSH2 0x19C3 JUMP JUMPDEST PUSH2 0xF83 JUMP JUMPDEST STOP JUMPDEST PUSH2 0x2DF PUSH1 0x4 DUP1 CALLDATASIZE SUB DUP2 ADD SWAP1 PUSH2 0x2DA SWAP2 SWAP1 PUSH2 0x173D JUMP JUMPDEST PUSH2 0xFE3 JUMP JUMPDEST STOP JUMPDEST PUSH2 0x2FB PUSH1 0x4 DUP1 CALLDATASIZE SUB DUP2 ADD SWAP1 PUSH2 0x2F6 SWAP2 SWAP1 PUSH2 0x1A0C JUMP JUMPDEST PUSH2 0x10DA JUMP JUMPDEST STOP JUMPDEST PUSH2 0x317 PUSH1 0x4 DUP1 CALLDATASIZE SUB DUP2 ADD SWAP1 PUSH2 0x312 SWAP2 SWAP1 PUSH2 0x173D JUMP JUMPDEST PUSH2 0x1144 JUMP JUMPDEST STOP JUMPDEST PUSH1 0x0 PUSH1 0x5 PUSH1 0x0 DUP4 DUP2 MSTORE PUSH1 0x20 ADD SWAP1 DUP2 MSTORE PUSH1 0x20 ADD PUSH1 0x0 KECCAK256 PUSH1 0x0 SWAP1 SLOAD SWAP1 PUSH2 0x100 EXP SWAP1 DIV PUSH1 0xFF AND SWAP1 POP SWAP2 SWAP1 POP JUMP JUMPDEST PUSH2 0x34B PUSH2 0x1204 JUMP JUMPDEST PUSH20 0xFFFFFFFFFFFFFFFFFFFFFFFFFFFFFFFFFFFFFFFF AND PUSH2 0x369 PUSH2 0x7A8 JUMP JUMPDEST PUSH20 0xFFFFFFFFFFFFFFFFFFFFFFFFFFFFFFFFFFFFFFFF AND EQ PUSH2 0x3BF JUMPI PUSH1 0x40 MLOAD PUSH32 0x8C379A000000000000000000000000000000000000000000000000000000000 DUP2 MSTORE PUSH1 0x4 ADD PUSH2 0x3B6 SWAP1 PUSH2 0x1AC5 JUMP JUMPDEST PUSH1 0x40 MLOAD DUP1 SWAP2 SUB SWAP1 REVERT JUMPDEST DUP1 PUSH1 0x3 PUSH1 0x0 DUP5 DUP2 MSTORE PUSH1 0x20 ADD SWAP1 DUP2 MSTORE PUSH1 0x20 ADD PUSH1 0x0 KECCAK256 PUSH1 0x0 PUSH2 0x100 EXP DUP2 SLOAD DUP2 PUSH20 0xFFFFFFFFFFFFFFFFFFFFFFFFFFFFFFFFFFFFFFFF MUL NOT AND SWAP1 DUP4 PUSH20 0xFFFFFFFFFFFFFFFFFFFFFFFFFFFFFFFFFFFFFFFF AND MUL OR SWAP1 SSTORE POP DUP2 PUSH1 0x4 PUSH1 0x0 DUP4 PUSH20 0xFFFFFFFFFFFFFFFFFFFFFFFFFFFFFFFFFFFFFFFF AND PUSH20 0xFFFFFFFFFFFFFFFFFFFFFFFFFFFFFFFFFFFFFFFF AND DUP2 MSTORE PUSH1 0x20 ADD SWAP1 DUP2 MSTORE PUSH1 0x20 ADD PUSH1 0x0 KECCAK256 PUSH1 0x0 ADD DUP2 SWAP1 SSTORE POP POP POP JUMP JUMPDEST PUSH1 0x0 DUP1 PUSH1 0x3 PUSH1 0x0 DUP5 DUP2 MSTORE PUSH1 0x20 ADD SWAP1 DUP2 MSTORE PUSH1 0x20 ADD PUSH1 0x0 KECCAK256 PUSH1 0x0 SWAP1 SLOAD SWAP1 PUSH2 0x100 EXP SWAP1 DIV PUSH20 0xFFFFFFFFFFFFFFFFFFFFFFFFFFFFFFFFFFFFFFFF AND SWAP1 POP DUP1 SWAP2 POP POP SWAP2 SWAP1 POP JUMP JUMPDEST DUP2 PUSH1 0x3 PUSH1 0x0 DUP3 DUP2 MSTORE PUSH1 0x20 ADD SWAP1 DUP2 MSTORE PUSH1 0x20 ADD PUSH1 0x0 KECCAK256 PUSH1 0x0 SWAP1 SLOAD SWAP1 PUSH2 0x100 EXP SWAP1 DIV PUSH20 0xFFFFFFFFFFFFFFFFFFFFFFFFFFFFFFFFFFFFFFFF AND PUSH20 0xFFFFFFFFFFFFFFFFFFFFFFFFFFFFFFFFFFFFFFFF AND CALLER PUSH20 0xFFFFFFFFFFFFFFFFFFFFFFFFFFFFFFFFFFFFFFFF AND EQ PUSH2 0x50A JUMPI PUSH1 0x0 DUP1 REVERT JUMPDEST PUSH1 0x0 PUSH1 0x3 PUSH1 0x0 DUP6 DUP2 MSTORE PUSH1 0x20 ADD SWAP1 DUP2 MSTORE PUSH1 0x20 ADD PUSH1 0x0 KECCAK256 PUSH1 0x0 SWAP1 SLOAD SWAP1 PUSH2 0x100 EXP SWAP1 DIV PUSH20 0xFFFFFFFFFFFFFFFFFFFFFFFFFFFFFFFFFFFFFFFF AND SWAP1 POP PUSH1 0x0 PUSH1 0x4 PUSH1 0x0 DUP4 PUSH20 0xFFFFFFFFFFFFFFFFFFFFFFFFFFFFFFFFFFFFFFFF AND PUSH20 0xFFFFFFFFFFFFFFFFFFFFFFFFFFFFFFFFFFFFFFFF AND DUP2 MSTORE PUSH1 0x20 ADD SWAP1 DUP2 MSTORE PUSH1 0x20 ADD PUSH1 0x0 KECCAK256 SWAP1 POP DUP1 PUSH1 0x4 PUSH1 0x0 DUP7 PUSH20 0xFFFFFFFFFFFFFFFFFFFFFFFFFFFFFFFFFFFFFFFF AND PUSH20 0xFFFFFFFFFFFFFFFFFFFFFFFFFFFFFFFFFFFFFFFF AND DUP2 MSTORE PUSH1 0x20 ADD SWAP1 DUP2 MSTORE PUSH1 0x20 ADD PUSH1 0x0 KECCAK256 PUSH1 0x0 DUP3 ADD SLOAD DUP2 PUSH1 0x0 ADD SSTORE PUSH1 0x1 DUP3 ADD DUP2 PUSH1 0x1 ADD SWAP1 DUP1 SLOAD PUSH2 0x5E3 SWAP1 PUSH2 0x1B14 JUMP JUMPDEST PUSH2 0x5EE SWAP3 SWAP2 SWAP1 PUSH2 0x12D0 JUMP JUMPDEST POP PUSH1 0x2 DUP3 ADD DUP2 PUSH1 0x2 ADD SWAP1 DUP1 SLOAD PUSH2 0x603 SWAP1 PUSH2 0x1B14 JUMP JUMPDEST PUSH2 0x60E SWAP3 SWAP2 SWAP1 PUSH2 0x12D0 JUMP JUMPDEST POP PUSH1 0x3 DUP3 ADD SLOAD DUP2 PUSH1 0x3 ADD SSTORE SWAP1 POP POP DUP4 PUSH1 0x3 PUSH1 0x0 DUP8 DUP2 MSTORE PUSH1 0x20 ADD SWAP1 DUP2 MSTORE PUSH1 0x20 ADD PUSH1 0x0 KECCAK256 PUSH1 0x0 PUSH2 0x100 EXP DUP2 SLOAD DUP2 PUSH20 0xFFFFFFFFFFFFFFFFFFFFFFFFFFFFFFFFFFFFFFFF MUL NOT AND SWAP1 DUP4 PUSH20 0xFFFFFFFFFFFFFFFFFFFFFFFFFFFFFFFFFFFFFFFF AND MUL OR SWAP1 SSTORE POP POP POP POP POP POP JUMP JUMPDEST PUSH2 0x67D PUSH2 0x1204 JUMP JUMPDEST PUSH20 0xFFFFFFFFFFFFFFFFFFFFFFFFFFFFFFFFFFFFFFFF AND PUSH2 0x69B PUSH2 0x7A8 JUMP JUMPDEST PUSH20 0xFFFFFFFFFFFFFFFFFFFFFFFFFFFFFFFFFFFFFFFF AND EQ PUSH2 0x6F1 JUMPI PUSH1 0x40 MLOAD PUSH32 0x8C379A000000000000000000000000000000000000000000000000000000000 DUP2 MSTORE PUSH1 0x4 ADD PUSH2 0x6E8 SWAP1 PUSH2 0x1AC5 JUMP JUMPDEST PUSH1 0x40 MLOAD DUP1 SWAP2 SUB SWAP1 REVERT JUMPDEST PUSH2 0x6FB PUSH1 0x0 PUSH2 0x120C JUMP JUMPDEST JUMP JUMPDEST PUSH2 0x705 PUSH2 0x1204 JUMP JUMPDEST PUSH20 0xFFFFFFFFFFFFFFFFFFFFFFFFFFFFFFFFFFFFFFFF AND PUSH2 0x723 PUSH2 0x7A8 JUMP JUMPDEST PUSH20 0xFFFFFFFFFFFFFFFFFFFFFFFFFFFFFFFFFFFFFFFF AND EQ PUSH2 0x779 JUMPI PUSH1 0x40 MLOAD PUSH32 0x8C379A000000000000000000000000000000000000000000000000000000000 DUP2 MSTORE PUSH1 0x4 ADD PUSH2 0x770 SWAP1 PUSH2 0x1AC5 JUMP JUMPDEST PUSH1 0x40 MLOAD DUP1 SWAP2 SUB SWAP1 REVERT JUMPDEST DUP1 PUSH1 0x5 PUSH1 0x0 DUP5 DUP2 MSTORE PUSH1 0x20 ADD SWAP1 DUP2 MSTORE PUSH1 0x20 ADD PUSH1 0x0 KECCAK256 PUSH1 0x0 PUSH2 0x100 EXP DUP2 SLOAD DUP2 PUSH1 0xFF MUL NOT AND SWAP1 DUP4 ISZERO ISZERO MUL OR SWAP1 SSTORE POP POP POP JUMP JUMPDEST PUSH1 0x0 DUP1 PUSH1 0x0 SWAP1 SLOAD SWAP1 PUSH2 0x100 EXP SWAP1 DIV PUSH20 0xFFFFFFFFFFFFFFFFFFFFFFFFFFFFFFFFFFFFFFFF AND SWAP1 POP SWAP1 JUMP JUMPDEST PUSH2 0x7D9 PUSH2 0x135D JUMP JUMPDEST PUSH1 0x0 PUSH1 0x3 PUSH1 0x0 DUP5 DUP2 MSTORE PUSH1 0x20 ADD SWAP1 DUP2 MSTORE PUSH1 0x20 ADD PUSH1 0x0 KECCAK256 PUSH1 0x0 SWAP1 SLOAD SWAP1 PUSH2 0x100 EXP SWAP1 DIV PUSH20 0xFFFFFFFFFFFFFFFFFFFFFFFFFFFFFFFFFFFFFFFF AND SWAP1 POP PUSH1 0x0 PUSH1 0x4 PUSH1 0x0 DUP4 PUSH20 0xFFFFFFFFFFFFFFFFFFFFFFFFFFFFFFFFFFFFFFFF AND PUSH20 0xFFFFFFFFFFFFFFFFFFFFFFFFFFFFFFFFFFFFFFFF AND DUP2 MSTORE PUSH1 0x20 ADD SWAP1 DUP2 MSTORE PUSH1 0x20 ADD PUSH1 0x0 KECCAK256 PUSH1 0x40 MLOAD DUP1 PUSH1 0x80 ADD PUSH1 0x40 MSTORE SWAP1 DUP2 PUSH1 0x0 DUP3 ADD SLOAD DUP2 MSTORE PUSH1 0x20 ADD PUSH1 0x1 DUP3 ADD DUP1 SLOAD PUSH2 0x877 SWAP1 PUSH2 0x1B14 JUMP JUMPDEST DUP1 PUSH1 0x1F ADD PUSH1 0x20 DUP1 SWAP2 DIV MUL PUSH1 0x20 ADD PUSH1 0x40 MLOAD SWAP1 DUP2 ADD PUSH1 0x40 MSTORE DUP1 SWAP3 SWAP2 SWAP1 DUP2 DUP2 MSTORE PUSH1 0x20 ADD DUP3 DUP1 SLOAD PUSH2 0x8A3 SWAP1 PUSH2 0x1B14 JUMP JUMPDEST DUP1 ISZERO PUSH2 0x8F0 JUMPI DUP1 PUSH1 0x1F LT PUSH2 0x8C5 JUMPI PUSH2 0x100 DUP1 DUP4 SLOAD DIV MUL DUP4 MSTORE SWAP2 PUSH1 0x20 ADD SWAP2 PUSH2 0x8F0 JUMP JUMPDEST DUP3 ADD SWAP2 SWAP1 PUSH1 0x0 MSTORE PUSH1 0x20 PUSH1 0x0 KECCAK256 SWAP1 JUMPDEST DUP2 SLOAD DUP2 MSTORE SWAP1 PUSH1 0x1 ADD SWAP1 PUSH1 0x20 ADD DUP1 DUP4 GT PUSH2 0x8D3 JUMPI DUP3 SWAP1 SUB PUSH1 0x1F AND DUP3 ADD SWAP2 JUMPDEST POP POP POP POP POP DUP2 MSTORE PUSH1 0x20 ADD PUSH1 0x2 DUP3 ADD DUP1 SLOAD PUSH2 0x909 SWAP1 PUSH2 0x1B14 JUMP JUMPDEST DUP1 PUSH1 0x1F ADD PUSH1 0x20 DUP1 SWAP2 DIV MUL PUSH1 0x20 ADD PUSH1 0x40 MLOAD SWAP1 DUP2 ADD PUSH1 0x40 MSTORE DUP1 SWAP3 SWAP2 SWAP1 DUP2 DUP2 MSTORE PUSH1 0x20 ADD DUP3 DUP1 SLOAD PUSH2 0x935 SWAP1 PUSH2 0x1B14 JUMP JUMPDEST DUP1 ISZERO PUSH2 0x982 JUMPI DUP1 PUSH1 0x1F LT PUSH2 0x957 JUMPI PUSH2 0x100 DUP1 DUP4 SLOAD DIV MUL DUP4 MSTORE SWAP2 PUSH1 0x20 ADD SWAP2 PUSH2 0x982 JUMP JUMPDEST DUP3 ADD SWAP2 SWAP1 PUSH1 0x0 MSTORE PUSH1 0x20 PUSH1 0x0 KECCAK256 SWAP1 JUMPDEST DUP2 SLOAD DUP2 MSTORE SWAP1 PUSH1 0x1 ADD SWAP1 PUSH1 0x20 ADD DUP1 DUP4 GT PUSH2 0x965 JUMPI DUP3 SWAP1 SUB PUSH1 0x1F AND DUP3 ADD SWAP2 JUMPDEST POP POP POP POP POP DUP2 MSTORE PUSH1 0x20 ADD PUSH1 0x3 DUP3 ADD SLOAD DUP2 MSTORE POP POP SWAP1 POP DUP1 SWAP3 POP POP POP SWAP2 SWAP1 POP JUMP JUMPDEST PUSH2 0x9A9 PUSH2 0x135D JUMP JUMPDEST PUSH1 0x0 PUSH1 0x4 PUSH1 0x0 DUP5 PUSH20 0xFFFFFFFFFFFFFFFFFFFFFFFFFFFFFFFFFFFFFFFF AND PUSH20 0xFFFFFFFFFFFFFFFFFFFFFFFFFFFFFFFFFFFFFFFF AND DUP2 MSTORE PUSH1 0x20 ADD SWAP1 DUP2 MSTORE PUSH1 0x20 ADD PUSH1 0x0 KECCAK256 PUSH1 0x40 MLOAD DUP1 PUSH1 0x80 ADD PUSH1 0x40 MSTORE SWAP1 DUP2 PUSH1 0x0 DUP3 ADD SLOAD DUP2 MSTORE PUSH1 0x20 ADD PUSH1 0x1 DUP3 ADD DUP1 SLOAD PUSH2 0xA0F SWAP1 PUSH2 0x1B14 JUMP JUMPDEST DUP1 PUSH1 0x1F ADD PUSH1 0x20 DUP1 SWAP2 DIV MUL PUSH1 0x20 ADD PUSH1 0x40 MLOAD SWAP1 DUP2 ADD PUSH1 0x40 MSTORE DUP1 SWAP3 SWAP2 SWAP1 DUP2 DUP2 MSTORE PUSH1 0x20 ADD DUP3 DUP1 SLOAD PUSH2 0xA3B SWAP1 PUSH2 0x1B14 JUMP JUMPDEST DUP1 ISZERO PUSH2 0xA88 JUMPI DUP1 PUSH1 0x1F LT PUSH2 0xA5D JUMPI PUSH2 0x100 DUP1 DUP4 SLOAD DIV MUL DUP4 MSTORE SWAP2 PUSH1 0x20 ADD SWAP2 PUSH2 0xA88 JUMP JUMPDEST DUP3 ADD SWAP2 SWAP1 PUSH1 0x0 MSTORE PUSH1 0x20 PUSH1 0x0 KECCAK256 SWAP1 JUMPDEST DUP2 SLOAD DUP2 MSTORE SWAP1 PUSH1 0x1 ADD SWAP1 PUSH1 0x20 ADD DUP1 DUP4 GT PUSH2 0xA6B JUMPI DUP3 SWAP1 SUB PUSH1 0x1F AND DUP3 ADD SWAP2 JUMPDEST POP POP POP POP POP DUP2 MSTORE PUSH1 0x20 ADD PUSH1 0x2 DUP3 ADD DUP1 SLOAD PUSH2 0xAA1 SWAP1 PUSH2 0x1B14 JUMP JUMPDEST DUP1 PUSH1 0x1F ADD PUSH1 0x20 DUP1 SWAP2 DIV MUL PUSH1 0x20 ADD PUSH1 0x40 MLOAD SWAP1 DUP2 ADD PUSH1 0x40 MSTORE DUP1 SWAP3 SWAP2 SWAP1 DUP2 DUP2 MSTORE PUSH1 0x20 ADD DUP3 DUP1 SLOAD PUSH2 0xACD SWAP1 PUSH2 0x1B14 JUMP JUMPDEST DUP1 ISZERO PUSH2 0xB1A JUMPI DUP1 PUSH1 0x1F LT PUSH2 0xAEF JUMPI PUSH2 0x100 DUP1 DUP4 SLOAD DIV MUL DUP4 MSTORE SWAP2 PUSH1 0x20 ADD SWAP2 PUSH2 0xB1A JUMP JUMPDEST DUP3 ADD SWAP2 SWAP1 PUSH1 0x0 MSTORE PUSH1 0x20 PUSH1 0x0 KECCAK256 SWAP1 JUMPDEST DUP2 SLOAD DUP2 MSTORE SWAP1 PUSH1 0x1 ADD SWAP1 PUSH1 0x20 ADD DUP1 DUP4 GT PUSH2 0xAFD JUMPI DUP3 SWAP1 SUB PUSH1 0x1F AND DUP3 ADD SWAP2 JUMPDEST POP POP POP POP POP DUP2 MSTORE PUSH1 0x20 ADD PUSH1 0x3 DUP3 ADD SLOAD DUP2 MSTORE POP POP SWAP1 POP DUP1 SWAP2 POP POP SWAP2 SWAP1 POP JUMP JUMPDEST PUSH1 0x0 DUP1 PUSH1 0x4 PUSH1 0x0 DUP5 PUSH20 0xFFFFFFFFFFFFFFFFFFFFFFFFFFFFFFFFFFFFFFFF AND PUSH20 0xFFFFFFFFFFFFFFFFFFFFFFFFFFFFFFFFFFFFFFFF AND DUP2 MSTORE PUSH1 0x20 ADD SWAP1 DUP2 MSTORE PUSH1 0x20 ADD PUSH1 0x0 KECCAK256 PUSH1 0x40 MLOAD DUP1 PUSH1 0x80 ADD PUSH1 0x40 MSTORE SWAP1 DUP2 PUSH1 0x0 DUP3 ADD SLOAD DUP2 MSTORE PUSH1 0x20 ADD PUSH1 0x1 DUP3 ADD DUP1 SLOAD PUSH2 0xB9F SWAP1 PUSH2 0x1B14 JUMP JUMPDEST DUP1 PUSH1 0x1F ADD PUSH1 0x20 DUP1 SWAP2 DIV MUL PUSH1 0x20 ADD PUSH1 0x40 MLOAD SWAP1 DUP2 ADD PUSH1 0x40 MSTORE DUP1 SWAP3 SWAP2 SWAP1 DUP2 DUP2 MSTORE PUSH1 0x20 ADD DUP3 DUP1 SLOAD PUSH2 0xBCB SWAP1 PUSH2 0x1B14 JUMP JUMPDEST DUP1 ISZERO PUSH2 0xC18 JUMPI DUP1 PUSH1 0x1F LT PUSH2 0xBED JUMPI PUSH2 0x100 DUP1 DUP4 SLOAD DIV MUL DUP4 MSTORE SWAP2 PUSH1 0x20 ADD SWAP2 PUSH2 0xC18 JUMP JUMPDEST DUP3 ADD SWAP2 SWAP1 PUSH1 0x0 MSTORE PUSH1 0x20 PUSH1 0x0 KECCAK256 SWAP1 JUMPDEST DUP2 SLOAD DUP2 MSTORE SWAP1 PUSH1 0x1 ADD SWAP1 PUSH1 0x20 ADD DUP1 DUP4 GT PUSH2 0xBFB JUMPI DUP3 SWAP1 SUB PUSH1 0x1F AND DUP3 ADD SWAP2 JUMPDEST POP POP POP POP POP DUP2 MSTORE PUSH1 0x20 ADD PUSH1 0x2 DUP3 ADD DUP1 SLOAD PUSH2 0xC31 SWAP1 PUSH2 0x1B14 JUMP JUMPDEST DUP1 PUSH1 0x1F ADD PUSH1 0x20 DUP1 SWAP2 DIV MUL PUSH1 0x20 ADD PUSH1 0x40 MLOAD SWAP1 DUP2 ADD PUSH1 0x40 MSTORE DUP1 SWAP3 SWAP2 SWAP1 DUP2 DUP2 MSTORE PUSH1 0x20 ADD DUP3 DUP1 SLOAD PUSH2 0xC5D SWAP1 PUSH2 0x1B14 JUMP JUMPDEST DUP1 ISZERO PUSH2 0xCAA JUMPI DUP1 PUSH1 0x1F LT PUSH2 0xC7F JUMPI PUSH2 0x100 DUP1 DUP4 SLOAD DIV MUL DUP4 MSTORE SWAP2 PUSH1 0x20 ADD SWAP2 PUSH2 0xCAA JUMP JUMPDEST DUP3 ADD SWAP2 SWAP1 PUSH1 0x0 MSTORE PUSH1 0x20 PUSH1 0x0 KECCAK256 SWAP1 JUMPDEST DUP2 SLOAD DUP2 MSTORE SWAP1 PUSH1 0x1 ADD SWAP1 PUSH1 0x20 ADD DUP1 DUP4 GT PUSH2 0xC8D JUMPI DUP3 SWAP1 SUB PUSH1 0x1F AND DUP3 ADD SWAP2 JUMPDEST POP POP POP POP POP DUP2 MSTORE PUSH1 0x20 ADD PUSH1 0x3 DUP3 ADD SLOAD DUP2 MSTORE POP POP SWAP1 POP DUP1 PUSH1 0x0 ADD MLOAD SWAP2 POP POP SWAP2 SWAP1 POP JUMP JUMPDEST PUSH1 0x0 PUSH1 0x4 PUSH1 0x0 CALLER PUSH20 0xFFFFFFFFFFFFFFFFFFFFFFFFFFFFFFFFFFFFFFFF AND PUSH20 0xFFFFFFFFFFFFFFFFFFFFFFFFFFFFFFFFFFFFFFFF AND DUP2 MSTORE PUSH1 0x20 ADD SWAP1 DUP2 MSTORE PUSH1 0x20 ADD PUSH1 0x0 KECCAK256 SWAP1 POP DUP4 DUP2 PUSH1 0x1 ADD SWAP1 DUP1 MLOAD SWAP1 PUSH1 0x20 ADD SWAP1 PUSH2 0xD27 SWAP3 SWAP2 SWAP1 PUSH2 0x1385 JUMP JUMPDEST POP DUP3 DUP2 PUSH1 0x2 ADD SWAP1 DUP1 MLOAD SWAP1 PUSH1 0x20 ADD SWAP1 PUSH2 0xD40 SWAP3 SWAP2 SWAP1 PUSH2 0x1385 JUMP JUMPDEST POP DUP2 DUP2 PUSH1 0x3 ADD DUP2 SWAP1 SSTORE POP POP POP POP POP JUMP JUMPDEST PUSH2 0xD58 PUSH2 0x1204 JUMP JUMPDEST PUSH20 0xFFFFFFFFFFFFFFFFFFFFFFFFFFFFFFFFFFFFFFFF AND PUSH2 0xD76 PUSH2 0x7A8 JUMP JUMPDEST PUSH20 0xFFFFFFFFFFFFFFFFFFFFFFFFFFFFFFFFFFFFFFFF AND EQ PUSH2 0xDCC JUMPI PUSH1 0x40 MLOAD PUSH32 0x8C379A000000000000000000000000000000000000000000000000000000000 DUP2 MSTORE PUSH1 0x4 ADD PUSH2 0xDC3 SWAP1 PUSH2 0x1AC5 JUMP JUMPDEST PUSH1 0x40 MLOAD DUP1 SWAP2 SUB SWAP1 REVERT JUMPDEST PUSH1 0x1 PUSH1 0x0 SWAP1 SLOAD SWAP1 PUSH2 0x100 EXP SWAP1 DIV PUSH20 0xFFFFFFFFFFFFFFFFFFFFFFFFFFFFFFFFFFFFFFFF AND PUSH1 0x2 PUSH1 0x0 PUSH2 0x100 EXP DUP2 SLOAD DUP2 PUSH20 0xFFFFFFFFFFFFFFFFFFFFFFFFFFFFFFFFFFFFFFFF MUL NOT AND SWAP1 DUP4 PUSH20 0xFFFFFFFFFFFFFFFFFFFFFFFFFFFFFFFFFFFFFFFF AND MUL OR SWAP1 SSTORE POP PUSH1 0x0 ADDRESS SWAP1 POP PUSH1 0x0 PUSH1 0x2 PUSH1 0x0 SWAP1 SLOAD SWAP1 PUSH2 0x100 EXP SWAP1 DIV PUSH20 0xFFFFFFFFFFFFFFFFFFFFFFFFFFFFFFFFFFFFFFFF AND PUSH20 0xFFFFFFFFFFFFFFFFFFFFFFFFFFFFFFFFFFFFFFFF AND PUSH4 0xCF378343 DUP4 DUP8 PUSH1 0x40 MLOAD DUP4 PUSH4 0xFFFFFFFF AND PUSH1 0xE0 SHL DUP2 MSTORE PUSH1 0x4 ADD PUSH2 0xE93 SWAP3 SWAP2 SWAP1 PUSH2 0x1B7E JUMP JUMPDEST PUSH1 0x20 PUSH1 0x40 MLOAD DUP1 DUP4 SUB DUP2 PUSH1 0x0 DUP8 GAS CALL ISZERO DUP1 ISZERO PUSH2 0xEB2 JUMPI RETURNDATASIZE PUSH1 0x0 DUP1 RETURNDATACOPY RETURNDATASIZE PUSH1 0x0 REVERT JUMPDEST POP POP POP POP PUSH1 0x40 MLOAD RETURNDATASIZE PUSH1 0x1F NOT PUSH1 0x1F DUP3 ADD AND DUP3 ADD DUP1 PUSH1 0x40 MSTORE POP DUP2 ADD SWAP1 PUSH2 0xED6 SWAP2 SWAP1 PUSH2 0x1BC3 JUMP JUMPDEST SWAP1 POP PUSH1 0x2 PUSH1 0x0 SWAP1 SLOAD SWAP1 PUSH2 0x100 EXP SWAP1 DIV PUSH20 0xFFFFFFFFFFFFFFFFFFFFFFFFFFFFFFFFFFFFFFFF AND PUSH20 0xFFFFFFFFFFFFFFFFFFFFFFFFFFFFFFFFFFFFFFFF AND PUSH4 0xE1B2E979 DUP3 DUP6 PUSH1 0x40 MLOAD DUP4 PUSH4 0xFFFFFFFF AND PUSH1 0xE0 SHL DUP2 MSTORE PUSH1 0x4 ADD PUSH2 0xF35 SWAP3 SWAP2 SWAP1 PUSH2 0x1BF0 JUMP JUMPDEST PUSH1 0x0 PUSH1 0x40 MLOAD DUP1 DUP4 SUB DUP2 PUSH1 0x0 DUP8 DUP1 EXTCODESIZE ISZERO DUP1 ISZERO PUSH2 0xF4F JUMPI PUSH1 0x0 DUP1 REVERT JUMPDEST POP GAS CALL ISZERO DUP1 ISZERO PUSH2 0xF63 JUMPI RETURNDATASIZE PUSH1 0x0 DUP1 RETURNDATACOPY RETURNDATASIZE PUSH1 0x0 REVERT JUMPDEST POP POP POP POP PUSH2 0xF72 DUP2 PUSH1 0x1 PUSH2 0x6FD JUMP JUMPDEST PUSH2 0xF7C DUP2 DUP6 PUSH2 0x343 JUMP JUMPDEST POP POP POP POP POP JUMP JUMPDEST PUSH1 0x0 PUSH1 0x4 PUSH1 0x0 CALLER PUSH20 0xFFFFFFFFFFFFFFFFFFFFFFFFFFFFFFFFFFFFFFFF AND PUSH20 0xFFFFFFFFFFFFFFFFFFFFFFFFFFFFFFFFFFFFFFFF AND DUP2 MSTORE PUSH1 0x20 ADD SWAP1 DUP2 MSTORE PUSH1 0x20 ADD PUSH1 0x0 KECCAK256 SWAP1 POP DUP2 DUP2 PUSH1 0x1 ADD SWAP1 DUP1 MLOAD SWAP1 PUSH1 0x20 ADD SWAP1 PUSH2 0xFDE SWAP3 SWAP2 SWAP1 PUSH2 0x1385 JUMP JUMPDEST POP POP POP JUMP JUMPDEST PUSH2 0xFEB PUSH2 0x1204 JUMP JUMPDEST PUSH20 0xFFFFFFFFFFFFFFFFFFFFFFFFFFFFFFFFFFFFFFFF AND PUSH2 0x1009 PUSH2 0x7A8 JUMP JUMPDEST PUSH20 0xFFFFFFFFFFFFFFFFFFFFFFFFFFFFFFFFFFFFFFFF AND EQ PUSH2 0x105F JUMPI PUSH1 0x40 MLOAD PUSH32 0x8C379A000000000000000000000000000000000000000000000000000000000 DUP2 MSTORE PUSH1 0x4 ADD PUSH2 0x1056 SWAP1 PUSH2 0x1AC5 JUMP JUMPDEST PUSH1 0x40 MLOAD DUP1 SWAP2 SUB SWAP1 REVERT JUMPDEST PUSH1 0x0 PUSH20 0xFFFFFFFFFFFFFFFFFFFFFFFFFFFFFFFFFFFFFFFF AND DUP2 PUSH20 0xFFFFFFFFFFFFFFFFFFFFFFFFFFFFFFFFFFFFFFFF AND SUB PUSH2 0x10CE JUMPI PUSH1 0x40 MLOAD PUSH32 0x8C379A000000000000000000000000000000000000000000000000000000000 DUP2 MSTORE PUSH1 0x4 ADD PUSH2 0x10C5 SWAP1 PUSH2 0x1C8B JUMP JUMPDEST PUSH1 0x40 MLOAD DUP1 SWAP2 SUB SWAP1 REVERT JUMPDEST PUSH2 0x10D7 DUP2 PUSH2 0x120C JUMP JUMPDEST POP JUMP JUMPDEST PUSH1 0x0 PUSH1 0x4 PUSH1 0x0 CALLER PUSH20 0xFFFFFFFFFFFFFFFFFFFFFFFFFFFFFFFFFFFFFFFF AND PUSH20 0xFFFFFFFFFFFFFFFFFFFFFFFFFFFFFFFFFFFFFFFF AND DUP2 MSTORE PUSH1 0x20 ADD SWAP1 DUP2 MSTORE PUSH1 0x20 ADD PUSH1 0x0 KECCAK256 SWAP1 POP DUP3 DUP2 PUSH1 0x2 ADD SWAP1 DUP1 MLOAD SWAP1 PUSH1 0x20 ADD SWAP1 PUSH2 0x1135 SWAP3 SWAP2 SWAP1 PUSH2 0x1385 JUMP JUMPDEST POP DUP2 DUP2 PUSH1 0x3 ADD DUP2 SWAP1 SSTORE POP POP POP POP JUMP JUMPDEST PUSH2 0x114C PUSH2 0x1204 JUMP JUMPDEST PUSH20 0xFFFFFFFFFFFFFFFFFFFFFFFFFFFFFFFFFFFFFFFF AND PUSH2 0x116A PUSH2 0x7A8 JUMP JUMPDEST PUSH20 0xFFFFFFFFFFFFFFFFFFFFFFFFFFFFFFFFFFFFFFFF AND EQ PUSH2 0x11C0 JUMPI PUSH1 0x40 MLOAD PUSH32 0x8C379A000000000000000000000000000000000000000000000000000000000 DUP2 MSTORE PUSH1 0x4 ADD PUSH2 0x11B7 SWAP1 PUSH2 0x1AC5 JUMP JUMPDEST PUSH1 0x40 MLOAD DUP1 SWAP2 SUB SWAP1 REVERT JUMPDEST DUP1 PUSH1 0x2 PUSH1 0x0 PUSH2 0x100 EXP DUP2 SLOAD DUP2 PUSH20 0xFFFFFFFFFFFFFFFFFFFFFFFFFFFFFFFFFFFFFFFF MUL NOT AND SWAP1 DUP4 PUSH20 0xFFFFFFFFFFFFFFFFFFFFFFFFFFFFFFFFFFFFFFFF AND MUL OR SWAP1 SSTORE POP POP JUMP JUMPDEST PUSH1 0x0 CALLER SWAP1 POP SWAP1 JUMP JUMPDEST PUSH1 0x0 DUP1 PUSH1 0x0 SWAP1 SLOAD SWAP1 PUSH2 0x100 EXP SWAP1 DIV PUSH20 0xFFFFFFFFFFFFFFFFFFFFFFFFFFFFFFFFFFFFFFFF AND SWAP1 POP DUP2 PUSH1 0x0 DUP1 PUSH2 0x100 EXP DUP2 SLOAD DUP2 PUSH20 0xFFFFFFFFFFFFFFFFFFFFFFFFFFFFFFFFFFFFFFFF MUL NOT AND SWAP1 DUP4 PUSH20 0xFFFFFFFFFFFFFFFFFFFFFFFFFFFFFFFFFFFFFFFF AND MUL OR SWAP1 SSTORE POP DUP2 PUSH20 0xFFFFFFFFFFFFFFFFFFFFFFFFFFFFFFFFFFFFFFFF AND DUP2 PUSH20 0xFFFFFFFFFFFFFFFFFFFFFFFFFFFFFFFFFFFFFFFF AND PUSH32 0x8BE0079C531659141344CD1FD0A4F28419497F9722A3DAAFE3B4186F6B6457E0 PUSH1 0x40 MLOAD PUSH1 0x40 MLOAD DUP1 SWAP2 SUB SWAP1 LOG3 POP POP JUMP JUMPDEST DUP3 DUP1 SLOAD PUSH2 0x12DC SWAP1 PUSH2 0x1B14 JUMP JUMPDEST SWAP1 PUSH1 0x0 MSTORE PUSH1 0x20 PUSH1 0x0 KECCAK256 SWAP1 PUSH1 0x1F ADD PUSH1 0x20 SWAP1 DIV DUP2 ADD SWAP3 DUP3 PUSH2 0x12FE JUMPI PUSH1 0x0 DUP6 SSTORE PUSH2 0x134C JUMP JUMPDEST DUP3 PUSH1 0x1F LT PUSH2 0x130F JUMPI DUP1 SLOAD DUP6 SSTORE PUSH2 0x134C JUMP JUMPDEST DUP3 DUP1 ADD PUSH1 0x1 ADD DUP6 SSTORE DUP3 ISZERO PUSH2 0x134C JUMPI PUSH1 0x0 MSTORE PUSH1 0x20 PUSH1 0x0 KECCAK256 SWAP2 PUSH1 0x1F ADD PUSH1 0x20 SWAP1 DIV DUP3 ADD JUMPDEST DUP3 DUP2 GT ISZERO PUSH2 0x134B JUMPI DUP3 SLOAD DUP3 SSTORE SWAP2 PUSH1 0x1 ADD SWAP2 SWAP1 PUSH1 0x1 ADD SWAP1 PUSH2 0x1330 JUMP JUMPDEST JUMPDEST POP SWAP1 POP PUSH2 0x1359 SWAP2 SWAP1 PUSH2 0x140B JUMP JUMPDEST POP SWAP1 JUMP JUMPDEST PUSH1 0x40 MLOAD DUP1 PUSH1 0x80 ADD PUSH1 0x40 MSTORE DUP1 PUSH1 0x0 DUP2 MSTORE PUSH1 0x20 ADD PUSH1 0x60 DUP2 MSTORE PUSH1 0x20 ADD PUSH1 0x60 DUP2 MSTORE PUSH1 0x20 ADD PUSH1 0x0 DUP2 MSTORE POP SWAP1 JUMP JUMPDEST DUP3 DUP1 SLOAD PUSH2 0x1391 SWAP1 PUSH2 0x1B14 JUMP JUMPDEST SWAP1 PUSH1 0x0 MSTORE PUSH1 0x20 PUSH1 0x0 KECCAK256 SWAP1 PUSH1 0x1F ADD PUSH1 0x20 SWAP1 DIV DUP2 ADD SWAP3 DUP3 PUSH2 0x13B3 JUMPI PUSH1 0x0 DUP6 SSTORE PUSH2 0x13FA JUMP JUMPDEST DUP3 PUSH1 0x1F LT PUSH2 0x13CC JUMPI DUP1 MLOAD PUSH1 0xFF NOT AND DUP4 DUP1 ADD OR DUP6 SSTORE PUSH2 0x13FA JUMP JUMPDEST DUP3 DUP1 ADD PUSH1 0x1 ADD DUP6 SSTORE DUP3 ISZERO PUSH2 0x13FA JUMPI SWAP2 DUP3 ADD JUMPDEST DUP3 DUP2 GT ISZERO PUSH2 0x13F9 JUMPI DUP3 MLOAD DUP3 SSTORE SWAP2 PUSH1 0x20 ADD SWAP2 SWAP1 PUSH1 0x1 ADD SWAP1 PUSH2 0x13DE JUMP JUMPDEST JUMPDEST POP SWAP1 POP PUSH2 0x1407 SWAP2 SWAP1 PUSH2 0x140B JUMP JUMPDEST POP SWAP1 JUMP JUMPDEST JUMPDEST DUP1 DUP3 GT ISZERO PUSH2 0x1424 JUMPI PUSH1 0x0 DUP2 PUSH1 0x0 SWAP1 SSTORE POP PUSH1 0x1 ADD PUSH2 0x140C JUMP JUMPDEST POP SWAP1 JUMP JUMPDEST PUSH1 0x0 PUSH1 0x40 MLOAD SWAP1 POP SWAP1 JUMP JUMPDEST PUSH1 0x0 DUP1 REVERT JUMPDEST PUSH1 0x0 DUP1 REVERT JUMPDEST PUSH1 0x0 DUP2 SWAP1 POP SWAP2 SWAP1 POP JUMP JUMPDEST PUSH2 0x144F DUP2 PUSH2 0x143C JUMP JUMPDEST DUP2 EQ PUSH2 0x145A JUMPI PUSH1 0x0 DUP1 REVERT JUMPDEST POP JUMP JUMPDEST PUSH1 0x0 DUP2 CALLDATALOAD SWAP1 POP PUSH2 0x146C DUP2 PUSH2 0x1446 JUMP JUMPDEST SWAP3 SWAP2 POP POP JUMP JUMPDEST PUSH1 0x0 PUSH1 0x20 DUP3 DUP5 SUB SLT ISZERO PUSH2 0x1488 JUMPI PUSH2 0x1487 PUSH2 0x1432 JUMP JUMPDEST JUMPDEST PUSH1 0x0 PUSH2 0x1496 DUP5 DUP3 DUP6 ADD PUSH2 0x145D JUMP JUMPDEST SWAP2 POP POP SWAP3 SWAP2 POP POP JUMP JUMPDEST PUSH1 0x0 DUP2 ISZERO ISZERO SWAP1 POP SWAP2 SWAP1 POP JUMP JUMPDEST PUSH2 0x14B4 DUP2 PUSH2 0x149F JUMP JUMPDEST DUP3 MSTORE POP POP JUMP JUMPDEST PUSH1 0x0 PUSH1 0x20 DUP3 ADD SWAP1 POP PUSH2 0x14CF PUSH1 0x0 DUP4 ADD DUP5 PUSH2 0x14AB JUMP JUMPDEST SWAP3 SWAP2 POP POP JUMP JUMPDEST PUSH1 0x0 PUSH20 0xFFFFFFFFFFFFFFFFFFFFFFFFFFFFFFFFFFFFFFFF DUP3 AND SWAP1 POP SWAP2 SWAP1 POP JUMP JUMPDEST PUSH1 0x0 PUSH2 0x1500 DUP3 PUSH2 0x14D5 JUMP JUMPDEST SWAP1 POP SWAP2 SWAP1 POP JUMP JUMPDEST PUSH2 0x1510 DUP2 PUSH2 0x14F5 JUMP JUMPDEST DUP2 EQ PUSH2 0x151B JUMPI PUSH1 0x0 DUP1 REVERT JUMPDEST POP JUMP JUMPDEST PUSH1 0x0 DUP2 CALLDATALOAD SWAP1 POP PUSH2 0x152D DUP2 PUSH2 0x1507 JUMP JUMPDEST SWAP3 SWAP2 POP POP JUMP JUMPDEST PUSH1 0x0 DUP1 PUSH1 0x40 DUP4 DUP6 SUB SLT ISZERO PUSH2 0x154A JUMPI PUSH2 0x1549 PUSH2 0x1432 JUMP JUMPDEST JUMPDEST PUSH1 0x0 PUSH2 0x1558 DUP6 DUP3 DUP7 ADD PUSH2 0x145D JUMP JUMPDEST SWAP3 POP POP PUSH1 0x20 PUSH2 0x1569 DUP6 DUP3 DUP7 ADD PUSH2 0x151E JUMP JUMPDEST SWAP2 POP POP SWAP3 POP SWAP3 SWAP1 POP JUMP JUMPDEST PUSH2 0x157C DUP2 PUSH2 0x14F5 JUMP JUMPDEST DUP3 MSTORE POP POP JUMP JUMPDEST PUSH1 0x0 PUSH1 0x20 DUP3 ADD SWAP1 POP PUSH2 0x1597 PUSH1 0x0 DUP4 ADD DUP5 PUSH2 0x1573 JUMP JUMPDEST SWAP3 SWAP2 POP POP JUMP JUMPDEST PUSH2 0x15A6 DUP2 PUSH2 0x149F JUMP JUMPDEST DUP2 EQ PUSH2 0x15B1 JUMPI PUSH1 0x0 DUP1 REVERT JUMPDEST POP JUMP JUMPDEST PUSH1 0x0 DUP2 CALLDATALOAD SWAP1 POP PUSH2 0x15C3 DUP2 PUSH2 0x159D JUMP JUMPDEST SWAP3 SWAP2 POP POP JUMP JUMPDEST PUSH1 0x0 DUP1 PUSH1 0x40 DUP4 DUP6 SUB SLT ISZERO PUSH2 0x15E0 JUMPI PUSH2 0x15DF PUSH2 0x1432 JUMP JUMPDEST JUMPDEST PUSH1 0x0 PUSH2 0x15EE DUP6 DUP3 DUP7 ADD PUSH2 0x145D JUMP JUMPDEST SWAP3 POP POP PUSH1 0x20 PUSH2 0x15FF DUP6 DUP3 DUP7 ADD PUSH2 0x15B4 JUMP JUMPDEST SWAP2 POP POP SWAP3 POP SWAP3 SWAP1 POP JUMP JUMPDEST PUSH2 0x1612 DUP2 PUSH2 0x143C JUMP JUMPDEST DUP3 MSTORE POP POP JUMP JUMPDEST PUSH1 0x0 DUP2 MLOAD SWAP1 POP SWAP2 SWAP1 POP JUMP JUMPDEST PUSH1 0x0 DUP3 DUP3 MSTORE PUSH1 0x20 DUP3 ADD SWAP1 POP SWAP3 SWAP2 POP POP JUMP JUMPDEST PUSH1 0x0 JUMPDEST DUP4 DUP2 LT ISZERO PUSH2 0x1652 JUMPI DUP1 DUP3 ADD MLOAD DUP2 DUP5 ADD MSTORE PUSH1 0x20 DUP2 ADD SWAP1 POP PUSH2 0x1637 JUMP JUMPDEST DUP4 DUP2 GT ISZERO PUSH2 0x1661 JUMPI PUSH1 0x0 DUP5 DUP5 ADD MSTORE JUMPDEST POP POP POP POP JUMP JUMPDEST PUSH1 0x0 PUSH1 0x1F NOT PUSH1 0x1F DUP4 ADD AND SWAP1 POP SWAP2 SWAP1 POP JUMP JUMPDEST PUSH1 0x0 PUSH2 0x1683 DUP3 PUSH2 0x1618 JUMP JUMPDEST PUSH2 0x168D DUP2 DUP6 PUSH2 0x1623 JUMP JUMPDEST SWAP4 POP PUSH2 0x169D DUP2 DUP6 PUSH1 0x20 DUP7 ADD PUSH2 0x1634 JUMP JUMPDEST PUSH2 0x16A6 DUP2 PUSH2 0x1667 JUMP JUMPDEST DUP5 ADD SWAP2 POP POP SWAP3 SWAP2 POP POP JUMP JUMPDEST PUSH1 0x0 PUSH1 0x80 DUP4 ADD PUSH1 0x0 DUP4 ADD MLOAD PUSH2 0x16C9 PUSH1 0x0 DUP7 ADD DUP3 PUSH2 0x1609 JUMP JUMPDEST POP PUSH1 0x20 DUP4 ADD MLOAD DUP5 DUP3 SUB PUSH1 0x20 DUP7 ADD MSTORE PUSH2 0x16E1 DUP3 DUP3 PUSH2 0x1678 JUMP JUMPDEST SWAP2 POP POP PUSH1 0x40 DUP4 ADD MLOAD DUP5 DUP3 SUB PUSH1 0x40 DUP7 ADD MSTORE PUSH2 0x16FB DUP3 DUP3 PUSH2 0x1678 JUMP JUMPDEST SWAP2 POP POP PUSH1 0x60 DUP4 ADD MLOAD PUSH2 0x1710 PUSH1 0x60 DUP7 ADD DUP3 PUSH2 0x1609 JUMP JUMPDEST POP DUP1 SWAP2 POP POP SWAP3 SWAP2 POP POP JUMP JUMPDEST PUSH1 0x0 PUSH1 0x20 DUP3 ADD SWAP1 POP DUP2 DUP2 SUB PUSH1 0x0 DUP4 ADD MSTORE PUSH2 0x1735 DUP2 DUP5 PUSH2 0x16B1 JUMP JUMPDEST SWAP1 POP SWAP3 SWAP2 POP POP JUMP JUMPDEST PUSH1 0x0 PUSH1 0x20 DUP3 DUP5 SUB SLT ISZERO PUSH2 0x1753 JUMPI PUSH2 0x1752 PUSH2 0x1432 JUMP JUMPDEST JUMPDEST PUSH1 0x0 PUSH2 0x1761 DUP5 DUP3 DUP6 ADD PUSH2 0x151E JUMP JUMPDEST SWAP2 POP POP SWAP3 SWAP2 POP POP JUMP JUMPDEST PUSH2 0x1773 DUP2 PUSH2 0x143C JUMP JUMPDEST DUP3 MSTORE POP POP JUMP JUMPDEST PUSH1 0x0 PUSH1 0x20 DUP3 ADD SWAP1 POP PUSH2 0x178E PUSH1 0x0 DUP4 ADD DUP5 PUSH2 0x176A JUMP JUMPDEST SWAP3 SWAP2 POP POP JUMP JUMPDEST PUSH1 0x0 DUP1 REVERT JUMPDEST PUSH1 0x0 DUP1 REVERT JUMPDEST PUSH32 0x4E487B7100000000000000000000000000000000000000000000000000000000 PUSH1 0x0 MSTORE PUSH1 0x41 PUSH1 0x4 MSTORE PUSH1 0x24 PUSH1 0x0 REVERT JUMPDEST PUSH2 0x17D6 DUP3 PUSH2 0x1667 JUMP JUMPDEST DUP2 ADD DUP2 DUP2 LT PUSH8 0xFFFFFFFFFFFFFFFF DUP3 GT OR ISZERO PUSH2 0x17F5 JUMPI PUSH2 0x17F4 PUSH2 0x179E JUMP JUMPDEST JUMPDEST DUP1 PUSH1 0x40 MSTORE POP POP POP JUMP JUMPDEST PUSH1 0x0 PUSH2 0x1808 PUSH2 0x1428 JUMP JUMPDEST SWAP1 POP PUSH2 0x1814 DUP3 DUP3 PUSH2 0x17CD JUMP JUMPDEST SWAP2 SWAP1 POP JUMP JUMPDEST PUSH1 0x0 PUSH8 0xFFFFFFFFFFFFFFFF DUP3 GT ISZERO PUSH2 0x1834 JUMPI PUSH2 0x1833 PUSH2 0x179E JUMP JUMPDEST JUMPDEST PUSH2 0x183D DUP3 PUSH2 0x1667 JUMP JUMPDEST SWAP1 POP PUSH1 0x20 DUP2 ADD SWAP1 POP SWAP2 SWAP1 POP JUMP JUMPDEST DUP3 DUP2 DUP4 CALLDATACOPY PUSH1 0x0 DUP4 DUP4 ADD MSTORE POP POP POP JUMP JUMPDEST PUSH1 0x0 PUSH2 0x186C PUSH2 0x1867 DUP5 PUSH2 0x1819 JUMP JUMPDEST PUSH2 0x17FE JUMP JUMPDEST SWAP1 POP DUP3 DUP2 MSTORE PUSH1 0x20 DUP2 ADD DUP5 DUP5 DUP5 ADD GT ISZERO PUSH2 0x1888 JUMPI PUSH2 0x1887 PUSH2 0x1799 JUMP JUMPDEST JUMPDEST PUSH2 0x1893 DUP5 DUP3 DUP6 PUSH2 0x184A JUMP JUMPDEST POP SWAP4 SWAP3 POP POP POP JUMP JUMPDEST PUSH1 0x0 DUP3 PUSH1 0x1F DUP4 ADD SLT PUSH2 0x18B0 JUMPI PUSH2 0x18AF PUSH2 0x1794 JUMP JUMPDEST JUMPDEST DUP2 CALLDATALOAD PUSH2 0x18C0 DUP5 DUP3 PUSH1 0x20 DUP7 ADD PUSH2 0x1859 JUMP JUMPDEST SWAP2 POP POP SWAP3 SWAP2 POP POP JUMP JUMPDEST PUSH1 0x0 DUP1 PUSH1 0x0 PUSH1 0x60 DUP5 DUP7 SUB SLT ISZERO PUSH2 0x18E2 JUMPI PUSH2 0x18E1 PUSH2 0x1432 JUMP JUMPDEST JUMPDEST PUSH1 0x0 DUP5 ADD CALLDATALOAD PUSH8 0xFFFFFFFFFFFFFFFF DUP2 GT ISZERO PUSH2 0x1900 JUMPI PUSH2 0x18FF PUSH2 0x1437 JUMP JUMPDEST JUMPDEST PUSH2 0x190C DUP7 DUP3 DUP8 ADD PUSH2 0x189B JUMP JUMPDEST SWAP4 POP POP PUSH1 0x20 DUP5 ADD CALLDATALOAD PUSH8 0xFFFFFFFFFFFFFFFF DUP2 GT ISZERO PUSH2 0x192D JUMPI PUSH2 0x192C PUSH2 0x1437 JUMP JUMPDEST JUMPDEST PUSH2 0x1939 DUP7 DUP3 DUP8 ADD PUSH2 0x189B JUMP JUMPDEST SWAP3 POP POP PUSH1 0x40 PUSH2 0x194A DUP7 DUP3 DUP8 ADD PUSH2 0x145D JUMP JUMPDEST SWAP2 POP POP SWAP3 POP SWAP3 POP SWAP3 JUMP JUMPDEST PUSH1 0x0 DUP1 PUSH1 0x0 PUSH1 0x60 DUP5 DUP7 SUB SLT ISZERO PUSH2 0x196D JUMPI PUSH2 0x196C PUSH2 0x1432 JUMP JUMPDEST JUMPDEST PUSH1 0x0 DUP5 ADD CALLDATALOAD PUSH8 0xFFFFFFFFFFFFFFFF DUP2 GT ISZERO PUSH2 0x198B JUMPI PUSH2 0x198A PUSH2 0x1437 JUMP JUMPDEST JUMPDEST PUSH2 0x1997 DUP7 DUP3 DUP8 ADD PUSH2 0x189B JUMP JUMPDEST SWAP4 POP POP PUSH1 0x20 PUSH2 0x19A8 DUP7 DUP3 DUP8 ADD PUSH2 0x151E JUMP JUMPDEST SWAP3 POP POP PUSH1 0x40 PUSH2 0x19B9 DUP7 DUP3 DUP8 ADD PUSH2 0x145D JUMP JUMPDEST SWAP2 POP POP SWAP3 POP SWAP3 POP SWAP3 JUMP JUMPDEST PUSH1 0x0 PUSH1 0x20 DUP3 DUP5 SUB SLT ISZERO PUSH2 0x19D9 JUMPI PUSH2 0x19D8 PUSH2 0x1432 JUMP JUMPDEST JUMPDEST PUSH1 0x0 DUP3 ADD CALLDATALOAD PUSH8 0xFFFFFFFFFFFFFFFF DUP2 GT ISZERO PUSH2 0x19F7 JUMPI PUSH2 0x19F6 PUSH2 0x1437 JUMP JUMPDEST JUMPDEST PUSH2 0x1A03 DUP5 DUP3 DUP6 ADD PUSH2 0x189B JUMP JUMPDEST SWAP2 POP POP SWAP3 SWAP2 POP POP JUMP JUMPDEST PUSH1 0x0 DUP1 PUSH1 0x40 DUP4 DUP6 SUB SLT ISZERO PUSH2 0x1A23 JUMPI PUSH2 0x1A22 PUSH2 0x1432 JUMP JUMPDEST JUMPDEST PUSH1 0x0 DUP4 ADD CALLDATALOAD PUSH8 0xFFFFFFFFFFFFFFFF DUP2 GT ISZERO PUSH2 0x1A41 JUMPI PUSH2 0x1A40 PUSH2 0x1437 JUMP JUMPDEST JUMPDEST PUSH2 0x1A4D DUP6 DUP3 DUP7 ADD PUSH2 0x189B JUMP JUMPDEST SWAP3 POP POP PUSH1 0x20 PUSH2 0x1A5E DUP6 DUP3 DUP7 ADD PUSH2 0x145D JUMP JUMPDEST SWAP2 POP POP SWAP3 POP SWAP3 SWAP1 POP JUMP JUMPDEST PUSH1 0x0 DUP3 DUP3 MSTORE PUSH1 0x20 DUP3 ADD SWAP1 POP SWAP3 SWAP2 POP POP JUMP JUMPDEST PUSH32 0x4F776E61626C653A2063616C6C6572206973206E6F7420746865206F776E6572 PUSH1 0x0 DUP3 ADD MSTORE POP JUMP JUMPDEST PUSH1 0x0 PUSH2 0x1AAF PUSH1 0x20 DUP4 PUSH2 0x1A68 JUMP JUMPDEST SWAP2 POP PUSH2 0x1ABA DUP3 PUSH2 0x1A79 JUMP JUMPDEST PUSH1 0x20 DUP3 ADD SWAP1 POP SWAP2 SWAP1 POP JUMP JUMPDEST PUSH1 0x0 PUSH1 0x20 DUP3 ADD SWAP1 POP DUP2 DUP2 SUB PUSH1 0x0 DUP4 ADD MSTORE PUSH2 0x1ADE DUP2 PUSH2 0x1AA2 JUMP JUMPDEST SWAP1 POP SWAP2 SWAP1 POP JUMP JUMPDEST PUSH32 0x4E487B7100000000000000000000000000000000000000000000000000000000 PUSH1 0x0 MSTORE PUSH1 0x22 PUSH1 0x4 MSTORE PUSH1 0x24 PUSH1 0x0 REVERT JUMPDEST PUSH1 0x0 PUSH1 0x2 DUP3 DIV SWAP1 POP PUSH1 0x1 DUP3 AND DUP1 PUSH2 0x1B2C JUMPI PUSH1 0x7F DUP3 AND SWAP2 POP JUMPDEST PUSH1 0x20 DUP3 LT DUP2 SUB PUSH2 0x1B3F JUMPI PUSH2 0x1B3E PUSH2 0x1AE5 JUMP JUMPDEST JUMPDEST POP SWAP2 SWAP1 POP JUMP JUMPDEST PUSH1 0x0 PUSH2 0x1B50 DUP3 PUSH2 0x1618 JUMP JUMPDEST PUSH2 0x1B5A DUP2 DUP6 PUSH2 0x1A68 JUMP JUMPDEST SWAP4 POP PUSH2 0x1B6A DUP2 DUP6 PUSH1 0x20 DUP7 ADD PUSH2 0x1634 JUMP JUMPDEST PUSH2 0x1B73 DUP2 PUSH2 0x1667 JUMP JUMPDEST DUP5 ADD SWAP2 POP POP SWAP3 SWAP2 POP POP JUMP JUMPDEST PUSH1 0x0 PUSH1 0x40 DUP3 ADD SWAP1 POP PUSH2 0x1B93 PUSH1 0x0 DUP4 ADD DUP6 PUSH2 0x1573 JUMP JUMPDEST DUP2 DUP2 SUB PUSH1 0x20 DUP4 ADD MSTORE PUSH2 0x1BA5 DUP2 DUP5 PUSH2 0x1B45 JUMP JUMPDEST SWAP1 POP SWAP4 SWAP3 POP POP POP JUMP JUMPDEST PUSH1 0x0 DUP2 MLOAD SWAP1 POP PUSH2 0x1BBD DUP2 PUSH2 0x1446 JUMP JUMPDEST SWAP3 SWAP2 POP POP JUMP JUMPDEST PUSH1 0x0 PUSH1 0x20 DUP3 DUP5 SUB SLT ISZERO PUSH2 0x1BD9 JUMPI PUSH2 0x1BD8 PUSH2 0x1432 JUMP JUMPDEST JUMPDEST PUSH1 0x0 PUSH2 0x1BE7 DUP5 DUP3 DUP6 ADD PUSH2 0x1BAE JUMP JUMPDEST SWAP2 POP POP SWAP3 SWAP2 POP POP JUMP JUMPDEST PUSH1 0x0 PUSH1 0x40 DUP3 ADD SWAP1 POP PUSH2 0x1C05 PUSH1 0x0 DUP4 ADD DUP6 PUSH2 0x176A JUMP JUMPDEST PUSH2 0x1C12 PUSH1 0x20 DUP4 ADD DUP5 PUSH2 0x176A JUMP JUMPDEST SWAP4 SWAP3 POP POP POP JUMP JUMPDEST PUSH32 0x4F776E61626C653A206E6577206F776E657220697320746865207A65726F2061 PUSH1 0x0 DUP3 ADD MSTORE PUSH32 0x6464726573730000000000000000000000000000000000000000000000000000 PUSH1 0x20 DUP3 ADD MSTORE POP JUMP JUMPDEST PUSH1 0x0 PUSH2 0x1C75 PUSH1 0x26 DUP4 PUSH2 0x1A68 JUMP JUMPDEST SWAP2 POP PUSH2 0x1C80 DUP3 PUSH2 0x1C19 JUMP JUMPDEST PUSH1 0x40 DUP3 ADD SWAP1 POP SWAP2 SWAP1 POP JUMP JUMPDEST PUSH1 0x0 PUSH1 0x20 DUP3 ADD SWAP1 POP DUP2 DUP2 SUB PUSH1 0x0 DUP4 ADD MSTORE PUSH2 0x1CA4 DUP2 PUSH2 0x1C68 JUMP JUMPDEST SWAP1 POP SWAP2 SWAP1 POP JUMP INVALID LOG2 PUSH5 0x6970667358 0x22 SLT KECCAK256 COINBASE 0xF7 SWAP1 0xC0 CODECOPY 0x5D PUSH30 0x64A80C98910087D92827A6DB3AE3707AB272BD4EC07E207E3164736F6C63 NUMBER STOP ADDMOD 0xD STOP CALLER "
				},
				"gasEstimates": {
					"creation": {
						"codeDepositCost": "1478600",
						"executionCost": "infinite",
						"totalCost": "infinite"
					},
					"external": {
						"NFTIdOfManager(address)": "infinite",
						"availableOfNFTId(uint256)": "2846",
						"createKYCNFT(string,address,uint256)": "infinite",
						"initManagerAddr(uint256,address)": "49469",
						"managerOfNFTId(uint256)": "2946",
						"modifyManagerAddr(uint256,address)": "infinite",
						"owner()": "2589",
						"renounceOwnership()": "30397",
						"setKYCNFTContractAddress(address)": "27050",
						"setNFTAvailableOfNFTId(uint256,bool)": "27215",
						"transferOwnership(address)": "30764",
						"updateAccumulator(string,string,uint256)": "infinite",
						"updateAccumulatorPublicKey(string,uint256)": "infinite",
						"updateAccumulatorValue(string)": "infinite",
						"userDataOfManager(address)": "infinite",
						"userDataOfNFTId(uint256)": "infinite"
					}
				},
				"methodIdentifiers": {
					"NFTIdOfManager(address)": "b2b72bc4",
					"availableOfNFTId(uint256)": "0e197dc9",
					"createKYCNFT(string,address,uint256)": "d1933ddd",
					"initManagerAddr(uint256,address)": "3960a892",
					"managerOfNFTId(uint256)": "4b3cef44",
					"modifyManagerAddr(uint256,address)": "622a47e6",
					"owner()": "8da5cb5b",
					"renounceOwnership()": "715018a6",
					"setKYCNFTContractAddress(address)": "fbc2cf13",
					"setNFTAvailableOfNFTId(uint256,bool)": "717b9b6c",
					"transferOwnership(address)": "f2fde38b",
					"updateAccumulator(string,string,uint256)": "bafdee14",
					"updateAccumulatorPublicKey(string,uint256)": "fa0e9e41",
					"updateAccumulatorValue(string)": "d6f70eb3",
					"userDataOfManager(address)": "ad575035",
					"userDataOfNFTId(uint256)": "917b8fd0"
				}
			},
			"storageLayout": {
				"storage": [
					{
						"astId": 7,
						"contract": "contracts/KYCManager.sol:KYCManager",
						"label": "_owner",
						"offset": 0,
						"slot": "0",
						"type": "t_address"
					},
					{
						"astId": 1926,
						"contract": "contracts/KYCManager.sol:KYCManager",
						"label": "KYCNFTInterFaceAddress",
						"offset": 0,
						"slot": "1",
						"type": "t_address"
					},
					{
						"astId": 1932,
						"contract": "contracts/KYCManager.sol:KYCManager",
						"label": "kycNFTContract",
						"offset": 0,
						"slot": "2",
						"type": "t_contract(KYCNFTInterface)1912"
					},
					{
						"astId": 1936,
						"contract": "contracts/KYCManager.sol:KYCManager",
						"label": "NFTIdToManager",
						"offset": 0,
						"slot": "3",
						"type": "t_mapping(t_uint256,t_address)"
					},
					{
						"astId": 1941,
						"contract": "contracts/KYCManager.sol:KYCManager",
						"label": "ManagerToUserData",
						"offset": 0,
						"slot": "4",
						"type": "t_mapping(t_address,t_struct(UserData)1923_storage)"
					},
					{
						"astId": 1945,
						"contract": "contracts/KYCManager.sol:KYCManager",
						"label": "NFTIdToAvailable",
						"offset": 0,
						"slot": "5",
						"type": "t_mapping(t_uint256,t_bool)"
					}
				],
				"types": {
					"t_address": {
						"encoding": "inplace",
						"label": "address",
						"numberOfBytes": "20"
					},
					"t_bool": {
						"encoding": "inplace",
						"label": "bool",
						"numberOfBytes": "1"
					},
					"t_contract(KYCNFTInterface)1912": {
						"encoding": "inplace",
						"label": "contract KYCNFTInterface",
						"numberOfBytes": "20"
					},
					"t_mapping(t_address,t_struct(UserData)1923_storage)": {
						"encoding": "mapping",
						"key": "t_address",
						"label": "mapping(address => struct KYCManager.UserData)",
						"numberOfBytes": "32",
						"value": "t_struct(UserData)1923_storage"
					},
					"t_mapping(t_uint256,t_address)": {
						"encoding": "mapping",
						"key": "t_uint256",
						"label": "mapping(uint256 => address)",
						"numberOfBytes": "32",
						"value": "t_address"
					},
					"t_mapping(t_uint256,t_bool)": {
						"encoding": "mapping",
						"key": "t_uint256",
						"label": "mapping(uint256 => bool)",
						"numberOfBytes": "32",
						"value": "t_bool"
					},
					"t_string_storage": {
						"encoding": "bytes",
						"label": "string",
						"numberOfBytes": "32"
					},
					"t_struct(UserData)1923_storage": {
						"encoding": "inplace",
						"label": "struct KYCManager.UserData",
						"members": [
							{
								"astId": 1916,
								"contract": "contracts/KYCManager.sol:KYCManager",
								"label": "NFTid",
								"offset": 0,
								"slot": "0",
								"type": "t_uint256"
							},
							{
								"astId": 1918,
								"contract": "contracts/KYCManager.sol:KYCManager",
								"label": "accumulator",
								"offset": 0,
								"slot": "1",
								"type": "t_string_storage"
							},
							{
								"astId": 1920,
								"contract": "contracts/KYCManager.sol:KYCManager",
								"label": "n",
								"offset": 0,
								"slot": "2",
								"type": "t_string_storage"
							},
							{
								"astId": 1922,
								"contract": "contracts/KYCManager.sol:KYCManager",
								"label": "g",
								"offset": 0,
								"slot": "3",
								"type": "t_uint256"
							}
						],
						"numberOfBytes": "128"
					},
					"t_uint256": {
						"encoding": "inplace",
						"label": "uint256",
						"numberOfBytes": "32"
					}
				}
			},
			"userdoc": {
				"kind": "user",
				"methods": {},
				"version": 1
			}
		}
	}
}