{
	"KYCNFT-LocalSever/contracts/KYCManager.sol": {
		"KYCManager": {
			"abi": [
				{
					"anonymous": false,
					"inputs": [
						{
							"indexed": true,
							"internalType": "address",
							"name": "previousOwner",
							"type": "address"
						},
						{
							"indexed": true,
							"internalType": "address",
							"name": "newOwner",
							"type": "address"
						}
					],
					"name": "OwnershipTransferred",
					"type": "event"
				},
				{
					"stateMutability": "payable",
					"type": "fallback"
				},
				{
					"inputs": [
						{
							"internalType": "address",
							"name": "managerAddr",
							"type": "address"
						}
					],
					"name": "NFTIdOfManager",
					"outputs": [
						{
							"internalType": "uint256",
							"name": "",
							"type": "uint256"
						}
					],
					"stateMutability": "view",
					"type": "function"
				},
				{
					"inputs": [
						{
							"internalType": "uint256",
							"name": "NFTid",
							"type": "uint256"
						}
					],
					"name": "availableOfNFTId",
					"outputs": [
						{
							"internalType": "bool",
							"name": "",
							"type": "bool"
						}
					],
					"stateMutability": "view",
					"type": "function"
				},
				{
					"inputs": [
						{
							"internalType": "string",
							"name": "tokenUrl",
							"type": "string"
						},
						{
							"internalType": "address",
							"name": "manager",
							"type": "address"
						},
						{
							"internalType": "uint256",
							"name": "expirationTime",
							"type": "uint256"
						}
					],
					"name": "createKYCNFT",
					"outputs": [],
					"stateMutability": "nonpayable",
					"type": "function"
				},
				{
					"inputs": [
						{
							"internalType": "uint256",
							"name": "NFTid",
							"type": "uint256"
						},
						{
							"internalType": "address",
							"name": "manager",
							"type": "address"
						}
					],
					"name": "initManagerAddr",
					"outputs": [],
					"stateMutability": "nonpayable",
					"type": "function"
				},
				{
					"inputs": [
						{
							"internalType": "uint256",
							"name": "NFTid",
							"type": "uint256"
						}
					],
					"name": "managerOfNFTId",
					"outputs": [
						{
							"internalType": "address",
							"name": "",
							"type": "address"
						}
					],
					"stateMutability": "view",
					"type": "function"
				},
				{
					"inputs": [
						{
							"internalType": "uint256",
							"name": "NFTid",
							"type": "uint256"
						},
						{
							"internalType": "address",
							"name": "newManager",
							"type": "address"
						}
					],
					"name": "modifyManagerAddr",
					"outputs": [],
					"stateMutability": "nonpayable",
					"type": "function"
				},
				{
					"inputs": [],
					"name": "owner",
					"outputs": [
						{
							"internalType": "address",
							"name": "",
							"type": "address"
						}
					],
					"stateMutability": "view",
					"type": "function"
				},
				{
					"inputs": [],
					"name": "renounceOwnership",
					"outputs": [],
					"stateMutability": "nonpayable",
					"type": "function"
				},
				{
					"inputs": [
						{
							"internalType": "address",
							"name": "_kycnftContractAddr",
							"type": "address"
						}
					],
					"name": "setKYCNFTContractAddress",
					"outputs": [],
					"stateMutability": "nonpayable",
					"type": "function"
				},
				{
					"inputs": [
						{
							"internalType": "uint256",
							"name": "NFTid",
							"type": "uint256"
						},
						{
							"internalType": "bool",
							"name": "_available",
							"type": "bool"
						}
					],
					"name": "setNFTAvailableOfNFTId",
					"outputs": [],
					"stateMutability": "nonpayable",
					"type": "function"
				},
				{
					"inputs": [
						{
							"internalType": "address",
							"name": "newOwner",
							"type": "address"
						}
					],
					"name": "transferOwnership",
					"outputs": [],
					"stateMutability": "nonpayable",
					"type": "function"
				},
				{
					"inputs": [
						{
							"internalType": "string",
							"name": "_accumulator",
							"type": "string"
						},
						{
							"internalType": "string",
							"name": "_n",
							"type": "string"
						},
						{
							"internalType": "uint256",
							"name": "_g",
							"type": "uint256"
						}
					],
					"name": "updateAccumulator",
					"outputs": [],
					"stateMutability": "nonpayable",
					"type": "function"
				},
				{
					"inputs": [
						{
							"internalType": "string",
							"name": "_n",
							"type": "string"
						},
						{
							"internalType": "uint256",
							"name": "_g",
							"type": "uint256"
						}
					],
					"name": "updateAccumulatorPublicKey",
					"outputs": [],
					"stateMutability": "nonpayable",
					"type": "function"
				},
				{
					"inputs": [
						{
							"internalType": "string",
							"name": "_accumulator",
							"type": "string"
						}
					],
					"name": "updateAccumulatorValue",
					"outputs": [],
					"stateMutability": "nonpayable",
					"type": "function"
				},
				{
					"inputs": [
						{
							"internalType": "address",
							"name": "managerAddr",
							"type": "address"
						}
					],
					"name": "userDataOfManager",
					"outputs": [
						{
							"components": [
								{
									"internalType": "uint256",
									"name": "NFTid",
									"type": "uint256"
								},
								{
									"internalType": "string",
									"name": "accumulator",
									"type": "string"
								},
								{
									"internalType": "string",
									"name": "n",
									"type": "string"
								},
								{
									"internalType": "uint256",
									"name": "g",
									"type": "uint256"
								}
							],
							"internalType": "struct KYCManager.UserData",
							"name": "",
							"type": "tuple"
						}
					],
					"stateMutability": "view",
					"type": "function"
				},
				{
					"inputs": [
						{
							"internalType": "uint256",
							"name": "NFTid",
							"type": "uint256"
						}
					],
					"name": "userDataOfNFTId",
					"outputs": [
						{
							"components": [
								{
									"internalType": "uint256",
									"name": "NFTid",
									"type": "uint256"
								},
								{
									"internalType": "string",
									"name": "accumulator",
									"type": "string"
								},
								{
									"internalType": "string",
									"name": "n",
									"type": "string"
								},
								{
									"internalType": "uint256",
									"name": "g",
									"type": "uint256"
								}
							],
							"internalType": "struct KYCManager.UserData",
							"name": "",
							"type": "tuple"
						}
					],
					"stateMutability": "view",
					"type": "function"
				},
				{
					"stateMutability": "payable",
					"type": "receive"
				}
			],
			"devdoc": {
				"kind": "dev",
				"methods": {
					"owner()": {
						"details": "Returns the address of the current owner."
					},
					"renounceOwnership()": {
						"details": "Leaves the contract without owner. It will not be possible to call `onlyOwner` functions anymore. Can only be called by the current owner. NOTE: Renouncing ownership will leave the contract without an owner, thereby removing any functionality that is only available to the owner."
					},
					"transferOwnership(address)": {
						"details": "Transfers ownership of the contract to a new account (`newOwner`). Can only be called by the current owner."
					}
				},
				"version": 1
			},
			"evm": {
				"assembly": "    /* \"KYCNFT-LocalSever/contracts/KYCManager.sol\":393:3462  contract KYCManager is Ownable {... */\n  mstore(0x40, 0x80)\n  callvalue\n  dup1\n  iszero\n  tag_1\n  jumpi\n  0x00\n  dup1\n  revert\ntag_1:\n  pop\n    /* \"@openzeppelin/contracts/access/Ownable.sol\":921:953  _transferOwnership(_msgSender()) */\n  tag_4\n    /* \"@openzeppelin/contracts/access/Ownable.sol\":940:952  _msgSender() */\n  tag_5\n    /* \"@openzeppelin/contracts/access/Ownable.sol\":940:950  _msgSender */\n  shl(0x20, tag_6)\n    /* \"@openzeppelin/contracts/access/Ownable.sol\":940:952  _msgSender() */\n  0x20\n  shr\n  jump\t// in\ntag_5:\n    /* \"@openzeppelin/contracts/access/Ownable.sol\":921:939  _transferOwnership */\n  shl(0x20, tag_7)\n    /* \"@openzeppelin/contracts/access/Ownable.sol\":921:953  _transferOwnership(_msgSender()) */\n  0x20\n  shr\n  jump\t// in\ntag_4:\n    /* \"KYCNFT-LocalSever/contracts/KYCManager.sol\":393:3462  contract KYCManager is Ownable {... */\n  jump(tag_8)\n    /* \"@openzeppelin/contracts/utils/Context.sol\":640:736  function _msgSender() internal view virtual returns (address) {... */\ntag_6:\n    /* \"@openzeppelin/contracts/utils/Context.sol\":693:700  address */\n  0x00\n    /* \"@openzeppelin/contracts/utils/Context.sol\":719:729  msg.sender */\n  caller\n    /* \"@openzeppelin/contracts/utils/Context.sol\":712:729  return msg.sender */\n  swap1\n  pop\n    /* \"@openzeppelin/contracts/utils/Context.sol\":640:736  function _msgSender() internal view virtual returns (address) {... */\n  swap1\n  jump\t// out\n    /* \"@openzeppelin/contracts/access/Ownable.sol\":2270:2457  function _transferOwnership(address newOwner) internal virtual {... */\ntag_7:\n    /* \"@openzeppelin/contracts/access/Ownable.sol\":2343:2359  address oldOwner */\n  0x00\n    /* \"@openzeppelin/contracts/access/Ownable.sol\":2362:2368  _owner */\n  dup1\n  0x00\n  swap1\n  sload\n  swap1\n  0x0100\n  exp\n  swap1\n  div\n  0xffffffffffffffffffffffffffffffffffffffff\n  and\n    /* \"@openzeppelin/contracts/access/Ownable.sol\":2343:2368  address oldOwner = _owner */\n  swap1\n  pop\n    /* \"@openzeppelin/contracts/access/Ownable.sol\":2387:2395  newOwner */\n  dup2\n    /* \"@openzeppelin/contracts/access/Ownable.sol\":2378:2384  _owner */\n  0x00\n  dup1\n    /* \"@openzeppelin/contracts/access/Ownable.sol\":2378:2395  _owner = newOwner */\n  0x0100\n  exp\n  dup2\n  sload\n  dup2\n  0xffffffffffffffffffffffffffffffffffffffff\n  mul\n  not\n  and\n  swap1\n  dup4\n  0xffffffffffffffffffffffffffffffffffffffff\n  and\n  mul\n  or\n  swap1\n  sstore\n  pop\n    /* \"@openzeppelin/contracts/access/Ownable.sol\":2441:2449  newOwner */\n  dup2\n    /* \"@openzeppelin/contracts/access/Ownable.sol\":2410:2450  OwnershipTransferred(oldOwner, newOwner) */\n  0xffffffffffffffffffffffffffffffffffffffff\n  and\n    /* \"@openzeppelin/contracts/access/Ownable.sol\":2431:2439  oldOwner */\n  dup2\n    /* \"@openzeppelin/contracts/access/Ownable.sol\":2410:2450  OwnershipTransferred(oldOwner, newOwner) */\n  0xffffffffffffffffffffffffffffffffffffffff\n  and\n  0x8be0079c531659141344cd1fd0a4f28419497f9722a3daafe3b4186f6b6457e0\n  mload(0x40)\n  mload(0x40)\n  dup1\n  swap2\n  sub\n  swap1\n  log3\n    /* \"@openzeppelin/contracts/access/Ownable.sol\":2333:2457  {... */\n  pop\n    /* \"@openzeppelin/contracts/access/Ownable.sol\":2270:2457  function _transferOwnership(address newOwner) internal virtual {... */\n  pop\n  jump\t// out\n    /* \"KYCNFT-LocalSever/contracts/KYCManager.sol\":393:3462  contract KYCManager is Ownable {... */\ntag_8:\n  dataSize(sub_0)\n  dup1\n  dataOffset(sub_0)\n  0x00\n  codecopy\n  0x00\n  return\nstop\n\nsub_0: assembly {\n        /* \"KYCNFT-LocalSever/contracts/KYCManager.sol\":393:3462  contract KYCManager is Ownable {... */\n      mstore(0x40, 0x80)\n      jumpi(tag_1, lt(calldatasize, 0x04))\n      shr(0xe0, calldataload(0x00))\n      dup1\n      0xad575035\n      gt\n      tag_19\n      jumpi\n      dup1\n      0xd6f70eb3\n      gt\n      tag_20\n      jumpi\n      dup1\n      0xd6f70eb3\n      eq\n      tag_15\n      jumpi\n      dup1\n      0xf2fde38b\n      eq\n      tag_16\n      jumpi\n      dup1\n      0xfa0e9e41\n      eq\n      tag_17\n      jumpi\n      dup1\n      0xfbc2cf13\n      eq\n      tag_18\n      jumpi\n      jump(tag_2)\n    tag_20:\n      dup1\n      0xad575035\n      eq\n      tag_11\n      jumpi\n      dup1\n      0xb2b72bc4\n      eq\n      tag_12\n      jumpi\n      dup1\n      0xbafdee14\n      eq\n      tag_13\n      jumpi\n      dup1\n      0xd1933ddd\n      eq\n      tag_14\n      jumpi\n      jump(tag_2)\n    tag_19:\n      dup1\n      0x715018a6\n      gt\n      tag_21\n      jumpi\n      dup1\n      0x715018a6\n      eq\n      tag_7\n      jumpi\n      dup1\n      0x717b9b6c\n      eq\n      tag_8\n      jumpi\n      dup1\n      0x8da5cb5b\n      eq\n      tag_9\n      jumpi\n      dup1\n      0x917b8fd0\n      eq\n      tag_10\n      jumpi\n      jump(tag_2)\n    tag_21:\n      dup1\n      0x0e197dc9\n      eq\n      tag_3\n      jumpi\n      dup1\n      0x3960a892\n      eq\n      tag_4\n      jumpi\n      dup1\n      0x4b3cef44\n      eq\n      tag_5\n      jumpi\n      dup1\n      0x622a47e6\n      eq\n      tag_6\n      jumpi\n      jump(tag_2)\n    tag_1:\n      jumpi(tag_2, calldatasize)\n        /* \"KYCNFT-LocalSever/contracts/KYCManager.sol\":3447:3455  revert() */\n      0x00\n      dup1\n      revert\n        /* \"KYCNFT-LocalSever/contracts/KYCManager.sol\":393:3462  contract KYCManager is Ownable {... */\n    tag_2:\n        /* \"KYCNFT-LocalSever/contracts/KYCManager.sol\":3398:3406  revert() */\n      0x00\n      dup1\n      revert\n        /* \"KYCNFT-LocalSever/contracts/KYCManager.sol\":3081:3187  function availableOfNFTId(uint NFTid) public view returns(bool){... */\n    tag_3:\n      callvalue\n      dup1\n      iszero\n      tag_26\n      jumpi\n      0x00\n      dup1\n      revert\n    tag_26:\n      pop\n      tag_27\n      0x04\n      dup1\n      calldatasize\n      sub\n      dup2\n      add\n      swap1\n      tag_28\n      swap2\n      swap1\n      tag_29\n      jump\t// in\n    tag_28:\n      tag_30\n      jump\t// in\n    tag_27:\n      mload(0x40)\n      tag_31\n      swap2\n      swap1\n      tag_32\n      jump\t// in\n    tag_31:\n      mload(0x40)\n      dup1\n      swap2\n      sub\n      swap1\n      return\n        /* \"KYCNFT-LocalSever/contracts/KYCManager.sol\":1465:1624  function initManagerAddr(uint NFTid, address manager) public onlyOwner {... */\n    tag_4:\n      callvalue\n      dup1\n      iszero\n      tag_33\n      jumpi\n      0x00\n      dup1\n      revert\n    tag_33:\n      pop\n      tag_34\n      0x04\n      dup1\n      calldatasize\n      sub\n      dup2\n      add\n      swap1\n      tag_35\n      swap2\n      swap1\n      tag_36\n      jump\t// in\n    tag_35:\n      tag_37\n      jump\t// in\n    tag_34:\n      stop\n        /* \"KYCNFT-LocalSever/contracts/KYCManager.sol\":2556:2689  function managerOfNFTId(uint NFTid) public view returns(address) {... */\n    tag_5:\n      callvalue\n      dup1\n      iszero\n      tag_38\n      jumpi\n      0x00\n      dup1\n      revert\n    tag_38:\n      pop\n      tag_39\n      0x04\n      dup1\n      calldatasize\n      sub\n      dup2\n      add\n      swap1\n      tag_40\n      swap2\n      swap1\n      tag_29\n      jump\t// in\n    tag_40:\n      tag_41\n      jump\t// in\n    tag_39:\n      mload(0x40)\n      tag_42\n      swap2\n      swap1\n      tag_43\n      jump\t// in\n    tag_42:\n      mload(0x40)\n      dup1\n      swap2\n      sub\n      swap1\n      return\n        /* \"KYCNFT-LocalSever/contracts/KYCManager.sol\":1632:1859  function modifyManagerAddr(uint NFTid, address newManager) public{... */\n    tag_6:\n      callvalue\n      dup1\n      iszero\n      tag_44\n      jumpi\n      0x00\n      dup1\n      revert\n    tag_44:\n      pop\n      tag_45\n      0x04\n      dup1\n      calldatasize\n      sub\n      dup2\n      add\n      swap1\n      tag_46\n      swap2\n      swap1\n      tag_36\n      jump\t// in\n    tag_46:\n      tag_47\n      jump\t// in\n    tag_45:\n      stop\n        /* \"@openzeppelin/contracts/access/Ownable.sol\":1668:1769  function renounceOwnership() public virtual onlyOwner {... */\n    tag_7:\n      callvalue\n      dup1\n      iszero\n      tag_48\n      jumpi\n      0x00\n      dup1\n      revert\n    tag_48:\n      pop\n      tag_49\n      tag_50\n      jump\t// in\n    tag_49:\n      stop\n        /* \"KYCNFT-LocalSever/contracts/KYCManager.sol\":1301:1426  function setNFTAvailableOfNFTId(uint NFTid, bool _available)  public onlyOwner{... */\n    tag_8:\n      callvalue\n      dup1\n      iszero\n      tag_51\n      jumpi\n      0x00\n      dup1\n      revert\n    tag_51:\n      pop\n      tag_52\n      0x04\n      dup1\n      calldatasize\n      sub\n      dup2\n      add\n      swap1\n      tag_53\n      swap2\n      swap1\n      tag_54\n      jump\t// in\n    tag_53:\n      tag_55\n      jump\t// in\n    tag_52:\n      stop\n        /* \"@openzeppelin/contracts/access/Ownable.sol\":1036:1121  function owner() public view virtual returns (address) {... */\n    tag_9:\n      callvalue\n      dup1\n      iszero\n      tag_56\n      jumpi\n      0x00\n      dup1\n      revert\n    tag_56:\n      pop\n      tag_57\n      tag_58\n      jump\t// in\n    tag_57:\n      mload(0x40)\n      tag_59\n      swap2\n      swap1\n      tag_43\n      jump\t// in\n    tag_59:\n      mload(0x40)\n      dup1\n      swap2\n      sub\n      swap1\n      return\n        /* \"KYCNFT-LocalSever/contracts/KYCManager.sol\":2693:2896  function userDataOfNFTId(uint NFTid) public view returns(UserData memory){... */\n    tag_10:\n      callvalue\n      dup1\n      iszero\n      tag_60\n      jumpi\n      0x00\n      dup1\n      revert\n    tag_60:\n      pop\n      tag_61\n      0x04\n      dup1\n      calldatasize\n      sub\n      dup2\n      add\n      swap1\n      tag_62\n      swap2\n      swap1\n      tag_29\n      jump\t// in\n    tag_62:\n      tag_63\n      jump\t// in\n    tag_61:\n      mload(0x40)\n      tag_64\n      swap2\n      swap1\n      tag_65\n      jump\t// in\n    tag_64:\n      mload(0x40)\n      dup1\n      swap2\n      sub\n      swap1\n      return\n        /* \"KYCNFT-LocalSever/contracts/KYCManager.sol\":2900:3077  function userDataOfManager(address managerAddr) public view returns(UserData memory){... */\n    tag_11:\n      callvalue\n      dup1\n      iszero\n      tag_66\n      jumpi\n      0x00\n      dup1\n      revert\n    tag_66:\n      pop\n      tag_67\n      0x04\n      dup1\n      calldatasize\n      sub\n      dup2\n      add\n      swap1\n      tag_68\n      swap2\n      swap1\n      tag_69\n      jump\t// in\n    tag_68:\n      tag_70\n      jump\t// in\n    tag_67:\n      mload(0x40)\n      tag_71\n      swap2\n      swap1\n      tag_65\n      jump\t// in\n    tag_71:\n      mload(0x40)\n      dup1\n      swap2\n      sub\n      swap1\n      return\n        /* \"KYCNFT-LocalSever/contracts/KYCManager.sol\":3191:3360  function NFTIdOfManager(address managerAddr) public view returns(uint){... */\n    tag_12:\n      callvalue\n      dup1\n      iszero\n      tag_72\n      jumpi\n      0x00\n      dup1\n      revert\n    tag_72:\n      pop\n      tag_73\n      0x04\n      dup1\n      calldatasize\n      sub\n      dup2\n      add\n      swap1\n      tag_74\n      swap2\n      swap1\n      tag_69\n      jump\t// in\n    tag_74:\n      tag_75\n      jump\t// in\n    tag_73:\n      mload(0x40)\n      tag_76\n      swap2\n      swap1\n      tag_77\n      jump\t// in\n    tag_76:\n      mload(0x40)\n      dup1\n      swap2\n      sub\n      swap1\n      return\n        /* \"KYCNFT-LocalSever/contracts/KYCManager.sol\":1896:2147  function updateAccumulator(string memory _accumulator, string memory _n, uint256 _g) public {... */\n    tag_13:\n      callvalue\n      dup1\n      iszero\n      tag_78\n      jumpi\n      0x00\n      dup1\n      revert\n    tag_78:\n      pop\n      tag_79\n      0x04\n      dup1\n      calldatasize\n      sub\n      dup2\n      add\n      swap1\n      tag_80\n      swap2\n      swap1\n      tag_81\n      jump\t// in\n    tag_80:\n      tag_82\n      jump\t// in\n    tag_79:\n      stop\n        /* \"KYCNFT-LocalSever/contracts/KYCManager.sol\":890:1295  function createKYCNFT(string memory tokenUrl, address manager, uint expirationTime) public onlyOwner{... */\n    tag_14:\n      callvalue\n      dup1\n      iszero\n      tag_83\n      jumpi\n      0x00\n      dup1\n      revert\n    tag_83:\n      pop\n      tag_84\n      0x04\n      dup1\n      calldatasize\n      sub\n      dup2\n      add\n      swap1\n      tag_85\n      swap2\n      swap1\n      tag_86\n      jump\t// in\n    tag_85:\n      tag_87\n      jump\t// in\n    tag_84:\n      stop\n        /* \"KYCNFT-LocalSever/contracts/KYCManager.sol\":2341:2521  function updateAccumulatorValue(string memory _accumulator) public {... */\n    tag_15:\n      callvalue\n      dup1\n      iszero\n      tag_88\n      jumpi\n      0x00\n      dup1\n      revert\n    tag_88:\n      pop\n      tag_89\n      0x04\n      dup1\n      calldatasize\n      sub\n      dup2\n      add\n      swap1\n      tag_90\n      swap2\n      swap1\n      tag_91\n      jump\t// in\n    tag_90:\n      tag_92\n      jump\t// in\n    tag_89:\n      stop\n        /* \"@openzeppelin/contracts/access/Ownable.sol\":1918:2116  function transferOwnership(address newOwner) public virtual onlyOwner {... */\n    tag_16:\n      callvalue\n      dup1\n      iszero\n      tag_93\n      jumpi\n      0x00\n      dup1\n      revert\n    tag_93:\n      pop\n      tag_94\n      0x04\n      dup1\n      calldatasize\n      sub\n      dup2\n      add\n      swap1\n      tag_95\n      swap2\n      swap1\n      tag_69\n      jump\t// in\n    tag_95:\n      tag_96\n      jump\t// in\n    tag_94:\n      stop\n        /* \"KYCNFT-LocalSever/contracts/KYCManager.sol\":2151:2337  function updateAccumulatorPublicKey(string memory _n, uint _g) public {... */\n    tag_17:\n      callvalue\n      dup1\n      iszero\n      tag_97\n      jumpi\n      0x00\n      dup1\n      revert\n    tag_97:\n      pop\n      tag_98\n      0x04\n      dup1\n      calldatasize\n      sub\n      dup2\n      add\n      swap1\n      tag_99\n      swap2\n      swap1\n      tag_100\n      jump\t// in\n    tag_99:\n      tag_101\n      jump\t// in\n    tag_98:\n      stop\n        /* \"KYCNFT-LocalSever/contracts/KYCManager.sol\":740:884  function setKYCNFTContractAddress(address _kycnftContractAddr) public onlyOwner {... */\n    tag_18:\n      callvalue\n      dup1\n      iszero\n      tag_102\n      jumpi\n      0x00\n      dup1\n      revert\n    tag_102:\n      pop\n      tag_103\n      0x04\n      dup1\n      calldatasize\n      sub\n      dup2\n      add\n      swap1\n      tag_104\n      swap2\n      swap1\n      tag_69\n      jump\t// in\n    tag_104:\n      tag_105\n      jump\t// in\n    tag_103:\n      stop\n        /* \"KYCNFT-LocalSever/contracts/KYCManager.sol\":3081:3187  function availableOfNFTId(uint NFTid) public view returns(bool){... */\n    tag_30:\n        /* \"KYCNFT-LocalSever/contracts/KYCManager.sol\":3139:3143  bool */\n      0x00\n        /* \"KYCNFT-LocalSever/contracts/KYCManager.sol\":3159:3175  NFTIdToAvailable */\n      0x04\n        /* \"KYCNFT-LocalSever/contracts/KYCManager.sol\":3159:3182  NFTIdToAvailable[NFTid] */\n      0x00\n        /* \"KYCNFT-LocalSever/contracts/KYCManager.sol\":3176:3181  NFTid */\n      dup4\n        /* \"KYCNFT-LocalSever/contracts/KYCManager.sol\":3159:3182  NFTIdToAvailable[NFTid] */\n      dup2\n      mstore\n      0x20\n      add\n      swap1\n      dup2\n      mstore\n      0x20\n      add\n      0x00\n      keccak256\n      0x00\n      swap1\n      sload\n      swap1\n      0x0100\n      exp\n      swap1\n      div\n      0xff\n      and\n        /* \"KYCNFT-LocalSever/contracts/KYCManager.sol\":3152:3182  return NFTIdToAvailable[NFTid] */\n      swap1\n      pop\n        /* \"KYCNFT-LocalSever/contracts/KYCManager.sol\":3081:3187  function availableOfNFTId(uint NFTid) public view returns(bool){... */\n      swap2\n      swap1\n      pop\n      jump\t// out\n        /* \"KYCNFT-LocalSever/contracts/KYCManager.sol\":1465:1624  function initManagerAddr(uint NFTid, address manager) public onlyOwner {... */\n    tag_37:\n        /* \"@openzeppelin/contracts/access/Ownable.sol\":1259:1271  _msgSender() */\n      tag_108\n        /* \"@openzeppelin/contracts/access/Ownable.sol\":1259:1269  _msgSender */\n      tag_109\n        /* \"@openzeppelin/contracts/access/Ownable.sol\":1259:1271  _msgSender() */\n      jump\t// in\n    tag_108:\n        /* \"@openzeppelin/contracts/access/Ownable.sol\":1248:1271  owner() == _msgSender() */\n      0xffffffffffffffffffffffffffffffffffffffff\n      and\n        /* \"@openzeppelin/contracts/access/Ownable.sol\":1248:1255  owner() */\n      tag_110\n        /* \"@openzeppelin/contracts/access/Ownable.sol\":1248:1253  owner */\n      tag_58\n        /* \"@openzeppelin/contracts/access/Ownable.sol\":1248:1255  owner() */\n      jump\t// in\n    tag_110:\n        /* \"@openzeppelin/contracts/access/Ownable.sol\":1248:1271  owner() == _msgSender() */\n      0xffffffffffffffffffffffffffffffffffffffff\n      and\n      eq\n        /* \"@openzeppelin/contracts/access/Ownable.sol\":1240:1308  require(owner() == _msgSender(), \"Ownable: caller is not the owner\") */\n      tag_111\n      jumpi\n      mload(0x40)\n      0x08c379a000000000000000000000000000000000000000000000000000000000\n      dup2\n      mstore\n      0x04\n      add\n      tag_112\n      swap1\n      tag_113\n      jump\t// in\n    tag_112:\n      mload(0x40)\n      dup1\n      swap2\n      sub\n      swap1\n      revert\n    tag_111:\n        /* \"KYCNFT-LocalSever/contracts/KYCManager.sol\":1566:1573  manager */\n      dup1\n        /* \"KYCNFT-LocalSever/contracts/KYCManager.sol\":1542:1556  NFTIdToManager */\n      0x02\n        /* \"KYCNFT-LocalSever/contracts/KYCManager.sol\":1542:1563  NFTIdToManager[NFTid] */\n      0x00\n        /* \"KYCNFT-LocalSever/contracts/KYCManager.sol\":1557:1562  NFTid */\n      dup5\n        /* \"KYCNFT-LocalSever/contracts/KYCManager.sol\":1542:1563  NFTIdToManager[NFTid] */\n      dup2\n      mstore\n      0x20\n      add\n      swap1\n      dup2\n      mstore\n      0x20\n      add\n      0x00\n      keccak256\n      0x00\n        /* \"KYCNFT-LocalSever/contracts/KYCManager.sol\":1542:1573  NFTIdToManager[NFTid] = manager */\n      0x0100\n      exp\n      dup2\n      sload\n      dup2\n      0xffffffffffffffffffffffffffffffffffffffff\n      mul\n      not\n      and\n      swap1\n      dup4\n      0xffffffffffffffffffffffffffffffffffffffff\n      and\n      mul\n      or\n      swap1\n      sstore\n      pop\n        /* \"KYCNFT-LocalSever/contracts/KYCManager.sol\":1614:1619  NFTid */\n      dup2\n        /* \"KYCNFT-LocalSever/contracts/KYCManager.sol\":1579:1596  ManagerToUserData */\n      0x03\n        /* \"KYCNFT-LocalSever/contracts/KYCManager.sol\":1579:1605  ManagerToUserData[manager] */\n      0x00\n        /* \"KYCNFT-LocalSever/contracts/KYCManager.sol\":1597:1604  manager */\n      dup4\n        /* \"KYCNFT-LocalSever/contracts/KYCManager.sol\":1579:1605  ManagerToUserData[manager] */\n      0xffffffffffffffffffffffffffffffffffffffff\n      and\n      0xffffffffffffffffffffffffffffffffffffffff\n      and\n      dup2\n      mstore\n      0x20\n      add\n      swap1\n      dup2\n      mstore\n      0x20\n      add\n      0x00\n      keccak256\n        /* \"KYCNFT-LocalSever/contracts/KYCManager.sol\":1579:1611  ManagerToUserData[manager].NFTid */\n      0x00\n      add\n        /* \"KYCNFT-LocalSever/contracts/KYCManager.sol\":1579:1619  ManagerToUserData[manager].NFTid = NFTid */\n      dup2\n      swap1\n      sstore\n      pop\n        /* \"KYCNFT-LocalSever/contracts/KYCManager.sol\":1465:1624  function initManagerAddr(uint NFTid, address manager) public onlyOwner {... */\n      pop\n      pop\n      jump\t// out\n        /* \"KYCNFT-LocalSever/contracts/KYCManager.sol\":2556:2689  function managerOfNFTId(uint NFTid) public view returns(address) {... */\n    tag_41:\n        /* \"KYCNFT-LocalSever/contracts/KYCManager.sol\":2612:2619  address */\n      0x00\n        /* \"KYCNFT-LocalSever/contracts/KYCManager.sol\":2629:2641  address addr */\n      dup1\n        /* \"KYCNFT-LocalSever/contracts/KYCManager.sol\":2644:2658  NFTIdToManager */\n      0x02\n        /* \"KYCNFT-LocalSever/contracts/KYCManager.sol\":2644:2665  NFTIdToManager[NFTid] */\n      0x00\n        /* \"KYCNFT-LocalSever/contracts/KYCManager.sol\":2659:2664  NFTid */\n      dup5\n        /* \"KYCNFT-LocalSever/contracts/KYCManager.sol\":2644:2665  NFTIdToManager[NFTid] */\n      dup2\n      mstore\n      0x20\n      add\n      swap1\n      dup2\n      mstore\n      0x20\n      add\n      0x00\n      keccak256\n      0x00\n      swap1\n      sload\n      swap1\n      0x0100\n      exp\n      swap1\n      div\n      0xffffffffffffffffffffffffffffffffffffffff\n      and\n        /* \"KYCNFT-LocalSever/contracts/KYCManager.sol\":2629:2665  address addr = NFTIdToManager[NFTid] */\n      swap1\n      pop\n        /* \"KYCNFT-LocalSever/contracts/KYCManager.sol\":2680:2684  addr */\n      dup1\n        /* \"KYCNFT-LocalSever/contracts/KYCManager.sol\":2673:2684  return addr */\n      swap2\n      pop\n      pop\n        /* \"KYCNFT-LocalSever/contracts/KYCManager.sol\":2556:2689  function managerOfNFTId(uint NFTid) public view returns(address) {... */\n      swap2\n      swap1\n      pop\n      jump\t// out\n        /* \"KYCNFT-LocalSever/contracts/KYCManager.sol\":1632:1859  function modifyManagerAddr(uint NFTid, address newManager) public{... */\n    tag_47:\n        /* \"KYCNFT-LocalSever/contracts/KYCManager.sol\":1703:1727  UserData memory userdata */\n      0x00\n        /* \"KYCNFT-LocalSever/contracts/KYCManager.sol\":1730:1747  ManagerToUserData */\n      0x03\n        /* \"KYCNFT-LocalSever/contracts/KYCManager.sol\":1730:1759  ManagerToUserData[msg.sender] */\n      0x00\n        /* \"KYCNFT-LocalSever/contracts/KYCManager.sol\":1748:1758  msg.sender */\n      caller\n        /* \"KYCNFT-LocalSever/contracts/KYCManager.sol\":1730:1759  ManagerToUserData[msg.sender] */\n      0xffffffffffffffffffffffffffffffffffffffff\n      and\n      0xffffffffffffffffffffffffffffffffffffffff\n      and\n      dup2\n      mstore\n      0x20\n      add\n      swap1\n      dup2\n      mstore\n      0x20\n      add\n      0x00\n      keccak256\n        /* \"KYCNFT-LocalSever/contracts/KYCManager.sol\":1703:1759  UserData memory userdata = ManagerToUserData[msg.sender] */\n      mload(0x40)\n      dup1\n      0x80\n      add\n      0x40\n      mstore\n      swap1\n      dup2\n      0x00\n      dup3\n      add\n      sload\n      dup2\n      mstore\n      0x20\n      add\n      0x01\n      dup3\n      add\n      dup1\n      sload\n      tag_117\n      swap1\n      tag_118\n      jump\t// in\n    tag_117:\n      dup1\n      0x1f\n      add\n      0x20\n      dup1\n      swap2\n      div\n      mul\n      0x20\n      add\n      mload(0x40)\n      swap1\n      dup2\n      add\n      0x40\n      mstore\n      dup1\n      swap3\n      swap2\n      swap1\n      dup2\n      dup2\n      mstore\n      0x20\n      add\n      dup3\n      dup1\n      sload\n      tag_119\n      swap1\n      tag_118\n      jump\t// in\n    tag_119:\n      dup1\n      iszero\n      tag_120\n      jumpi\n      dup1\n      0x1f\n      lt\n      tag_121\n      jumpi\n      0x0100\n      dup1\n      dup4\n      sload\n      div\n      mul\n      dup4\n      mstore\n      swap2\n      0x20\n      add\n      swap2\n      jump(tag_120)\n    tag_121:\n      dup3\n      add\n      swap2\n      swap1\n      0x00\n      mstore\n      keccak256(0x00, 0x20)\n      swap1\n    tag_122:\n      dup2\n      sload\n      dup2\n      mstore\n      swap1\n      0x01\n      add\n      swap1\n      0x20\n      add\n      dup1\n      dup4\n      gt\n      tag_122\n      jumpi\n      dup3\n      swap1\n      sub\n      0x1f\n      and\n      dup3\n      add\n      swap2\n    tag_120:\n      pop\n      pop\n      pop\n      pop\n      pop\n      dup2\n      mstore\n      0x20\n      add\n      0x02\n      dup3\n      add\n      dup1\n      sload\n      tag_123\n      swap1\n      tag_118\n      jump\t// in\n    tag_123:\n      dup1\n      0x1f\n      add\n      0x20\n      dup1\n      swap2\n      div\n      mul\n      0x20\n      add\n      mload(0x40)\n      swap1\n      dup2\n      add\n      0x40\n      mstore\n      dup1\n      swap3\n      swap2\n      swap1\n      dup2\n      dup2\n      mstore\n      0x20\n      add\n      dup3\n      dup1\n      sload\n      tag_124\n      swap1\n      tag_118\n      jump\t// in\n    tag_124:\n      dup1\n      iszero\n      tag_125\n      jumpi\n      dup1\n      0x1f\n      lt\n      tag_126\n      jumpi\n      0x0100\n      dup1\n      dup4\n      sload\n      div\n      mul\n      dup4\n      mstore\n      swap2\n      0x20\n      add\n      swap2\n      jump(tag_125)\n    tag_126:\n      dup3\n      add\n      swap2\n      swap1\n      0x00\n      mstore\n      keccak256(0x00, 0x20)\n      swap1\n    tag_127:\n      dup2\n      sload\n      dup2\n      mstore\n      swap1\n      0x01\n      add\n      swap1\n      0x20\n      add\n      dup1\n      dup4\n      gt\n      tag_127\n      jumpi\n      dup3\n      swap1\n      sub\n      0x1f\n      and\n      dup3\n      add\n      swap2\n    tag_125:\n      pop\n      pop\n      pop\n      pop\n      pop\n      dup2\n      mstore\n      0x20\n      add\n      0x03\n      dup3\n      add\n      sload\n      dup2\n      mstore\n      pop\n      pop\n      swap1\n      pop\n        /* \"KYCNFT-LocalSever/contracts/KYCManager.sol\":1797:1805  userdata */\n      dup1\n        /* \"KYCNFT-LocalSever/contracts/KYCManager.sol\":1765:1782  ManagerToUserData */\n      0x03\n        /* \"KYCNFT-LocalSever/contracts/KYCManager.sol\":1765:1794  ManagerToUserData[newManager] */\n      0x00\n        /* \"KYCNFT-LocalSever/contracts/KYCManager.sol\":1783:1793  newManager */\n      dup5\n        /* \"KYCNFT-LocalSever/contracts/KYCManager.sol\":1765:1794  ManagerToUserData[newManager] */\n      0xffffffffffffffffffffffffffffffffffffffff\n      and\n      0xffffffffffffffffffffffffffffffffffffffff\n      and\n      dup2\n      mstore\n      0x20\n      add\n      swap1\n      dup2\n      mstore\n      0x20\n      add\n      0x00\n      keccak256\n        /* \"KYCNFT-LocalSever/contracts/KYCManager.sol\":1765:1805  ManagerToUserData[newManager] = userdata */\n      0x00\n      dup3\n      add\n      mload\n      dup2\n      0x00\n      add\n      sstore\n      0x20\n      dup3\n      add\n      mload\n      dup2\n      0x01\n      add\n      swap1\n      dup1\n      mload\n      swap1\n      0x20\n      add\n      swap1\n      tag_128\n      swap3\n      swap2\n      swap1\n      tag_129\n      jump\t// in\n    tag_128:\n      pop\n      0x40\n      dup3\n      add\n      mload\n      dup2\n      0x02\n      add\n      swap1\n      dup1\n      mload\n      swap1\n      0x20\n      add\n      swap1\n      tag_130\n      swap3\n      swap2\n      swap1\n      tag_129\n      jump\t// in\n    tag_130:\n      pop\n      0x60\n      dup3\n      add\n      mload\n      dup2\n      0x03\n      add\n      sstore\n      swap1\n      pop\n      pop\n        /* \"KYCNFT-LocalSever/contracts/KYCManager.sol\":1844:1854  newManager */\n      dup2\n        /* \"KYCNFT-LocalSever/contracts/KYCManager.sol\":1811:1825  NFTIdToManager */\n      0x02\n        /* \"KYCNFT-LocalSever/contracts/KYCManager.sol\":1811:1841  NFTIdToManager[userdata.NFTid] */\n      0x00\n        /* \"KYCNFT-LocalSever/contracts/KYCManager.sol\":1826:1834  userdata */\n      dup4\n        /* \"KYCNFT-LocalSever/contracts/KYCManager.sol\":1826:1840  userdata.NFTid */\n      0x00\n      add\n      mload\n        /* \"KYCNFT-LocalSever/contracts/KYCManager.sol\":1811:1841  NFTIdToManager[userdata.NFTid] */\n      dup2\n      mstore\n      0x20\n      add\n      swap1\n      dup2\n      mstore\n      0x20\n      add\n      0x00\n      keccak256\n      0x00\n        /* \"KYCNFT-LocalSever/contracts/KYCManager.sol\":1811:1854  NFTIdToManager[userdata.NFTid] = newManager */\n      0x0100\n      exp\n      dup2\n      sload\n      dup2\n      0xffffffffffffffffffffffffffffffffffffffff\n      mul\n      not\n      and\n      swap1\n      dup4\n      0xffffffffffffffffffffffffffffffffffffffff\n      and\n      mul\n      or\n      swap1\n      sstore\n      pop\n        /* \"KYCNFT-LocalSever/contracts/KYCManager.sol\":1697:1859  {... */\n      pop\n        /* \"KYCNFT-LocalSever/contracts/KYCManager.sol\":1632:1859  function modifyManagerAddr(uint NFTid, address newManager) public{... */\n      pop\n      pop\n      jump\t// out\n        /* \"@openzeppelin/contracts/access/Ownable.sol\":1668:1769  function renounceOwnership() public virtual onlyOwner {... */\n    tag_50:\n        /* \"@openzeppelin/contracts/access/Ownable.sol\":1259:1271  _msgSender() */\n      tag_132\n        /* \"@openzeppelin/contracts/access/Ownable.sol\":1259:1269  _msgSender */\n      tag_109\n        /* \"@openzeppelin/contracts/access/Ownable.sol\":1259:1271  _msgSender() */\n      jump\t// in\n    tag_132:\n        /* \"@openzeppelin/contracts/access/Ownable.sol\":1248:1271  owner() == _msgSender() */\n      0xffffffffffffffffffffffffffffffffffffffff\n      and\n        /* \"@openzeppelin/contracts/access/Ownable.sol\":1248:1255  owner() */\n      tag_133\n        /* \"@openzeppelin/contracts/access/Ownable.sol\":1248:1253  owner */\n      tag_58\n        /* \"@openzeppelin/contracts/access/Ownable.sol\":1248:1255  owner() */\n      jump\t// in\n    tag_133:\n        /* \"@openzeppelin/contracts/access/Ownable.sol\":1248:1271  owner() == _msgSender() */\n      0xffffffffffffffffffffffffffffffffffffffff\n      and\n      eq\n        /* \"@openzeppelin/contracts/access/Ownable.sol\":1240:1308  require(owner() == _msgSender(), \"Ownable: caller is not the owner\") */\n      tag_134\n      jumpi\n      mload(0x40)\n      0x08c379a000000000000000000000000000000000000000000000000000000000\n      dup2\n      mstore\n      0x04\n      add\n      tag_135\n      swap1\n      tag_113\n      jump\t// in\n    tag_135:\n      mload(0x40)\n      dup1\n      swap2\n      sub\n      swap1\n      revert\n    tag_134:\n        /* \"@openzeppelin/contracts/access/Ownable.sol\":1732:1762  _transferOwnership(address(0)) */\n      tag_137\n        /* \"@openzeppelin/contracts/access/Ownable.sol\":1759:1760  0 */\n      0x00\n        /* \"@openzeppelin/contracts/access/Ownable.sol\":1732:1750  _transferOwnership */\n      tag_138\n        /* \"@openzeppelin/contracts/access/Ownable.sol\":1732:1762  _transferOwnership(address(0)) */\n      jump\t// in\n    tag_137:\n        /* \"@openzeppelin/contracts/access/Ownable.sol\":1668:1769  function renounceOwnership() public virtual onlyOwner {... */\n      jump\t// out\n        /* \"KYCNFT-LocalSever/contracts/KYCManager.sol\":1301:1426  function setNFTAvailableOfNFTId(uint NFTid, bool _available)  public onlyOwner{... */\n    tag_55:\n        /* \"@openzeppelin/contracts/access/Ownable.sol\":1259:1271  _msgSender() */\n      tag_140\n        /* \"@openzeppelin/contracts/access/Ownable.sol\":1259:1269  _msgSender */\n      tag_109\n        /* \"@openzeppelin/contracts/access/Ownable.sol\":1259:1271  _msgSender() */\n      jump\t// in\n    tag_140:\n        /* \"@openzeppelin/contracts/access/Ownable.sol\":1248:1271  owner() == _msgSender() */\n      0xffffffffffffffffffffffffffffffffffffffff\n      and\n        /* \"@openzeppelin/contracts/access/Ownable.sol\":1248:1255  owner() */\n      tag_141\n        /* \"@openzeppelin/contracts/access/Ownable.sol\":1248:1253  owner */\n      tag_58\n        /* \"@openzeppelin/contracts/access/Ownable.sol\":1248:1255  owner() */\n      jump\t// in\n    tag_141:\n        /* \"@openzeppelin/contracts/access/Ownable.sol\":1248:1271  owner() == _msgSender() */\n      0xffffffffffffffffffffffffffffffffffffffff\n      and\n      eq\n        /* \"@openzeppelin/contracts/access/Ownable.sol\":1240:1308  require(owner() == _msgSender(), \"Ownable: caller is not the owner\") */\n      tag_142\n      jumpi\n      mload(0x40)\n      0x08c379a000000000000000000000000000000000000000000000000000000000\n      dup2\n      mstore\n      0x04\n      add\n      tag_143\n      swap1\n      tag_113\n      jump\t// in\n    tag_143:\n      mload(0x40)\n      dup1\n      swap2\n      sub\n      swap1\n      revert\n    tag_142:\n        /* \"KYCNFT-LocalSever/contracts/KYCManager.sol\":1411:1421  _available */\n      dup1\n        /* \"KYCNFT-LocalSever/contracts/KYCManager.sol\":1385:1401  NFTIdToAvailable */\n      0x04\n        /* \"KYCNFT-LocalSever/contracts/KYCManager.sol\":1385:1408  NFTIdToAvailable[NFTid] */\n      0x00\n        /* \"KYCNFT-LocalSever/contracts/KYCManager.sol\":1402:1407  NFTid */\n      dup5\n        /* \"KYCNFT-LocalSever/contracts/KYCManager.sol\":1385:1408  NFTIdToAvailable[NFTid] */\n      dup2\n      mstore\n      0x20\n      add\n      swap1\n      dup2\n      mstore\n      0x20\n      add\n      0x00\n      keccak256\n      0x00\n        /* \"KYCNFT-LocalSever/contracts/KYCManager.sol\":1385:1421  NFTIdToAvailable[NFTid] = _available */\n      0x0100\n      exp\n      dup2\n      sload\n      dup2\n      0xff\n      mul\n      not\n      and\n      swap1\n      dup4\n      iszero\n      iszero\n      mul\n      or\n      swap1\n      sstore\n      pop\n        /* \"KYCNFT-LocalSever/contracts/KYCManager.sol\":1301:1426  function setNFTAvailableOfNFTId(uint NFTid, bool _available)  public onlyOwner{... */\n      pop\n      pop\n      jump\t// out\n        /* \"@openzeppelin/contracts/access/Ownable.sol\":1036:1121  function owner() public view virtual returns (address) {... */\n    tag_58:\n        /* \"@openzeppelin/contracts/access/Ownable.sol\":1082:1089  address */\n      0x00\n        /* \"@openzeppelin/contracts/access/Ownable.sol\":1108:1114  _owner */\n      dup1\n      0x00\n      swap1\n      sload\n      swap1\n      0x0100\n      exp\n      swap1\n      div\n      0xffffffffffffffffffffffffffffffffffffffff\n      and\n        /* \"@openzeppelin/contracts/access/Ownable.sol\":1101:1114  return _owner */\n      swap1\n      pop\n        /* \"@openzeppelin/contracts/access/Ownable.sol\":1036:1121  function owner() public view virtual returns (address) {... */\n      swap1\n      jump\t// out\n        /* \"KYCNFT-LocalSever/contracts/KYCManager.sol\":2693:2896  function userDataOfNFTId(uint NFTid) public view returns(UserData memory){... */\n    tag_63:\n        /* \"KYCNFT-LocalSever/contracts/KYCManager.sol\":2750:2765  UserData memory */\n      tag_146\n      tag_147\n      jump\t// in\n    tag_146:\n        /* \"KYCNFT-LocalSever/contracts/KYCManager.sol\":2774:2786  address addr */\n      0x00\n        /* \"KYCNFT-LocalSever/contracts/KYCManager.sol\":2789:2803  NFTIdToManager */\n      0x02\n        /* \"KYCNFT-LocalSever/contracts/KYCManager.sol\":2789:2810  NFTIdToManager[NFTid] */\n      0x00\n        /* \"KYCNFT-LocalSever/contracts/KYCManager.sol\":2804:2809  NFTid */\n      dup5\n        /* \"KYCNFT-LocalSever/contracts/KYCManager.sol\":2789:2810  NFTIdToManager[NFTid] */\n      dup2\n      mstore\n      0x20\n      add\n      swap1\n      dup2\n      mstore\n      0x20\n      add\n      0x00\n      keccak256\n      0x00\n      swap1\n      sload\n      swap1\n      0x0100\n      exp\n      swap1\n      div\n      0xffffffffffffffffffffffffffffffffffffffff\n      and\n        /* \"KYCNFT-LocalSever/contracts/KYCManager.sol\":2774:2810  address addr = NFTIdToManager[NFTid] */\n      swap1\n      pop\n        /* \"KYCNFT-LocalSever/contracts/KYCManager.sol\":2818:2842  UserData memory userdata */\n      0x00\n        /* \"KYCNFT-LocalSever/contracts/KYCManager.sol\":2845:2862  ManagerToUserData */\n      0x03\n        /* \"KYCNFT-LocalSever/contracts/KYCManager.sol\":2845:2868  ManagerToUserData[addr] */\n      0x00\n        /* \"KYCNFT-LocalSever/contracts/KYCManager.sol\":2863:2867  addr */\n      dup4\n        /* \"KYCNFT-LocalSever/contracts/KYCManager.sol\":2845:2868  ManagerToUserData[addr] */\n      0xffffffffffffffffffffffffffffffffffffffff\n      and\n      0xffffffffffffffffffffffffffffffffffffffff\n      and\n      dup2\n      mstore\n      0x20\n      add\n      swap1\n      dup2\n      mstore\n      0x20\n      add\n      0x00\n      keccak256\n        /* \"KYCNFT-LocalSever/contracts/KYCManager.sol\":2818:2868  UserData memory userdata = ManagerToUserData[addr] */\n      mload(0x40)\n      dup1\n      0x80\n      add\n      0x40\n      mstore\n      swap1\n      dup2\n      0x00\n      dup3\n      add\n      sload\n      dup2\n      mstore\n      0x20\n      add\n      0x01\n      dup3\n      add\n      dup1\n      sload\n      tag_149\n      swap1\n      tag_118\n      jump\t// in\n    tag_149:\n      dup1\n      0x1f\n      add\n      0x20\n      dup1\n      swap2\n      div\n      mul\n      0x20\n      add\n      mload(0x40)\n      swap1\n      dup2\n      add\n      0x40\n      mstore\n      dup1\n      swap3\n      swap2\n      swap1\n      dup2\n      dup2\n      mstore\n      0x20\n      add\n      dup3\n      dup1\n      sload\n      tag_150\n      swap1\n      tag_118\n      jump\t// in\n    tag_150:\n      dup1\n      iszero\n      tag_151\n      jumpi\n      dup1\n      0x1f\n      lt\n      tag_152\n      jumpi\n      0x0100\n      dup1\n      dup4\n      sload\n      div\n      mul\n      dup4\n      mstore\n      swap2\n      0x20\n      add\n      swap2\n      jump(tag_151)\n    tag_152:\n      dup3\n      add\n      swap2\n      swap1\n      0x00\n      mstore\n      keccak256(0x00, 0x20)\n      swap1\n    tag_153:\n      dup2\n      sload\n      dup2\n      mstore\n      swap1\n      0x01\n      add\n      swap1\n      0x20\n      add\n      dup1\n      dup4\n      gt\n      tag_153\n      jumpi\n      dup3\n      swap1\n      sub\n      0x1f\n      and\n      dup3\n      add\n      swap2\n    tag_151:\n      pop\n      pop\n      pop\n      pop\n      pop\n      dup2\n      mstore\n      0x20\n      add\n      0x02\n      dup3\n      add\n      dup1\n      sload\n      tag_154\n      swap1\n      tag_118\n      jump\t// in\n    tag_154:\n      dup1\n      0x1f\n      add\n      0x20\n      dup1\n      swap2\n      div\n      mul\n      0x20\n      add\n      mload(0x40)\n      swap1\n      dup2\n      add\n      0x40\n      mstore\n      dup1\n      swap3\n      swap2\n      swap1\n      dup2\n      dup2\n      mstore\n      0x20\n      add\n      dup3\n      dup1\n      sload\n      tag_155\n      swap1\n      tag_118\n      jump\t// in\n    tag_155:\n      dup1\n      iszero\n      tag_156\n      jumpi\n      dup1\n      0x1f\n      lt\n      tag_157\n      jumpi\n      0x0100\n      dup1\n      dup4\n      sload\n      div\n      mul\n      dup4\n      mstore\n      swap2\n      0x20\n      add\n      swap2\n      jump(tag_156)\n    tag_157:\n      dup3\n      add\n      swap2\n      swap1\n      0x00\n      mstore\n      keccak256(0x00, 0x20)\n      swap1\n    tag_158:\n      dup2\n      sload\n      dup2\n      mstore\n      swap1\n      0x01\n      add\n      swap1\n      0x20\n      add\n      dup1\n      dup4\n      gt\n      tag_158\n      jumpi\n      dup3\n      swap1\n      sub\n      0x1f\n      and\n      dup3\n      add\n      swap2\n    tag_156:\n      pop\n      pop\n      pop\n      pop\n      pop\n      dup2\n      mstore\n      0x20\n      add\n      0x03\n      dup3\n      add\n      sload\n      dup2\n      mstore\n      pop\n      pop\n      swap1\n      pop\n        /* \"KYCNFT-LocalSever/contracts/KYCManager.sol\":2883:2891  userdata */\n      dup1\n        /* \"KYCNFT-LocalSever/contracts/KYCManager.sol\":2876:2891  return userdata */\n      swap3\n      pop\n      pop\n      pop\n        /* \"KYCNFT-LocalSever/contracts/KYCManager.sol\":2693:2896  function userDataOfNFTId(uint NFTid) public view returns(UserData memory){... */\n      swap2\n      swap1\n      pop\n      jump\t// out\n        /* \"KYCNFT-LocalSever/contracts/KYCManager.sol\":2900:3077  function userDataOfManager(address managerAddr) public view returns(UserData memory){... */\n    tag_70:\n        /* \"KYCNFT-LocalSever/contracts/KYCManager.sol\":2968:2983  UserData memory */\n      tag_159\n      tag_147\n      jump\t// in\n    tag_159:\n        /* \"KYCNFT-LocalSever/contracts/KYCManager.sol\":2992:3016  UserData memory userdata */\n      0x00\n        /* \"KYCNFT-LocalSever/contracts/KYCManager.sol\":3019:3036  ManagerToUserData */\n      0x03\n        /* \"KYCNFT-LocalSever/contracts/KYCManager.sol\":3019:3049  ManagerToUserData[managerAddr] */\n      0x00\n        /* \"KYCNFT-LocalSever/contracts/KYCManager.sol\":3037:3048  managerAddr */\n      dup5\n        /* \"KYCNFT-LocalSever/contracts/KYCManager.sol\":3019:3049  ManagerToUserData[managerAddr] */\n      0xffffffffffffffffffffffffffffffffffffffff\n      and\n      0xffffffffffffffffffffffffffffffffffffffff\n      and\n      dup2\n      mstore\n      0x20\n      add\n      swap1\n      dup2\n      mstore\n      0x20\n      add\n      0x00\n      keccak256\n        /* \"KYCNFT-LocalSever/contracts/KYCManager.sol\":2992:3049  UserData memory userdata = ManagerToUserData[managerAddr] */\n      mload(0x40)\n      dup1\n      0x80\n      add\n      0x40\n      mstore\n      swap1\n      dup2\n      0x00\n      dup3\n      add\n      sload\n      dup2\n      mstore\n      0x20\n      add\n      0x01\n      dup3\n      add\n      dup1\n      sload\n      tag_161\n      swap1\n      tag_118\n      jump\t// in\n    tag_161:\n      dup1\n      0x1f\n      add\n      0x20\n      dup1\n      swap2\n      div\n      mul\n      0x20\n      add\n      mload(0x40)\n      swap1\n      dup2\n      add\n      0x40\n      mstore\n      dup1\n      swap3\n      swap2\n      swap1\n      dup2\n      dup2\n      mstore\n      0x20\n      add\n      dup3\n      dup1\n      sload\n      tag_162\n      swap1\n      tag_118\n      jump\t// in\n    tag_162:\n      dup1\n      iszero\n      tag_163\n      jumpi\n      dup1\n      0x1f\n      lt\n      tag_164\n      jumpi\n      0x0100\n      dup1\n      dup4\n      sload\n      div\n      mul\n      dup4\n      mstore\n      swap2\n      0x20\n      add\n      swap2\n      jump(tag_163)\n    tag_164:\n      dup3\n      add\n      swap2\n      swap1\n      0x00\n      mstore\n      keccak256(0x00, 0x20)\n      swap1\n    tag_165:\n      dup2\n      sload\n      dup2\n      mstore\n      swap1\n      0x01\n      add\n      swap1\n      0x20\n      add\n      dup1\n      dup4\n      gt\n      tag_165\n      jumpi\n      dup3\n      swap1\n      sub\n      0x1f\n      and\n      dup3\n      add\n      swap2\n    tag_163:\n      pop\n      pop\n      pop\n      pop\n      pop\n      dup2\n      mstore\n      0x20\n      add\n      0x02\n      dup3\n      add\n      dup1\n      sload\n      tag_166\n      swap1\n      tag_118\n      jump\t// in\n    tag_166:\n      dup1\n      0x1f\n      add\n      0x20\n      dup1\n      swap2\n      div\n      mul\n      0x20\n      add\n      mload(0x40)\n      swap1\n      dup2\n      add\n      0x40\n      mstore\n      dup1\n      swap3\n      swap2\n      swap1\n      dup2\n      dup2\n      mstore\n      0x20\n      add\n      dup3\n      dup1\n      sload\n      tag_167\n      swap1\n      tag_118\n      jump\t// in\n    tag_167:\n      dup1\n      iszero\n      tag_168\n      jumpi\n      dup1\n      0x1f\n      lt\n      tag_169\n      jumpi\n      0x0100\n      dup1\n      dup4\n      sload\n      div\n      mul\n      dup4\n      mstore\n      swap2\n      0x20\n      add\n      swap2\n      jump(tag_168)\n    tag_169:\n      dup3\n      add\n      swap2\n      swap1\n      0x00\n      mstore\n      keccak256(0x00, 0x20)\n      swap1\n    tag_170:\n      dup2\n      sload\n      dup2\n      mstore\n      swap1\n      0x01\n      add\n      swap1\n      0x20\n      add\n      dup1\n      dup4\n      gt\n      tag_170\n      jumpi\n      dup3\n      swap1\n      sub\n      0x1f\n      and\n      dup3\n      add\n      swap2\n    tag_168:\n      pop\n      pop\n      pop\n      pop\n      pop\n      dup2\n      mstore\n      0x20\n      add\n      0x03\n      dup3\n      add\n      sload\n      dup2\n      mstore\n      pop\n      pop\n      swap1\n      pop\n        /* \"KYCNFT-LocalSever/contracts/KYCManager.sol\":3064:3072  userdata */\n      dup1\n        /* \"KYCNFT-LocalSever/contracts/KYCManager.sol\":3057:3072  return userdata */\n      swap2\n      pop\n      pop\n        /* \"KYCNFT-LocalSever/contracts/KYCManager.sol\":2900:3077  function userDataOfManager(address managerAddr) public view returns(UserData memory){... */\n      swap2\n      swap1\n      pop\n      jump\t// out\n        /* \"KYCNFT-LocalSever/contracts/KYCManager.sol\":3191:3360  function NFTIdOfManager(address managerAddr) public view returns(uint){... */\n    tag_75:\n        /* \"KYCNFT-LocalSever/contracts/KYCManager.sol\":3256:3260  uint */\n      0x00\n        /* \"KYCNFT-LocalSever/contracts/KYCManager.sol\":3269:3293  UserData memory userdata */\n      dup1\n        /* \"KYCNFT-LocalSever/contracts/KYCManager.sol\":3296:3313  ManagerToUserData */\n      0x03\n        /* \"KYCNFT-LocalSever/contracts/KYCManager.sol\":3296:3326  ManagerToUserData[managerAddr] */\n      0x00\n        /* \"KYCNFT-LocalSever/contracts/KYCManager.sol\":3314:3325  managerAddr */\n      dup5\n        /* \"KYCNFT-LocalSever/contracts/KYCManager.sol\":3296:3326  ManagerToUserData[managerAddr] */\n      0xffffffffffffffffffffffffffffffffffffffff\n      and\n      0xffffffffffffffffffffffffffffffffffffffff\n      and\n      dup2\n      mstore\n      0x20\n      add\n      swap1\n      dup2\n      mstore\n      0x20\n      add\n      0x00\n      keccak256\n        /* \"KYCNFT-LocalSever/contracts/KYCManager.sol\":3269:3326  UserData memory userdata = ManagerToUserData[managerAddr] */\n      mload(0x40)\n      dup1\n      0x80\n      add\n      0x40\n      mstore\n      swap1\n      dup2\n      0x00\n      dup3\n      add\n      sload\n      dup2\n      mstore\n      0x20\n      add\n      0x01\n      dup3\n      add\n      dup1\n      sload\n      tag_172\n      swap1\n      tag_118\n      jump\t// in\n    tag_172:\n      dup1\n      0x1f\n      add\n      0x20\n      dup1\n      swap2\n      div\n      mul\n      0x20\n      add\n      mload(0x40)\n      swap1\n      dup2\n      add\n      0x40\n      mstore\n      dup1\n      swap3\n      swap2\n      swap1\n      dup2\n      dup2\n      mstore\n      0x20\n      add\n      dup3\n      dup1\n      sload\n      tag_173\n      swap1\n      tag_118\n      jump\t// in\n    tag_173:\n      dup1\n      iszero\n      tag_174\n      jumpi\n      dup1\n      0x1f\n      lt\n      tag_175\n      jumpi\n      0x0100\n      dup1\n      dup4\n      sload\n      div\n      mul\n      dup4\n      mstore\n      swap2\n      0x20\n      add\n      swap2\n      jump(tag_174)\n    tag_175:\n      dup3\n      add\n      swap2\n      swap1\n      0x00\n      mstore\n      keccak256(0x00, 0x20)\n      swap1\n    tag_176:\n      dup2\n      sload\n      dup2\n      mstore\n      swap1\n      0x01\n      add\n      swap1\n      0x20\n      add\n      dup1\n      dup4\n      gt\n      tag_176\n      jumpi\n      dup3\n      swap1\n      sub\n      0x1f\n      and\n      dup3\n      add\n      swap2\n    tag_174:\n      pop\n      pop\n      pop\n      pop\n      pop\n      dup2\n      mstore\n      0x20\n      add\n      0x02\n      dup3\n      add\n      dup1\n      sload\n      tag_177\n      swap1\n      tag_118\n      jump\t// in\n    tag_177:\n      dup1\n      0x1f\n      add\n      0x20\n      dup1\n      swap2\n      div\n      mul\n      0x20\n      add\n      mload(0x40)\n      swap1\n      dup2\n      add\n      0x40\n      mstore\n      dup1\n      swap3\n      swap2\n      swap1\n      dup2\n      dup2\n      mstore\n      0x20\n      add\n      dup3\n      dup1\n      sload\n      tag_178\n      swap1\n      tag_118\n      jump\t// in\n    tag_178:\n      dup1\n      iszero\n      tag_179\n      jumpi\n      dup1\n      0x1f\n      lt\n      tag_180\n      jumpi\n      0x0100\n      dup1\n      dup4\n      sload\n      div\n      mul\n      dup4\n      mstore\n      swap2\n      0x20\n      add\n      swap2\n      jump(tag_179)\n    tag_180:\n      dup3\n      add\n      swap2\n      swap1\n      0x00\n      mstore\n      keccak256(0x00, 0x20)\n      swap1\n    tag_181:\n      dup2\n      sload\n      dup2\n      mstore\n      swap1\n      0x01\n      add\n      swap1\n      0x20\n      add\n      dup1\n      dup4\n      gt\n      tag_181\n      jumpi\n      dup3\n      swap1\n      sub\n      0x1f\n      and\n      dup3\n      add\n      swap2\n    tag_179:\n      pop\n      pop\n      pop\n      pop\n      pop\n      dup2\n      mstore\n      0x20\n      add\n      0x03\n      dup3\n      add\n      sload\n      dup2\n      mstore\n      pop\n      pop\n      swap1\n      pop\n        /* \"KYCNFT-LocalSever/contracts/KYCManager.sol\":3341:3349  userdata */\n      dup1\n        /* \"KYCNFT-LocalSever/contracts/KYCManager.sol\":3341:3355  userdata.NFTid */\n      0x00\n      add\n      mload\n        /* \"KYCNFT-LocalSever/contracts/KYCManager.sol\":3334:3355  return userdata.NFTid */\n      swap2\n      pop\n      pop\n        /* \"KYCNFT-LocalSever/contracts/KYCManager.sol\":3191:3360  function NFTIdOfManager(address managerAddr) public view returns(uint){... */\n      swap2\n      swap1\n      pop\n      jump\t// out\n        /* \"KYCNFT-LocalSever/contracts/KYCManager.sol\":1896:2147  function updateAccumulator(string memory _accumulator, string memory _n, uint256 _g) public {... */\n    tag_82:\n        /* \"KYCNFT-LocalSever/contracts/KYCManager.sol\":1996:2021  UserData storage userdata */\n      0x00\n        /* \"KYCNFT-LocalSever/contracts/KYCManager.sol\":2024:2041  ManagerToUserData */\n      0x03\n        /* \"KYCNFT-LocalSever/contracts/KYCManager.sol\":2024:2053  ManagerToUserData[msg.sender] */\n      0x00\n        /* \"KYCNFT-LocalSever/contracts/KYCManager.sol\":2042:2052  msg.sender */\n      caller\n        /* \"KYCNFT-LocalSever/contracts/KYCManager.sol\":2024:2053  ManagerToUserData[msg.sender] */\n      0xffffffffffffffffffffffffffffffffffffffff\n      and\n      0xffffffffffffffffffffffffffffffffffffffff\n      and\n      dup2\n      mstore\n      0x20\n      add\n      swap1\n      dup2\n      mstore\n      0x20\n      add\n      0x00\n      keccak256\n        /* \"KYCNFT-LocalSever/contracts/KYCManager.sol\":1996:2053  UserData storage userdata = ManagerToUserData[msg.sender] */\n      swap1\n      pop\n        /* \"KYCNFT-LocalSever/contracts/KYCManager.sol\":2084:2096  _accumulator */\n      dup4\n        /* \"KYCNFT-LocalSever/contracts/KYCManager.sol\":2061:2069  userdata */\n      dup2\n        /* \"KYCNFT-LocalSever/contracts/KYCManager.sol\":2061:2081  userdata.accumulator */\n      0x01\n      add\n        /* \"KYCNFT-LocalSever/contracts/KYCManager.sol\":2061:2096  userdata.accumulator = _accumulator */\n      swap1\n      dup1\n      mload\n      swap1\n      0x20\n      add\n      swap1\n      tag_183\n      swap3\n      swap2\n      swap1\n      tag_129\n      jump\t// in\n    tag_183:\n      pop\n        /* \"KYCNFT-LocalSever/contracts/KYCManager.sol\":2117:2119  _n */\n      dup3\n        /* \"KYCNFT-LocalSever/contracts/KYCManager.sol\":2104:2112  userdata */\n      dup2\n        /* \"KYCNFT-LocalSever/contracts/KYCManager.sol\":2104:2114  userdata.n */\n      0x02\n      add\n        /* \"KYCNFT-LocalSever/contracts/KYCManager.sol\":2104:2119  userdata.n = _n */\n      swap1\n      dup1\n      mload\n      swap1\n      0x20\n      add\n      swap1\n      tag_184\n      swap3\n      swap2\n      swap1\n      tag_129\n      jump\t// in\n    tag_184:\n      pop\n        /* \"KYCNFT-LocalSever/contracts/KYCManager.sol\":2140:2142  _g */\n      dup2\n        /* \"KYCNFT-LocalSever/contracts/KYCManager.sol\":2127:2135  userdata */\n      dup2\n        /* \"KYCNFT-LocalSever/contracts/KYCManager.sol\":2127:2137  userdata.g */\n      0x03\n      add\n        /* \"KYCNFT-LocalSever/contracts/KYCManager.sol\":2127:2142  userdata.g = _g */\n      dup2\n      swap1\n      sstore\n      pop\n        /* \"KYCNFT-LocalSever/contracts/KYCManager.sol\":1988:2147  {... */\n      pop\n        /* \"KYCNFT-LocalSever/contracts/KYCManager.sol\":1896:2147  function updateAccumulator(string memory _accumulator, string memory _n, uint256 _g) public {... */\n      pop\n      pop\n      pop\n      jump\t// out\n        /* \"KYCNFT-LocalSever/contracts/KYCManager.sol\":890:1295  function createKYCNFT(string memory tokenUrl, address manager, uint expirationTime) public onlyOwner{... */\n    tag_87:\n        /* \"@openzeppelin/contracts/access/Ownable.sol\":1259:1271  _msgSender() */\n      tag_186\n        /* \"@openzeppelin/contracts/access/Ownable.sol\":1259:1269  _msgSender */\n      tag_109\n        /* \"@openzeppelin/contracts/access/Ownable.sol\":1259:1271  _msgSender() */\n      jump\t// in\n    tag_186:\n        /* \"@openzeppelin/contracts/access/Ownable.sol\":1248:1271  owner() == _msgSender() */\n      0xffffffffffffffffffffffffffffffffffffffff\n      and\n        /* \"@openzeppelin/contracts/access/Ownable.sol\":1248:1255  owner() */\n      tag_187\n        /* \"@openzeppelin/contracts/access/Ownable.sol\":1248:1253  owner */\n      tag_58\n        /* \"@openzeppelin/contracts/access/Ownable.sol\":1248:1255  owner() */\n      jump\t// in\n    tag_187:\n        /* \"@openzeppelin/contracts/access/Ownable.sol\":1248:1271  owner() == _msgSender() */\n      0xffffffffffffffffffffffffffffffffffffffff\n      and\n      eq\n        /* \"@openzeppelin/contracts/access/Ownable.sol\":1240:1308  require(owner() == _msgSender(), \"Ownable: caller is not the owner\") */\n      tag_188\n      jumpi\n      mload(0x40)\n      0x08c379a000000000000000000000000000000000000000000000000000000000\n      dup2\n      mstore\n      0x04\n      add\n      tag_189\n      swap1\n      tag_113\n      jump\t// in\n    tag_189:\n      mload(0x40)\n      dup1\n      swap2\n      sub\n      swap1\n      revert\n    tag_188:\n        /* \"KYCNFT-LocalSever/contracts/KYCManager.sol\":1038:1059  address kycnftmanager */\n      0x00\n        /* \"KYCNFT-LocalSever/contracts/KYCManager.sol\":1072:1076  this */\n      address\n        /* \"KYCNFT-LocalSever/contracts/KYCManager.sol\":1038:1077  address kycnftmanager = (address)(this) */\n      swap1\n      pop\n        /* \"KYCNFT-LocalSever/contracts/KYCManager.sol\":1083:1096  uint256 NFTid */\n      0x00\n        /* \"KYCNFT-LocalSever/contracts/KYCManager.sol\":1099:1113  kycNFTContract */\n      0x01\n      0x00\n      swap1\n      sload\n      swap1\n      0x0100\n      exp\n      swap1\n      div\n      0xffffffffffffffffffffffffffffffffffffffff\n      and\n        /* \"KYCNFT-LocalSever/contracts/KYCManager.sol\":1099:1123  kycNFTContract.awardItem */\n      0xffffffffffffffffffffffffffffffffffffffff\n      and\n      0xcf378343\n        /* \"KYCNFT-LocalSever/contracts/KYCManager.sol\":1124:1137  kycnftmanager */\n      dup4\n        /* \"KYCNFT-LocalSever/contracts/KYCManager.sol\":1139:1147  tokenUrl */\n      dup8\n        /* \"KYCNFT-LocalSever/contracts/KYCManager.sol\":1099:1148  kycNFTContract.awardItem(kycnftmanager, tokenUrl) */\n      mload(0x40)\n      dup4\n      0xffffffff\n      and\n      0xe0\n      shl\n      dup2\n      mstore\n      0x04\n      add\n      tag_191\n      swap3\n      swap2\n      swap1\n      tag_192\n      jump\t// in\n    tag_191:\n      0x20\n      mload(0x40)\n      dup1\n      dup4\n      sub\n      dup2\n      0x00\n      dup8\n      dup1\n      extcodesize\n      iszero\n      dup1\n      iszero\n      tag_193\n      jumpi\n      0x00\n      dup1\n      revert\n    tag_193:\n      pop\n      gas\n      call\n      iszero\n      dup1\n      iszero\n      tag_195\n      jumpi\n      returndatasize\n      0x00\n      dup1\n      returndatacopy\n      revert(0x00, returndatasize)\n    tag_195:\n      pop\n      pop\n      pop\n      pop\n      mload(0x40)\n      returndatasize\n      not(0x1f)\n      0x1f\n      dup3\n      add\n      and\n      dup3\n      add\n      dup1\n      0x40\n      mstore\n      pop\n      dup2\n      add\n      swap1\n      tag_196\n      swap2\n      swap1\n      tag_197\n      jump\t// in\n    tag_196:\n        /* \"KYCNFT-LocalSever/contracts/KYCManager.sol\":1083:1148  uint256 NFTid = kycNFTContract.awardItem(kycnftmanager, tokenUrl) */\n      swap1\n      pop\n        /* \"KYCNFT-LocalSever/contracts/KYCManager.sol\":1154:1168  kycNFTContract */\n      0x01\n      0x00\n      swap1\n      sload\n      swap1\n      0x0100\n      exp\n      swap1\n      div\n      0xffffffffffffffffffffffffffffffffffffffff\n      and\n        /* \"KYCNFT-LocalSever/contracts/KYCManager.sol\":1154:1189  kycNFTContract.updateExpirationTime */\n      0xffffffffffffffffffffffffffffffffffffffff\n      and\n      0xe1b2e979\n        /* \"KYCNFT-LocalSever/contracts/KYCManager.sol\":1190:1195  NFTid */\n      dup3\n        /* \"KYCNFT-LocalSever/contracts/KYCManager.sol\":1197:1211  expirationTime */\n      dup6\n        /* \"KYCNFT-LocalSever/contracts/KYCManager.sol\":1154:1212  kycNFTContract.updateExpirationTime(NFTid, expirationTime) */\n      mload(0x40)\n      dup4\n      0xffffffff\n      and\n      0xe0\n      shl\n      dup2\n      mstore\n      0x04\n      add\n      tag_198\n      swap3\n      swap2\n      swap1\n      tag_199\n      jump\t// in\n    tag_198:\n      0x00\n      mload(0x40)\n      dup1\n      dup4\n      sub\n      dup2\n      0x00\n      dup8\n      dup1\n      extcodesize\n      iszero\n      dup1\n      iszero\n      tag_200\n      jumpi\n      0x00\n      dup1\n      revert\n    tag_200:\n      pop\n      gas\n      call\n      iszero\n      dup1\n      iszero\n      tag_202\n      jumpi\n      returndatasize\n      0x00\n      dup1\n      returndatacopy\n      revert(0x00, returndatasize)\n    tag_202:\n      pop\n      pop\n      pop\n      pop\n        /* \"KYCNFT-LocalSever/contracts/KYCManager.sol\":1218:1253  setNFTAvailableOfNFTId(NFTid, true) */\n      tag_203\n        /* \"KYCNFT-LocalSever/contracts/KYCManager.sol\":1241:1246  NFTid */\n      dup2\n        /* \"KYCNFT-LocalSever/contracts/KYCManager.sol\":1248:1252  true */\n      0x01\n        /* \"KYCNFT-LocalSever/contracts/KYCManager.sol\":1218:1240  setNFTAvailableOfNFTId */\n      tag_55\n        /* \"KYCNFT-LocalSever/contracts/KYCManager.sol\":1218:1253  setNFTAvailableOfNFTId(NFTid, true) */\n      jump\t// in\n    tag_203:\n        /* \"KYCNFT-LocalSever/contracts/KYCManager.sol\":1259:1290  initManagerAddr(NFTid, manager) */\n      tag_204\n        /* \"KYCNFT-LocalSever/contracts/KYCManager.sol\":1275:1280  NFTid */\n      dup2\n        /* \"KYCNFT-LocalSever/contracts/KYCManager.sol\":1282:1289  manager */\n      dup6\n        /* \"KYCNFT-LocalSever/contracts/KYCManager.sol\":1259:1274  initManagerAddr */\n      tag_37\n        /* \"KYCNFT-LocalSever/contracts/KYCManager.sol\":1259:1290  initManagerAddr(NFTid, manager) */\n      jump\t// in\n    tag_204:\n        /* \"KYCNFT-LocalSever/contracts/KYCManager.sol\":990:1295  {... */\n      pop\n      pop\n        /* \"KYCNFT-LocalSever/contracts/KYCManager.sol\":890:1295  function createKYCNFT(string memory tokenUrl, address manager, uint expirationTime) public onlyOwner{... */\n      pop\n      pop\n      pop\n      jump\t// out\n        /* \"KYCNFT-LocalSever/contracts/KYCManager.sol\":2341:2521  function updateAccumulatorValue(string memory _accumulator) public {... */\n    tag_92:\n        /* \"KYCNFT-LocalSever/contracts/KYCManager.sol\":2416:2441  UserData storage userdata */\n      0x00\n        /* \"KYCNFT-LocalSever/contracts/KYCManager.sol\":2444:2461  ManagerToUserData */\n      0x03\n        /* \"KYCNFT-LocalSever/contracts/KYCManager.sol\":2444:2473  ManagerToUserData[msg.sender] */\n      0x00\n        /* \"KYCNFT-LocalSever/contracts/KYCManager.sol\":2462:2472  msg.sender */\n      caller\n        /* \"KYCNFT-LocalSever/contracts/KYCManager.sol\":2444:2473  ManagerToUserData[msg.sender] */\n      0xffffffffffffffffffffffffffffffffffffffff\n      and\n      0xffffffffffffffffffffffffffffffffffffffff\n      and\n      dup2\n      mstore\n      0x20\n      add\n      swap1\n      dup2\n      mstore\n      0x20\n      add\n      0x00\n      keccak256\n        /* \"KYCNFT-LocalSever/contracts/KYCManager.sol\":2416:2473  UserData storage userdata = ManagerToUserData[msg.sender] */\n      swap1\n      pop\n        /* \"KYCNFT-LocalSever/contracts/KYCManager.sol\":2504:2516  _accumulator */\n      dup2\n        /* \"KYCNFT-LocalSever/contracts/KYCManager.sol\":2481:2489  userdata */\n      dup2\n        /* \"KYCNFT-LocalSever/contracts/KYCManager.sol\":2481:2501  userdata.accumulator */\n      0x01\n      add\n        /* \"KYCNFT-LocalSever/contracts/KYCManager.sol\":2481:2516  userdata.accumulator = _accumulator */\n      swap1\n      dup1\n      mload\n      swap1\n      0x20\n      add\n      swap1\n      tag_206\n      swap3\n      swap2\n      swap1\n      tag_129\n      jump\t// in\n    tag_206:\n      pop\n        /* \"KYCNFT-LocalSever/contracts/KYCManager.sol\":2408:2521  {... */\n      pop\n        /* \"KYCNFT-LocalSever/contracts/KYCManager.sol\":2341:2521  function updateAccumulatorValue(string memory _accumulator) public {... */\n      pop\n      jump\t// out\n        /* \"@openzeppelin/contracts/access/Ownable.sol\":1918:2116  function transferOwnership(address newOwner) public virtual onlyOwner {... */\n    tag_96:\n        /* \"@openzeppelin/contracts/access/Ownable.sol\":1259:1271  _msgSender() */\n      tag_208\n        /* \"@openzeppelin/contracts/access/Ownable.sol\":1259:1269  _msgSender */\n      tag_109\n        /* \"@openzeppelin/contracts/access/Ownable.sol\":1259:1271  _msgSender() */\n      jump\t// in\n    tag_208:\n        /* \"@openzeppelin/contracts/access/Ownable.sol\":1248:1271  owner() == _msgSender() */\n      0xffffffffffffffffffffffffffffffffffffffff\n      and\n        /* \"@openzeppelin/contracts/access/Ownable.sol\":1248:1255  owner() */\n      tag_209\n        /* \"@openzeppelin/contracts/access/Ownable.sol\":1248:1253  owner */\n      tag_58\n        /* \"@openzeppelin/contracts/access/Ownable.sol\":1248:1255  owner() */\n      jump\t// in\n    tag_209:\n        /* \"@openzeppelin/contracts/access/Ownable.sol\":1248:1271  owner() == _msgSender() */\n      0xffffffffffffffffffffffffffffffffffffffff\n      and\n      eq\n        /* \"@openzeppelin/contracts/access/Ownable.sol\":1240:1308  require(owner() == _msgSender(), \"Ownable: caller is not the owner\") */\n      tag_210\n      jumpi\n      mload(0x40)\n      0x08c379a000000000000000000000000000000000000000000000000000000000\n      dup2\n      mstore\n      0x04\n      add\n      tag_211\n      swap1\n      tag_113\n      jump\t// in\n    tag_211:\n      mload(0x40)\n      dup1\n      swap2\n      sub\n      swap1\n      revert\n    tag_210:\n        /* \"@openzeppelin/contracts/access/Ownable.sol\":2026:2027  0 */\n      0x00\n        /* \"@openzeppelin/contracts/access/Ownable.sol\":2006:2028  newOwner != address(0) */\n      0xffffffffffffffffffffffffffffffffffffffff\n      and\n        /* \"@openzeppelin/contracts/access/Ownable.sol\":2006:2014  newOwner */\n      dup2\n        /* \"@openzeppelin/contracts/access/Ownable.sol\":2006:2028  newOwner != address(0) */\n      0xffffffffffffffffffffffffffffffffffffffff\n      and\n      eq\n      iszero\n        /* \"@openzeppelin/contracts/access/Ownable.sol\":1998:2071  require(newOwner != address(0), \"Ownable: new owner is the zero address\") */\n      tag_213\n      jumpi\n      mload(0x40)\n      0x08c379a000000000000000000000000000000000000000000000000000000000\n      dup2\n      mstore\n      0x04\n      add\n      tag_214\n      swap1\n      tag_215\n      jump\t// in\n    tag_214:\n      mload(0x40)\n      dup1\n      swap2\n      sub\n      swap1\n      revert\n    tag_213:\n        /* \"@openzeppelin/contracts/access/Ownable.sol\":2081:2109  _transferOwnership(newOwner) */\n      tag_216\n        /* \"@openzeppelin/contracts/access/Ownable.sol\":2100:2108  newOwner */\n      dup2\n        /* \"@openzeppelin/contracts/access/Ownable.sol\":2081:2099  _transferOwnership */\n      tag_138\n        /* \"@openzeppelin/contracts/access/Ownable.sol\":2081:2109  _transferOwnership(newOwner) */\n      jump\t// in\n    tag_216:\n        /* \"@openzeppelin/contracts/access/Ownable.sol\":1918:2116  function transferOwnership(address newOwner) public virtual onlyOwner {... */\n      pop\n      jump\t// out\n        /* \"KYCNFT-LocalSever/contracts/KYCManager.sol\":2151:2337  function updateAccumulatorPublicKey(string memory _n, uint _g) public {... */\n    tag_101:\n        /* \"KYCNFT-LocalSever/contracts/KYCManager.sol\":2229:2254  UserData storage userdata */\n      0x00\n        /* \"KYCNFT-LocalSever/contracts/KYCManager.sol\":2257:2274  ManagerToUserData */\n      0x03\n        /* \"KYCNFT-LocalSever/contracts/KYCManager.sol\":2257:2286  ManagerToUserData[msg.sender] */\n      0x00\n        /* \"KYCNFT-LocalSever/contracts/KYCManager.sol\":2275:2285  msg.sender */\n      caller\n        /* \"KYCNFT-LocalSever/contracts/KYCManager.sol\":2257:2286  ManagerToUserData[msg.sender] */\n      0xffffffffffffffffffffffffffffffffffffffff\n      and\n      0xffffffffffffffffffffffffffffffffffffffff\n      and\n      dup2\n      mstore\n      0x20\n      add\n      swap1\n      dup2\n      mstore\n      0x20\n      add\n      0x00\n      keccak256\n        /* \"KYCNFT-LocalSever/contracts/KYCManager.sol\":2229:2286  UserData storage userdata = ManagerToUserData[msg.sender] */\n      swap1\n      pop\n        /* \"KYCNFT-LocalSever/contracts/KYCManager.sol\":2307:2309  _n */\n      dup3\n        /* \"KYCNFT-LocalSever/contracts/KYCManager.sol\":2294:2302  userdata */\n      dup2\n        /* \"KYCNFT-LocalSever/contracts/KYCManager.sol\":2294:2304  userdata.n */\n      0x02\n      add\n        /* \"KYCNFT-LocalSever/contracts/KYCManager.sol\":2294:2309  userdata.n = _n */\n      swap1\n      dup1\n      mload\n      swap1\n      0x20\n      add\n      swap1\n      tag_218\n      swap3\n      swap2\n      swap1\n      tag_129\n      jump\t// in\n    tag_218:\n      pop\n        /* \"KYCNFT-LocalSever/contracts/KYCManager.sol\":2330:2332  _g */\n      dup2\n        /* \"KYCNFT-LocalSever/contracts/KYCManager.sol\":2317:2325  userdata */\n      dup2\n        /* \"KYCNFT-LocalSever/contracts/KYCManager.sol\":2317:2327  userdata.g */\n      0x03\n      add\n        /* \"KYCNFT-LocalSever/contracts/KYCManager.sol\":2317:2332  userdata.g = _g */\n      dup2\n      swap1\n      sstore\n      pop\n        /* \"KYCNFT-LocalSever/contracts/KYCManager.sol\":2221:2337  {... */\n      pop\n        /* \"KYCNFT-LocalSever/contracts/KYCManager.sol\":2151:2337  function updateAccumulatorPublicKey(string memory _n, uint _g) public {... */\n      pop\n      pop\n      jump\t// out\n        /* \"KYCNFT-LocalSever/contracts/KYCManager.sol\":740:884  function setKYCNFTContractAddress(address _kycnftContractAddr) public onlyOwner {... */\n    tag_105:\n        /* \"@openzeppelin/contracts/access/Ownable.sol\":1259:1271  _msgSender() */\n      tag_220\n        /* \"@openzeppelin/contracts/access/Ownable.sol\":1259:1269  _msgSender */\n      tag_109\n        /* \"@openzeppelin/contracts/access/Ownable.sol\":1259:1271  _msgSender() */\n      jump\t// in\n    tag_220:\n        /* \"@openzeppelin/contracts/access/Ownable.sol\":1248:1271  owner() == _msgSender() */\n      0xffffffffffffffffffffffffffffffffffffffff\n      and\n        /* \"@openzeppelin/contracts/access/Ownable.sol\":1248:1255  owner() */\n      tag_221\n        /* \"@openzeppelin/contracts/access/Ownable.sol\":1248:1253  owner */\n      tag_58\n        /* \"@openzeppelin/contracts/access/Ownable.sol\":1248:1255  owner() */\n      jump\t// in\n    tag_221:\n        /* \"@openzeppelin/contracts/access/Ownable.sol\":1248:1271  owner() == _msgSender() */\n      0xffffffffffffffffffffffffffffffffffffffff\n      and\n      eq\n        /* \"@openzeppelin/contracts/access/Ownable.sol\":1240:1308  require(owner() == _msgSender(), \"Ownable: caller is not the owner\") */\n      tag_222\n      jumpi\n      mload(0x40)\n      0x08c379a000000000000000000000000000000000000000000000000000000000\n      dup2\n      mstore\n      0x04\n      add\n      tag_223\n      swap1\n      tag_113\n      jump\t// in\n    tag_223:\n      mload(0x40)\n      dup1\n      swap2\n      sub\n      swap1\n      revert\n    tag_222:\n        /* \"KYCNFT-LocalSever/contracts/KYCManager.sol\":859:878  _kycnftContractAddr */\n      dup1\n        /* \"KYCNFT-LocalSever/contracts/KYCManager.sol\":826:840  kycNFTContract */\n      0x01\n      0x00\n        /* \"KYCNFT-LocalSever/contracts/KYCManager.sol\":826:879  kycNFTContract = KYCNFTInterface(_kycnftContractAddr) */\n      0x0100\n      exp\n      dup2\n      sload\n      dup2\n      0xffffffffffffffffffffffffffffffffffffffff\n      mul\n      not\n      and\n      swap1\n      dup4\n      0xffffffffffffffffffffffffffffffffffffffff\n      and\n      mul\n      or\n      swap1\n      sstore\n      pop\n        /* \"KYCNFT-LocalSever/contracts/KYCManager.sol\":740:884  function setKYCNFTContractAddress(address _kycnftContractAddr) public onlyOwner {... */\n      pop\n      jump\t// out\n        /* \"@openzeppelin/contracts/utils/Context.sol\":640:736  function _msgSender() internal view virtual returns (address) {... */\n    tag_109:\n        /* \"@openzeppelin/contracts/utils/Context.sol\":693:700  address */\n      0x00\n        /* \"@openzeppelin/contracts/utils/Context.sol\":719:729  msg.sender */\n      caller\n        /* \"@openzeppelin/contracts/utils/Context.sol\":712:729  return msg.sender */\n      swap1\n      pop\n        /* \"@openzeppelin/contracts/utils/Context.sol\":640:736  function _msgSender() internal view virtual returns (address) {... */\n      swap1\n      jump\t// out\n        /* \"@openzeppelin/contracts/access/Ownable.sol\":2270:2457  function _transferOwnership(address newOwner) internal virtual {... */\n    tag_138:\n        /* \"@openzeppelin/contracts/access/Ownable.sol\":2343:2359  address oldOwner */\n      0x00\n        /* \"@openzeppelin/contracts/access/Ownable.sol\":2362:2368  _owner */\n      dup1\n      0x00\n      swap1\n      sload\n      swap1\n      0x0100\n      exp\n      swap1\n      div\n      0xffffffffffffffffffffffffffffffffffffffff\n      and\n        /* \"@openzeppelin/contracts/access/Ownable.sol\":2343:2368  address oldOwner = _owner */\n      swap1\n      pop\n        /* \"@openzeppelin/contracts/access/Ownable.sol\":2387:2395  newOwner */\n      dup2\n        /* \"@openzeppelin/contracts/access/Ownable.sol\":2378:2384  _owner */\n      0x00\n      dup1\n        /* \"@openzeppelin/contracts/access/Ownable.sol\":2378:2395  _owner = newOwner */\n      0x0100\n      exp\n      dup2\n      sload\n      dup2\n      0xffffffffffffffffffffffffffffffffffffffff\n      mul\n      not\n      and\n      swap1\n      dup4\n      0xffffffffffffffffffffffffffffffffffffffff\n      and\n      mul\n      or\n      swap1\n      sstore\n      pop\n        /* \"@openzeppelin/contracts/access/Ownable.sol\":2441:2449  newOwner */\n      dup2\n        /* \"@openzeppelin/contracts/access/Ownable.sol\":2410:2450  OwnershipTransferred(oldOwner, newOwner) */\n      0xffffffffffffffffffffffffffffffffffffffff\n      and\n        /* \"@openzeppelin/contracts/access/Ownable.sol\":2431:2439  oldOwner */\n      dup2\n        /* \"@openzeppelin/contracts/access/Ownable.sol\":2410:2450  OwnershipTransferred(oldOwner, newOwner) */\n      0xffffffffffffffffffffffffffffffffffffffff\n      and\n      0x8be0079c531659141344cd1fd0a4f28419497f9722a3daafe3b4186f6b6457e0\n      mload(0x40)\n      mload(0x40)\n      dup1\n      swap2\n      sub\n      swap1\n      log3\n        /* \"@openzeppelin/contracts/access/Ownable.sol\":2333:2457  {... */\n      pop\n        /* \"@openzeppelin/contracts/access/Ownable.sol\":2270:2457  function _transferOwnership(address newOwner) internal virtual {... */\n      pop\n      jump\t// out\n    tag_129:\n      dup3\n      dup1\n      sload\n      tag_227\n      swap1\n      tag_118\n      jump\t// in\n    tag_227:\n      swap1\n      0x00\n      mstore\n      keccak256(0x00, 0x20)\n      swap1\n      0x1f\n      add\n      0x20\n      swap1\n      div\n      dup2\n      add\n      swap3\n      dup3\n      tag_229\n      jumpi\n      0x00\n      dup6\n      sstore\n      jump(tag_228)\n    tag_229:\n      dup3\n      0x1f\n      lt\n      tag_230\n      jumpi\n      dup1\n      mload\n      not(0xff)\n      and\n      dup4\n      dup1\n      add\n      or\n      dup6\n      sstore\n      jump(tag_228)\n    tag_230:\n      dup3\n      dup1\n      add\n      0x01\n      add\n      dup6\n      sstore\n      dup3\n      iszero\n      tag_228\n      jumpi\n      swap2\n      dup3\n      add\n    tag_231:\n      dup3\n      dup2\n      gt\n      iszero\n      tag_232\n      jumpi\n      dup3\n      mload\n      dup3\n      sstore\n      swap2\n      0x20\n      add\n      swap2\n      swap1\n      0x01\n      add\n      swap1\n      jump(tag_231)\n    tag_232:\n    tag_228:\n      pop\n      swap1\n      pop\n      tag_233\n      swap2\n      swap1\n      tag_234\n      jump\t// in\n    tag_233:\n      pop\n      swap1\n      jump\t// out\n    tag_147:\n      mload(0x40)\n      dup1\n      0x80\n      add\n      0x40\n      mstore\n      dup1\n      0x00\n      dup2\n      mstore\n      0x20\n      add\n      0x60\n      dup2\n      mstore\n      0x20\n      add\n      0x60\n      dup2\n      mstore\n      0x20\n      add\n      0x00\n      dup2\n      mstore\n      pop\n      swap1\n      jump\t// out\n    tag_234:\n    tag_235:\n      dup1\n      dup3\n      gt\n      iszero\n      tag_236\n      jumpi\n      0x00\n      dup2\n      0x00\n      swap1\n      sstore\n      pop\n      0x01\n      add\n      jump(tag_235)\n    tag_236:\n      pop\n      swap1\n      jump\t// out\n        /* \"#utility.yul\":7:419   */\n    tag_238:\n        /* \"#utility.yul\":85:90   */\n      0x00\n        /* \"#utility.yul\":110:176   */\n      tag_240\n        /* \"#utility.yul\":126:175   */\n      tag_241\n        /* \"#utility.yul\":168:174   */\n      dup5\n        /* \"#utility.yul\":126:175   */\n      tag_242\n      jump\t// in\n    tag_241:\n        /* \"#utility.yul\":110:176   */\n      tag_243\n      jump\t// in\n    tag_240:\n        /* \"#utility.yul\":101:176   */\n      swap1\n      pop\n        /* \"#utility.yul\":199:205   */\n      dup3\n        /* \"#utility.yul\":192:197   */\n      dup2\n        /* \"#utility.yul\":185:206   */\n      mstore\n        /* \"#utility.yul\":237:241   */\n      0x20\n        /* \"#utility.yul\":230:235   */\n      dup2\n        /* \"#utility.yul\":226:242   */\n      add\n        /* \"#utility.yul\":275:278   */\n      dup5\n        /* \"#utility.yul\":266:272   */\n      dup5\n        /* \"#utility.yul\":261:264   */\n      dup5\n        /* \"#utility.yul\":257:273   */\n      add\n        /* \"#utility.yul\":254:279   */\n      gt\n        /* \"#utility.yul\":251:363   */\n      iszero\n      tag_244\n      jumpi\n        /* \"#utility.yul\":282:361   */\n      tag_245\n      tag_246\n      jump\t// in\n    tag_245:\n        /* \"#utility.yul\":251:363   */\n    tag_244:\n        /* \"#utility.yul\":372:413   */\n      tag_247\n        /* \"#utility.yul\":406:412   */\n      dup5\n        /* \"#utility.yul\":401:404   */\n      dup3\n        /* \"#utility.yul\":396:399   */\n      dup6\n        /* \"#utility.yul\":372:413   */\n      tag_248\n      jump\t// in\n    tag_247:\n        /* \"#utility.yul\":91:419   */\n      pop\n        /* \"#utility.yul\":7:419   */\n      swap4\n      swap3\n      pop\n      pop\n      pop\n      jump\t// out\n        /* \"#utility.yul\":425:564   */\n    tag_249:\n        /* \"#utility.yul\":471:476   */\n      0x00\n        /* \"#utility.yul\":509:515   */\n      dup2\n        /* \"#utility.yul\":496:516   */\n      calldataload\n        /* \"#utility.yul\":487:516   */\n      swap1\n      pop\n        /* \"#utility.yul\":525:558   */\n      tag_251\n        /* \"#utility.yul\":552:557   */\n      dup2\n        /* \"#utility.yul\":525:558   */\n      tag_252\n      jump\t// in\n    tag_251:\n        /* \"#utility.yul\":425:564   */\n      swap3\n      swap2\n      pop\n      pop\n      jump\t// out\n        /* \"#utility.yul\":570:703   */\n    tag_253:\n        /* \"#utility.yul\":613:618   */\n      0x00\n        /* \"#utility.yul\":651:657   */\n      dup2\n        /* \"#utility.yul\":638:658   */\n      calldataload\n        /* \"#utility.yul\":629:658   */\n      swap1\n      pop\n        /* \"#utility.yul\":667:697   */\n      tag_255\n        /* \"#utility.yul\":691:696   */\n      dup2\n        /* \"#utility.yul\":667:697   */\n      tag_256\n      jump\t// in\n    tag_255:\n        /* \"#utility.yul\":570:703   */\n      swap3\n      swap2\n      pop\n      pop\n      jump\t// out\n        /* \"#utility.yul\":723:1063   */\n    tag_257:\n        /* \"#utility.yul\":779:784   */\n      0x00\n        /* \"#utility.yul\":828:831   */\n      dup3\n        /* \"#utility.yul\":821:825   */\n      0x1f\n        /* \"#utility.yul\":813:819   */\n      dup4\n        /* \"#utility.yul\":809:826   */\n      add\n        /* \"#utility.yul\":805:832   */\n      slt\n        /* \"#utility.yul\":795:917   */\n      tag_259\n      jumpi\n        /* \"#utility.yul\":836:915   */\n      tag_260\n      tag_261\n      jump\t// in\n    tag_260:\n        /* \"#utility.yul\":795:917   */\n    tag_259:\n        /* \"#utility.yul\":953:959   */\n      dup2\n        /* \"#utility.yul\":940:960   */\n      calldataload\n        /* \"#utility.yul\":978:1057   */\n      tag_262\n        /* \"#utility.yul\":1053:1056   */\n      dup5\n        /* \"#utility.yul\":1045:1051   */\n      dup3\n        /* \"#utility.yul\":1038:1042   */\n      0x20\n        /* \"#utility.yul\":1030:1036   */\n      dup7\n        /* \"#utility.yul\":1026:1043   */\n      add\n        /* \"#utility.yul\":978:1057   */\n      tag_238\n      jump\t// in\n    tag_262:\n        /* \"#utility.yul\":969:1057   */\n      swap2\n      pop\n        /* \"#utility.yul\":785:1063   */\n      pop\n        /* \"#utility.yul\":723:1063   */\n      swap3\n      swap2\n      pop\n      pop\n      jump\t// out\n        /* \"#utility.yul\":1069:1208   */\n    tag_263:\n        /* \"#utility.yul\":1115:1120   */\n      0x00\n        /* \"#utility.yul\":1153:1159   */\n      dup2\n        /* \"#utility.yul\":1140:1160   */\n      calldataload\n        /* \"#utility.yul\":1131:1160   */\n      swap1\n      pop\n        /* \"#utility.yul\":1169:1202   */\n      tag_265\n        /* \"#utility.yul\":1196:1201   */\n      dup2\n        /* \"#utility.yul\":1169:1202   */\n      tag_266\n      jump\t// in\n    tag_265:\n        /* \"#utility.yul\":1069:1208   */\n      swap3\n      swap2\n      pop\n      pop\n      jump\t// out\n        /* \"#utility.yul\":1214:1357   */\n    tag_267:\n        /* \"#utility.yul\":1271:1276   */\n      0x00\n        /* \"#utility.yul\":1302:1308   */\n      dup2\n        /* \"#utility.yul\":1296:1309   */\n      mload\n        /* \"#utility.yul\":1287:1309   */\n      swap1\n      pop\n        /* \"#utility.yul\":1318:1351   */\n      tag_269\n        /* \"#utility.yul\":1345:1350   */\n      dup2\n        /* \"#utility.yul\":1318:1351   */\n      tag_266\n      jump\t// in\n    tag_269:\n        /* \"#utility.yul\":1214:1357   */\n      swap3\n      swap2\n      pop\n      pop\n      jump\t// out\n        /* \"#utility.yul\":1363:1692   */\n    tag_69:\n        /* \"#utility.yul\":1422:1428   */\n      0x00\n        /* \"#utility.yul\":1471:1473   */\n      0x20\n        /* \"#utility.yul\":1459:1468   */\n      dup3\n        /* \"#utility.yul\":1450:1457   */\n      dup5\n        /* \"#utility.yul\":1446:1469   */\n      sub\n        /* \"#utility.yul\":1442:1474   */\n      slt\n        /* \"#utility.yul\":1439:1558   */\n      iszero\n      tag_271\n      jumpi\n        /* \"#utility.yul\":1477:1556   */\n      tag_272\n      tag_273\n      jump\t// in\n    tag_272:\n        /* \"#utility.yul\":1439:1558   */\n    tag_271:\n        /* \"#utility.yul\":1597:1598   */\n      0x00\n        /* \"#utility.yul\":1622:1675   */\n      tag_274\n        /* \"#utility.yul\":1667:1674   */\n      dup5\n        /* \"#utility.yul\":1658:1664   */\n      dup3\n        /* \"#utility.yul\":1647:1656   */\n      dup6\n        /* \"#utility.yul\":1643:1665   */\n      add\n        /* \"#utility.yul\":1622:1675   */\n      tag_249\n      jump\t// in\n    tag_274:\n        /* \"#utility.yul\":1612:1675   */\n      swap2\n      pop\n        /* \"#utility.yul\":1568:1685   */\n      pop\n        /* \"#utility.yul\":1363:1692   */\n      swap3\n      swap2\n      pop\n      pop\n      jump\t// out\n        /* \"#utility.yul\":1698:2207   */\n    tag_91:\n        /* \"#utility.yul\":1767:1773   */\n      0x00\n        /* \"#utility.yul\":1816:1818   */\n      0x20\n        /* \"#utility.yul\":1804:1813   */\n      dup3\n        /* \"#utility.yul\":1795:1802   */\n      dup5\n        /* \"#utility.yul\":1791:1814   */\n      sub\n        /* \"#utility.yul\":1787:1819   */\n      slt\n        /* \"#utility.yul\":1784:1903   */\n      iszero\n      tag_276\n      jumpi\n        /* \"#utility.yul\":1822:1901   */\n      tag_277\n      tag_273\n      jump\t// in\n    tag_277:\n        /* \"#utility.yul\":1784:1903   */\n    tag_276:\n        /* \"#utility.yul\":1970:1971   */\n      0x00\n        /* \"#utility.yul\":1959:1968   */\n      dup3\n        /* \"#utility.yul\":1955:1972   */\n      add\n        /* \"#utility.yul\":1942:1973   */\n      calldataload\n        /* \"#utility.yul\":2000:2018   */\n      0xffffffffffffffff\n        /* \"#utility.yul\":1992:1998   */\n      dup2\n        /* \"#utility.yul\":1989:2019   */\n      gt\n        /* \"#utility.yul\":1986:2103   */\n      iszero\n      tag_278\n      jumpi\n        /* \"#utility.yul\":2022:2101   */\n      tag_279\n      tag_280\n      jump\t// in\n    tag_279:\n        /* \"#utility.yul\":1986:2103   */\n    tag_278:\n        /* \"#utility.yul\":2127:2190   */\n      tag_281\n        /* \"#utility.yul\":2182:2189   */\n      dup5\n        /* \"#utility.yul\":2173:2179   */\n      dup3\n        /* \"#utility.yul\":2162:2171   */\n      dup6\n        /* \"#utility.yul\":2158:2180   */\n      add\n        /* \"#utility.yul\":2127:2190   */\n      tag_257\n      jump\t// in\n    tag_281:\n        /* \"#utility.yul\":2117:2190   */\n      swap2\n      pop\n        /* \"#utility.yul\":1913:2200   */\n      pop\n        /* \"#utility.yul\":1698:2207   */\n      swap3\n      swap2\n      pop\n      pop\n      jump\t// out\n        /* \"#utility.yul\":2213:3012   */\n    tag_86:\n        /* \"#utility.yul\":2300:2306   */\n      0x00\n        /* \"#utility.yul\":2308:2314   */\n      dup1\n        /* \"#utility.yul\":2316:2322   */\n      0x00\n        /* \"#utility.yul\":2365:2367   */\n      0x60\n        /* \"#utility.yul\":2353:2362   */\n      dup5\n        /* \"#utility.yul\":2344:2351   */\n      dup7\n        /* \"#utility.yul\":2340:2363   */\n      sub\n        /* \"#utility.yul\":2336:2368   */\n      slt\n        /* \"#utility.yul\":2333:2452   */\n      iszero\n      tag_283\n      jumpi\n        /* \"#utility.yul\":2371:2450   */\n      tag_284\n      tag_273\n      jump\t// in\n    tag_284:\n        /* \"#utility.yul\":2333:2452   */\n    tag_283:\n        /* \"#utility.yul\":2519:2520   */\n      0x00\n        /* \"#utility.yul\":2508:2517   */\n      dup5\n        /* \"#utility.yul\":2504:2521   */\n      add\n        /* \"#utility.yul\":2491:2522   */\n      calldataload\n        /* \"#utility.yul\":2549:2567   */\n      0xffffffffffffffff\n        /* \"#utility.yul\":2541:2547   */\n      dup2\n        /* \"#utility.yul\":2538:2568   */\n      gt\n        /* \"#utility.yul\":2535:2652   */\n      iszero\n      tag_285\n      jumpi\n        /* \"#utility.yul\":2571:2650   */\n      tag_286\n      tag_280\n      jump\t// in\n    tag_286:\n        /* \"#utility.yul\":2535:2652   */\n    tag_285:\n        /* \"#utility.yul\":2676:2739   */\n      tag_287\n        /* \"#utility.yul\":2731:2738   */\n      dup7\n        /* \"#utility.yul\":2722:2728   */\n      dup3\n        /* \"#utility.yul\":2711:2720   */\n      dup8\n        /* \"#utility.yul\":2707:2729   */\n      add\n        /* \"#utility.yul\":2676:2739   */\n      tag_257\n      jump\t// in\n    tag_287:\n        /* \"#utility.yul\":2666:2739   */\n      swap4\n      pop\n        /* \"#utility.yul\":2462:2749   */\n      pop\n        /* \"#utility.yul\":2788:2790   */\n      0x20\n        /* \"#utility.yul\":2814:2867   */\n      tag_288\n        /* \"#utility.yul\":2859:2866   */\n      dup7\n        /* \"#utility.yul\":2850:2856   */\n      dup3\n        /* \"#utility.yul\":2839:2848   */\n      dup8\n        /* \"#utility.yul\":2835:2857   */\n      add\n        /* \"#utility.yul\":2814:2867   */\n      tag_249\n      jump\t// in\n    tag_288:\n        /* \"#utility.yul\":2804:2867   */\n      swap3\n      pop\n        /* \"#utility.yul\":2759:2877   */\n      pop\n        /* \"#utility.yul\":2916:2918   */\n      0x40\n        /* \"#utility.yul\":2942:2995   */\n      tag_289\n        /* \"#utility.yul\":2987:2994   */\n      dup7\n        /* \"#utility.yul\":2978:2984   */\n      dup3\n        /* \"#utility.yul\":2967:2976   */\n      dup8\n        /* \"#utility.yul\":2963:2985   */\n      add\n        /* \"#utility.yul\":2942:2995   */\n      tag_263\n      jump\t// in\n    tag_289:\n        /* \"#utility.yul\":2932:2995   */\n      swap2\n      pop\n        /* \"#utility.yul\":2887:3005   */\n      pop\n        /* \"#utility.yul\":2213:3012   */\n      swap3\n      pop\n      swap3\n      pop\n      swap3\n      jump\t// out\n        /* \"#utility.yul\":3018:3997   */\n    tag_81:\n        /* \"#utility.yul\":3115:3121   */\n      0x00\n        /* \"#utility.yul\":3123:3129   */\n      dup1\n        /* \"#utility.yul\":3131:3137   */\n      0x00\n        /* \"#utility.yul\":3180:3182   */\n      0x60\n        /* \"#utility.yul\":3168:3177   */\n      dup5\n        /* \"#utility.yul\":3159:3166   */\n      dup7\n        /* \"#utility.yul\":3155:3178   */\n      sub\n        /* \"#utility.yul\":3151:3183   */\n      slt\n        /* \"#utility.yul\":3148:3267   */\n      iszero\n      tag_291\n      jumpi\n        /* \"#utility.yul\":3186:3265   */\n      tag_292\n      tag_273\n      jump\t// in\n    tag_292:\n        /* \"#utility.yul\":3148:3267   */\n    tag_291:\n        /* \"#utility.yul\":3334:3335   */\n      0x00\n        /* \"#utility.yul\":3323:3332   */\n      dup5\n        /* \"#utility.yul\":3319:3336   */\n      add\n        /* \"#utility.yul\":3306:3337   */\n      calldataload\n        /* \"#utility.yul\":3364:3382   */\n      0xffffffffffffffff\n        /* \"#utility.yul\":3356:3362   */\n      dup2\n        /* \"#utility.yul\":3353:3383   */\n      gt\n        /* \"#utility.yul\":3350:3467   */\n      iszero\n      tag_293\n      jumpi\n        /* \"#utility.yul\":3386:3465   */\n      tag_294\n      tag_280\n      jump\t// in\n    tag_294:\n        /* \"#utility.yul\":3350:3467   */\n    tag_293:\n        /* \"#utility.yul\":3491:3554   */\n      tag_295\n        /* \"#utility.yul\":3546:3553   */\n      dup7\n        /* \"#utility.yul\":3537:3543   */\n      dup3\n        /* \"#utility.yul\":3526:3535   */\n      dup8\n        /* \"#utility.yul\":3522:3544   */\n      add\n        /* \"#utility.yul\":3491:3554   */\n      tag_257\n      jump\t// in\n    tag_295:\n        /* \"#utility.yul\":3481:3554   */\n      swap4\n      pop\n        /* \"#utility.yul\":3277:3564   */\n      pop\n        /* \"#utility.yul\":3631:3633   */\n      0x20\n        /* \"#utility.yul\":3620:3629   */\n      dup5\n        /* \"#utility.yul\":3616:3634   */\n      add\n        /* \"#utility.yul\":3603:3635   */\n      calldataload\n        /* \"#utility.yul\":3662:3680   */\n      0xffffffffffffffff\n        /* \"#utility.yul\":3654:3660   */\n      dup2\n        /* \"#utility.yul\":3651:3681   */\n      gt\n        /* \"#utility.yul\":3648:3765   */\n      iszero\n      tag_296\n      jumpi\n        /* \"#utility.yul\":3684:3763   */\n      tag_297\n      tag_280\n      jump\t// in\n    tag_297:\n        /* \"#utility.yul\":3648:3765   */\n    tag_296:\n        /* \"#utility.yul\":3789:3852   */\n      tag_298\n        /* \"#utility.yul\":3844:3851   */\n      dup7\n        /* \"#utility.yul\":3835:3841   */\n      dup3\n        /* \"#utility.yul\":3824:3833   */\n      dup8\n        /* \"#utility.yul\":3820:3842   */\n      add\n        /* \"#utility.yul\":3789:3852   */\n      tag_257\n      jump\t// in\n    tag_298:\n        /* \"#utility.yul\":3779:3852   */\n      swap3\n      pop\n        /* \"#utility.yul\":3574:3862   */\n      pop\n        /* \"#utility.yul\":3901:3903   */\n      0x40\n        /* \"#utility.yul\":3927:3980   */\n      tag_299\n        /* \"#utility.yul\":3972:3979   */\n      dup7\n        /* \"#utility.yul\":3963:3969   */\n      dup3\n        /* \"#utility.yul\":3952:3961   */\n      dup8\n        /* \"#utility.yul\":3948:3970   */\n      add\n        /* \"#utility.yul\":3927:3980   */\n      tag_263\n      jump\t// in\n    tag_299:\n        /* \"#utility.yul\":3917:3980   */\n      swap2\n      pop\n        /* \"#utility.yul\":3872:3990   */\n      pop\n        /* \"#utility.yul\":3018:3997   */\n      swap3\n      pop\n      swap3\n      pop\n      swap3\n      jump\t// out\n        /* \"#utility.yul\":4003:4657   */\n    tag_100:\n        /* \"#utility.yul\":4081:4087   */\n      0x00\n        /* \"#utility.yul\":4089:4095   */\n      dup1\n        /* \"#utility.yul\":4138:4140   */\n      0x40\n        /* \"#utility.yul\":4126:4135   */\n      dup4\n        /* \"#utility.yul\":4117:4124   */\n      dup6\n        /* \"#utility.yul\":4113:4136   */\n      sub\n        /* \"#utility.yul\":4109:4141   */\n      slt\n        /* \"#utility.yul\":4106:4225   */\n      iszero\n      tag_301\n      jumpi\n        /* \"#utility.yul\":4144:4223   */\n      tag_302\n      tag_273\n      jump\t// in\n    tag_302:\n        /* \"#utility.yul\":4106:4225   */\n    tag_301:\n        /* \"#utility.yul\":4292:4293   */\n      0x00\n        /* \"#utility.yul\":4281:4290   */\n      dup4\n        /* \"#utility.yul\":4277:4294   */\n      add\n        /* \"#utility.yul\":4264:4295   */\n      calldataload\n        /* \"#utility.yul\":4322:4340   */\n      0xffffffffffffffff\n        /* \"#utility.yul\":4314:4320   */\n      dup2\n        /* \"#utility.yul\":4311:4341   */\n      gt\n        /* \"#utility.yul\":4308:4425   */\n      iszero\n      tag_303\n      jumpi\n        /* \"#utility.yul\":4344:4423   */\n      tag_304\n      tag_280\n      jump\t// in\n    tag_304:\n        /* \"#utility.yul\":4308:4425   */\n    tag_303:\n        /* \"#utility.yul\":4449:4512   */\n      tag_305\n        /* \"#utility.yul\":4504:4511   */\n      dup6\n        /* \"#utility.yul\":4495:4501   */\n      dup3\n        /* \"#utility.yul\":4484:4493   */\n      dup7\n        /* \"#utility.yul\":4480:4502   */\n      add\n        /* \"#utility.yul\":4449:4512   */\n      tag_257\n      jump\t// in\n    tag_305:\n        /* \"#utility.yul\":4439:4512   */\n      swap3\n      pop\n        /* \"#utility.yul\":4235:4522   */\n      pop\n        /* \"#utility.yul\":4561:4563   */\n      0x20\n        /* \"#utility.yul\":4587:4640   */\n      tag_306\n        /* \"#utility.yul\":4632:4639   */\n      dup6\n        /* \"#utility.yul\":4623:4629   */\n      dup3\n        /* \"#utility.yul\":4612:4621   */\n      dup7\n        /* \"#utility.yul\":4608:4630   */\n      add\n        /* \"#utility.yul\":4587:4640   */\n      tag_263\n      jump\t// in\n    tag_306:\n        /* \"#utility.yul\":4577:4640   */\n      swap2\n      pop\n        /* \"#utility.yul\":4532:4650   */\n      pop\n        /* \"#utility.yul\":4003:4657   */\n      swap3\n      pop\n      swap3\n      swap1\n      pop\n      jump\t// out\n        /* \"#utility.yul\":4663:4992   */\n    tag_29:\n        /* \"#utility.yul\":4722:4728   */\n      0x00\n        /* \"#utility.yul\":4771:4773   */\n      0x20\n        /* \"#utility.yul\":4759:4768   */\n      dup3\n        /* \"#utility.yul\":4750:4757   */\n      dup5\n        /* \"#utility.yul\":4746:4769   */\n      sub\n        /* \"#utility.yul\":4742:4774   */\n      slt\n        /* \"#utility.yul\":4739:4858   */\n      iszero\n      tag_308\n      jumpi\n        /* \"#utility.yul\":4777:4856   */\n      tag_309\n      tag_273\n      jump\t// in\n    tag_309:\n        /* \"#utility.yul\":4739:4858   */\n    tag_308:\n        /* \"#utility.yul\":4897:4898   */\n      0x00\n        /* \"#utility.yul\":4922:4975   */\n      tag_310\n        /* \"#utility.yul\":4967:4974   */\n      dup5\n        /* \"#utility.yul\":4958:4964   */\n      dup3\n        /* \"#utility.yul\":4947:4956   */\n      dup6\n        /* \"#utility.yul\":4943:4965   */\n      add\n        /* \"#utility.yul\":4922:4975   */\n      tag_263\n      jump\t// in\n    tag_310:\n        /* \"#utility.yul\":4912:4975   */\n      swap2\n      pop\n        /* \"#utility.yul\":4868:4985   */\n      pop\n        /* \"#utility.yul\":4663:4992   */\n      swap3\n      swap2\n      pop\n      pop\n      jump\t// out\n        /* \"#utility.yul\":4998:5349   */\n    tag_197:\n        /* \"#utility.yul\":5068:5074   */\n      0x00\n        /* \"#utility.yul\":5117:5119   */\n      0x20\n        /* \"#utility.yul\":5105:5114   */\n      dup3\n        /* \"#utility.yul\":5096:5103   */\n      dup5\n        /* \"#utility.yul\":5092:5115   */\n      sub\n        /* \"#utility.yul\":5088:5120   */\n      slt\n        /* \"#utility.yul\":5085:5204   */\n      iszero\n      tag_312\n      jumpi\n        /* \"#utility.yul\":5123:5202   */\n      tag_313\n      tag_273\n      jump\t// in\n    tag_313:\n        /* \"#utility.yul\":5085:5204   */\n    tag_312:\n        /* \"#utility.yul\":5243:5244   */\n      0x00\n        /* \"#utility.yul\":5268:5332   */\n      tag_314\n        /* \"#utility.yul\":5324:5331   */\n      dup5\n        /* \"#utility.yul\":5315:5321   */\n      dup3\n        /* \"#utility.yul\":5304:5313   */\n      dup6\n        /* \"#utility.yul\":5300:5322   */\n      add\n        /* \"#utility.yul\":5268:5332   */\n      tag_267\n      jump\t// in\n    tag_314:\n        /* \"#utility.yul\":5258:5332   */\n      swap2\n      pop\n        /* \"#utility.yul\":5214:5342   */\n      pop\n        /* \"#utility.yul\":4998:5349   */\n      swap3\n      swap2\n      pop\n      pop\n      jump\t// out\n        /* \"#utility.yul\":5355:5829   */\n    tag_36:\n        /* \"#utility.yul\":5423:5429   */\n      0x00\n        /* \"#utility.yul\":5431:5437   */\n      dup1\n        /* \"#utility.yul\":5480:5482   */\n      0x40\n        /* \"#utility.yul\":5468:5477   */\n      dup4\n        /* \"#utility.yul\":5459:5466   */\n      dup6\n        /* \"#utility.yul\":5455:5478   */\n      sub\n        /* \"#utility.yul\":5451:5483   */\n      slt\n        /* \"#utility.yul\":5448:5567   */\n      iszero\n      tag_316\n      jumpi\n        /* \"#utility.yul\":5486:5565   */\n      tag_317\n      tag_273\n      jump\t// in\n    tag_317:\n        /* \"#utility.yul\":5448:5567   */\n    tag_316:\n        /* \"#utility.yul\":5606:5607   */\n      0x00\n        /* \"#utility.yul\":5631:5684   */\n      tag_318\n        /* \"#utility.yul\":5676:5683   */\n      dup6\n        /* \"#utility.yul\":5667:5673   */\n      dup3\n        /* \"#utility.yul\":5656:5665   */\n      dup7\n        /* \"#utility.yul\":5652:5674   */\n      add\n        /* \"#utility.yul\":5631:5684   */\n      tag_263\n      jump\t// in\n    tag_318:\n        /* \"#utility.yul\":5621:5684   */\n      swap3\n      pop\n        /* \"#utility.yul\":5577:5694   */\n      pop\n        /* \"#utility.yul\":5733:5735   */\n      0x20\n        /* \"#utility.yul\":5759:5812   */\n      tag_319\n        /* \"#utility.yul\":5804:5811   */\n      dup6\n        /* \"#utility.yul\":5795:5801   */\n      dup3\n        /* \"#utility.yul\":5784:5793   */\n      dup7\n        /* \"#utility.yul\":5780:5802   */\n      add\n        /* \"#utility.yul\":5759:5812   */\n      tag_249\n      jump\t// in\n    tag_319:\n        /* \"#utility.yul\":5749:5812   */\n      swap2\n      pop\n        /* \"#utility.yul\":5704:5822   */\n      pop\n        /* \"#utility.yul\":5355:5829   */\n      swap3\n      pop\n      swap3\n      swap1\n      pop\n      jump\t// out\n        /* \"#utility.yul\":5835:6303   */\n    tag_54:\n        /* \"#utility.yul\":5900:5906   */\n      0x00\n        /* \"#utility.yul\":5908:5914   */\n      dup1\n        /* \"#utility.yul\":5957:5959   */\n      0x40\n        /* \"#utility.yul\":5945:5954   */\n      dup4\n        /* \"#utility.yul\":5936:5943   */\n      dup6\n        /* \"#utility.yul\":5932:5955   */\n      sub\n        /* \"#utility.yul\":5928:5960   */\n      slt\n        /* \"#utility.yul\":5925:6044   */\n      iszero\n      tag_321\n      jumpi\n        /* \"#utility.yul\":5963:6042   */\n      tag_322\n      tag_273\n      jump\t// in\n    tag_322:\n        /* \"#utility.yul\":5925:6044   */\n    tag_321:\n        /* \"#utility.yul\":6083:6084   */\n      0x00\n        /* \"#utility.yul\":6108:6161   */\n      tag_323\n        /* \"#utility.yul\":6153:6160   */\n      dup6\n        /* \"#utility.yul\":6144:6150   */\n      dup3\n        /* \"#utility.yul\":6133:6142   */\n      dup7\n        /* \"#utility.yul\":6129:6151   */\n      add\n        /* \"#utility.yul\":6108:6161   */\n      tag_263\n      jump\t// in\n    tag_323:\n        /* \"#utility.yul\":6098:6161   */\n      swap3\n      pop\n        /* \"#utility.yul\":6054:6171   */\n      pop\n        /* \"#utility.yul\":6210:6212   */\n      0x20\n        /* \"#utility.yul\":6236:6286   */\n      tag_324\n        /* \"#utility.yul\":6278:6285   */\n      dup6\n        /* \"#utility.yul\":6269:6275   */\n      dup3\n        /* \"#utility.yul\":6258:6267   */\n      dup7\n        /* \"#utility.yul\":6254:6276   */\n      add\n        /* \"#utility.yul\":6236:6286   */\n      tag_253\n      jump\t// in\n    tag_324:\n        /* \"#utility.yul\":6226:6286   */\n      swap2\n      pop\n        /* \"#utility.yul\":6181:6296   */\n      pop\n        /* \"#utility.yul\":5835:6303   */\n      swap3\n      pop\n      swap3\n      swap1\n      pop\n      jump\t// out\n        /* \"#utility.yul\":6309:6427   */\n    tag_325:\n        /* \"#utility.yul\":6396:6420   */\n      tag_327\n        /* \"#utility.yul\":6414:6419   */\n      dup2\n        /* \"#utility.yul\":6396:6420   */\n      tag_328\n      jump\t// in\n    tag_327:\n        /* \"#utility.yul\":6391:6394   */\n      dup3\n        /* \"#utility.yul\":6384:6421   */\n      mstore\n        /* \"#utility.yul\":6309:6427   */\n      pop\n      pop\n      jump\t// out\n        /* \"#utility.yul\":6433:6542   */\n    tag_329:\n        /* \"#utility.yul\":6514:6535   */\n      tag_331\n        /* \"#utility.yul\":6529:6534   */\n      dup2\n        /* \"#utility.yul\":6514:6535   */\n      tag_332\n      jump\t// in\n    tag_331:\n        /* \"#utility.yul\":6509:6512   */\n      dup3\n        /* \"#utility.yul\":6502:6536   */\n      mstore\n        /* \"#utility.yul\":6433:6542   */\n      pop\n      pop\n      jump\t// out\n        /* \"#utility.yul\":6548:6892   */\n    tag_333:\n        /* \"#utility.yul\":6626:6629   */\n      0x00\n        /* \"#utility.yul\":6654:6693   */\n      tag_335\n        /* \"#utility.yul\":6687:6692   */\n      dup3\n        /* \"#utility.yul\":6654:6693   */\n      tag_336\n      jump\t// in\n    tag_335:\n        /* \"#utility.yul\":6709:6770   */\n      tag_337\n        /* \"#utility.yul\":6763:6769   */\n      dup2\n        /* \"#utility.yul\":6758:6761   */\n      dup6\n        /* \"#utility.yul\":6709:6770   */\n      tag_338\n      jump\t// in\n    tag_337:\n        /* \"#utility.yul\":6702:6770   */\n      swap4\n      pop\n        /* \"#utility.yul\":6779:6831   */\n      tag_339\n        /* \"#utility.yul\":6824:6830   */\n      dup2\n        /* \"#utility.yul\":6819:6822   */\n      dup6\n        /* \"#utility.yul\":6812:6816   */\n      0x20\n        /* \"#utility.yul\":6805:6810   */\n      dup7\n        /* \"#utility.yul\":6801:6817   */\n      add\n        /* \"#utility.yul\":6779:6831   */\n      tag_340\n      jump\t// in\n    tag_339:\n        /* \"#utility.yul\":6856:6885   */\n      tag_341\n        /* \"#utility.yul\":6878:6884   */\n      dup2\n        /* \"#utility.yul\":6856:6885   */\n      tag_342\n      jump\t// in\n    tag_341:\n        /* \"#utility.yul\":6851:6854   */\n      dup5\n        /* \"#utility.yul\":6847:6886   */\n      add\n        /* \"#utility.yul\":6840:6886   */\n      swap2\n      pop\n        /* \"#utility.yul\":6630:6892   */\n      pop\n        /* \"#utility.yul\":6548:6892   */\n      swap3\n      swap2\n      pop\n      pop\n      jump\t// out\n        /* \"#utility.yul\":6898:7262   */\n    tag_343:\n        /* \"#utility.yul\":6986:6989   */\n      0x00\n        /* \"#utility.yul\":7014:7053   */\n      tag_345\n        /* \"#utility.yul\":7047:7052   */\n      dup3\n        /* \"#utility.yul\":7014:7053   */\n      tag_336\n      jump\t// in\n    tag_345:\n        /* \"#utility.yul\":7069:7140   */\n      tag_346\n        /* \"#utility.yul\":7133:7139   */\n      dup2\n        /* \"#utility.yul\":7128:7131   */\n      dup6\n        /* \"#utility.yul\":7069:7140   */\n      tag_347\n      jump\t// in\n    tag_346:\n        /* \"#utility.yul\":7062:7140   */\n      swap4\n      pop\n        /* \"#utility.yul\":7149:7201   */\n      tag_348\n        /* \"#utility.yul\":7194:7200   */\n      dup2\n        /* \"#utility.yul\":7189:7192   */\n      dup6\n        /* \"#utility.yul\":7182:7186   */\n      0x20\n        /* \"#utility.yul\":7175:7180   */\n      dup7\n        /* \"#utility.yul\":7171:7187   */\n      add\n        /* \"#utility.yul\":7149:7201   */\n      tag_340\n      jump\t// in\n    tag_348:\n        /* \"#utility.yul\":7226:7255   */\n      tag_349\n        /* \"#utility.yul\":7248:7254   */\n      dup2\n        /* \"#utility.yul\":7226:7255   */\n      tag_342\n      jump\t// in\n    tag_349:\n        /* \"#utility.yul\":7221:7224   */\n      dup5\n        /* \"#utility.yul\":7217:7256   */\n      add\n        /* \"#utility.yul\":7210:7256   */\n      swap2\n      pop\n        /* \"#utility.yul\":6990:7262   */\n      pop\n        /* \"#utility.yul\":6898:7262   */\n      swap3\n      swap2\n      pop\n      pop\n      jump\t// out\n        /* \"#utility.yul\":7268:7634   */\n    tag_350:\n        /* \"#utility.yul\":7410:7413   */\n      0x00\n        /* \"#utility.yul\":7431:7498   */\n      tag_352\n        /* \"#utility.yul\":7495:7497   */\n      0x26\n        /* \"#utility.yul\":7490:7493   */\n      dup4\n        /* \"#utility.yul\":7431:7498   */\n      tag_347\n      jump\t// in\n    tag_352:\n        /* \"#utility.yul\":7424:7498   */\n      swap2\n      pop\n        /* \"#utility.yul\":7507:7600   */\n      tag_353\n        /* \"#utility.yul\":7596:7599   */\n      dup3\n        /* \"#utility.yul\":7507:7600   */\n      tag_354\n      jump\t// in\n    tag_353:\n        /* \"#utility.yul\":7625:7627   */\n      0x40\n        /* \"#utility.yul\":7620:7623   */\n      dup3\n        /* \"#utility.yul\":7616:7628   */\n      add\n        /* \"#utility.yul\":7609:7628   */\n      swap1\n      pop\n        /* \"#utility.yul\":7268:7634   */\n      swap2\n      swap1\n      pop\n      jump\t// out\n        /* \"#utility.yul\":7640:8006   */\n    tag_355:\n        /* \"#utility.yul\":7782:7785   */\n      0x00\n        /* \"#utility.yul\":7803:7870   */\n      tag_357\n        /* \"#utility.yul\":7867:7869   */\n      0x20\n        /* \"#utility.yul\":7862:7865   */\n      dup4\n        /* \"#utility.yul\":7803:7870   */\n      tag_347\n      jump\t// in\n    tag_357:\n        /* \"#utility.yul\":7796:7870   */\n      swap2\n      pop\n        /* \"#utility.yul\":7879:7972   */\n      tag_358\n        /* \"#utility.yul\":7968:7971   */\n      dup3\n        /* \"#utility.yul\":7879:7972   */\n      tag_359\n      jump\t// in\n    tag_358:\n        /* \"#utility.yul\":7997:7999   */\n      0x20\n        /* \"#utility.yul\":7992:7995   */\n      dup3\n        /* \"#utility.yul\":7988:8000   */\n      add\n        /* \"#utility.yul\":7981:8000   */\n      swap1\n      pop\n        /* \"#utility.yul\":7640:8006   */\n      swap2\n      swap1\n      pop\n      jump\t// out\n        /* \"#utility.yul\":8076:9103   */\n    tag_360:\n        /* \"#utility.yul\":8195:8198   */\n      0x00\n        /* \"#utility.yul\":8231:8235   */\n      0x80\n        /* \"#utility.yul\":8226:8229   */\n      dup4\n        /* \"#utility.yul\":8222:8236   */\n      add\n        /* \"#utility.yul\":8319:8323   */\n      0x00\n        /* \"#utility.yul\":8312:8317   */\n      dup4\n        /* \"#utility.yul\":8308:8324   */\n      add\n        /* \"#utility.yul\":8302:8325   */\n      mload\n        /* \"#utility.yul\":8338:8401   */\n      tag_362\n        /* \"#utility.yul\":8395:8399   */\n      0x00\n        /* \"#utility.yul\":8390:8393   */\n      dup7\n        /* \"#utility.yul\":8386:8400   */\n      add\n        /* \"#utility.yul\":8372:8384   */\n      dup3\n        /* \"#utility.yul\":8338:8401   */\n      tag_363\n      jump\t// in\n    tag_362:\n        /* \"#utility.yul\":8246:8411   */\n      pop\n        /* \"#utility.yul\":8500:8504   */\n      0x20\n        /* \"#utility.yul\":8493:8498   */\n      dup4\n        /* \"#utility.yul\":8489:8505   */\n      add\n        /* \"#utility.yul\":8483:8506   */\n      mload\n        /* \"#utility.yul\":8553:8556   */\n      dup5\n        /* \"#utility.yul\":8547:8551   */\n      dup3\n        /* \"#utility.yul\":8543:8557   */\n      sub\n        /* \"#utility.yul\":8536:8540   */\n      0x20\n        /* \"#utility.yul\":8531:8534   */\n      dup7\n        /* \"#utility.yul\":8527:8541   */\n      add\n        /* \"#utility.yul\":8520:8558   */\n      mstore\n        /* \"#utility.yul\":8579:8652   */\n      tag_364\n        /* \"#utility.yul\":8647:8651   */\n      dup3\n        /* \"#utility.yul\":8633:8645   */\n      dup3\n        /* \"#utility.yul\":8579:8652   */\n      tag_333\n      jump\t// in\n    tag_364:\n        /* \"#utility.yul\":8571:8652   */\n      swap2\n      pop\n        /* \"#utility.yul\":8421:8663   */\n      pop\n        /* \"#utility.yul\":8742:8746   */\n      0x40\n        /* \"#utility.yul\":8735:8740   */\n      dup4\n        /* \"#utility.yul\":8731:8747   */\n      add\n        /* \"#utility.yul\":8725:8748   */\n      mload\n        /* \"#utility.yul\":8795:8798   */\n      dup5\n        /* \"#utility.yul\":8789:8793   */\n      dup3\n        /* \"#utility.yul\":8785:8799   */\n      sub\n        /* \"#utility.yul\":8778:8782   */\n      0x40\n        /* \"#utility.yul\":8773:8776   */\n      dup7\n        /* \"#utility.yul\":8769:8783   */\n      add\n        /* \"#utility.yul\":8762:8800   */\n      mstore\n        /* \"#utility.yul\":8821:8894   */\n      tag_365\n        /* \"#utility.yul\":8889:8893   */\n      dup3\n        /* \"#utility.yul\":8875:8887   */\n      dup3\n        /* \"#utility.yul\":8821:8894   */\n      tag_333\n      jump\t// in\n    tag_365:\n        /* \"#utility.yul\":8813:8894   */\n      swap2\n      pop\n        /* \"#utility.yul\":8673:8905   */\n      pop\n        /* \"#utility.yul\":8984:8988   */\n      0x60\n        /* \"#utility.yul\":8977:8982   */\n      dup4\n        /* \"#utility.yul\":8973:8989   */\n      add\n        /* \"#utility.yul\":8967:8990   */\n      mload\n        /* \"#utility.yul\":9003:9066   */\n      tag_366\n        /* \"#utility.yul\":9060:9064   */\n      0x60\n        /* \"#utility.yul\":9055:9058   */\n      dup7\n        /* \"#utility.yul\":9051:9065   */\n      add\n        /* \"#utility.yul\":9037:9049   */\n      dup3\n        /* \"#utility.yul\":9003:9066   */\n      tag_363\n      jump\t// in\n    tag_366:\n        /* \"#utility.yul\":8915:9076   */\n      pop\n        /* \"#utility.yul\":9093:9097   */\n      dup1\n        /* \"#utility.yul\":9086:9097   */\n      swap2\n      pop\n        /* \"#utility.yul\":8200:9103   */\n      pop\n        /* \"#utility.yul\":8076:9103   */\n      swap3\n      swap2\n      pop\n      pop\n      jump\t// out\n        /* \"#utility.yul\":9109:9217   */\n    tag_363:\n        /* \"#utility.yul\":9186:9210   */\n      tag_368\n        /* \"#utility.yul\":9204:9209   */\n      dup2\n        /* \"#utility.yul\":9186:9210   */\n      tag_369\n      jump\t// in\n    tag_368:\n        /* \"#utility.yul\":9181:9184   */\n      dup3\n        /* \"#utility.yul\":9174:9211   */\n      mstore\n        /* \"#utility.yul\":9109:9217   */\n      pop\n      pop\n      jump\t// out\n        /* \"#utility.yul\":9223:9341   */\n    tag_370:\n        /* \"#utility.yul\":9310:9334   */\n      tag_372\n        /* \"#utility.yul\":9328:9333   */\n      dup2\n        /* \"#utility.yul\":9310:9334   */\n      tag_369\n      jump\t// in\n    tag_372:\n        /* \"#utility.yul\":9305:9308   */\n      dup3\n        /* \"#utility.yul\":9298:9335   */\n      mstore\n        /* \"#utility.yul\":9223:9341   */\n      pop\n      pop\n      jump\t// out\n        /* \"#utility.yul\":9347:9569   */\n    tag_43:\n        /* \"#utility.yul\":9440:9444   */\n      0x00\n        /* \"#utility.yul\":9478:9480   */\n      0x20\n        /* \"#utility.yul\":9467:9476   */\n      dup3\n        /* \"#utility.yul\":9463:9481   */\n      add\n        /* \"#utility.yul\":9455:9481   */\n      swap1\n      pop\n        /* \"#utility.yul\":9491:9562   */\n      tag_374\n        /* \"#utility.yul\":9559:9560   */\n      0x00\n        /* \"#utility.yul\":9548:9557   */\n      dup4\n        /* \"#utility.yul\":9544:9561   */\n      add\n        /* \"#utility.yul\":9535:9541   */\n      dup5\n        /* \"#utility.yul\":9491:9562   */\n      tag_325\n      jump\t// in\n    tag_374:\n        /* \"#utility.yul\":9347:9569   */\n      swap3\n      swap2\n      pop\n      pop\n      jump\t// out\n        /* \"#utility.yul\":9575:9998   */\n    tag_192:\n        /* \"#utility.yul\":9716:9720   */\n      0x00\n        /* \"#utility.yul\":9754:9756   */\n      0x40\n        /* \"#utility.yul\":9743:9752   */\n      dup3\n        /* \"#utility.yul\":9739:9757   */\n      add\n        /* \"#utility.yul\":9731:9757   */\n      swap1\n      pop\n        /* \"#utility.yul\":9767:9838   */\n      tag_376\n        /* \"#utility.yul\":9835:9836   */\n      0x00\n        /* \"#utility.yul\":9824:9833   */\n      dup4\n        /* \"#utility.yul\":9820:9837   */\n      add\n        /* \"#utility.yul\":9811:9817   */\n      dup6\n        /* \"#utility.yul\":9767:9838   */\n      tag_325\n      jump\t// in\n    tag_376:\n        /* \"#utility.yul\":9885:9894   */\n      dup2\n        /* \"#utility.yul\":9879:9883   */\n      dup2\n        /* \"#utility.yul\":9875:9895   */\n      sub\n        /* \"#utility.yul\":9870:9872   */\n      0x20\n        /* \"#utility.yul\":9859:9868   */\n      dup4\n        /* \"#utility.yul\":9855:9873   */\n      add\n        /* \"#utility.yul\":9848:9896   */\n      mstore\n        /* \"#utility.yul\":9913:9991   */\n      tag_377\n        /* \"#utility.yul\":9986:9990   */\n      dup2\n        /* \"#utility.yul\":9977:9983   */\n      dup5\n        /* \"#utility.yul\":9913:9991   */\n      tag_343\n      jump\t// in\n    tag_377:\n        /* \"#utility.yul\":9905:9991   */\n      swap1\n      pop\n        /* \"#utility.yul\":9575:9998   */\n      swap4\n      swap3\n      pop\n      pop\n      pop\n      jump\t// out\n        /* \"#utility.yul\":10004:10214   */\n    tag_32:\n        /* \"#utility.yul\":10091:10095   */\n      0x00\n        /* \"#utility.yul\":10129:10131   */\n      0x20\n        /* \"#utility.yul\":10118:10127   */\n      dup3\n        /* \"#utility.yul\":10114:10132   */\n      add\n        /* \"#utility.yul\":10106:10132   */\n      swap1\n      pop\n        /* \"#utility.yul\":10142:10207   */\n      tag_379\n        /* \"#utility.yul\":10204:10205   */\n      0x00\n        /* \"#utility.yul\":10193:10202   */\n      dup4\n        /* \"#utility.yul\":10189:10206   */\n      add\n        /* \"#utility.yul\":10180:10186   */\n      dup5\n        /* \"#utility.yul\":10142:10207   */\n      tag_329\n      jump\t// in\n    tag_379:\n        /* \"#utility.yul\":10004:10214   */\n      swap3\n      swap2\n      pop\n      pop\n      jump\t// out\n        /* \"#utility.yul\":10220:10639   */\n    tag_215:\n        /* \"#utility.yul\":10386:10390   */\n      0x00\n        /* \"#utility.yul\":10424:10426   */\n      0x20\n        /* \"#utility.yul\":10413:10422   */\n      dup3\n        /* \"#utility.yul\":10409:10427   */\n      add\n        /* \"#utility.yul\":10401:10427   */\n      swap1\n      pop\n        /* \"#utility.yul\":10473:10482   */\n      dup2\n        /* \"#utility.yul\":10467:10471   */\n      dup2\n        /* \"#utility.yul\":10463:10483   */\n      sub\n        /* \"#utility.yul\":10459:10460   */\n      0x00\n        /* \"#utility.yul\":10448:10457   */\n      dup4\n        /* \"#utility.yul\":10444:10461   */\n      add\n        /* \"#utility.yul\":10437:10484   */\n      mstore\n        /* \"#utility.yul\":10501:10632   */\n      tag_381\n        /* \"#utility.yul\":10627:10631   */\n      dup2\n        /* \"#utility.yul\":10501:10632   */\n      tag_350\n      jump\t// in\n    tag_381:\n        /* \"#utility.yul\":10493:10632   */\n      swap1\n      pop\n        /* \"#utility.yul\":10220:10639   */\n      swap2\n      swap1\n      pop\n      jump\t// out\n        /* \"#utility.yul\":10645:11064   */\n    tag_113:\n        /* \"#utility.yul\":10811:10815   */\n      0x00\n        /* \"#utility.yul\":10849:10851   */\n      0x20\n        /* \"#utility.yul\":10838:10847   */\n      dup3\n        /* \"#utility.yul\":10834:10852   */\n      add\n        /* \"#utility.yul\":10826:10852   */\n      swap1\n      pop\n        /* \"#utility.yul\":10898:10907   */\n      dup2\n        /* \"#utility.yul\":10892:10896   */\n      dup2\n        /* \"#utility.yul\":10888:10908   */\n      sub\n        /* \"#utility.yul\":10884:10885   */\n      0x00\n        /* \"#utility.yul\":10873:10882   */\n      dup4\n        /* \"#utility.yul\":10869:10886   */\n      add\n        /* \"#utility.yul\":10862:10909   */\n      mstore\n        /* \"#utility.yul\":10926:11057   */\n      tag_383\n        /* \"#utility.yul\":11052:11056   */\n      dup2\n        /* \"#utility.yul\":10926:11057   */\n      tag_355\n      jump\t// in\n    tag_383:\n        /* \"#utility.yul\":10918:11057   */\n      swap1\n      pop\n        /* \"#utility.yul\":10645:11064   */\n      swap2\n      swap1\n      pop\n      jump\t// out\n        /* \"#utility.yul\":11070:11443   */\n    tag_65:\n        /* \"#utility.yul\":11213:11217   */\n      0x00\n        /* \"#utility.yul\":11251:11253   */\n      0x20\n        /* \"#utility.yul\":11240:11249   */\n      dup3\n        /* \"#utility.yul\":11236:11254   */\n      add\n        /* \"#utility.yul\":11228:11254   */\n      swap1\n      pop\n        /* \"#utility.yul\":11300:11309   */\n      dup2\n        /* \"#utility.yul\":11294:11298   */\n      dup2\n        /* \"#utility.yul\":11290:11310   */\n      sub\n        /* \"#utility.yul\":11286:11287   */\n      0x00\n        /* \"#utility.yul\":11275:11284   */\n      dup4\n        /* \"#utility.yul\":11271:11288   */\n      add\n        /* \"#utility.yul\":11264:11311   */\n      mstore\n        /* \"#utility.yul\":11328:11436   */\n      tag_385\n        /* \"#utility.yul\":11431:11435   */\n      dup2\n        /* \"#utility.yul\":11422:11428   */\n      dup5\n        /* \"#utility.yul\":11328:11436   */\n      tag_360\n      jump\t// in\n    tag_385:\n        /* \"#utility.yul\":11320:11436   */\n      swap1\n      pop\n        /* \"#utility.yul\":11070:11443   */\n      swap3\n      swap2\n      pop\n      pop\n      jump\t// out\n        /* \"#utility.yul\":11449:11671   */\n    tag_77:\n        /* \"#utility.yul\":11542:11546   */\n      0x00\n        /* \"#utility.yul\":11580:11582   */\n      0x20\n        /* \"#utility.yul\":11569:11578   */\n      dup3\n        /* \"#utility.yul\":11565:11583   */\n      add\n        /* \"#utility.yul\":11557:11583   */\n      swap1\n      pop\n        /* \"#utility.yul\":11593:11664   */\n      tag_387\n        /* \"#utility.yul\":11661:11662   */\n      0x00\n        /* \"#utility.yul\":11650:11659   */\n      dup4\n        /* \"#utility.yul\":11646:11663   */\n      add\n        /* \"#utility.yul\":11637:11643   */\n      dup5\n        /* \"#utility.yul\":11593:11664   */\n      tag_370\n      jump\t// in\n    tag_387:\n        /* \"#utility.yul\":11449:11671   */\n      swap3\n      swap2\n      pop\n      pop\n      jump\t// out\n        /* \"#utility.yul\":11677:12009   */\n    tag_199:\n        /* \"#utility.yul\":11798:11802   */\n      0x00\n        /* \"#utility.yul\":11836:11838   */\n      0x40\n        /* \"#utility.yul\":11825:11834   */\n      dup3\n        /* \"#utility.yul\":11821:11839   */\n      add\n        /* \"#utility.yul\":11813:11839   */\n      swap1\n      pop\n        /* \"#utility.yul\":11849:11920   */\n      tag_389\n        /* \"#utility.yul\":11917:11918   */\n      0x00\n        /* \"#utility.yul\":11906:11915   */\n      dup4\n        /* \"#utility.yul\":11902:11919   */\n      add\n        /* \"#utility.yul\":11893:11899   */\n      dup6\n        /* \"#utility.yul\":11849:11920   */\n      tag_370\n      jump\t// in\n    tag_389:\n        /* \"#utility.yul\":11930:12002   */\n      tag_390\n        /* \"#utility.yul\":11998:12000   */\n      0x20\n        /* \"#utility.yul\":11987:11996   */\n      dup4\n        /* \"#utility.yul\":11983:12001   */\n      add\n        /* \"#utility.yul\":11974:11980   */\n      dup5\n        /* \"#utility.yul\":11930:12002   */\n      tag_370\n      jump\t// in\n    tag_390:\n        /* \"#utility.yul\":11677:12009   */\n      swap4\n      swap3\n      pop\n      pop\n      pop\n      jump\t// out\n        /* \"#utility.yul\":12015:12144   */\n    tag_243:\n        /* \"#utility.yul\":12049:12055   */\n      0x00\n        /* \"#utility.yul\":12076:12096   */\n      tag_392\n      tag_393\n      jump\t// in\n    tag_392:\n        /* \"#utility.yul\":12066:12096   */\n      swap1\n      pop\n        /* \"#utility.yul\":12105:12138   */\n      tag_394\n        /* \"#utility.yul\":12133:12137   */\n      dup3\n        /* \"#utility.yul\":12125:12131   */\n      dup3\n        /* \"#utility.yul\":12105:12138   */\n      tag_395\n      jump\t// in\n    tag_394:\n        /* \"#utility.yul\":12015:12144   */\n      swap2\n      swap1\n      pop\n      jump\t// out\n        /* \"#utility.yul\":12150:12225   */\n    tag_393:\n        /* \"#utility.yul\":12183:12189   */\n      0x00\n        /* \"#utility.yul\":12216:12218   */\n      0x40\n        /* \"#utility.yul\":12210:12219   */\n      mload\n        /* \"#utility.yul\":12200:12219   */\n      swap1\n      pop\n        /* \"#utility.yul\":12150:12225   */\n      swap1\n      jump\t// out\n        /* \"#utility.yul\":12231:12539   */\n    tag_242:\n        /* \"#utility.yul\":12293:12297   */\n      0x00\n        /* \"#utility.yul\":12383:12401   */\n      0xffffffffffffffff\n        /* \"#utility.yul\":12375:12381   */\n      dup3\n        /* \"#utility.yul\":12372:12402   */\n      gt\n        /* \"#utility.yul\":12369:12425   */\n      iszero\n      tag_398\n      jumpi\n        /* \"#utility.yul\":12405:12423   */\n      tag_399\n      tag_400\n      jump\t// in\n    tag_399:\n        /* \"#utility.yul\":12369:12425   */\n    tag_398:\n        /* \"#utility.yul\":12443:12472   */\n      tag_401\n        /* \"#utility.yul\":12465:12471   */\n      dup3\n        /* \"#utility.yul\":12443:12472   */\n      tag_342\n      jump\t// in\n    tag_401:\n        /* \"#utility.yul\":12435:12472   */\n      swap1\n      pop\n        /* \"#utility.yul\":12527:12531   */\n      0x20\n        /* \"#utility.yul\":12521:12525   */\n      dup2\n        /* \"#utility.yul\":12517:12532   */\n      add\n        /* \"#utility.yul\":12509:12532   */\n      swap1\n      pop\n        /* \"#utility.yul\":12231:12539   */\n      swap2\n      swap1\n      pop\n      jump\t// out\n        /* \"#utility.yul\":12545:12644   */\n    tag_336:\n        /* \"#utility.yul\":12597:12603   */\n      0x00\n        /* \"#utility.yul\":12631:12636   */\n      dup2\n        /* \"#utility.yul\":12625:12637   */\n      mload\n        /* \"#utility.yul\":12615:12637   */\n      swap1\n      pop\n        /* \"#utility.yul\":12545:12644   */\n      swap2\n      swap1\n      pop\n      jump\t// out\n        /* \"#utility.yul\":12650:12809   */\n    tag_338:\n        /* \"#utility.yul\":12724:12735   */\n      0x00\n        /* \"#utility.yul\":12758:12764   */\n      dup3\n        /* \"#utility.yul\":12753:12756   */\n      dup3\n        /* \"#utility.yul\":12746:12765   */\n      mstore\n        /* \"#utility.yul\":12798:12802   */\n      0x20\n        /* \"#utility.yul\":12793:12796   */\n      dup3\n        /* \"#utility.yul\":12789:12803   */\n      add\n        /* \"#utility.yul\":12774:12803   */\n      swap1\n      pop\n        /* \"#utility.yul\":12650:12809   */\n      swap3\n      swap2\n      pop\n      pop\n      jump\t// out\n        /* \"#utility.yul\":12815:12984   */\n    tag_347:\n        /* \"#utility.yul\":12899:12910   */\n      0x00\n        /* \"#utility.yul\":12933:12939   */\n      dup3\n        /* \"#utility.yul\":12928:12931   */\n      dup3\n        /* \"#utility.yul\":12921:12940   */\n      mstore\n        /* \"#utility.yul\":12973:12977   */\n      0x20\n        /* \"#utility.yul\":12968:12971   */\n      dup3\n        /* \"#utility.yul\":12964:12978   */\n      add\n        /* \"#utility.yul\":12949:12978   */\n      swap1\n      pop\n        /* \"#utility.yul\":12815:12984   */\n      swap3\n      swap2\n      pop\n      pop\n      jump\t// out\n        /* \"#utility.yul\":12990:13086   */\n    tag_328:\n        /* \"#utility.yul\":13027:13034   */\n      0x00\n        /* \"#utility.yul\":13056:13080   */\n      tag_406\n        /* \"#utility.yul\":13074:13079   */\n      dup3\n        /* \"#utility.yul\":13056:13080   */\n      tag_407\n      jump\t// in\n    tag_406:\n        /* \"#utility.yul\":13045:13080   */\n      swap1\n      pop\n        /* \"#utility.yul\":12990:13086   */\n      swap2\n      swap1\n      pop\n      jump\t// out\n        /* \"#utility.yul\":13092:13182   */\n    tag_332:\n        /* \"#utility.yul\":13126:13133   */\n      0x00\n        /* \"#utility.yul\":13169:13174   */\n      dup2\n        /* \"#utility.yul\":13162:13175   */\n      iszero\n        /* \"#utility.yul\":13155:13176   */\n      iszero\n        /* \"#utility.yul\":13144:13176   */\n      swap1\n      pop\n        /* \"#utility.yul\":13092:13182   */\n      swap2\n      swap1\n      pop\n      jump\t// out\n        /* \"#utility.yul\":13188:13314   */\n    tag_407:\n        /* \"#utility.yul\":13225:13232   */\n      0x00\n        /* \"#utility.yul\":13265:13307   */\n      0xffffffffffffffffffffffffffffffffffffffff\n        /* \"#utility.yul\":13258:13263   */\n      dup3\n        /* \"#utility.yul\":13254:13308   */\n      and\n        /* \"#utility.yul\":13243:13308   */\n      swap1\n      pop\n        /* \"#utility.yul\":13188:13314   */\n      swap2\n      swap1\n      pop\n      jump\t// out\n        /* \"#utility.yul\":13320:13397   */\n    tag_369:\n        /* \"#utility.yul\":13357:13364   */\n      0x00\n        /* \"#utility.yul\":13386:13391   */\n      dup2\n        /* \"#utility.yul\":13375:13391   */\n      swap1\n      pop\n        /* \"#utility.yul\":13320:13397   */\n      swap2\n      swap1\n      pop\n      jump\t// out\n        /* \"#utility.yul\":13403:13557   */\n    tag_248:\n        /* \"#utility.yul\":13487:13493   */\n      dup3\n        /* \"#utility.yul\":13482:13485   */\n      dup2\n        /* \"#utility.yul\":13477:13480   */\n      dup4\n        /* \"#utility.yul\":13464:13494   */\n      calldatacopy\n        /* \"#utility.yul\":13549:13550   */\n      0x00\n        /* \"#utility.yul\":13540:13546   */\n      dup4\n        /* \"#utility.yul\":13535:13538   */\n      dup4\n        /* \"#utility.yul\":13531:13547   */\n      add\n        /* \"#utility.yul\":13524:13551   */\n      mstore\n        /* \"#utility.yul\":13403:13557   */\n      pop\n      pop\n      pop\n      jump\t// out\n        /* \"#utility.yul\":13563:13870   */\n    tag_340:\n        /* \"#utility.yul\":13631:13632   */\n      0x00\n        /* \"#utility.yul\":13641:13754   */\n    tag_413:\n        /* \"#utility.yul\":13655:13661   */\n      dup4\n        /* \"#utility.yul\":13652:13653   */\n      dup2\n        /* \"#utility.yul\":13649:13662   */\n      lt\n        /* \"#utility.yul\":13641:13754   */\n      iszero\n      tag_415\n      jumpi\n        /* \"#utility.yul\":13740:13741   */\n      dup1\n        /* \"#utility.yul\":13735:13738   */\n      dup3\n        /* \"#utility.yul\":13731:13742   */\n      add\n        /* \"#utility.yul\":13725:13743   */\n      mload\n        /* \"#utility.yul\":13721:13722   */\n      dup2\n        /* \"#utility.yul\":13716:13719   */\n      dup5\n        /* \"#utility.yul\":13712:13723   */\n      add\n        /* \"#utility.yul\":13705:13744   */\n      mstore\n        /* \"#utility.yul\":13677:13679   */\n      0x20\n        /* \"#utility.yul\":13674:13675   */\n      dup2\n        /* \"#utility.yul\":13670:13680   */\n      add\n        /* \"#utility.yul\":13665:13680   */\n      swap1\n      pop\n        /* \"#utility.yul\":13641:13754   */\n      jump(tag_413)\n    tag_415:\n        /* \"#utility.yul\":13772:13778   */\n      dup4\n        /* \"#utility.yul\":13769:13770   */\n      dup2\n        /* \"#utility.yul\":13766:13779   */\n      gt\n        /* \"#utility.yul\":13763:13864   */\n      iszero\n      tag_416\n      jumpi\n        /* \"#utility.yul\":13852:13853   */\n      0x00\n        /* \"#utility.yul\":13843:13849   */\n      dup5\n        /* \"#utility.yul\":13838:13841   */\n      dup5\n        /* \"#utility.yul\":13834:13850   */\n      add\n        /* \"#utility.yul\":13827:13854   */\n      mstore\n        /* \"#utility.yul\":13763:13864   */\n    tag_416:\n        /* \"#utility.yul\":13612:13870   */\n      pop\n        /* \"#utility.yul\":13563:13870   */\n      pop\n      pop\n      pop\n      jump\t// out\n        /* \"#utility.yul\":13876:14196   */\n    tag_118:\n        /* \"#utility.yul\":13920:13926   */\n      0x00\n        /* \"#utility.yul\":13957:13958   */\n      0x02\n        /* \"#utility.yul\":13951:13955   */\n      dup3\n        /* \"#utility.yul\":13947:13959   */\n      div\n        /* \"#utility.yul\":13937:13959   */\n      swap1\n      pop\n        /* \"#utility.yul\":14004:14005   */\n      0x01\n        /* \"#utility.yul\":13998:14002   */\n      dup3\n        /* \"#utility.yul\":13994:14006   */\n      and\n        /* \"#utility.yul\":14025:14043   */\n      dup1\n        /* \"#utility.yul\":14015:14096   */\n      tag_418\n      jumpi\n        /* \"#utility.yul\":14081:14085   */\n      0x7f\n        /* \"#utility.yul\":14073:14079   */\n      dup3\n        /* \"#utility.yul\":14069:14086   */\n      and\n        /* \"#utility.yul\":14059:14086   */\n      swap2\n      pop\n        /* \"#utility.yul\":14015:14096   */\n    tag_418:\n        /* \"#utility.yul\":14143:14145   */\n      0x20\n        /* \"#utility.yul\":14135:14141   */\n      dup3\n        /* \"#utility.yul\":14132:14146   */\n      lt\n        /* \"#utility.yul\":14112:14130   */\n      dup2\n        /* \"#utility.yul\":14109:14147   */\n      eq\n        /* \"#utility.yul\":14106:14190   */\n      iszero\n      tag_419\n      jumpi\n        /* \"#utility.yul\":14162:14180   */\n      tag_420\n      tag_421\n      jump\t// in\n    tag_420:\n        /* \"#utility.yul\":14106:14190   */\n    tag_419:\n        /* \"#utility.yul\":13927:14196   */\n      pop\n        /* \"#utility.yul\":13876:14196   */\n      swap2\n      swap1\n      pop\n      jump\t// out\n        /* \"#utility.yul\":14202:14483   */\n    tag_395:\n        /* \"#utility.yul\":14285:14312   */\n      tag_423\n        /* \"#utility.yul\":14307:14311   */\n      dup3\n        /* \"#utility.yul\":14285:14312   */\n      tag_342\n      jump\t// in\n    tag_423:\n        /* \"#utility.yul\":14277:14283   */\n      dup2\n        /* \"#utility.yul\":14273:14313   */\n      add\n        /* \"#utility.yul\":14415:14421   */\n      dup2\n        /* \"#utility.yul\":14403:14413   */\n      dup2\n        /* \"#utility.yul\":14400:14422   */\n      lt\n        /* \"#utility.yul\":14379:14397   */\n      0xffffffffffffffff\n        /* \"#utility.yul\":14367:14377   */\n      dup3\n        /* \"#utility.yul\":14364:14398   */\n      gt\n        /* \"#utility.yul\":14361:14423   */\n      or\n        /* \"#utility.yul\":14358:14446   */\n      iszero\n      tag_424\n      jumpi\n        /* \"#utility.yul\":14426:14444   */\n      tag_425\n      tag_400\n      jump\t// in\n    tag_425:\n        /* \"#utility.yul\":14358:14446   */\n    tag_424:\n        /* \"#utility.yul\":14466:14476   */\n      dup1\n        /* \"#utility.yul\":14462:14464   */\n      0x40\n        /* \"#utility.yul\":14455:14477   */\n      mstore\n        /* \"#utility.yul\":14245:14483   */\n      pop\n        /* \"#utility.yul\":14202:14483   */\n      pop\n      pop\n      jump\t// out\n        /* \"#utility.yul\":14489:14669   */\n    tag_421:\n        /* \"#utility.yul\":14537:14614   */\n      0x4e487b7100000000000000000000000000000000000000000000000000000000\n        /* \"#utility.yul\":14534:14535   */\n      0x00\n        /* \"#utility.yul\":14527:14615   */\n      mstore\n        /* \"#utility.yul\":14634:14638   */\n      0x22\n        /* \"#utility.yul\":14631:14632   */\n      0x04\n        /* \"#utility.yul\":14624:14639   */\n      mstore\n        /* \"#utility.yul\":14658:14662   */\n      0x24\n        /* \"#utility.yul\":14655:14656   */\n      0x00\n        /* \"#utility.yul\":14648:14663   */\n      revert\n        /* \"#utility.yul\":14675:14855   */\n    tag_400:\n        /* \"#utility.yul\":14723:14800   */\n      0x4e487b7100000000000000000000000000000000000000000000000000000000\n        /* \"#utility.yul\":14720:14721   */\n      0x00\n        /* \"#utility.yul\":14713:14801   */\n      mstore\n        /* \"#utility.yul\":14820:14824   */\n      0x41\n        /* \"#utility.yul\":14817:14818   */\n      0x04\n        /* \"#utility.yul\":14810:14825   */\n      mstore\n        /* \"#utility.yul\":14844:14848   */\n      0x24\n        /* \"#utility.yul\":14841:14842   */\n      0x00\n        /* \"#utility.yul\":14834:14849   */\n      revert\n        /* \"#utility.yul\":14861:14978   */\n    tag_261:\n        /* \"#utility.yul\":14970:14971   */\n      0x00\n        /* \"#utility.yul\":14967:14968   */\n      dup1\n        /* \"#utility.yul\":14960:14972   */\n      revert\n        /* \"#utility.yul\":14984:15101   */\n    tag_246:\n        /* \"#utility.yul\":15093:15094   */\n      0x00\n        /* \"#utility.yul\":15090:15091   */\n      dup1\n        /* \"#utility.yul\":15083:15095   */\n      revert\n        /* \"#utility.yul\":15107:15224   */\n    tag_280:\n        /* \"#utility.yul\":15216:15217   */\n      0x00\n        /* \"#utility.yul\":15213:15214   */\n      dup1\n        /* \"#utility.yul\":15206:15218   */\n      revert\n        /* \"#utility.yul\":15230:15347   */\n    tag_273:\n        /* \"#utility.yul\":15339:15340   */\n      0x00\n        /* \"#utility.yul\":15336:15337   */\n      dup1\n        /* \"#utility.yul\":15329:15341   */\n      revert\n        /* \"#utility.yul\":15353:15455   */\n    tag_342:\n        /* \"#utility.yul\":15394:15400   */\n      0x00\n        /* \"#utility.yul\":15445:15447   */\n      0x1f\n        /* \"#utility.yul\":15441:15448   */\n      not\n        /* \"#utility.yul\":15436:15438   */\n      0x1f\n        /* \"#utility.yul\":15429:15434   */\n      dup4\n        /* \"#utility.yul\":15425:15439   */\n      add\n        /* \"#utility.yul\":15421:15449   */\n      and\n        /* \"#utility.yul\":15411:15449   */\n      swap1\n      pop\n        /* \"#utility.yul\":15353:15455   */\n      swap2\n      swap1\n      pop\n      jump\t// out\n        /* \"#utility.yul\":15461:15686   */\n    tag_354:\n        /* \"#utility.yul\":15601:15635   */\n      0x4f776e61626c653a206e6577206f776e657220697320746865207a65726f2061\n        /* \"#utility.yul\":15597:15598   */\n      0x00\n        /* \"#utility.yul\":15589:15595   */\n      dup3\n        /* \"#utility.yul\":15585:15599   */\n      add\n        /* \"#utility.yul\":15578:15636   */\n      mstore\n        /* \"#utility.yul\":15670:15678   */\n      0x6464726573730000000000000000000000000000000000000000000000000000\n        /* \"#utility.yul\":15665:15667   */\n      0x20\n        /* \"#utility.yul\":15657:15663   */\n      dup3\n        /* \"#utility.yul\":15653:15668   */\n      add\n        /* \"#utility.yul\":15646:15679   */\n      mstore\n        /* \"#utility.yul\":15461:15686   */\n      pop\n      jump\t// out\n        /* \"#utility.yul\":15692:15874   */\n    tag_359:\n        /* \"#utility.yul\":15832:15866   */\n      0x4f776e61626c653a2063616c6c6572206973206e6f7420746865206f776e6572\n        /* \"#utility.yul\":15828:15829   */\n      0x00\n        /* \"#utility.yul\":15820:15826   */\n      dup3\n        /* \"#utility.yul\":15816:15830   */\n      add\n        /* \"#utility.yul\":15809:15867   */\n      mstore\n        /* \"#utility.yul\":15692:15874   */\n      pop\n      jump\t// out\n        /* \"#utility.yul\":15880:16002   */\n    tag_252:\n        /* \"#utility.yul\":15953:15977   */\n      tag_436\n        /* \"#utility.yul\":15971:15976   */\n      dup2\n        /* \"#utility.yul\":15953:15977   */\n      tag_328\n      jump\t// in\n    tag_436:\n        /* \"#utility.yul\":15946:15951   */\n      dup2\n        /* \"#utility.yul\":15943:15978   */\n      eq\n        /* \"#utility.yul\":15933:15996   */\n      tag_437\n      jumpi\n        /* \"#utility.yul\":15992:15993   */\n      0x00\n        /* \"#utility.yul\":15989:15990   */\n      dup1\n        /* \"#utility.yul\":15982:15994   */\n      revert\n        /* \"#utility.yul\":15933:15996   */\n    tag_437:\n        /* \"#utility.yul\":15880:16002   */\n      pop\n      jump\t// out\n        /* \"#utility.yul\":16008:16124   */\n    tag_256:\n        /* \"#utility.yul\":16078:16099   */\n      tag_439\n        /* \"#utility.yul\":16093:16098   */\n      dup2\n        /* \"#utility.yul\":16078:16099   */\n      tag_332\n      jump\t// in\n    tag_439:\n        /* \"#utility.yul\":16071:16076   */\n      dup2\n        /* \"#utility.yul\":16068:16100   */\n      eq\n        /* \"#utility.yul\":16058:16118   */\n      tag_440\n      jumpi\n        /* \"#utility.yul\":16114:16115   */\n      0x00\n        /* \"#utility.yul\":16111:16112   */\n      dup1\n        /* \"#utility.yul\":16104:16116   */\n      revert\n        /* \"#utility.yul\":16058:16118   */\n    tag_440:\n        /* \"#utility.yul\":16008:16124   */\n      pop\n      jump\t// out\n        /* \"#utility.yul\":16130:16252   */\n    tag_266:\n        /* \"#utility.yul\":16203:16227   */\n      tag_442\n        /* \"#utility.yul\":16221:16226   */\n      dup2\n        /* \"#utility.yul\":16203:16227   */\n      tag_369\n      jump\t// in\n    tag_442:\n        /* \"#utility.yul\":16196:16201   */\n      dup2\n        /* \"#utility.yul\":16193:16228   */\n      eq\n        /* \"#utility.yul\":16183:16246   */\n      tag_443\n      jumpi\n        /* \"#utility.yul\":16242:16243   */\n      0x00\n        /* \"#utility.yul\":16239:16240   */\n      dup1\n        /* \"#utility.yul\":16232:16244   */\n      revert\n        /* \"#utility.yul\":16183:16246   */\n    tag_443:\n        /* \"#utility.yul\":16130:16252   */\n      pop\n      jump\t// out\n\n    auxdata: 0xa2646970667358221220024aee72e7603ec5991f511c4f0a1722c0f6c6c6cbf7e5617ea92d21441e8e9c64736f6c63430008070033\n}\n",
				"bytecode": {
					"linkReferences": {},
					"object": "608060405234801561001057600080fd5b5061002d61002261003260201b60201c565b61003a60201b60201c565b6100fe565b600033905090565b60008060009054906101000a900473ffffffffffffffffffffffffffffffffffffffff169050816000806101000a81548173ffffffffffffffffffffffffffffffffffffffff021916908373ffffffffffffffffffffffffffffffffffffffff1602179055508173ffffffffffffffffffffffffffffffffffffffff168173ffffffffffffffffffffffffffffffffffffffff167f8be0079c531659141344cd1fd0a4f28419497f9722a3daafe3b4186f6b6457e060405160405180910390a35050565b611d6e8061010d6000396000f3fe6080604052600436106100f75760003560e01c8063ad5750351161008a578063d6f70eb311610059578063d6f70eb314610346578063f2fde38b1461036f578063fa0e9e4114610398578063fbc2cf13146103c157610101565b8063ad5750351461027a578063b2b72bc4146102b7578063bafdee14146102f4578063d1933ddd1461031d57610101565b8063715018a6116100c6578063715018a6146101d2578063717b9b6c146101e95780638da5cb5b14610212578063917b8fd01461023d57610101565b80630e197dc9146101065780633960a892146101435780634b3cef441461016c578063622a47e6146101a957610101565b3661010157600080fd5b600080fd5b34801561011257600080fd5b5061012d60048036038101906101289190611744565b6103ea565b60405161013a91906119c7565b60405180910390f35b34801561014f57600080fd5b5061016a6004803603810190610165919061179e565b610414565b005b34801561017857600080fd5b50610193600480360381019061018e9190611744565b61052d565b6040516101a0919061197c565b60405180910390f35b3480156101b557600080fd5b506101d060048036038101906101cb919061179e565b61056f565b005b3480156101de57600080fd5b506101e76107e1565b005b3480156101f557600080fd5b50610210600480360381019061020b91906117de565b610869565b005b34801561021e57600080fd5b50610227610914565b604051610234919061197c565b60405180910390f35b34801561024957600080fd5b50610264600480360381019061025f9190611744565b61093d565b6040516102719190611a22565b60405180910390f35b34801561028657600080fd5b506102a1600480360381019061029c9190611578565b610b0d565b6040516102ae9190611a22565b60405180910390f35b3480156102c357600080fd5b506102de60048036038101906102d99190611578565b610ca4565b6040516102eb9190611a44565b60405180910390f35b34801561030057600080fd5b5061031b6004803603810190610316919061165d565b610e38565b005b34801561032957600080fd5b50610344600480360381019061033f91906115ee565b610ebc565b005b34801561035257600080fd5b5061036d600480360381019061036891906115a5565b61109b565b005b34801561037b57600080fd5b5061039660048036038101906103919190611578565b6110fb565b005b3480156103a457600080fd5b506103bf60048036038101906103ba91906116e8565b6111f3565b005b3480156103cd57600080fd5b506103e860048036038101906103e39190611578565b61125d565b005b60006004600083815260200190815260200160002060009054906101000a900460ff169050919050565b61041c61131d565b73ffffffffffffffffffffffffffffffffffffffff1661043a610914565b73ffffffffffffffffffffffffffffffffffffffff1614610490576040517f08c379a000000000000000000000000000000000000000000000000000000000815260040161048790611a02565b60405180910390fd5b806002600084815260200190815260200160002060006101000a81548173ffffffffffffffffffffffffffffffffffffffff021916908373ffffffffffffffffffffffffffffffffffffffff16021790555081600360008373ffffffffffffffffffffffffffffffffffffffff1673ffffffffffffffffffffffffffffffffffffffff168152602001908152602001600020600001819055505050565b6000806002600084815260200190815260200160002060009054906101000a900473ffffffffffffffffffffffffffffffffffffffff16905080915050919050565b6000600360003373ffffffffffffffffffffffffffffffffffffffff1673ffffffffffffffffffffffffffffffffffffffff168152602001908152602001600020604051806080016040529081600082015481526020016001820180546105d590611b95565b80601f016020809104026020016040519081016040528092919081815260200182805461060190611b95565b801561064e5780601f106106235761010080835404028352916020019161064e565b820191906000526020600020905b81548152906001019060200180831161063157829003601f168201915b5050505050815260200160028201805461066790611b95565b80601f016020809104026020016040519081016040528092919081815260200182805461069390611b95565b80156106e05780601f106106b5576101008083540402835291602001916106e0565b820191906000526020600020905b8154815290600101906020018083116106c357829003601f168201915b50505050508152602001600382015481525050905080600360008473ffffffffffffffffffffffffffffffffffffffff1673ffffffffffffffffffffffffffffffffffffffff16815260200190815260200160002060008201518160000155602082015181600101908051906020019061075b9291906113e9565b5060408201518160020190805190602001906107789291906113e9565b506060820151816003015590505081600260008360000151815260200190815260200160002060006101000a81548173ffffffffffffffffffffffffffffffffffffffff021916908373ffffffffffffffffffffffffffffffffffffffff160217905550505050565b6107e961131d565b73ffffffffffffffffffffffffffffffffffffffff16610807610914565b73ffffffffffffffffffffffffffffffffffffffff161461085d576040517f08c379a000000000000000000000000000000000000000000000000000000000815260040161085490611a02565b60405180910390fd5b6108676000611325565b565b61087161131d565b73ffffffffffffffffffffffffffffffffffffffff1661088f610914565b73ffffffffffffffffffffffffffffffffffffffff16146108e5576040517f08c379a00000000000000000000000000000000000000000000000000000000081526004016108dc90611a02565b60405180910390fd5b806004600084815260200190815260200160002060006101000a81548160ff0219169083151502179055505050565b60008060009054906101000a900473ffffffffffffffffffffffffffffffffffffffff16905090565b61094561146f565b60006002600084815260200190815260200160002060009054906101000a900473ffffffffffffffffffffffffffffffffffffffff1690506000600360008373ffffffffffffffffffffffffffffffffffffffff1673ffffffffffffffffffffffffffffffffffffffff168152602001908152602001600020604051806080016040529081600082015481526020016001820180546109e390611b95565b80601f0160208091040260200160405190810160405280929190818152602001828054610a0f90611b95565b8015610a5c5780601f10610a3157610100808354040283529160200191610a5c565b820191906000526020600020905b815481529060010190602001808311610a3f57829003601f168201915b50505050508152602001600282018054610a7590611b95565b80601f0160208091040260200160405190810160405280929190818152602001828054610aa190611b95565b8015610aee5780601f10610ac357610100808354040283529160200191610aee565b820191906000526020600020905b815481529060010190602001808311610ad157829003601f168201915b5050505050815260200160038201548152505090508092505050919050565b610b1561146f565b6000600360008473ffffffffffffffffffffffffffffffffffffffff1673ffffffffffffffffffffffffffffffffffffffff16815260200190815260200160002060405180608001604052908160008201548152602001600182018054610b7b90611b95565b80601f0160208091040260200160405190810160405280929190818152602001828054610ba790611b95565b8015610bf45780601f10610bc957610100808354040283529160200191610bf4565b820191906000526020600020905b815481529060010190602001808311610bd757829003601f168201915b50505050508152602001600282018054610c0d90611b95565b80601f0160208091040260200160405190810160405280929190818152602001828054610c3990611b95565b8015610c865780601f10610c5b57610100808354040283529160200191610c86565b820191906000526020600020905b815481529060010190602001808311610c6957829003601f168201915b50505050508152602001600382015481525050905080915050919050565b600080600360008473ffffffffffffffffffffffffffffffffffffffff1673ffffffffffffffffffffffffffffffffffffffff16815260200190815260200160002060405180608001604052908160008201548152602001600182018054610d0b90611b95565b80601f0160208091040260200160405190810160405280929190818152602001828054610d3790611b95565b8015610d845780601f10610d5957610100808354040283529160200191610d84565b820191906000526020600020905b815481529060010190602001808311610d6757829003601f168201915b50505050508152602001600282018054610d9d90611b95565b80601f0160208091040260200160405190810160405280929190818152602001828054610dc990611b95565b8015610e165780601f10610deb57610100808354040283529160200191610e16565b820191906000526020600020905b815481529060010190602001808311610df957829003601f168201915b5050505050815260200160038201548152505090508060000151915050919050565b6000600360003373ffffffffffffffffffffffffffffffffffffffff1673ffffffffffffffffffffffffffffffffffffffff168152602001908152602001600020905083816001019080519060200190610e939291906113e9565b5082816002019080519060200190610eac9291906113e9565b5081816003018190555050505050565b610ec461131d565b73ffffffffffffffffffffffffffffffffffffffff16610ee2610914565b73ffffffffffffffffffffffffffffffffffffffff1614610f38576040517f08c379a0000000000000000000000000000000000000000000000000000000008152600401610f2f90611a02565b60405180910390fd5b60003090506000600160009054906101000a900473ffffffffffffffffffffffffffffffffffffffff1673ffffffffffffffffffffffffffffffffffffffff1663cf37834383876040518363ffffffff1660e01b8152600401610f9c929190611997565b602060405180830381600087803b158015610fb657600080fd5b505af1158015610fca573d6000803e3d6000fd5b505050506040513d601f19601f82011682018060405250810190610fee9190611771565b9050600160009054906101000a900473ffffffffffffffffffffffffffffffffffffffff1673ffffffffffffffffffffffffffffffffffffffff1663e1b2e97982856040518363ffffffff1660e01b815260040161104d929190611a5f565b600060405180830381600087803b15801561106757600080fd5b505af115801561107b573d6000803e3d6000fd5b5050505061108a816001610869565b6110948185610414565b5050505050565b6000600360003373ffffffffffffffffffffffffffffffffffffffff1673ffffffffffffffffffffffffffffffffffffffff1681526020019081526020016000209050818160010190805190602001906110f69291906113e9565b505050565b61110361131d565b73ffffffffffffffffffffffffffffffffffffffff16611121610914565b73ffffffffffffffffffffffffffffffffffffffff1614611177576040517f08c379a000000000000000000000000000000000000000000000000000000000815260040161116e90611a02565b60405180910390fd5b600073ffffffffffffffffffffffffffffffffffffffff168173ffffffffffffffffffffffffffffffffffffffff1614156111e7576040517f08c379a00000000000000000000000000000000000000000000000000000000081526004016111de906119e2565b60405180910390fd5b6111f081611325565b50565b6000600360003373ffffffffffffffffffffffffffffffffffffffff1673ffffffffffffffffffffffffffffffffffffffff16815260200190815260200160002090508281600201908051906020019061124e9291906113e9565b50818160030181905550505050565b61126561131d565b73ffffffffffffffffffffffffffffffffffffffff16611283610914565b73ffffffffffffffffffffffffffffffffffffffff16146112d9576040517f08c379a00000000000000000000000000000000000000000000000000000000081526004016112d090611a02565b60405180910390fd5b80600160006101000a81548173ffffffffffffffffffffffffffffffffffffffff021916908373ffffffffffffffffffffffffffffffffffffffff16021790555050565b600033905090565b60008060009054906101000a900473ffffffffffffffffffffffffffffffffffffffff169050816000806101000a81548173ffffffffffffffffffffffffffffffffffffffff021916908373ffffffffffffffffffffffffffffffffffffffff1602179055508173ffffffffffffffffffffffffffffffffffffffff168173ffffffffffffffffffffffffffffffffffffffff167f8be0079c531659141344cd1fd0a4f28419497f9722a3daafe3b4186f6b6457e060405160405180910390a35050565b8280546113f590611b95565b90600052602060002090601f016020900481019282611417576000855561145e565b82601f1061143057805160ff191683800117855561145e565b8280016001018555821561145e579182015b8281111561145d578251825591602001919060010190611442565b5b50905061146b9190611497565b5090565b6040518060800160405280600081526020016060815260200160608152602001600081525090565b5b808211156114b0576000816000905550600101611498565b5090565b60006114c76114c284611aad565b611a88565b9050828152602081018484840111156114e3576114e2611c5b565b5b6114ee848285611b53565b509392505050565b60008135905061150581611cf3565b92915050565b60008135905061151a81611d0a565b92915050565b600082601f83011261153557611534611c56565b5b81356115458482602086016114b4565b91505092915050565b60008135905061155d81611d21565b92915050565b60008151905061157281611d21565b92915050565b60006020828403121561158e5761158d611c65565b5b600061159c848285016114f6565b91505092915050565b6000602082840312156115bb576115ba611c65565b5b600082013567ffffffffffffffff8111156115d9576115d8611c60565b5b6115e584828501611520565b91505092915050565b60008060006060848603121561160757611606611c65565b5b600084013567ffffffffffffffff81111561162557611624611c60565b5b61163186828701611520565b9350506020611642868287016114f6565b92505060406116538682870161154e565b9150509250925092565b60008060006060848603121561167657611675611c65565b5b600084013567ffffffffffffffff81111561169457611693611c60565b5b6116a086828701611520565b935050602084013567ffffffffffffffff8111156116c1576116c0611c60565b5b6116cd86828701611520565b92505060406116de8682870161154e565b9150509250925092565b600080604083850312156116ff576116fe611c65565b5b600083013567ffffffffffffffff81111561171d5761171c611c60565b5b61172985828601611520565b925050602061173a8582860161154e565b9150509250929050565b60006020828403121561175a57611759611c65565b5b60006117688482850161154e565b91505092915050565b60006020828403121561178757611786611c65565b5b600061179584828501611563565b91505092915050565b600080604083850312156117b5576117b4611c65565b5b60006117c38582860161154e565b92505060206117d4858286016114f6565b9150509250929050565b600080604083850312156117f5576117f4611c65565b5b60006118038582860161154e565b92505060206118148582860161150b565b9150509250929050565b61182781611b0b565b82525050565b61183681611b1d565b82525050565b600061184782611ade565b6118518185611ae9565b9350611861818560208601611b62565b61186a81611c6a565b840191505092915050565b600061188082611ade565b61188a8185611afa565b935061189a818560208601611b62565b6118a381611c6a565b840191505092915050565b60006118bb602683611afa565b91506118c682611c7b565b604082019050919050565b60006118de602083611afa565b91506118e982611cca565b602082019050919050565b600060808301600083015161190c600086018261195e565b5060208301518482036020860152611924828261183c565b9150506040830151848203604086015261193e828261183c565b9150506060830151611953606086018261195e565b508091505092915050565b61196781611b49565b82525050565b61197681611b49565b82525050565b6000602082019050611991600083018461181e565b92915050565b60006040820190506119ac600083018561181e565b81810360208301526119be8184611875565b90509392505050565b60006020820190506119dc600083018461182d565b92915050565b600060208201905081810360008301526119fb816118ae565b9050919050565b60006020820190508181036000830152611a1b816118d1565b9050919050565b60006020820190508181036000830152611a3c81846118f4565b905092915050565b6000602082019050611a59600083018461196d565b92915050565b6000604082019050611a74600083018561196d565b611a81602083018461196d565b9392505050565b6000611a92611aa3565b9050611a9e8282611bc7565b919050565b6000604051905090565b600067ffffffffffffffff821115611ac857611ac7611c27565b5b611ad182611c6a565b9050602081019050919050565b600081519050919050565b600082825260208201905092915050565b600082825260208201905092915050565b6000611b1682611b29565b9050919050565b60008115159050919050565b600073ffffffffffffffffffffffffffffffffffffffff82169050919050565b6000819050919050565b82818337600083830152505050565b60005b83811015611b80578082015181840152602081019050611b65565b83811115611b8f576000848401525b50505050565b60006002820490506001821680611bad57607f821691505b60208210811415611bc157611bc0611bf8565b5b50919050565b611bd082611c6a565b810181811067ffffffffffffffff82111715611bef57611bee611c27565b5b80604052505050565b7f4e487b7100000000000000000000000000000000000000000000000000000000600052602260045260246000fd5b7f4e487b7100000000000000000000000000000000000000000000000000000000600052604160045260246000fd5b600080fd5b600080fd5b600080fd5b600080fd5b6000601f19601f8301169050919050565b7f4f776e61626c653a206e6577206f776e657220697320746865207a65726f206160008201527f6464726573730000000000000000000000000000000000000000000000000000602082015250565b7f4f776e61626c653a2063616c6c6572206973206e6f7420746865206f776e6572600082015250565b611cfc81611b0b565b8114611d0757600080fd5b50565b611d1381611b1d565b8114611d1e57600080fd5b50565b611d2a81611b49565b8114611d3557600080fd5b5056fea2646970667358221220024aee72e7603ec5991f511c4f0a1722c0f6c6c6cbf7e5617ea92d21441e8e9c64736f6c63430008070033",
					"opcodes": "PUSH1 0x80 PUSH1 0x40 MSTORE CALLVALUE DUP1 ISZERO PUSH2 0x10 JUMPI PUSH1 0x0 DUP1 REVERT JUMPDEST POP PUSH2 0x2D PUSH2 0x22 PUSH2 0x32 PUSH1 0x20 SHL PUSH1 0x20 SHR JUMP JUMPDEST PUSH2 0x3A PUSH1 0x20 SHL PUSH1 0x20 SHR JUMP JUMPDEST PUSH2 0xFE JUMP JUMPDEST PUSH1 0x0 CALLER SWAP1 POP SWAP1 JUMP JUMPDEST PUSH1 0x0 DUP1 PUSH1 0x0 SWAP1 SLOAD SWAP1 PUSH2 0x100 EXP SWAP1 DIV PUSH20 0xFFFFFFFFFFFFFFFFFFFFFFFFFFFFFFFFFFFFFFFF AND SWAP1 POP DUP2 PUSH1 0x0 DUP1 PUSH2 0x100 EXP DUP2 SLOAD DUP2 PUSH20 0xFFFFFFFFFFFFFFFFFFFFFFFFFFFFFFFFFFFFFFFF MUL NOT AND SWAP1 DUP4 PUSH20 0xFFFFFFFFFFFFFFFFFFFFFFFFFFFFFFFFFFFFFFFF AND MUL OR SWAP1 SSTORE POP DUP2 PUSH20 0xFFFFFFFFFFFFFFFFFFFFFFFFFFFFFFFFFFFFFFFF AND DUP2 PUSH20 0xFFFFFFFFFFFFFFFFFFFFFFFFFFFFFFFFFFFFFFFF AND PUSH32 0x8BE0079C531659141344CD1FD0A4F28419497F9722A3DAAFE3B4186F6B6457E0 PUSH1 0x40 MLOAD PUSH1 0x40 MLOAD DUP1 SWAP2 SUB SWAP1 LOG3 POP POP JUMP JUMPDEST PUSH2 0x1D6E DUP1 PUSH2 0x10D PUSH1 0x0 CODECOPY PUSH1 0x0 RETURN INVALID PUSH1 0x80 PUSH1 0x40 MSTORE PUSH1 0x4 CALLDATASIZE LT PUSH2 0xF7 JUMPI PUSH1 0x0 CALLDATALOAD PUSH1 0xE0 SHR DUP1 PUSH4 0xAD575035 GT PUSH2 0x8A JUMPI DUP1 PUSH4 0xD6F70EB3 GT PUSH2 0x59 JUMPI DUP1 PUSH4 0xD6F70EB3 EQ PUSH2 0x346 JUMPI DUP1 PUSH4 0xF2FDE38B EQ PUSH2 0x36F JUMPI DUP1 PUSH4 0xFA0E9E41 EQ PUSH2 0x398 JUMPI DUP1 PUSH4 0xFBC2CF13 EQ PUSH2 0x3C1 JUMPI PUSH2 0x101 JUMP JUMPDEST DUP1 PUSH4 0xAD575035 EQ PUSH2 0x27A JUMPI DUP1 PUSH4 0xB2B72BC4 EQ PUSH2 0x2B7 JUMPI DUP1 PUSH4 0xBAFDEE14 EQ PUSH2 0x2F4 JUMPI DUP1 PUSH4 0xD1933DDD EQ PUSH2 0x31D JUMPI PUSH2 0x101 JUMP JUMPDEST DUP1 PUSH4 0x715018A6 GT PUSH2 0xC6 JUMPI DUP1 PUSH4 0x715018A6 EQ PUSH2 0x1D2 JUMPI DUP1 PUSH4 0x717B9B6C EQ PUSH2 0x1E9 JUMPI DUP1 PUSH4 0x8DA5CB5B EQ PUSH2 0x212 JUMPI DUP1 PUSH4 0x917B8FD0 EQ PUSH2 0x23D JUMPI PUSH2 0x101 JUMP JUMPDEST DUP1 PUSH4 0xE197DC9 EQ PUSH2 0x106 JUMPI DUP1 PUSH4 0x3960A892 EQ PUSH2 0x143 JUMPI DUP1 PUSH4 0x4B3CEF44 EQ PUSH2 0x16C JUMPI DUP1 PUSH4 0x622A47E6 EQ PUSH2 0x1A9 JUMPI PUSH2 0x101 JUMP JUMPDEST CALLDATASIZE PUSH2 0x101 JUMPI PUSH1 0x0 DUP1 REVERT JUMPDEST PUSH1 0x0 DUP1 REVERT JUMPDEST CALLVALUE DUP1 ISZERO PUSH2 0x112 JUMPI PUSH1 0x0 DUP1 REVERT JUMPDEST POP PUSH2 0x12D PUSH1 0x4 DUP1 CALLDATASIZE SUB DUP2 ADD SWAP1 PUSH2 0x128 SWAP2 SWAP1 PUSH2 0x1744 JUMP JUMPDEST PUSH2 0x3EA JUMP JUMPDEST PUSH1 0x40 MLOAD PUSH2 0x13A SWAP2 SWAP1 PUSH2 0x19C7 JUMP JUMPDEST PUSH1 0x40 MLOAD DUP1 SWAP2 SUB SWAP1 RETURN JUMPDEST CALLVALUE DUP1 ISZERO PUSH2 0x14F JUMPI PUSH1 0x0 DUP1 REVERT JUMPDEST POP PUSH2 0x16A PUSH1 0x4 DUP1 CALLDATASIZE SUB DUP2 ADD SWAP1 PUSH2 0x165 SWAP2 SWAP1 PUSH2 0x179E JUMP JUMPDEST PUSH2 0x414 JUMP JUMPDEST STOP JUMPDEST CALLVALUE DUP1 ISZERO PUSH2 0x178 JUMPI PUSH1 0x0 DUP1 REVERT JUMPDEST POP PUSH2 0x193 PUSH1 0x4 DUP1 CALLDATASIZE SUB DUP2 ADD SWAP1 PUSH2 0x18E SWAP2 SWAP1 PUSH2 0x1744 JUMP JUMPDEST PUSH2 0x52D JUMP JUMPDEST PUSH1 0x40 MLOAD PUSH2 0x1A0 SWAP2 SWAP1 PUSH2 0x197C JUMP JUMPDEST PUSH1 0x40 MLOAD DUP1 SWAP2 SUB SWAP1 RETURN JUMPDEST CALLVALUE DUP1 ISZERO PUSH2 0x1B5 JUMPI PUSH1 0x0 DUP1 REVERT JUMPDEST POP PUSH2 0x1D0 PUSH1 0x4 DUP1 CALLDATASIZE SUB DUP2 ADD SWAP1 PUSH2 0x1CB SWAP2 SWAP1 PUSH2 0x179E JUMP JUMPDEST PUSH2 0x56F JUMP JUMPDEST STOP JUMPDEST CALLVALUE DUP1 ISZERO PUSH2 0x1DE JUMPI PUSH1 0x0 DUP1 REVERT JUMPDEST POP PUSH2 0x1E7 PUSH2 0x7E1 JUMP JUMPDEST STOP JUMPDEST CALLVALUE DUP1 ISZERO PUSH2 0x1F5 JUMPI PUSH1 0x0 DUP1 REVERT JUMPDEST POP PUSH2 0x210 PUSH1 0x4 DUP1 CALLDATASIZE SUB DUP2 ADD SWAP1 PUSH2 0x20B SWAP2 SWAP1 PUSH2 0x17DE JUMP JUMPDEST PUSH2 0x869 JUMP JUMPDEST STOP JUMPDEST CALLVALUE DUP1 ISZERO PUSH2 0x21E JUMPI PUSH1 0x0 DUP1 REVERT JUMPDEST POP PUSH2 0x227 PUSH2 0x914 JUMP JUMPDEST PUSH1 0x40 MLOAD PUSH2 0x234 SWAP2 SWAP1 PUSH2 0x197C JUMP JUMPDEST PUSH1 0x40 MLOAD DUP1 SWAP2 SUB SWAP1 RETURN JUMPDEST CALLVALUE DUP1 ISZERO PUSH2 0x249 JUMPI PUSH1 0x0 DUP1 REVERT JUMPDEST POP PUSH2 0x264 PUSH1 0x4 DUP1 CALLDATASIZE SUB DUP2 ADD SWAP1 PUSH2 0x25F SWAP2 SWAP1 PUSH2 0x1744 JUMP JUMPDEST PUSH2 0x93D JUMP JUMPDEST PUSH1 0x40 MLOAD PUSH2 0x271 SWAP2 SWAP1 PUSH2 0x1A22 JUMP JUMPDEST PUSH1 0x40 MLOAD DUP1 SWAP2 SUB SWAP1 RETURN JUMPDEST CALLVALUE DUP1 ISZERO PUSH2 0x286 JUMPI PUSH1 0x0 DUP1 REVERT JUMPDEST POP PUSH2 0x2A1 PUSH1 0x4 DUP1 CALLDATASIZE SUB DUP2 ADD SWAP1 PUSH2 0x29C SWAP2 SWAP1 PUSH2 0x1578 JUMP JUMPDEST PUSH2 0xB0D JUMP JUMPDEST PUSH1 0x40 MLOAD PUSH2 0x2AE SWAP2 SWAP1 PUSH2 0x1A22 JUMP JUMPDEST PUSH1 0x40 MLOAD DUP1 SWAP2 SUB SWAP1 RETURN JUMPDEST CALLVALUE DUP1 ISZERO PUSH2 0x2C3 JUMPI PUSH1 0x0 DUP1 REVERT JUMPDEST POP PUSH2 0x2DE PUSH1 0x4 DUP1 CALLDATASIZE SUB DUP2 ADD SWAP1 PUSH2 0x2D9 SWAP2 SWAP1 PUSH2 0x1578 JUMP JUMPDEST PUSH2 0xCA4 JUMP JUMPDEST PUSH1 0x40 MLOAD PUSH2 0x2EB SWAP2 SWAP1 PUSH2 0x1A44 JUMP JUMPDEST PUSH1 0x40 MLOAD DUP1 SWAP2 SUB SWAP1 RETURN JUMPDEST CALLVALUE DUP1 ISZERO PUSH2 0x300 JUMPI PUSH1 0x0 DUP1 REVERT JUMPDEST POP PUSH2 0x31B PUSH1 0x4 DUP1 CALLDATASIZE SUB DUP2 ADD SWAP1 PUSH2 0x316 SWAP2 SWAP1 PUSH2 0x165D JUMP JUMPDEST PUSH2 0xE38 JUMP JUMPDEST STOP JUMPDEST CALLVALUE DUP1 ISZERO PUSH2 0x329 JUMPI PUSH1 0x0 DUP1 REVERT JUMPDEST POP PUSH2 0x344 PUSH1 0x4 DUP1 CALLDATASIZE SUB DUP2 ADD SWAP1 PUSH2 0x33F SWAP2 SWAP1 PUSH2 0x15EE JUMP JUMPDEST PUSH2 0xEBC JUMP JUMPDEST STOP JUMPDEST CALLVALUE DUP1 ISZERO PUSH2 0x352 JUMPI PUSH1 0x0 DUP1 REVERT JUMPDEST POP PUSH2 0x36D PUSH1 0x4 DUP1 CALLDATASIZE SUB DUP2 ADD SWAP1 PUSH2 0x368 SWAP2 SWAP1 PUSH2 0x15A5 JUMP JUMPDEST PUSH2 0x109B JUMP JUMPDEST STOP JUMPDEST CALLVALUE DUP1 ISZERO PUSH2 0x37B JUMPI PUSH1 0x0 DUP1 REVERT JUMPDEST POP PUSH2 0x396 PUSH1 0x4 DUP1 CALLDATASIZE SUB DUP2 ADD SWAP1 PUSH2 0x391 SWAP2 SWAP1 PUSH2 0x1578 JUMP JUMPDEST PUSH2 0x10FB JUMP JUMPDEST STOP JUMPDEST CALLVALUE DUP1 ISZERO PUSH2 0x3A4 JUMPI PUSH1 0x0 DUP1 REVERT JUMPDEST POP PUSH2 0x3BF PUSH1 0x4 DUP1 CALLDATASIZE SUB DUP2 ADD SWAP1 PUSH2 0x3BA SWAP2 SWAP1 PUSH2 0x16E8 JUMP JUMPDEST PUSH2 0x11F3 JUMP JUMPDEST STOP JUMPDEST CALLVALUE DUP1 ISZERO PUSH2 0x3CD JUMPI PUSH1 0x0 DUP1 REVERT JUMPDEST POP PUSH2 0x3E8 PUSH1 0x4 DUP1 CALLDATASIZE SUB DUP2 ADD SWAP1 PUSH2 0x3E3 SWAP2 SWAP1 PUSH2 0x1578 JUMP JUMPDEST PUSH2 0x125D JUMP JUMPDEST STOP JUMPDEST PUSH1 0x0 PUSH1 0x4 PUSH1 0x0 DUP4 DUP2 MSTORE PUSH1 0x20 ADD SWAP1 DUP2 MSTORE PUSH1 0x20 ADD PUSH1 0x0 KECCAK256 PUSH1 0x0 SWAP1 SLOAD SWAP1 PUSH2 0x100 EXP SWAP1 DIV PUSH1 0xFF AND SWAP1 POP SWAP2 SWAP1 POP JUMP JUMPDEST PUSH2 0x41C PUSH2 0x131D JUMP JUMPDEST PUSH20 0xFFFFFFFFFFFFFFFFFFFFFFFFFFFFFFFFFFFFFFFF AND PUSH2 0x43A PUSH2 0x914 JUMP JUMPDEST PUSH20 0xFFFFFFFFFFFFFFFFFFFFFFFFFFFFFFFFFFFFFFFF AND EQ PUSH2 0x490 JUMPI PUSH1 0x40 MLOAD PUSH32 0x8C379A000000000000000000000000000000000000000000000000000000000 DUP2 MSTORE PUSH1 0x4 ADD PUSH2 0x487 SWAP1 PUSH2 0x1A02 JUMP JUMPDEST PUSH1 0x40 MLOAD DUP1 SWAP2 SUB SWAP1 REVERT JUMPDEST DUP1 PUSH1 0x2 PUSH1 0x0 DUP5 DUP2 MSTORE PUSH1 0x20 ADD SWAP1 DUP2 MSTORE PUSH1 0x20 ADD PUSH1 0x0 KECCAK256 PUSH1 0x0 PUSH2 0x100 EXP DUP2 SLOAD DUP2 PUSH20 0xFFFFFFFFFFFFFFFFFFFFFFFFFFFFFFFFFFFFFFFF MUL NOT AND SWAP1 DUP4 PUSH20 0xFFFFFFFFFFFFFFFFFFFFFFFFFFFFFFFFFFFFFFFF AND MUL OR SWAP1 SSTORE POP DUP2 PUSH1 0x3 PUSH1 0x0 DUP4 PUSH20 0xFFFFFFFFFFFFFFFFFFFFFFFFFFFFFFFFFFFFFFFF AND PUSH20 0xFFFFFFFFFFFFFFFFFFFFFFFFFFFFFFFFFFFFFFFF AND DUP2 MSTORE PUSH1 0x20 ADD SWAP1 DUP2 MSTORE PUSH1 0x20 ADD PUSH1 0x0 KECCAK256 PUSH1 0x0 ADD DUP2 SWAP1 SSTORE POP POP POP JUMP JUMPDEST PUSH1 0x0 DUP1 PUSH1 0x2 PUSH1 0x0 DUP5 DUP2 MSTORE PUSH1 0x20 ADD SWAP1 DUP2 MSTORE PUSH1 0x20 ADD PUSH1 0x0 KECCAK256 PUSH1 0x0 SWAP1 SLOAD SWAP1 PUSH2 0x100 EXP SWAP1 DIV PUSH20 0xFFFFFFFFFFFFFFFFFFFFFFFFFFFFFFFFFFFFFFFF AND SWAP1 POP DUP1 SWAP2 POP POP SWAP2 SWAP1 POP JUMP JUMPDEST PUSH1 0x0 PUSH1 0x3 PUSH1 0x0 CALLER PUSH20 0xFFFFFFFFFFFFFFFFFFFFFFFFFFFFFFFFFFFFFFFF AND PUSH20 0xFFFFFFFFFFFFFFFFFFFFFFFFFFFFFFFFFFFFFFFF AND DUP2 MSTORE PUSH1 0x20 ADD SWAP1 DUP2 MSTORE PUSH1 0x20 ADD PUSH1 0x0 KECCAK256 PUSH1 0x40 MLOAD DUP1 PUSH1 0x80 ADD PUSH1 0x40 MSTORE SWAP1 DUP2 PUSH1 0x0 DUP3 ADD SLOAD DUP2 MSTORE PUSH1 0x20 ADD PUSH1 0x1 DUP3 ADD DUP1 SLOAD PUSH2 0x5D5 SWAP1 PUSH2 0x1B95 JUMP JUMPDEST DUP1 PUSH1 0x1F ADD PUSH1 0x20 DUP1 SWAP2 DIV MUL PUSH1 0x20 ADD PUSH1 0x40 MLOAD SWAP1 DUP2 ADD PUSH1 0x40 MSTORE DUP1 SWAP3 SWAP2 SWAP1 DUP2 DUP2 MSTORE PUSH1 0x20 ADD DUP3 DUP1 SLOAD PUSH2 0x601 SWAP1 PUSH2 0x1B95 JUMP JUMPDEST DUP1 ISZERO PUSH2 0x64E JUMPI DUP1 PUSH1 0x1F LT PUSH2 0x623 JUMPI PUSH2 0x100 DUP1 DUP4 SLOAD DIV MUL DUP4 MSTORE SWAP2 PUSH1 0x20 ADD SWAP2 PUSH2 0x64E JUMP JUMPDEST DUP3 ADD SWAP2 SWAP1 PUSH1 0x0 MSTORE PUSH1 0x20 PUSH1 0x0 KECCAK256 SWAP1 JUMPDEST DUP2 SLOAD DUP2 MSTORE SWAP1 PUSH1 0x1 ADD SWAP1 PUSH1 0x20 ADD DUP1 DUP4 GT PUSH2 0x631 JUMPI DUP3 SWAP1 SUB PUSH1 0x1F AND DUP3 ADD SWAP2 JUMPDEST POP POP POP POP POP DUP2 MSTORE PUSH1 0x20 ADD PUSH1 0x2 DUP3 ADD DUP1 SLOAD PUSH2 0x667 SWAP1 PUSH2 0x1B95 JUMP JUMPDEST DUP1 PUSH1 0x1F ADD PUSH1 0x20 DUP1 SWAP2 DIV MUL PUSH1 0x20 ADD PUSH1 0x40 MLOAD SWAP1 DUP2 ADD PUSH1 0x40 MSTORE DUP1 SWAP3 SWAP2 SWAP1 DUP2 DUP2 MSTORE PUSH1 0x20 ADD DUP3 DUP1 SLOAD PUSH2 0x693 SWAP1 PUSH2 0x1B95 JUMP JUMPDEST DUP1 ISZERO PUSH2 0x6E0 JUMPI DUP1 PUSH1 0x1F LT PUSH2 0x6B5 JUMPI PUSH2 0x100 DUP1 DUP4 SLOAD DIV MUL DUP4 MSTORE SWAP2 PUSH1 0x20 ADD SWAP2 PUSH2 0x6E0 JUMP JUMPDEST DUP3 ADD SWAP2 SWAP1 PUSH1 0x0 MSTORE PUSH1 0x20 PUSH1 0x0 KECCAK256 SWAP1 JUMPDEST DUP2 SLOAD DUP2 MSTORE SWAP1 PUSH1 0x1 ADD SWAP1 PUSH1 0x20 ADD DUP1 DUP4 GT PUSH2 0x6C3 JUMPI DUP3 SWAP1 SUB PUSH1 0x1F AND DUP3 ADD SWAP2 JUMPDEST POP POP POP POP POP DUP2 MSTORE PUSH1 0x20 ADD PUSH1 0x3 DUP3 ADD SLOAD DUP2 MSTORE POP POP SWAP1 POP DUP1 PUSH1 0x3 PUSH1 0x0 DUP5 PUSH20 0xFFFFFFFFFFFFFFFFFFFFFFFFFFFFFFFFFFFFFFFF AND PUSH20 0xFFFFFFFFFFFFFFFFFFFFFFFFFFFFFFFFFFFFFFFF AND DUP2 MSTORE PUSH1 0x20 ADD SWAP1 DUP2 MSTORE PUSH1 0x20 ADD PUSH1 0x0 KECCAK256 PUSH1 0x0 DUP3 ADD MLOAD DUP2 PUSH1 0x0 ADD SSTORE PUSH1 0x20 DUP3 ADD MLOAD DUP2 PUSH1 0x1 ADD SWAP1 DUP1 MLOAD SWAP1 PUSH1 0x20 ADD SWAP1 PUSH2 0x75B SWAP3 SWAP2 SWAP1 PUSH2 0x13E9 JUMP JUMPDEST POP PUSH1 0x40 DUP3 ADD MLOAD DUP2 PUSH1 0x2 ADD SWAP1 DUP1 MLOAD SWAP1 PUSH1 0x20 ADD SWAP1 PUSH2 0x778 SWAP3 SWAP2 SWAP1 PUSH2 0x13E9 JUMP JUMPDEST POP PUSH1 0x60 DUP3 ADD MLOAD DUP2 PUSH1 0x3 ADD SSTORE SWAP1 POP POP DUP2 PUSH1 0x2 PUSH1 0x0 DUP4 PUSH1 0x0 ADD MLOAD DUP2 MSTORE PUSH1 0x20 ADD SWAP1 DUP2 MSTORE PUSH1 0x20 ADD PUSH1 0x0 KECCAK256 PUSH1 0x0 PUSH2 0x100 EXP DUP2 SLOAD DUP2 PUSH20 0xFFFFFFFFFFFFFFFFFFFFFFFFFFFFFFFFFFFFFFFF MUL NOT AND SWAP1 DUP4 PUSH20 0xFFFFFFFFFFFFFFFFFFFFFFFFFFFFFFFFFFFFFFFF AND MUL OR SWAP1 SSTORE POP POP POP POP JUMP JUMPDEST PUSH2 0x7E9 PUSH2 0x131D JUMP JUMPDEST PUSH20 0xFFFFFFFFFFFFFFFFFFFFFFFFFFFFFFFFFFFFFFFF AND PUSH2 0x807 PUSH2 0x914 JUMP JUMPDEST PUSH20 0xFFFFFFFFFFFFFFFFFFFFFFFFFFFFFFFFFFFFFFFF AND EQ PUSH2 0x85D JUMPI PUSH1 0x40 MLOAD PUSH32 0x8C379A000000000000000000000000000000000000000000000000000000000 DUP2 MSTORE PUSH1 0x4 ADD PUSH2 0x854 SWAP1 PUSH2 0x1A02 JUMP JUMPDEST PUSH1 0x40 MLOAD DUP1 SWAP2 SUB SWAP1 REVERT JUMPDEST PUSH2 0x867 PUSH1 0x0 PUSH2 0x1325 JUMP JUMPDEST JUMP JUMPDEST PUSH2 0x871 PUSH2 0x131D JUMP JUMPDEST PUSH20 0xFFFFFFFFFFFFFFFFFFFFFFFFFFFFFFFFFFFFFFFF AND PUSH2 0x88F PUSH2 0x914 JUMP JUMPDEST PUSH20 0xFFFFFFFFFFFFFFFFFFFFFFFFFFFFFFFFFFFFFFFF AND EQ PUSH2 0x8E5 JUMPI PUSH1 0x40 MLOAD PUSH32 0x8C379A000000000000000000000000000000000000000000000000000000000 DUP2 MSTORE PUSH1 0x4 ADD PUSH2 0x8DC SWAP1 PUSH2 0x1A02 JUMP JUMPDEST PUSH1 0x40 MLOAD DUP1 SWAP2 SUB SWAP1 REVERT JUMPDEST DUP1 PUSH1 0x4 PUSH1 0x0 DUP5 DUP2 MSTORE PUSH1 0x20 ADD SWAP1 DUP2 MSTORE PUSH1 0x20 ADD PUSH1 0x0 KECCAK256 PUSH1 0x0 PUSH2 0x100 EXP DUP2 SLOAD DUP2 PUSH1 0xFF MUL NOT AND SWAP1 DUP4 ISZERO ISZERO MUL OR SWAP1 SSTORE POP POP POP JUMP JUMPDEST PUSH1 0x0 DUP1 PUSH1 0x0 SWAP1 SLOAD SWAP1 PUSH2 0x100 EXP SWAP1 DIV PUSH20 0xFFFFFFFFFFFFFFFFFFFFFFFFFFFFFFFFFFFFFFFF AND SWAP1 POP SWAP1 JUMP JUMPDEST PUSH2 0x945 PUSH2 0x146F JUMP JUMPDEST PUSH1 0x0 PUSH1 0x2 PUSH1 0x0 DUP5 DUP2 MSTORE PUSH1 0x20 ADD SWAP1 DUP2 MSTORE PUSH1 0x20 ADD PUSH1 0x0 KECCAK256 PUSH1 0x0 SWAP1 SLOAD SWAP1 PUSH2 0x100 EXP SWAP1 DIV PUSH20 0xFFFFFFFFFFFFFFFFFFFFFFFFFFFFFFFFFFFFFFFF AND SWAP1 POP PUSH1 0x0 PUSH1 0x3 PUSH1 0x0 DUP4 PUSH20 0xFFFFFFFFFFFFFFFFFFFFFFFFFFFFFFFFFFFFFFFF AND PUSH20 0xFFFFFFFFFFFFFFFFFFFFFFFFFFFFFFFFFFFFFFFF AND DUP2 MSTORE PUSH1 0x20 ADD SWAP1 DUP2 MSTORE PUSH1 0x20 ADD PUSH1 0x0 KECCAK256 PUSH1 0x40 MLOAD DUP1 PUSH1 0x80 ADD PUSH1 0x40 MSTORE SWAP1 DUP2 PUSH1 0x0 DUP3 ADD SLOAD DUP2 MSTORE PUSH1 0x20 ADD PUSH1 0x1 DUP3 ADD DUP1 SLOAD PUSH2 0x9E3 SWAP1 PUSH2 0x1B95 JUMP JUMPDEST DUP1 PUSH1 0x1F ADD PUSH1 0x20 DUP1 SWAP2 DIV MUL PUSH1 0x20 ADD PUSH1 0x40 MLOAD SWAP1 DUP2 ADD PUSH1 0x40 MSTORE DUP1 SWAP3 SWAP2 SWAP1 DUP2 DUP2 MSTORE PUSH1 0x20 ADD DUP3 DUP1 SLOAD PUSH2 0xA0F SWAP1 PUSH2 0x1B95 JUMP JUMPDEST DUP1 ISZERO PUSH2 0xA5C JUMPI DUP1 PUSH1 0x1F LT PUSH2 0xA31 JUMPI PUSH2 0x100 DUP1 DUP4 SLOAD DIV MUL DUP4 MSTORE SWAP2 PUSH1 0x20 ADD SWAP2 PUSH2 0xA5C JUMP JUMPDEST DUP3 ADD SWAP2 SWAP1 PUSH1 0x0 MSTORE PUSH1 0x20 PUSH1 0x0 KECCAK256 SWAP1 JUMPDEST DUP2 SLOAD DUP2 MSTORE SWAP1 PUSH1 0x1 ADD SWAP1 PUSH1 0x20 ADD DUP1 DUP4 GT PUSH2 0xA3F JUMPI DUP3 SWAP1 SUB PUSH1 0x1F AND DUP3 ADD SWAP2 JUMPDEST POP POP POP POP POP DUP2 MSTORE PUSH1 0x20 ADD PUSH1 0x2 DUP3 ADD DUP1 SLOAD PUSH2 0xA75 SWAP1 PUSH2 0x1B95 JUMP JUMPDEST DUP1 PUSH1 0x1F ADD PUSH1 0x20 DUP1 SWAP2 DIV MUL PUSH1 0x20 ADD PUSH1 0x40 MLOAD SWAP1 DUP2 ADD PUSH1 0x40 MSTORE DUP1 SWAP3 SWAP2 SWAP1 DUP2 DUP2 MSTORE PUSH1 0x20 ADD DUP3 DUP1 SLOAD PUSH2 0xAA1 SWAP1 PUSH2 0x1B95 JUMP JUMPDEST DUP1 ISZERO PUSH2 0xAEE JUMPI DUP1 PUSH1 0x1F LT PUSH2 0xAC3 JUMPI PUSH2 0x100 DUP1 DUP4 SLOAD DIV MUL DUP4 MSTORE SWAP2 PUSH1 0x20 ADD SWAP2 PUSH2 0xAEE JUMP JUMPDEST DUP3 ADD SWAP2 SWAP1 PUSH1 0x0 MSTORE PUSH1 0x20 PUSH1 0x0 KECCAK256 SWAP1 JUMPDEST DUP2 SLOAD DUP2 MSTORE SWAP1 PUSH1 0x1 ADD SWAP1 PUSH1 0x20 ADD DUP1 DUP4 GT PUSH2 0xAD1 JUMPI DUP3 SWAP1 SUB PUSH1 0x1F AND DUP3 ADD SWAP2 JUMPDEST POP POP POP POP POP DUP2 MSTORE PUSH1 0x20 ADD PUSH1 0x3 DUP3 ADD SLOAD DUP2 MSTORE POP POP SWAP1 POP DUP1 SWAP3 POP POP POP SWAP2 SWAP1 POP JUMP JUMPDEST PUSH2 0xB15 PUSH2 0x146F JUMP JUMPDEST PUSH1 0x0 PUSH1 0x3 PUSH1 0x0 DUP5 PUSH20 0xFFFFFFFFFFFFFFFFFFFFFFFFFFFFFFFFFFFFFFFF AND PUSH20 0xFFFFFFFFFFFFFFFFFFFFFFFFFFFFFFFFFFFFFFFF AND DUP2 MSTORE PUSH1 0x20 ADD SWAP1 DUP2 MSTORE PUSH1 0x20 ADD PUSH1 0x0 KECCAK256 PUSH1 0x40 MLOAD DUP1 PUSH1 0x80 ADD PUSH1 0x40 MSTORE SWAP1 DUP2 PUSH1 0x0 DUP3 ADD SLOAD DUP2 MSTORE PUSH1 0x20 ADD PUSH1 0x1 DUP3 ADD DUP1 SLOAD PUSH2 0xB7B SWAP1 PUSH2 0x1B95 JUMP JUMPDEST DUP1 PUSH1 0x1F ADD PUSH1 0x20 DUP1 SWAP2 DIV MUL PUSH1 0x20 ADD PUSH1 0x40 MLOAD SWAP1 DUP2 ADD PUSH1 0x40 MSTORE DUP1 SWAP3 SWAP2 SWAP1 DUP2 DUP2 MSTORE PUSH1 0x20 ADD DUP3 DUP1 SLOAD PUSH2 0xBA7 SWAP1 PUSH2 0x1B95 JUMP JUMPDEST DUP1 ISZERO PUSH2 0xBF4 JUMPI DUP1 PUSH1 0x1F LT PUSH2 0xBC9 JUMPI PUSH2 0x100 DUP1 DUP4 SLOAD DIV MUL DUP4 MSTORE SWAP2 PUSH1 0x20 ADD SWAP2 PUSH2 0xBF4 JUMP JUMPDEST DUP3 ADD SWAP2 SWAP1 PUSH1 0x0 MSTORE PUSH1 0x20 PUSH1 0x0 KECCAK256 SWAP1 JUMPDEST DUP2 SLOAD DUP2 MSTORE SWAP1 PUSH1 0x1 ADD SWAP1 PUSH1 0x20 ADD DUP1 DUP4 GT PUSH2 0xBD7 JUMPI DUP3 SWAP1 SUB PUSH1 0x1F AND DUP3 ADD SWAP2 JUMPDEST POP POP POP POP POP DUP2 MSTORE PUSH1 0x20 ADD PUSH1 0x2 DUP3 ADD DUP1 SLOAD PUSH2 0xC0D SWAP1 PUSH2 0x1B95 JUMP JUMPDEST DUP1 PUSH1 0x1F ADD PUSH1 0x20 DUP1 SWAP2 DIV MUL PUSH1 0x20 ADD PUSH1 0x40 MLOAD SWAP1 DUP2 ADD PUSH1 0x40 MSTORE DUP1 SWAP3 SWAP2 SWAP1 DUP2 DUP2 MSTORE PUSH1 0x20 ADD DUP3 DUP1 SLOAD PUSH2 0xC39 SWAP1 PUSH2 0x1B95 JUMP JUMPDEST DUP1 ISZERO PUSH2 0xC86 JUMPI DUP1 PUSH1 0x1F LT PUSH2 0xC5B JUMPI PUSH2 0x100 DUP1 DUP4 SLOAD DIV MUL DUP4 MSTORE SWAP2 PUSH1 0x20 ADD SWAP2 PUSH2 0xC86 JUMP JUMPDEST DUP3 ADD SWAP2 SWAP1 PUSH1 0x0 MSTORE PUSH1 0x20 PUSH1 0x0 KECCAK256 SWAP1 JUMPDEST DUP2 SLOAD DUP2 MSTORE SWAP1 PUSH1 0x1 ADD SWAP1 PUSH1 0x20 ADD DUP1 DUP4 GT PUSH2 0xC69 JUMPI DUP3 SWAP1 SUB PUSH1 0x1F AND DUP3 ADD SWAP2 JUMPDEST POP POP POP POP POP DUP2 MSTORE PUSH1 0x20 ADD PUSH1 0x3 DUP3 ADD SLOAD DUP2 MSTORE POP POP SWAP1 POP DUP1 SWAP2 POP POP SWAP2 SWAP1 POP JUMP JUMPDEST PUSH1 0x0 DUP1 PUSH1 0x3 PUSH1 0x0 DUP5 PUSH20 0xFFFFFFFFFFFFFFFFFFFFFFFFFFFFFFFFFFFFFFFF AND PUSH20 0xFFFFFFFFFFFFFFFFFFFFFFFFFFFFFFFFFFFFFFFF AND DUP2 MSTORE PUSH1 0x20 ADD SWAP1 DUP2 MSTORE PUSH1 0x20 ADD PUSH1 0x0 KECCAK256 PUSH1 0x40 MLOAD DUP1 PUSH1 0x80 ADD PUSH1 0x40 MSTORE SWAP1 DUP2 PUSH1 0x0 DUP3 ADD SLOAD DUP2 MSTORE PUSH1 0x20 ADD PUSH1 0x1 DUP3 ADD DUP1 SLOAD PUSH2 0xD0B SWAP1 PUSH2 0x1B95 JUMP JUMPDEST DUP1 PUSH1 0x1F ADD PUSH1 0x20 DUP1 SWAP2 DIV MUL PUSH1 0x20 ADD PUSH1 0x40 MLOAD SWAP1 DUP2 ADD PUSH1 0x40 MSTORE DUP1 SWAP3 SWAP2 SWAP1 DUP2 DUP2 MSTORE PUSH1 0x20 ADD DUP3 DUP1 SLOAD PUSH2 0xD37 SWAP1 PUSH2 0x1B95 JUMP JUMPDEST DUP1 ISZERO PUSH2 0xD84 JUMPI DUP1 PUSH1 0x1F LT PUSH2 0xD59 JUMPI PUSH2 0x100 DUP1 DUP4 SLOAD DIV MUL DUP4 MSTORE SWAP2 PUSH1 0x20 ADD SWAP2 PUSH2 0xD84 JUMP JUMPDEST DUP3 ADD SWAP2 SWAP1 PUSH1 0x0 MSTORE PUSH1 0x20 PUSH1 0x0 KECCAK256 SWAP1 JUMPDEST DUP2 SLOAD DUP2 MSTORE SWAP1 PUSH1 0x1 ADD SWAP1 PUSH1 0x20 ADD DUP1 DUP4 GT PUSH2 0xD67 JUMPI DUP3 SWAP1 SUB PUSH1 0x1F AND DUP3 ADD SWAP2 JUMPDEST POP POP POP POP POP DUP2 MSTORE PUSH1 0x20 ADD PUSH1 0x2 DUP3 ADD DUP1 SLOAD PUSH2 0xD9D SWAP1 PUSH2 0x1B95 JUMP JUMPDEST DUP1 PUSH1 0x1F ADD PUSH1 0x20 DUP1 SWAP2 DIV MUL PUSH1 0x20 ADD PUSH1 0x40 MLOAD SWAP1 DUP2 ADD PUSH1 0x40 MSTORE DUP1 SWAP3 SWAP2 SWAP1 DUP2 DUP2 MSTORE PUSH1 0x20 ADD DUP3 DUP1 SLOAD PUSH2 0xDC9 SWAP1 PUSH2 0x1B95 JUMP JUMPDEST DUP1 ISZERO PUSH2 0xE16 JUMPI DUP1 PUSH1 0x1F LT PUSH2 0xDEB JUMPI PUSH2 0x100 DUP1 DUP4 SLOAD DIV MUL DUP4 MSTORE SWAP2 PUSH1 0x20 ADD SWAP2 PUSH2 0xE16 JUMP JUMPDEST DUP3 ADD SWAP2 SWAP1 PUSH1 0x0 MSTORE PUSH1 0x20 PUSH1 0x0 KECCAK256 SWAP1 JUMPDEST DUP2 SLOAD DUP2 MSTORE SWAP1 PUSH1 0x1 ADD SWAP1 PUSH1 0x20 ADD DUP1 DUP4 GT PUSH2 0xDF9 JUMPI DUP3 SWAP1 SUB PUSH1 0x1F AND DUP3 ADD SWAP2 JUMPDEST POP POP POP POP POP DUP2 MSTORE PUSH1 0x20 ADD PUSH1 0x3 DUP3 ADD SLOAD DUP2 MSTORE POP POP SWAP1 POP DUP1 PUSH1 0x0 ADD MLOAD SWAP2 POP POP SWAP2 SWAP1 POP JUMP JUMPDEST PUSH1 0x0 PUSH1 0x3 PUSH1 0x0 CALLER PUSH20 0xFFFFFFFFFFFFFFFFFFFFFFFFFFFFFFFFFFFFFFFF AND PUSH20 0xFFFFFFFFFFFFFFFFFFFFFFFFFFFFFFFFFFFFFFFF AND DUP2 MSTORE PUSH1 0x20 ADD SWAP1 DUP2 MSTORE PUSH1 0x20 ADD PUSH1 0x0 KECCAK256 SWAP1 POP DUP4 DUP2 PUSH1 0x1 ADD SWAP1 DUP1 MLOAD SWAP1 PUSH1 0x20 ADD SWAP1 PUSH2 0xE93 SWAP3 SWAP2 SWAP1 PUSH2 0x13E9 JUMP JUMPDEST POP DUP3 DUP2 PUSH1 0x2 ADD SWAP1 DUP1 MLOAD SWAP1 PUSH1 0x20 ADD SWAP1 PUSH2 0xEAC SWAP3 SWAP2 SWAP1 PUSH2 0x13E9 JUMP JUMPDEST POP DUP2 DUP2 PUSH1 0x3 ADD DUP2 SWAP1 SSTORE POP POP POP POP POP JUMP JUMPDEST PUSH2 0xEC4 PUSH2 0x131D JUMP JUMPDEST PUSH20 0xFFFFFFFFFFFFFFFFFFFFFFFFFFFFFFFFFFFFFFFF AND PUSH2 0xEE2 PUSH2 0x914 JUMP JUMPDEST PUSH20 0xFFFFFFFFFFFFFFFFFFFFFFFFFFFFFFFFFFFFFFFF AND EQ PUSH2 0xF38 JUMPI PUSH1 0x40 MLOAD PUSH32 0x8C379A000000000000000000000000000000000000000000000000000000000 DUP2 MSTORE PUSH1 0x4 ADD PUSH2 0xF2F SWAP1 PUSH2 0x1A02 JUMP JUMPDEST PUSH1 0x40 MLOAD DUP1 SWAP2 SUB SWAP1 REVERT JUMPDEST PUSH1 0x0 ADDRESS SWAP1 POP PUSH1 0x0 PUSH1 0x1 PUSH1 0x0 SWAP1 SLOAD SWAP1 PUSH2 0x100 EXP SWAP1 DIV PUSH20 0xFFFFFFFFFFFFFFFFFFFFFFFFFFFFFFFFFFFFFFFF AND PUSH20 0xFFFFFFFFFFFFFFFFFFFFFFFFFFFFFFFFFFFFFFFF AND PUSH4 0xCF378343 DUP4 DUP8 PUSH1 0x40 MLOAD DUP4 PUSH4 0xFFFFFFFF AND PUSH1 0xE0 SHL DUP2 MSTORE PUSH1 0x4 ADD PUSH2 0xF9C SWAP3 SWAP2 SWAP1 PUSH2 0x1997 JUMP JUMPDEST PUSH1 0x20 PUSH1 0x40 MLOAD DUP1 DUP4 SUB DUP2 PUSH1 0x0 DUP8 DUP1 EXTCODESIZE ISZERO DUP1 ISZERO PUSH2 0xFB6 JUMPI PUSH1 0x0 DUP1 REVERT JUMPDEST POP GAS CALL ISZERO DUP1 ISZERO PUSH2 0xFCA JUMPI RETURNDATASIZE PUSH1 0x0 DUP1 RETURNDATACOPY RETURNDATASIZE PUSH1 0x0 REVERT JUMPDEST POP POP POP POP PUSH1 0x40 MLOAD RETURNDATASIZE PUSH1 0x1F NOT PUSH1 0x1F DUP3 ADD AND DUP3 ADD DUP1 PUSH1 0x40 MSTORE POP DUP2 ADD SWAP1 PUSH2 0xFEE SWAP2 SWAP1 PUSH2 0x1771 JUMP JUMPDEST SWAP1 POP PUSH1 0x1 PUSH1 0x0 SWAP1 SLOAD SWAP1 PUSH2 0x100 EXP SWAP1 DIV PUSH20 0xFFFFFFFFFFFFFFFFFFFFFFFFFFFFFFFFFFFFFFFF AND PUSH20 0xFFFFFFFFFFFFFFFFFFFFFFFFFFFFFFFFFFFFFFFF AND PUSH4 0xE1B2E979 DUP3 DUP6 PUSH1 0x40 MLOAD DUP4 PUSH4 0xFFFFFFFF AND PUSH1 0xE0 SHL DUP2 MSTORE PUSH1 0x4 ADD PUSH2 0x104D SWAP3 SWAP2 SWAP1 PUSH2 0x1A5F JUMP JUMPDEST PUSH1 0x0 PUSH1 0x40 MLOAD DUP1 DUP4 SUB DUP2 PUSH1 0x0 DUP8 DUP1 EXTCODESIZE ISZERO DUP1 ISZERO PUSH2 0x1067 JUMPI PUSH1 0x0 DUP1 REVERT JUMPDEST POP GAS CALL ISZERO DUP1 ISZERO PUSH2 0x107B JUMPI RETURNDATASIZE PUSH1 0x0 DUP1 RETURNDATACOPY RETURNDATASIZE PUSH1 0x0 REVERT JUMPDEST POP POP POP POP PUSH2 0x108A DUP2 PUSH1 0x1 PUSH2 0x869 JUMP JUMPDEST PUSH2 0x1094 DUP2 DUP6 PUSH2 0x414 JUMP JUMPDEST POP POP POP POP POP JUMP JUMPDEST PUSH1 0x0 PUSH1 0x3 PUSH1 0x0 CALLER PUSH20 0xFFFFFFFFFFFFFFFFFFFFFFFFFFFFFFFFFFFFFFFF AND PUSH20 0xFFFFFFFFFFFFFFFFFFFFFFFFFFFFFFFFFFFFFFFF AND DUP2 MSTORE PUSH1 0x20 ADD SWAP1 DUP2 MSTORE PUSH1 0x20 ADD PUSH1 0x0 KECCAK256 SWAP1 POP DUP2 DUP2 PUSH1 0x1 ADD SWAP1 DUP1 MLOAD SWAP1 PUSH1 0x20 ADD SWAP1 PUSH2 0x10F6 SWAP3 SWAP2 SWAP1 PUSH2 0x13E9 JUMP JUMPDEST POP POP POP JUMP JUMPDEST PUSH2 0x1103 PUSH2 0x131D JUMP JUMPDEST PUSH20 0xFFFFFFFFFFFFFFFFFFFFFFFFFFFFFFFFFFFFFFFF AND PUSH2 0x1121 PUSH2 0x914 JUMP JUMPDEST PUSH20 0xFFFFFFFFFFFFFFFFFFFFFFFFFFFFFFFFFFFFFFFF AND EQ PUSH2 0x1177 JUMPI PUSH1 0x40 MLOAD PUSH32 0x8C379A000000000000000000000000000000000000000000000000000000000 DUP2 MSTORE PUSH1 0x4 ADD PUSH2 0x116E SWAP1 PUSH2 0x1A02 JUMP JUMPDEST PUSH1 0x40 MLOAD DUP1 SWAP2 SUB SWAP1 REVERT JUMPDEST PUSH1 0x0 PUSH20 0xFFFFFFFFFFFFFFFFFFFFFFFFFFFFFFFFFFFFFFFF AND DUP2 PUSH20 0xFFFFFFFFFFFFFFFFFFFFFFFFFFFFFFFFFFFFFFFF AND EQ ISZERO PUSH2 0x11E7 JUMPI PUSH1 0x40 MLOAD PUSH32 0x8C379A000000000000000000000000000000000000000000000000000000000 DUP2 MSTORE PUSH1 0x4 ADD PUSH2 0x11DE SWAP1 PUSH2 0x19E2 JUMP JUMPDEST PUSH1 0x40 MLOAD DUP1 SWAP2 SUB SWAP1 REVERT JUMPDEST PUSH2 0x11F0 DUP2 PUSH2 0x1325 JUMP JUMPDEST POP JUMP JUMPDEST PUSH1 0x0 PUSH1 0x3 PUSH1 0x0 CALLER PUSH20 0xFFFFFFFFFFFFFFFFFFFFFFFFFFFFFFFFFFFFFFFF AND PUSH20 0xFFFFFFFFFFFFFFFFFFFFFFFFFFFFFFFFFFFFFFFF AND DUP2 MSTORE PUSH1 0x20 ADD SWAP1 DUP2 MSTORE PUSH1 0x20 ADD PUSH1 0x0 KECCAK256 SWAP1 POP DUP3 DUP2 PUSH1 0x2 ADD SWAP1 DUP1 MLOAD SWAP1 PUSH1 0x20 ADD SWAP1 PUSH2 0x124E SWAP3 SWAP2 SWAP1 PUSH2 0x13E9 JUMP JUMPDEST POP DUP2 DUP2 PUSH1 0x3 ADD DUP2 SWAP1 SSTORE POP POP POP POP JUMP JUMPDEST PUSH2 0x1265 PUSH2 0x131D JUMP JUMPDEST PUSH20 0xFFFFFFFFFFFFFFFFFFFFFFFFFFFFFFFFFFFFFFFF AND PUSH2 0x1283 PUSH2 0x914 JUMP JUMPDEST PUSH20 0xFFFFFFFFFFFFFFFFFFFFFFFFFFFFFFFFFFFFFFFF AND EQ PUSH2 0x12D9 JUMPI PUSH1 0x40 MLOAD PUSH32 0x8C379A000000000000000000000000000000000000000000000000000000000 DUP2 MSTORE PUSH1 0x4 ADD PUSH2 0x12D0 SWAP1 PUSH2 0x1A02 JUMP JUMPDEST PUSH1 0x40 MLOAD DUP1 SWAP2 SUB SWAP1 REVERT JUMPDEST DUP1 PUSH1 0x1 PUSH1 0x0 PUSH2 0x100 EXP DUP2 SLOAD DUP2 PUSH20 0xFFFFFFFFFFFFFFFFFFFFFFFFFFFFFFFFFFFFFFFF MUL NOT AND SWAP1 DUP4 PUSH20 0xFFFFFFFFFFFFFFFFFFFFFFFFFFFFFFFFFFFFFFFF AND MUL OR SWAP1 SSTORE POP POP JUMP JUMPDEST PUSH1 0x0 CALLER SWAP1 POP SWAP1 JUMP JUMPDEST PUSH1 0x0 DUP1 PUSH1 0x0 SWAP1 SLOAD SWAP1 PUSH2 0x100 EXP SWAP1 DIV PUSH20 0xFFFFFFFFFFFFFFFFFFFFFFFFFFFFFFFFFFFFFFFF AND SWAP1 POP DUP2 PUSH1 0x0 DUP1 PUSH2 0x100 EXP DUP2 SLOAD DUP2 PUSH20 0xFFFFFFFFFFFFFFFFFFFFFFFFFFFFFFFFFFFFFFFF MUL NOT AND SWAP1 DUP4 PUSH20 0xFFFFFFFFFFFFFFFFFFFFFFFFFFFFFFFFFFFFFFFF AND MUL OR SWAP1 SSTORE POP DUP2 PUSH20 0xFFFFFFFFFFFFFFFFFFFFFFFFFFFFFFFFFFFFFFFF AND DUP2 PUSH20 0xFFFFFFFFFFFFFFFFFFFFFFFFFFFFFFFFFFFFFFFF AND PUSH32 0x8BE0079C531659141344CD1FD0A4F28419497F9722A3DAAFE3B4186F6B6457E0 PUSH1 0x40 MLOAD PUSH1 0x40 MLOAD DUP1 SWAP2 SUB SWAP1 LOG3 POP POP JUMP JUMPDEST DUP3 DUP1 SLOAD PUSH2 0x13F5 SWAP1 PUSH2 0x1B95 JUMP JUMPDEST SWAP1 PUSH1 0x0 MSTORE PUSH1 0x20 PUSH1 0x0 KECCAK256 SWAP1 PUSH1 0x1F ADD PUSH1 0x20 SWAP1 DIV DUP2 ADD SWAP3 DUP3 PUSH2 0x1417 JUMPI PUSH1 0x0 DUP6 SSTORE PUSH2 0x145E JUMP JUMPDEST DUP3 PUSH1 0x1F LT PUSH2 0x1430 JUMPI DUP1 MLOAD PUSH1 0xFF NOT AND DUP4 DUP1 ADD OR DUP6 SSTORE PUSH2 0x145E JUMP JUMPDEST DUP3 DUP1 ADD PUSH1 0x1 ADD DUP6 SSTORE DUP3 ISZERO PUSH2 0x145E JUMPI SWAP2 DUP3 ADD JUMPDEST DUP3 DUP2 GT ISZERO PUSH2 0x145D JUMPI DUP3 MLOAD DUP3 SSTORE SWAP2 PUSH1 0x20 ADD SWAP2 SWAP1 PUSH1 0x1 ADD SWAP1 PUSH2 0x1442 JUMP JUMPDEST JUMPDEST POP SWAP1 POP PUSH2 0x146B SWAP2 SWAP1 PUSH2 0x1497 JUMP JUMPDEST POP SWAP1 JUMP JUMPDEST PUSH1 0x40 MLOAD DUP1 PUSH1 0x80 ADD PUSH1 0x40 MSTORE DUP1 PUSH1 0x0 DUP2 MSTORE PUSH1 0x20 ADD PUSH1 0x60 DUP2 MSTORE PUSH1 0x20 ADD PUSH1 0x60 DUP2 MSTORE PUSH1 0x20 ADD PUSH1 0x0 DUP2 MSTORE POP SWAP1 JUMP JUMPDEST JUMPDEST DUP1 DUP3 GT ISZERO PUSH2 0x14B0 JUMPI PUSH1 0x0 DUP2 PUSH1 0x0 SWAP1 SSTORE POP PUSH1 0x1 ADD PUSH2 0x1498 JUMP JUMPDEST POP SWAP1 JUMP JUMPDEST PUSH1 0x0 PUSH2 0x14C7 PUSH2 0x14C2 DUP5 PUSH2 0x1AAD JUMP JUMPDEST PUSH2 0x1A88 JUMP JUMPDEST SWAP1 POP DUP3 DUP2 MSTORE PUSH1 0x20 DUP2 ADD DUP5 DUP5 DUP5 ADD GT ISZERO PUSH2 0x14E3 JUMPI PUSH2 0x14E2 PUSH2 0x1C5B JUMP JUMPDEST JUMPDEST PUSH2 0x14EE DUP5 DUP3 DUP6 PUSH2 0x1B53 JUMP JUMPDEST POP SWAP4 SWAP3 POP POP POP JUMP JUMPDEST PUSH1 0x0 DUP2 CALLDATALOAD SWAP1 POP PUSH2 0x1505 DUP2 PUSH2 0x1CF3 JUMP JUMPDEST SWAP3 SWAP2 POP POP JUMP JUMPDEST PUSH1 0x0 DUP2 CALLDATALOAD SWAP1 POP PUSH2 0x151A DUP2 PUSH2 0x1D0A JUMP JUMPDEST SWAP3 SWAP2 POP POP JUMP JUMPDEST PUSH1 0x0 DUP3 PUSH1 0x1F DUP4 ADD SLT PUSH2 0x1535 JUMPI PUSH2 0x1534 PUSH2 0x1C56 JUMP JUMPDEST JUMPDEST DUP2 CALLDATALOAD PUSH2 0x1545 DUP5 DUP3 PUSH1 0x20 DUP7 ADD PUSH2 0x14B4 JUMP JUMPDEST SWAP2 POP POP SWAP3 SWAP2 POP POP JUMP JUMPDEST PUSH1 0x0 DUP2 CALLDATALOAD SWAP1 POP PUSH2 0x155D DUP2 PUSH2 0x1D21 JUMP JUMPDEST SWAP3 SWAP2 POP POP JUMP JUMPDEST PUSH1 0x0 DUP2 MLOAD SWAP1 POP PUSH2 0x1572 DUP2 PUSH2 0x1D21 JUMP JUMPDEST SWAP3 SWAP2 POP POP JUMP JUMPDEST PUSH1 0x0 PUSH1 0x20 DUP3 DUP5 SUB SLT ISZERO PUSH2 0x158E JUMPI PUSH2 0x158D PUSH2 0x1C65 JUMP JUMPDEST JUMPDEST PUSH1 0x0 PUSH2 0x159C DUP5 DUP3 DUP6 ADD PUSH2 0x14F6 JUMP JUMPDEST SWAP2 POP POP SWAP3 SWAP2 POP POP JUMP JUMPDEST PUSH1 0x0 PUSH1 0x20 DUP3 DUP5 SUB SLT ISZERO PUSH2 0x15BB JUMPI PUSH2 0x15BA PUSH2 0x1C65 JUMP JUMPDEST JUMPDEST PUSH1 0x0 DUP3 ADD CALLDATALOAD PUSH8 0xFFFFFFFFFFFFFFFF DUP2 GT ISZERO PUSH2 0x15D9 JUMPI PUSH2 0x15D8 PUSH2 0x1C60 JUMP JUMPDEST JUMPDEST PUSH2 0x15E5 DUP5 DUP3 DUP6 ADD PUSH2 0x1520 JUMP JUMPDEST SWAP2 POP POP SWAP3 SWAP2 POP POP JUMP JUMPDEST PUSH1 0x0 DUP1 PUSH1 0x0 PUSH1 0x60 DUP5 DUP7 SUB SLT ISZERO PUSH2 0x1607 JUMPI PUSH2 0x1606 PUSH2 0x1C65 JUMP JUMPDEST JUMPDEST PUSH1 0x0 DUP5 ADD CALLDATALOAD PUSH8 0xFFFFFFFFFFFFFFFF DUP2 GT ISZERO PUSH2 0x1625 JUMPI PUSH2 0x1624 PUSH2 0x1C60 JUMP JUMPDEST JUMPDEST PUSH2 0x1631 DUP7 DUP3 DUP8 ADD PUSH2 0x1520 JUMP JUMPDEST SWAP4 POP POP PUSH1 0x20 PUSH2 0x1642 DUP7 DUP3 DUP8 ADD PUSH2 0x14F6 JUMP JUMPDEST SWAP3 POP POP PUSH1 0x40 PUSH2 0x1653 DUP7 DUP3 DUP8 ADD PUSH2 0x154E JUMP JUMPDEST SWAP2 POP POP SWAP3 POP SWAP3 POP SWAP3 JUMP JUMPDEST PUSH1 0x0 DUP1 PUSH1 0x0 PUSH1 0x60 DUP5 DUP7 SUB SLT ISZERO PUSH2 0x1676 JUMPI PUSH2 0x1675 PUSH2 0x1C65 JUMP JUMPDEST JUMPDEST PUSH1 0x0 DUP5 ADD CALLDATALOAD PUSH8 0xFFFFFFFFFFFFFFFF DUP2 GT ISZERO PUSH2 0x1694 JUMPI PUSH2 0x1693 PUSH2 0x1C60 JUMP JUMPDEST JUMPDEST PUSH2 0x16A0 DUP7 DUP3 DUP8 ADD PUSH2 0x1520 JUMP JUMPDEST SWAP4 POP POP PUSH1 0x20 DUP5 ADD CALLDATALOAD PUSH8 0xFFFFFFFFFFFFFFFF DUP2 GT ISZERO PUSH2 0x16C1 JUMPI PUSH2 0x16C0 PUSH2 0x1C60 JUMP JUMPDEST JUMPDEST PUSH2 0x16CD DUP7 DUP3 DUP8 ADD PUSH2 0x1520 JUMP JUMPDEST SWAP3 POP POP PUSH1 0x40 PUSH2 0x16DE DUP7 DUP3 DUP8 ADD PUSH2 0x154E JUMP JUMPDEST SWAP2 POP POP SWAP3 POP SWAP3 POP SWAP3 JUMP JUMPDEST PUSH1 0x0 DUP1 PUSH1 0x40 DUP4 DUP6 SUB SLT ISZERO PUSH2 0x16FF JUMPI PUSH2 0x16FE PUSH2 0x1C65 JUMP JUMPDEST JUMPDEST PUSH1 0x0 DUP4 ADD CALLDATALOAD PUSH8 0xFFFFFFFFFFFFFFFF DUP2 GT ISZERO PUSH2 0x171D JUMPI PUSH2 0x171C PUSH2 0x1C60 JUMP JUMPDEST JUMPDEST PUSH2 0x1729 DUP6 DUP3 DUP7 ADD PUSH2 0x1520 JUMP JUMPDEST SWAP3 POP POP PUSH1 0x20 PUSH2 0x173A DUP6 DUP3 DUP7 ADD PUSH2 0x154E JUMP JUMPDEST SWAP2 POP POP SWAP3 POP SWAP3 SWAP1 POP JUMP JUMPDEST PUSH1 0x0 PUSH1 0x20 DUP3 DUP5 SUB SLT ISZERO PUSH2 0x175A JUMPI PUSH2 0x1759 PUSH2 0x1C65 JUMP JUMPDEST JUMPDEST PUSH1 0x0 PUSH2 0x1768 DUP5 DUP3 DUP6 ADD PUSH2 0x154E JUMP JUMPDEST SWAP2 POP POP SWAP3 SWAP2 POP POP JUMP JUMPDEST PUSH1 0x0 PUSH1 0x20 DUP3 DUP5 SUB SLT ISZERO PUSH2 0x1787 JUMPI PUSH2 0x1786 PUSH2 0x1C65 JUMP JUMPDEST JUMPDEST PUSH1 0x0 PUSH2 0x1795 DUP5 DUP3 DUP6 ADD PUSH2 0x1563 JUMP JUMPDEST SWAP2 POP POP SWAP3 SWAP2 POP POP JUMP JUMPDEST PUSH1 0x0 DUP1 PUSH1 0x40 DUP4 DUP6 SUB SLT ISZERO PUSH2 0x17B5 JUMPI PUSH2 0x17B4 PUSH2 0x1C65 JUMP JUMPDEST JUMPDEST PUSH1 0x0 PUSH2 0x17C3 DUP6 DUP3 DUP7 ADD PUSH2 0x154E JUMP JUMPDEST SWAP3 POP POP PUSH1 0x20 PUSH2 0x17D4 DUP6 DUP3 DUP7 ADD PUSH2 0x14F6 JUMP JUMPDEST SWAP2 POP POP SWAP3 POP SWAP3 SWAP1 POP JUMP JUMPDEST PUSH1 0x0 DUP1 PUSH1 0x40 DUP4 DUP6 SUB SLT ISZERO PUSH2 0x17F5 JUMPI PUSH2 0x17F4 PUSH2 0x1C65 JUMP JUMPDEST JUMPDEST PUSH1 0x0 PUSH2 0x1803 DUP6 DUP3 DUP7 ADD PUSH2 0x154E JUMP JUMPDEST SWAP3 POP POP PUSH1 0x20 PUSH2 0x1814 DUP6 DUP3 DUP7 ADD PUSH2 0x150B JUMP JUMPDEST SWAP2 POP POP SWAP3 POP SWAP3 SWAP1 POP JUMP JUMPDEST PUSH2 0x1827 DUP2 PUSH2 0x1B0B JUMP JUMPDEST DUP3 MSTORE POP POP JUMP JUMPDEST PUSH2 0x1836 DUP2 PUSH2 0x1B1D JUMP JUMPDEST DUP3 MSTORE POP POP JUMP JUMPDEST PUSH1 0x0 PUSH2 0x1847 DUP3 PUSH2 0x1ADE JUMP JUMPDEST PUSH2 0x1851 DUP2 DUP6 PUSH2 0x1AE9 JUMP JUMPDEST SWAP4 POP PUSH2 0x1861 DUP2 DUP6 PUSH1 0x20 DUP7 ADD PUSH2 0x1B62 JUMP JUMPDEST PUSH2 0x186A DUP2 PUSH2 0x1C6A JUMP JUMPDEST DUP5 ADD SWAP2 POP POP SWAP3 SWAP2 POP POP JUMP JUMPDEST PUSH1 0x0 PUSH2 0x1880 DUP3 PUSH2 0x1ADE JUMP JUMPDEST PUSH2 0x188A DUP2 DUP6 PUSH2 0x1AFA JUMP JUMPDEST SWAP4 POP PUSH2 0x189A DUP2 DUP6 PUSH1 0x20 DUP7 ADD PUSH2 0x1B62 JUMP JUMPDEST PUSH2 0x18A3 DUP2 PUSH2 0x1C6A JUMP JUMPDEST DUP5 ADD SWAP2 POP POP SWAP3 SWAP2 POP POP JUMP JUMPDEST PUSH1 0x0 PUSH2 0x18BB PUSH1 0x26 DUP4 PUSH2 0x1AFA JUMP JUMPDEST SWAP2 POP PUSH2 0x18C6 DUP3 PUSH2 0x1C7B JUMP JUMPDEST PUSH1 0x40 DUP3 ADD SWAP1 POP SWAP2 SWAP1 POP JUMP JUMPDEST PUSH1 0x0 PUSH2 0x18DE PUSH1 0x20 DUP4 PUSH2 0x1AFA JUMP JUMPDEST SWAP2 POP PUSH2 0x18E9 DUP3 PUSH2 0x1CCA JUMP JUMPDEST PUSH1 0x20 DUP3 ADD SWAP1 POP SWAP2 SWAP1 POP JUMP JUMPDEST PUSH1 0x0 PUSH1 0x80 DUP4 ADD PUSH1 0x0 DUP4 ADD MLOAD PUSH2 0x190C PUSH1 0x0 DUP7 ADD DUP3 PUSH2 0x195E JUMP JUMPDEST POP PUSH1 0x20 DUP4 ADD MLOAD DUP5 DUP3 SUB PUSH1 0x20 DUP7 ADD MSTORE PUSH2 0x1924 DUP3 DUP3 PUSH2 0x183C JUMP JUMPDEST SWAP2 POP POP PUSH1 0x40 DUP4 ADD MLOAD DUP5 DUP3 SUB PUSH1 0x40 DUP7 ADD MSTORE PUSH2 0x193E DUP3 DUP3 PUSH2 0x183C JUMP JUMPDEST SWAP2 POP POP PUSH1 0x60 DUP4 ADD MLOAD PUSH2 0x1953 PUSH1 0x60 DUP7 ADD DUP3 PUSH2 0x195E JUMP JUMPDEST POP DUP1 SWAP2 POP POP SWAP3 SWAP2 POP POP JUMP JUMPDEST PUSH2 0x1967 DUP2 PUSH2 0x1B49 JUMP JUMPDEST DUP3 MSTORE POP POP JUMP JUMPDEST PUSH2 0x1976 DUP2 PUSH2 0x1B49 JUMP JUMPDEST DUP3 MSTORE POP POP JUMP JUMPDEST PUSH1 0x0 PUSH1 0x20 DUP3 ADD SWAP1 POP PUSH2 0x1991 PUSH1 0x0 DUP4 ADD DUP5 PUSH2 0x181E JUMP JUMPDEST SWAP3 SWAP2 POP POP JUMP JUMPDEST PUSH1 0x0 PUSH1 0x40 DUP3 ADD SWAP1 POP PUSH2 0x19AC PUSH1 0x0 DUP4 ADD DUP6 PUSH2 0x181E JUMP JUMPDEST DUP2 DUP2 SUB PUSH1 0x20 DUP4 ADD MSTORE PUSH2 0x19BE DUP2 DUP5 PUSH2 0x1875 JUMP JUMPDEST SWAP1 POP SWAP4 SWAP3 POP POP POP JUMP JUMPDEST PUSH1 0x0 PUSH1 0x20 DUP3 ADD SWAP1 POP PUSH2 0x19DC PUSH1 0x0 DUP4 ADD DUP5 PUSH2 0x182D JUMP JUMPDEST SWAP3 SWAP2 POP POP JUMP JUMPDEST PUSH1 0x0 PUSH1 0x20 DUP3 ADD SWAP1 POP DUP2 DUP2 SUB PUSH1 0x0 DUP4 ADD MSTORE PUSH2 0x19FB DUP2 PUSH2 0x18AE JUMP JUMPDEST SWAP1 POP SWAP2 SWAP1 POP JUMP JUMPDEST PUSH1 0x0 PUSH1 0x20 DUP3 ADD SWAP1 POP DUP2 DUP2 SUB PUSH1 0x0 DUP4 ADD MSTORE PUSH2 0x1A1B DUP2 PUSH2 0x18D1 JUMP JUMPDEST SWAP1 POP SWAP2 SWAP1 POP JUMP JUMPDEST PUSH1 0x0 PUSH1 0x20 DUP3 ADD SWAP1 POP DUP2 DUP2 SUB PUSH1 0x0 DUP4 ADD MSTORE PUSH2 0x1A3C DUP2 DUP5 PUSH2 0x18F4 JUMP JUMPDEST SWAP1 POP SWAP3 SWAP2 POP POP JUMP JUMPDEST PUSH1 0x0 PUSH1 0x20 DUP3 ADD SWAP1 POP PUSH2 0x1A59 PUSH1 0x0 DUP4 ADD DUP5 PUSH2 0x196D JUMP JUMPDEST SWAP3 SWAP2 POP POP JUMP JUMPDEST PUSH1 0x0 PUSH1 0x40 DUP3 ADD SWAP1 POP PUSH2 0x1A74 PUSH1 0x0 DUP4 ADD DUP6 PUSH2 0x196D JUMP JUMPDEST PUSH2 0x1A81 PUSH1 0x20 DUP4 ADD DUP5 PUSH2 0x196D JUMP JUMPDEST SWAP4 SWAP3 POP POP POP JUMP JUMPDEST PUSH1 0x0 PUSH2 0x1A92 PUSH2 0x1AA3 JUMP JUMPDEST SWAP1 POP PUSH2 0x1A9E DUP3 DUP3 PUSH2 0x1BC7 JUMP JUMPDEST SWAP2 SWAP1 POP JUMP JUMPDEST PUSH1 0x0 PUSH1 0x40 MLOAD SWAP1 POP SWAP1 JUMP JUMPDEST PUSH1 0x0 PUSH8 0xFFFFFFFFFFFFFFFF DUP3 GT ISZERO PUSH2 0x1AC8 JUMPI PUSH2 0x1AC7 PUSH2 0x1C27 JUMP JUMPDEST JUMPDEST PUSH2 0x1AD1 DUP3 PUSH2 0x1C6A JUMP JUMPDEST SWAP1 POP PUSH1 0x20 DUP2 ADD SWAP1 POP SWAP2 SWAP1 POP JUMP JUMPDEST PUSH1 0x0 DUP2 MLOAD SWAP1 POP SWAP2 SWAP1 POP JUMP JUMPDEST PUSH1 0x0 DUP3 DUP3 MSTORE PUSH1 0x20 DUP3 ADD SWAP1 POP SWAP3 SWAP2 POP POP JUMP JUMPDEST PUSH1 0x0 DUP3 DUP3 MSTORE PUSH1 0x20 DUP3 ADD SWAP1 POP SWAP3 SWAP2 POP POP JUMP JUMPDEST PUSH1 0x0 PUSH2 0x1B16 DUP3 PUSH2 0x1B29 JUMP JUMPDEST SWAP1 POP SWAP2 SWAP1 POP JUMP JUMPDEST PUSH1 0x0 DUP2 ISZERO ISZERO SWAP1 POP SWAP2 SWAP1 POP JUMP JUMPDEST PUSH1 0x0 PUSH20 0xFFFFFFFFFFFFFFFFFFFFFFFFFFFFFFFFFFFFFFFF DUP3 AND SWAP1 POP SWAP2 SWAP1 POP JUMP JUMPDEST PUSH1 0x0 DUP2 SWAP1 POP SWAP2 SWAP1 POP JUMP JUMPDEST DUP3 DUP2 DUP4 CALLDATACOPY PUSH1 0x0 DUP4 DUP4 ADD MSTORE POP POP POP JUMP JUMPDEST PUSH1 0x0 JUMPDEST DUP4 DUP2 LT ISZERO PUSH2 0x1B80 JUMPI DUP1 DUP3 ADD MLOAD DUP2 DUP5 ADD MSTORE PUSH1 0x20 DUP2 ADD SWAP1 POP PUSH2 0x1B65 JUMP JUMPDEST DUP4 DUP2 GT ISZERO PUSH2 0x1B8F JUMPI PUSH1 0x0 DUP5 DUP5 ADD MSTORE JUMPDEST POP POP POP POP JUMP JUMPDEST PUSH1 0x0 PUSH1 0x2 DUP3 DIV SWAP1 POP PUSH1 0x1 DUP3 AND DUP1 PUSH2 0x1BAD JUMPI PUSH1 0x7F DUP3 AND SWAP2 POP JUMPDEST PUSH1 0x20 DUP3 LT DUP2 EQ ISZERO PUSH2 0x1BC1 JUMPI PUSH2 0x1BC0 PUSH2 0x1BF8 JUMP JUMPDEST JUMPDEST POP SWAP2 SWAP1 POP JUMP JUMPDEST PUSH2 0x1BD0 DUP3 PUSH2 0x1C6A JUMP JUMPDEST DUP2 ADD DUP2 DUP2 LT PUSH8 0xFFFFFFFFFFFFFFFF DUP3 GT OR ISZERO PUSH2 0x1BEF JUMPI PUSH2 0x1BEE PUSH2 0x1C27 JUMP JUMPDEST JUMPDEST DUP1 PUSH1 0x40 MSTORE POP POP POP JUMP JUMPDEST PUSH32 0x4E487B7100000000000000000000000000000000000000000000000000000000 PUSH1 0x0 MSTORE PUSH1 0x22 PUSH1 0x4 MSTORE PUSH1 0x24 PUSH1 0x0 REVERT JUMPDEST PUSH32 0x4E487B7100000000000000000000000000000000000000000000000000000000 PUSH1 0x0 MSTORE PUSH1 0x41 PUSH1 0x4 MSTORE PUSH1 0x24 PUSH1 0x0 REVERT JUMPDEST PUSH1 0x0 DUP1 REVERT JUMPDEST PUSH1 0x0 DUP1 REVERT JUMPDEST PUSH1 0x0 DUP1 REVERT JUMPDEST PUSH1 0x0 DUP1 REVERT JUMPDEST PUSH1 0x0 PUSH1 0x1F NOT PUSH1 0x1F DUP4 ADD AND SWAP1 POP SWAP2 SWAP1 POP JUMP JUMPDEST PUSH32 0x4F776E61626C653A206E6577206F776E657220697320746865207A65726F2061 PUSH1 0x0 DUP3 ADD MSTORE PUSH32 0x6464726573730000000000000000000000000000000000000000000000000000 PUSH1 0x20 DUP3 ADD MSTORE POP JUMP JUMPDEST PUSH32 0x4F776E61626C653A2063616C6C6572206973206E6F7420746865206F776E6572 PUSH1 0x0 DUP3 ADD MSTORE POP JUMP JUMPDEST PUSH2 0x1CFC DUP2 PUSH2 0x1B0B JUMP JUMPDEST DUP2 EQ PUSH2 0x1D07 JUMPI PUSH1 0x0 DUP1 REVERT JUMPDEST POP JUMP JUMPDEST PUSH2 0x1D13 DUP2 PUSH2 0x1B1D JUMP JUMPDEST DUP2 EQ PUSH2 0x1D1E JUMPI PUSH1 0x0 DUP1 REVERT JUMPDEST POP JUMP JUMPDEST PUSH2 0x1D2A DUP2 PUSH2 0x1B49 JUMP JUMPDEST DUP2 EQ PUSH2 0x1D35 JUMPI PUSH1 0x0 DUP1 REVERT JUMPDEST POP JUMP INVALID LOG2 PUSH5 0x6970667358 0x22 SLT KECCAK256 MUL 0x4A 0xEE PUSH19 0xE7603EC5991F511C4F0A1722C0F6C6C6CBF7E5 PUSH2 0x7EA9 0x2D 0x21 DIFFICULTY 0x1E DUP15 SWAP13 PUSH5 0x736F6C6343 STOP ADDMOD SMOD STOP CALLER "
				},
				"gasEstimates": {
					"creation": {
						"codeDepositCost": "1506800",
						"executionCost": "infinite",
						"totalCost": "infinite"
					},
					"external": {
						"": "203",
						"NFTIdOfManager(address)": "infinite",
						"availableOfNFTId(uint256)": "2846",
						"createKYCNFT(string,address,uint256)": "infinite",
						"initManagerAddr(uint256,address)": "49469",
						"managerOfNFTId(uint256)": "2946",
						"modifyManagerAddr(uint256,address)": "infinite",
						"owner()": "2589",
						"renounceOwnership()": "30397",
						"setKYCNFTContractAddress(address)": "27050",
						"setNFTAvailableOfNFTId(uint256,bool)": "27215",
						"transferOwnership(address)": "30767",
						"updateAccumulator(string,string,uint256)": "infinite",
						"updateAccumulatorPublicKey(string,uint256)": "infinite",
						"updateAccumulatorValue(string)": "infinite",
						"userDataOfManager(address)": "infinite",
						"userDataOfNFTId(uint256)": "infinite"
					}
				},
				"methodIdentifiers": {
					"NFTIdOfManager(address)": "b2b72bc4",
					"availableOfNFTId(uint256)": "0e197dc9",
					"createKYCNFT(string,address,uint256)": "d1933ddd",
					"initManagerAddr(uint256,address)": "3960a892",
					"managerOfNFTId(uint256)": "4b3cef44",
					"modifyManagerAddr(uint256,address)": "622a47e6",
					"owner()": "8da5cb5b",
					"renounceOwnership()": "715018a6",
					"setKYCNFTContractAddress(address)": "fbc2cf13",
					"setNFTAvailableOfNFTId(uint256,bool)": "717b9b6c",
					"transferOwnership(address)": "f2fde38b",
					"updateAccumulator(string,string,uint256)": "bafdee14",
					"updateAccumulatorPublicKey(string,uint256)": "fa0e9e41",
					"updateAccumulatorValue(string)": "d6f70eb3",
					"userDataOfManager(address)": "ad575035",
					"userDataOfNFTId(uint256)": "917b8fd0"
				}
			},
			"storageLayout": {
				"storage": [
					{
						"astId": 7,
						"contract": "KYCNFT-LocalSever/contracts/KYCManager.sol:KYCManager",
						"label": "_owner",
						"offset": 0,
						"slot": "0",
						"type": "t_address"
					},
					{
						"astId": 160,
						"contract": "KYCNFT-LocalSever/contracts/KYCManager.sol:KYCManager",
						"label": "kycNFTContract",
						"offset": 0,
						"slot": "1",
						"type": "t_contract(KYCNFTInterface)146"
					},
					{
						"astId": 164,
						"contract": "KYCNFT-LocalSever/contracts/KYCManager.sol:KYCManager",
						"label": "NFTIdToManager",
						"offset": 0,
						"slot": "2",
						"type": "t_mapping(t_uint256,t_address)"
					},
					{
						"astId": 169,
						"contract": "KYCNFT-LocalSever/contracts/KYCManager.sol:KYCManager",
						"label": "ManagerToUserData",
						"offset": 0,
						"slot": "3",
						"type": "t_mapping(t_address,t_struct(UserData)157_storage)"
					},
					{
						"astId": 173,
						"contract": "KYCNFT-LocalSever/contracts/KYCManager.sol:KYCManager",
						"label": "NFTIdToAvailable",
						"offset": 0,
						"slot": "4",
						"type": "t_mapping(t_uint256,t_bool)"
					}
				],
				"types": {
					"t_address": {
						"encoding": "inplace",
						"label": "address",
						"numberOfBytes": "20"
					},
					"t_bool": {
						"encoding": "inplace",
						"label": "bool",
						"numberOfBytes": "1"
					},
					"t_contract(KYCNFTInterface)146": {
						"encoding": "inplace",
						"label": "contract KYCNFTInterface",
						"numberOfBytes": "20"
					},
					"t_mapping(t_address,t_struct(UserData)157_storage)": {
						"encoding": "mapping",
						"key": "t_address",
						"label": "mapping(address => struct KYCManager.UserData)",
						"numberOfBytes": "32",
						"value": "t_struct(UserData)157_storage"
					},
					"t_mapping(t_uint256,t_address)": {
						"encoding": "mapping",
						"key": "t_uint256",
						"label": "mapping(uint256 => address)",
						"numberOfBytes": "32",
						"value": "t_address"
					},
					"t_mapping(t_uint256,t_bool)": {
						"encoding": "mapping",
						"key": "t_uint256",
						"label": "mapping(uint256 => bool)",
						"numberOfBytes": "32",
						"value": "t_bool"
					},
					"t_string_storage": {
						"encoding": "bytes",
						"label": "string",
						"numberOfBytes": "32"
					},
					"t_struct(UserData)157_storage": {
						"encoding": "inplace",
						"label": "struct KYCManager.UserData",
						"members": [
							{
								"astId": 150,
								"contract": "KYCNFT-LocalSever/contracts/KYCManager.sol:KYCManager",
								"label": "NFTid",
								"offset": 0,
								"slot": "0",
								"type": "t_uint256"
							},
							{
								"astId": 152,
								"contract": "KYCNFT-LocalSever/contracts/KYCManager.sol:KYCManager",
								"label": "accumulator",
								"offset": 0,
								"slot": "1",
								"type": "t_string_storage"
							},
							{
								"astId": 154,
								"contract": "KYCNFT-LocalSever/contracts/KYCManager.sol:KYCManager",
								"label": "n",
								"offset": 0,
								"slot": "2",
								"type": "t_string_storage"
							},
							{
								"astId": 156,
								"contract": "KYCNFT-LocalSever/contracts/KYCManager.sol:KYCManager",
								"label": "g",
								"offset": 0,
								"slot": "3",
								"type": "t_uint256"
							}
						],
						"numberOfBytes": "128"
					},
					"t_uint256": {
						"encoding": "inplace",
						"label": "uint256",
						"numberOfBytes": "32"
					}
				}
			},
			"userdoc": {
				"kind": "user",
				"methods": {},
				"version": 1
			}
		}
	}
}