{
  "_format": "hh-sol-artifact-1",
  "contractName": "KYCManager",
  "sourceName": "contracts/KYCManagerV2.sol",
  "abi": [
    {
      "anonymous": false,
      "inputs": [
        {
          "indexed": true,
          "internalType": "address",
          "name": "previousOwner",
          "type": "address"
        },
        {
          "indexed": true,
          "internalType": "address",
          "name": "newOwner",
          "type": "address"
        }
      ],
      "name": "OwnershipTransferred",
      "type": "event"
    },
    {
      "stateMutability": "payable",
      "type": "fallback"
    },
    {
      "inputs": [
        {
          "internalType": "address",
          "name": "managerAddr",
          "type": "address"
        }
      ],
      "name": "NFTIdOfManager",
      "outputs": [
        {
          "internalType": "uint256",
          "name": "",
          "type": "uint256"
        }
      ],
      "stateMutability": "view",
      "type": "function"
    },
    {
      "inputs": [
        {
          "internalType": "uint256",
          "name": "NFTId",
          "type": "uint256"
        }
      ],
      "name": "availableOfNFTId",
      "outputs": [
        {
          "internalType": "bool",
          "name": "",
          "type": "bool"
        }
      ],
      "stateMutability": "view",
      "type": "function"
    },
    {
      "inputs": [
        {
          "internalType": "string",
          "name": "tokenUrl",
          "type": "string"
        },
        {
          "internalType": "address",
          "name": "manager",
          "type": "address"
        },
        {
          "internalType": "uint256",
          "name": "expirationTime",
          "type": "uint256"
        }
      ],
      "name": "createKYCNFT",
      "outputs": [],
      "stateMutability": "nonpayable",
      "type": "function"
    },
    {
      "inputs": [
        {
          "internalType": "uint256",
          "name": "NFTId",
          "type": "uint256"
        },
        {
          "internalType": "address",
          "name": "manager",
          "type": "address"
        }
      ],
      "name": "initManagerAddr",
      "outputs": [],
      "stateMutability": "nonpayable",
      "type": "function"
    },
    {
      "inputs": [
        {
          "internalType": "uint256",
          "name": "NFTId",
          "type": "uint256"
        }
      ],
      "name": "managerOfNFTId",
      "outputs": [
        {
          "internalType": "address",
          "name": "",
          "type": "address"
        }
      ],
      "stateMutability": "view",
      "type": "function"
    },
    {
      "inputs": [
        {
          "internalType": "address",
          "name": "newManager",
          "type": "address"
        }
      ],
      "name": "modifyManagerAddr",
      "outputs": [],
      "stateMutability": "nonpayable",
      "type": "function"
    },
    {
      "inputs": [],
      "name": "owner",
      "outputs": [
        {
          "internalType": "address",
          "name": "",
          "type": "address"
        }
      ],
      "stateMutability": "view",
      "type": "function"
    },
    {
      "inputs": [],
      "name": "renounceOwnership",
      "outputs": [],
      "stateMutability": "nonpayable",
      "type": "function"
    },
    {
      "inputs": [
        {
          "internalType": "uint256",
          "name": "NFTId",
          "type": "uint256"
        },
        {
          "internalType": "bool",
          "name": "_available",
          "type": "bool"
        }
      ],
      "name": "setAvailableOfNFTId",
      "outputs": [],
      "stateMutability": "nonpayable",
      "type": "function"
    },
    {
      "inputs": [
        {
          "internalType": "address",
          "name": "_kycnftContractAddr",
          "type": "address"
        }
      ],
      "name": "setKYCNFTContractAddress",
      "outputs": [],
      "stateMutability": "nonpayable",
      "type": "function"
    },
    {
      "inputs": [
        {
          "internalType": "address",
          "name": "newOwner",
          "type": "address"
        }
      ],
      "name": "transferOwnership",
      "outputs": [],
      "stateMutability": "nonpayable",
      "type": "function"
    },
    {
      "inputs": [
        {
          "internalType": "bytes32",
          "name": "newMerkleRoot",
          "type": "bytes32"
        }
      ],
      "name": "updateMerkleRoot",
      "outputs": [],
      "stateMutability": "nonpayable",
      "type": "function"
    },
    {
      "inputs": [
        {
          "internalType": "address",
          "name": "managerAddr",
          "type": "address"
        }
      ],
      "name": "userDataOfManager",
      "outputs": [
        {
          "components": [
            {
              "internalType": "uint256",
              "name": "NFTId",
              "type": "uint256"
            },
            {
              "internalType": "bytes32",
              "name": "merkleRoot",
              "type": "bytes32"
            }
          ],
          "internalType": "struct KYCManager.UserData",
          "name": "",
          "type": "tuple"
        }
      ],
      "stateMutability": "view",
      "type": "function"
    },
    {
      "inputs": [
        {
          "internalType": "uint256",
          "name": "NFTId",
          "type": "uint256"
        }
      ],
      "name": "userDataOfNFTId",
      "outputs": [
        {
          "components": [
            {
              "internalType": "uint256",
              "name": "NFTId",
              "type": "uint256"
            },
            {
              "internalType": "bytes32",
              "name": "merkleRoot",
              "type": "bytes32"
            }
          ],
          "internalType": "struct KYCManager.UserData",
          "name": "",
          "type": "tuple"
        }
      ],
      "stateMutability": "view",
      "type": "function"
    },
    {
      "inputs": [
        {
          "internalType": "bytes32",
          "name": "leaf",
          "type": "bytes32"
        },
        {
          "internalType": "bytes32[]",
          "name": "proof",
          "type": "bytes32[]"
        },
        {
          "internalType": "uint256[]",
          "name": "positions",
          "type": "uint256[]"
        },
        {
          "internalType": "uint256",
          "name": "NFTId",
          "type": "uint256"
        }
      ],
      "name": "verifyKYCAuthProof",
      "outputs": [
        {
          "internalType": "bool",
          "name": "",
          "type": "bool"
        }
      ],
      "stateMutability": "view",
      "type": "function"
    },
    {
      "stateMutability": "payable",
      "type": "receive"
    }
  ],
  "bytecode": "0x608060405234801561001057600080fd5b5061002d61002261003260201b60201c565b61003a60201b60201c565b6100fe565b600033905090565b60008060009054906101000a900473ffffffffffffffffffffffffffffffffffffffff169050816000806101000a81548173ffffffffffffffffffffffffffffffffffffffff021916908373ffffffffffffffffffffffffffffffffffffffff1602179055508173ffffffffffffffffffffffffffffffffffffffff168173ffffffffffffffffffffffffffffffffffffffff167f8be0079c531659141344cd1fd0a4f28419497f9722a3daafe3b4186f6b6457e060405160405180910390a35050565b6118c68061010d6000396000f3fe6080604052600436106100ec5760003560e01c8063917b8fd01161008a578063d1933ddd11610059578063d1933ddd14610312578063f097c2891461033b578063f2fde38b14610378578063fbc2cf13146103a1576100f6565b8063917b8fd014610232578063ab98a6791461026f578063ad57503514610298578063b2b72bc4146102d5576100f6565b80634783f0ef116100c65780634783f0ef1461018a5780634b3cef44146101b3578063715018a6146101f05780638da5cb5b14610207576100f6565b80630e197dc9146100fb5780631ff4bdf3146101385780633960a89214610161576100f6565b366100f657600080fd5b600080fd5b34801561010757600080fd5b50610122600480360381019061011d91906112b8565b6103ca565b60405161012f9190611509565b60405180910390f35b34801561014457600080fd5b5061015f600480360381019061015a9190611164565b6103f4565b005b34801561016d57600080fd5b506101886004803603810190610183919061130a565b610507565b005b34801561019657600080fd5b506101b160048036038101906101ac919061118d565b610620565b005b3480156101bf57600080fd5b506101da60048036038101906101d591906112b8565b610670565b6040516101e791906114be565b60405180910390f35b3480156101fc57600080fd5b506102056106b2565b005b34801561021357600080fd5b5061021c61073a565b60405161022991906114be565b60405180910390f35b34801561023e57600080fd5b50610259600480360381019061025491906112b8565b610763565b6040516102669190611564565b60405180910390f35b34801561027b57600080fd5b5061029660048036038101906102919190611346565b61080f565b005b3480156102a457600080fd5b506102bf60048036038101906102ba9190611164565b6108ba565b6040516102cc9190611564565b60405180910390f35b3480156102e157600080fd5b506102fc60048036038101906102f79190611164565b61092d565b604051610309919061157f565b60405180910390f35b34801561031e57600080fd5b5061033960048036038101906103349190611251565b61099d565b005b34801561034757600080fd5b50610362600480360381019061035d91906111b6565b610b7c565b60405161036f9190611509565b60405180910390f35b34801561038457600080fd5b5061039f600480360381019061039a9190611164565b610c3d565b005b3480156103ad57600080fd5b506103c860048036038101906103c39190611164565b610d35565b005b60006004600083815260200190815260200160002060009054906101000a900460ff169050919050565b6000600360003373ffffffffffffffffffffffffffffffffffffffff1673ffffffffffffffffffffffffffffffffffffffff16815260200190815260200160002060405180604001604052908160008201548152602001600182015481525050905080600360008473ffffffffffffffffffffffffffffffffffffffff1673ffffffffffffffffffffffffffffffffffffffff168152602001908152602001600020600082015181600001556020820151816001015590505081600260008360000151815260200190815260200160002060006101000a81548173ffffffffffffffffffffffffffffffffffffffff021916908373ffffffffffffffffffffffffffffffffffffffff1602179055505050565b61050f610df5565b73ffffffffffffffffffffffffffffffffffffffff1661052d61073a565b73ffffffffffffffffffffffffffffffffffffffff1614610583576040517f08c379a000000000000000000000000000000000000000000000000000000000815260040161057a90611544565b60405180910390fd5b806002600084815260200190815260200160002060006101000a81548173ffffffffffffffffffffffffffffffffffffffff021916908373ffffffffffffffffffffffffffffffffffffffff16021790555081600360008373ffffffffffffffffffffffffffffffffffffffff1673ffffffffffffffffffffffffffffffffffffffff168152602001908152602001600020600001819055505050565b6000600360003373ffffffffffffffffffffffffffffffffffffffff1673ffffffffffffffffffffffffffffffffffffffff16815260200190815260200160002090508181600101819055505050565b6000806002600084815260200190815260200160002060009054906101000a900473ffffffffffffffffffffffffffffffffffffffff16905080915050919050565b6106ba610df5565b73ffffffffffffffffffffffffffffffffffffffff166106d861073a565b73ffffffffffffffffffffffffffffffffffffffff161461072e576040517f08c379a000000000000000000000000000000000000000000000000000000000815260040161072590611544565b60405180910390fd5b6107386000610dfd565b565b60008060009054906101000a900473ffffffffffffffffffffffffffffffffffffffff16905090565b61076b610fe2565b60006002600084815260200190815260200160002060009054906101000a900473ffffffffffffffffffffffffffffffffffffffff1690506000600360008373ffffffffffffffffffffffffffffffffffffffff1673ffffffffffffffffffffffffffffffffffffffff1681526020019081526020016000206040518060400160405290816000820154815260200160018201548152505090508092505050919050565b610817610df5565b73ffffffffffffffffffffffffffffffffffffffff1661083561073a565b73ffffffffffffffffffffffffffffffffffffffff161461088b576040517f08c379a000000000000000000000000000000000000000000000000000000000815260040161088290611544565b60405180910390fd5b806004600084815260200190815260200160002060006101000a81548160ff0219169083151502179055505050565b6108c2610fe2565b6000600360008473ffffffffffffffffffffffffffffffffffffffff1673ffffffffffffffffffffffffffffffffffffffff16815260200190815260200160002060405180604001604052908160008201548152602001600182015481525050905080915050919050565b600080600360008473ffffffffffffffffffffffffffffffffffffffff1673ffffffffffffffffffffffffffffffffffffffff1681526020019081526020016000206040518060400160405290816000820154815260200160018201548152505090508060000151915050919050565b6109a5610df5565b73ffffffffffffffffffffffffffffffffffffffff166109c361073a565b73ffffffffffffffffffffffffffffffffffffffff1614610a19576040517f08c379a0000000000000000000000000000000000000000000000000000000008152600401610a1090611544565b60405180910390fd5b60003090506000600160009054906101000a900473ffffffffffffffffffffffffffffffffffffffff1673ffffffffffffffffffffffffffffffffffffffff1663cf37834383876040518363ffffffff1660e01b8152600401610a7d9291906114d9565b602060405180830381600087803b158015610a9757600080fd5b505af1158015610aab573d6000803e3d6000fd5b505050506040513d601f19601f82011682018060405250810190610acf91906112e1565b9050600160009054906101000a900473ffffffffffffffffffffffffffffffffffffffff1673ffffffffffffffffffffffffffffffffffffffff1663e1b2e97982856040518363ffffffff1660e01b8152600401610b2e92919061159a565b600060405180830381600087803b158015610b4857600080fd5b505af1158015610b5c573d6000803e3d6000fd5b50505050610b6b81600161080f565b610b758185610507565b5050505050565b6000806002600084815260200190815260200160002060009054906101000a900473ffffffffffffffffffffffffffffffffffffffff1690506000600360008373ffffffffffffffffffffffffffffffffffffffff1673ffffffffffffffffffffffffffffffffffffffff1681526020019081526020016000206040518060400160405290816000820154815260200160018201548152505090506000610c2b82602001518b8b8b8b8b610ec1565b90508093505050509695505050505050565b610c45610df5565b73ffffffffffffffffffffffffffffffffffffffff16610c6361073a565b73ffffffffffffffffffffffffffffffffffffffff1614610cb9576040517f08c379a0000000000000000000000000000000000000000000000000000000008152600401610cb090611544565b60405180910390fd5b600073ffffffffffffffffffffffffffffffffffffffff168173ffffffffffffffffffffffffffffffffffffffff161415610d29576040517f08c379a0000000000000000000000000000000000000000000000000000000008152600401610d2090611524565b60405180910390fd5b610d3281610dfd565b50565b610d3d610df5565b73ffffffffffffffffffffffffffffffffffffffff16610d5b61073a565b73ffffffffffffffffffffffffffffffffffffffff1614610db1576040517f08c379a0000000000000000000000000000000000000000000000000000000008152600401610da890611544565b60405180910390fd5b80600160006101000a81548173ffffffffffffffffffffffffffffffffffffffff021916908373ffffffffffffffffffffffffffffffffffffffff16021790555050565b600033905090565b60008060009054906101000a900473ffffffffffffffffffffffffffffffffffffffff169050816000806101000a81548173ffffffffffffffffffffffffffffffffffffffff021916908373ffffffffffffffffffffffffffffffffffffffff1602179055508173ffffffffffffffffffffffffffffffffffffffff168173ffffffffffffffffffffffffffffffffffffffff167f8be0079c531659141344cd1fd0a4f28419497f9722a3daafe3b4186f6b6457e060405160405180910390a35050565b60008086905060005b86869050811015610fd1576000878783818110610f10577f4e487b7100000000000000000000000000000000000000000000000000000000600052603260045260246000fd5b9050602002013590506001868684818110610f54577f4e487b7100000000000000000000000000000000000000000000000000000000600052603260045260246000fd5b905060200201351415610f91578281604051602001610f74929190611492565b604051602081830303815290604052805190602001209250610fbd565b8083604051602001610fa4929190611492565b6040516020818303038152906040528051906020012092505b508080610fc9906116fa565b915050610eca565b508781149150509695505050505050565b604051806040016040528060008152602001600080191681525090565b600061101261100d846115e8565b6115c3565b90508281526020810184848401111561102a57600080fd5b611035848285611687565b509392505050565b60008135905061104c81611834565b92915050565b60008083601f84011261106457600080fd5b8235905067ffffffffffffffff81111561107d57600080fd5b60208301915083602082028301111561109557600080fd5b9250929050565b60008083601f8401126110ae57600080fd5b8235905067ffffffffffffffff8111156110c757600080fd5b6020830191508360208202830111156110df57600080fd5b9250929050565b6000813590506110f58161184b565b92915050565b60008135905061110a81611862565b92915050565b600082601f83011261112157600080fd5b8135611131848260208601610fff565b91505092915050565b60008135905061114981611879565b92915050565b60008151905061115e81611879565b92915050565b60006020828403121561117657600080fd5b60006111848482850161103d565b91505092915050565b60006020828403121561119f57600080fd5b60006111ad848285016110fb565b91505092915050565b600080600080600080608087890312156111cf57600080fd5b60006111dd89828a016110fb565b965050602087013567ffffffffffffffff8111156111fa57600080fd5b61120689828a01611052565b9550955050604087013567ffffffffffffffff81111561122557600080fd5b61123189828a0161109c565b9350935050606061124489828a0161113a565b9150509295509295509295565b60008060006060848603121561126657600080fd5b600084013567ffffffffffffffff81111561128057600080fd5b61128c86828701611110565b935050602061129d8682870161103d565b92505060406112ae8682870161113a565b9150509250925092565b6000602082840312156112ca57600080fd5b60006112d88482850161113a565b91505092915050565b6000602082840312156112f357600080fd5b60006113018482850161114f565b91505092915050565b6000806040838503121561131d57600080fd5b600061132b8582860161113a565b925050602061133c8582860161103d565b9150509250929050565b6000806040838503121561135957600080fd5b60006113678582860161113a565b9250506020611378858286016110e6565b9150509250929050565b61138b81611635565b82525050565b61139a81611647565b82525050565b6113a981611653565b82525050565b6113c06113bb82611653565b611743565b82525050565b60006113d182611619565b6113db8185611624565b93506113eb818560208601611696565b6113f4816117ab565b840191505092915050565b600061140c602683611624565b9150611417826117bc565b604082019050919050565b600061142f602083611624565b915061143a8261180b565b602082019050919050565b60408201600082015161145b6000850182611474565b50602082015161146e60208501826113a0565b50505050565b61147d8161167d565b82525050565b61148c8161167d565b82525050565b600061149e82856113af565b6020820191506114ae82846113af565b6020820191508190509392505050565b60006020820190506114d36000830184611382565b92915050565b60006040820190506114ee6000830185611382565b818103602083015261150081846113c6565b90509392505050565b600060208201905061151e6000830184611391565b92915050565b6000602082019050818103600083015261153d816113ff565b9050919050565b6000602082019050818103600083015261155d81611422565b9050919050565b60006040820190506115796000830184611445565b92915050565b60006020820190506115946000830184611483565b92915050565b60006040820190506115af6000830185611483565b6115bc6020830184611483565b9392505050565b60006115cd6115de565b90506115d982826116c9565b919050565b6000604051905090565b600067ffffffffffffffff8211156116035761160261177c565b5b61160c826117ab565b9050602081019050919050565b600081519050919050565b600082825260208201905092915050565b60006116408261165d565b9050919050565b60008115159050919050565b6000819050919050565b600073ffffffffffffffffffffffffffffffffffffffff82169050919050565b6000819050919050565b82818337600083830152505050565b60005b838110156116b4578082015181840152602081019050611699565b838111156116c3576000848401525b50505050565b6116d2826117ab565b810181811067ffffffffffffffff821117156116f1576116f061177c565b5b80604052505050565b60006117058261167d565b91507fffffffffffffffffffffffffffffffffffffffffffffffffffffffffffffffff8214156117385761173761174d565b5b600182019050919050565b6000819050919050565b7f4e487b7100000000000000000000000000000000000000000000000000000000600052601160045260246000fd5b7f4e487b7100000000000000000000000000000000000000000000000000000000600052604160045260246000fd5b6000601f19601f8301169050919050565b7f4f776e61626c653a206e6577206f776e657220697320746865207a65726f206160008201527f6464726573730000000000000000000000000000000000000000000000000000602082015250565b7f4f776e61626c653a2063616c6c6572206973206e6f7420746865206f776e6572600082015250565b61183d81611635565b811461184857600080fd5b50565b61185481611647565b811461185f57600080fd5b50565b61186b81611653565b811461187657600080fd5b50565b6118828161167d565b811461188d57600080fd5b5056fea26469706673582212203baa8ced378230b5102c2c5b97a765588a3f099e7e82afbd0d278cd9ea299ded64736f6c63430008030033",
  "linkReferences": {},
  "deployedLinkReferences": {}
}