{
  "_format": "hh-sol-artifact-1",
  "contractName": "IDNFT",
  "sourceName": "contracts/IDNFT.sol",
  "abi": [
    {
      "inputs": [],
      "stateMutability": "nonpayable",
      "type": "constructor"
    },
    {
      "anonymous": false,
      "inputs": [
        {
          "indexed": true,
          "internalType": "address",
          "name": "owner",
          "type": "address"
        },
        {
          "indexed": true,
          "internalType": "address",
          "name": "approved",
          "type": "address"
        },
        {
          "indexed": true,
          "internalType": "uint256",
          "name": "tokenId",
          "type": "uint256"
        }
      ],
      "name": "Approval",
      "type": "event"
    },
    {
      "anonymous": false,
      "inputs": [
        {
          "indexed": true,
          "internalType": "address",
          "name": "owner",
          "type": "address"
        },
        {
          "indexed": true,
          "internalType": "address",
          "name": "operator",
          "type": "address"
        },
        {
          "indexed": false,
          "internalType": "bool",
          "name": "approved",
          "type": "bool"
        }
      ],
      "name": "ApprovalForAll",
      "type": "event"
    },
    {
      "anonymous": false,
      "inputs": [
        {
          "indexed": true,
          "internalType": "address",
          "name": "previousOwner",
          "type": "address"
        },
        {
          "indexed": true,
          "internalType": "address",
          "name": "newOwner",
          "type": "address"
        }
      ],
      "name": "OwnershipTransferred",
      "type": "event"
    },
    {
      "anonymous": false,
      "inputs": [
        {
          "indexed": true,
          "internalType": "address",
          "name": "from",
          "type": "address"
        },
        {
          "indexed": true,
          "internalType": "address",
          "name": "to",
          "type": "address"
        },
        {
          "indexed": true,
          "internalType": "uint256",
          "name": "tokenId",
          "type": "uint256"
        }
      ],
      "name": "Transfer",
      "type": "event"
    },
    {
      "stateMutability": "payable",
      "type": "fallback"
    },
    {
      "inputs": [
        {
          "internalType": "address",
          "name": "managerAddr",
          "type": "address"
        }
      ],
      "name": "NFTIdOfManager",
      "outputs": [
        {
          "internalType": "uint256",
          "name": "",
          "type": "uint256"
        }
      ],
      "stateMutability": "view",
      "type": "function"
    },
    {
      "inputs": [
        {
          "internalType": "uint256",
          "name": "",
          "type": "uint256"
        }
      ],
      "name": "NFTIdToExpirationTime",
      "outputs": [
        {
          "internalType": "uint256",
          "name": "",
          "type": "uint256"
        }
      ],
      "stateMutability": "view",
      "type": "function"
    },
    {
      "inputs": [
        {
          "internalType": "address",
          "name": "to",
          "type": "address"
        },
        {
          "internalType": "uint256",
          "name": "tokenId",
          "type": "uint256"
        }
      ],
      "name": "approve",
      "outputs": [],
      "stateMutability": "nonpayable",
      "type": "function"
    },
    {
      "inputs": [],
      "name": "approveOwner",
      "outputs": [],
      "stateMutability": "nonpayable",
      "type": "function"
    },
    {
      "inputs": [
        {
          "internalType": "uint256",
          "name": "NFTId",
          "type": "uint256"
        }
      ],
      "name": "availableOfNFTId",
      "outputs": [
        {
          "internalType": "bool",
          "name": "",
          "type": "bool"
        }
      ],
      "stateMutability": "view",
      "type": "function"
    },
    {
      "inputs": [
        {
          "internalType": "address",
          "name": "owner",
          "type": "address"
        }
      ],
      "name": "balanceOf",
      "outputs": [
        {
          "internalType": "uint256",
          "name": "",
          "type": "uint256"
        }
      ],
      "stateMutability": "view",
      "type": "function"
    },
    {
      "inputs": [
        {
          "internalType": "uint256",
          "name": "NFTId",
          "type": "uint256"
        }
      ],
      "name": "expirationTimeOfNFTId",
      "outputs": [
        {
          "internalType": "uint256",
          "name": "",
          "type": "uint256"
        }
      ],
      "stateMutability": "view",
      "type": "function"
    },
    {
      "inputs": [
        {
          "internalType": "uint256",
          "name": "tokenId",
          "type": "uint256"
        }
      ],
      "name": "getApproved",
      "outputs": [
        {
          "internalType": "address",
          "name": "",
          "type": "address"
        }
      ],
      "stateMutability": "view",
      "type": "function"
    },
    {
      "inputs": [
        {
          "internalType": "address",
          "name": "owner",
          "type": "address"
        },
        {
          "internalType": "address",
          "name": "operator",
          "type": "address"
        }
      ],
      "name": "isApprovedForAll",
      "outputs": [
        {
          "internalType": "bool",
          "name": "",
          "type": "bool"
        }
      ],
      "stateMutability": "view",
      "type": "function"
    },
    {
      "inputs": [
        {
          "internalType": "address",
          "name": "account",
          "type": "address"
        }
      ],
      "name": "isContract",
      "outputs": [
        {
          "internalType": "bool",
          "name": "",
          "type": "bool"
        }
      ],
      "stateMutability": "view",
      "type": "function"
    },
    {
      "inputs": [
        {
          "internalType": "uint256",
          "name": "NFTId",
          "type": "uint256"
        }
      ],
      "name": "managerOfNFTId",
      "outputs": [
        {
          "internalType": "address",
          "name": "",
          "type": "address"
        }
      ],
      "stateMutability": "view",
      "type": "function"
    },
    {
      "inputs": [
        {
          "internalType": "address",
          "name": "to",
          "type": "address"
        },
        {
          "internalType": "string",
          "name": "tokenURI",
          "type": "string"
        },
        {
          "internalType": "uint256",
          "name": "expirationTime",
          "type": "uint256"
        }
      ],
      "name": "mintIDNFT",
      "outputs": [],
      "stateMutability": "nonpayable",
      "type": "function"
    },
    {
      "inputs": [
        {
          "internalType": "address",
          "name": "oldAdmin",
          "type": "address"
        },
        {
          "internalType": "address",
          "name": "newAdmin",
          "type": "address"
        }
      ],
      "name": "modifyAdminAddr",
      "outputs": [],
      "stateMutability": "nonpayable",
      "type": "function"
    },
    {
      "inputs": [],
      "name": "name",
      "outputs": [
        {
          "internalType": "string",
          "name": "",
          "type": "string"
        }
      ],
      "stateMutability": "view",
      "type": "function"
    },
    {
      "inputs": [],
      "name": "owner",
      "outputs": [
        {
          "internalType": "address",
          "name": "",
          "type": "address"
        }
      ],
      "stateMutability": "view",
      "type": "function"
    },
    {
      "inputs": [
        {
          "internalType": "uint256",
          "name": "tokenId",
          "type": "uint256"
        }
      ],
      "name": "ownerOf",
      "outputs": [
        {
          "internalType": "address",
          "name": "",
          "type": "address"
        }
      ],
      "stateMutability": "view",
      "type": "function"
    },
    {
      "inputs": [],
      "name": "renounceOwnership",
      "outputs": [],
      "stateMutability": "nonpayable",
      "type": "function"
    },
    {
      "inputs": [
        {
          "internalType": "address",
          "name": "from",
          "type": "address"
        },
        {
          "internalType": "address",
          "name": "to",
          "type": "address"
        },
        {
          "internalType": "uint256",
          "name": "tokenId",
          "type": "uint256"
        }
      ],
      "name": "safeTransferFrom",
      "outputs": [],
      "stateMutability": "nonpayable",
      "type": "function"
    },
    {
      "inputs": [
        {
          "internalType": "address",
          "name": "from",
          "type": "address"
        },
        {
          "internalType": "address",
          "name": "to",
          "type": "address"
        },
        {
          "internalType": "uint256",
          "name": "tokenId",
          "type": "uint256"
        },
        {
          "internalType": "bytes",
          "name": "_data",
          "type": "bytes"
        }
      ],
      "name": "safeTransferFrom",
      "outputs": [],
      "stateMutability": "nonpayable",
      "type": "function"
    },
    {
      "inputs": [
        {
          "internalType": "address",
          "name": "operator",
          "type": "address"
        },
        {
          "internalType": "bool",
          "name": "approved",
          "type": "bool"
        }
      ],
      "name": "setApprovalForAll",
      "outputs": [],
      "stateMutability": "nonpayable",
      "type": "function"
    },
    {
      "inputs": [
        {
          "internalType": "bytes4",
          "name": "interfaceId",
          "type": "bytes4"
        }
      ],
      "name": "supportsInterface",
      "outputs": [
        {
          "internalType": "bool",
          "name": "",
          "type": "bool"
        }
      ],
      "stateMutability": "view",
      "type": "function"
    },
    {
      "inputs": [],
      "name": "symbol",
      "outputs": [
        {
          "internalType": "string",
          "name": "",
          "type": "string"
        }
      ],
      "stateMutability": "view",
      "type": "function"
    },
    {
      "inputs": [
        {
          "internalType": "uint256",
          "name": "tokenId",
          "type": "uint256"
        }
      ],
      "name": "tokenURI",
      "outputs": [
        {
          "internalType": "string",
          "name": "",
          "type": "string"
        }
      ],
      "stateMutability": "view",
      "type": "function"
    },
    {
      "inputs": [
        {
          "internalType": "address",
          "name": "from",
          "type": "address"
        },
        {
          "internalType": "address",
          "name": "to",
          "type": "address"
        },
        {
          "internalType": "uint256",
          "name": "tokenId",
          "type": "uint256"
        }
      ],
      "name": "transferFrom",
      "outputs": [],
      "stateMutability": "nonpayable",
      "type": "function"
    },
    {
      "inputs": [
        {
          "internalType": "address",
          "name": "newOwner",
          "type": "address"
        }
      ],
      "name": "transferOwnership",
      "outputs": [],
      "stateMutability": "nonpayable",
      "type": "function"
    },
    {
      "inputs": [
        {
          "internalType": "uint256",
          "name": "NFTId",
          "type": "uint256"
        },
        {
          "internalType": "bool",
          "name": "approveOrLock",
          "type": "bool"
        }
      ],
      "name": "unlockIDNFT",
      "outputs": [],
      "stateMutability": "nonpayable",
      "type": "function"
    },
    {
      "inputs": [
        {
          "internalType": "string",
          "name": "_acc",
          "type": "string"
        },
        {
          "internalType": "string",
          "name": "_n",
          "type": "string"
        },
        {
          "internalType": "uint256",
          "name": "_g",
          "type": "uint256"
        }
      ],
      "name": "updateAccumulator",
      "outputs": [],
      "stateMutability": "nonpayable",
      "type": "function"
    },
    {
      "inputs": [
        {
          "internalType": "uint256",
          "name": "NFTId",
          "type": "uint256"
        },
        {
          "internalType": "uint256",
          "name": "timestamp",
          "type": "uint256"
        }
      ],
      "name": "updateExpirationTime",
      "outputs": [],
      "stateMutability": "nonpayable",
      "type": "function"
    },
    {
      "inputs": [
        {
          "internalType": "bytes32",
          "name": "_hashOfXpub",
          "type": "bytes32"
        }
      ],
      "name": "updateXupb",
      "outputs": [],
      "stateMutability": "nonpayable",
      "type": "function"
    },
    {
      "inputs": [
        {
          "internalType": "address",
          "name": "managerAddr",
          "type": "address"
        }
      ],
      "name": "userDataOfManager",
      "outputs": [
        {
          "components": [
            {
              "internalType": "uint256",
              "name": "NFTId",
              "type": "uint256"
            },
            {
              "internalType": "uint256",
              "name": "g",
              "type": "uint256"
            },
            {
              "internalType": "bytes32",
              "name": "hashOfXpub",
              "type": "bytes32"
            },
            {
              "internalType": "string",
              "name": "acc",
              "type": "string"
            },
            {
              "internalType": "string",
              "name": "n",
              "type": "string"
            }
          ],
          "internalType": "struct IDNFT.UserData",
          "name": "",
          "type": "tuple"
        }
      ],
      "stateMutability": "view",
      "type": "function"
    },
    {
      "inputs": [
        {
          "internalType": "uint256",
          "name": "NFTId",
          "type": "uint256"
        }
      ],
      "name": "userDataOfNFTId",
      "outputs": [
        {
          "components": [
            {
              "internalType": "uint256",
              "name": "NFTId",
              "type": "uint256"
            },
            {
              "internalType": "uint256",
              "name": "g",
              "type": "uint256"
            },
            {
              "internalType": "bytes32",
              "name": "hashOfXpub",
              "type": "bytes32"
            },
            {
              "internalType": "string",
              "name": "acc",
              "type": "string"
            },
            {
              "internalType": "string",
              "name": "n",
              "type": "string"
            }
          ],
          "internalType": "struct IDNFT.UserData",
          "name": "",
          "type": "tuple"
        }
      ],
      "stateMutability": "view",
      "type": "function"
    },
    {
      "stateMutability": "payable",
      "type": "receive"
    }
  ],
  "bytecode": "0x60806040523480156200001157600080fd5b506040518060400160405280600581526020017f49444e46540000000000000000000000000000000000000000000000000000008152506040518060400160405280600581526020017f49444e46540000000000000000000000000000000000000000000000000000008152506200009e62000092620000d860201b60201c565b620000e060201b60201c565b8160019080519060200190620000b6929190620001a4565b508060029080519060200190620000cf929190620001a4565b505050620002b9565b600033905090565b60008060009054906101000a900473ffffffffffffffffffffffffffffffffffffffff169050816000806101000a81548173ffffffffffffffffffffffffffffffffffffffff021916908373ffffffffffffffffffffffffffffffffffffffff1602179055508173ffffffffffffffffffffffffffffffffffffffff168173ffffffffffffffffffffffffffffffffffffffff167f8be0079c531659141344cd1fd0a4f28419497f9722a3daafe3b4186f6b6457e060405160405180910390a35050565b828054620001b29062000254565b90600052602060002090601f016020900481019282620001d6576000855562000222565b82601f10620001f157805160ff191683800117855562000222565b8280016001018555821562000222579182015b828111156200022157825182559160200191906001019062000204565b5b50905062000231919062000235565b5090565b5b808211156200025057600081600090555060010162000236565b5090565b600060028204905060018216806200026d57607f821691505b602082108114156200028457620002836200028a565b5b50919050565b7f4e487b7100000000000000000000000000000000000000000000000000000000600052602260045260246000fd5b61445980620002c96000396000f3fe6080604052600436106101dc5760003560e01c80638da5cb5b11610102578063bafdee1411610095578063e40ae8b211610064578063e40ae8b214610736578063e985e9c51461074d578063f2fde38b1461078a578063fe759181146107b3576101e6565b8063bafdee141461067e578063c87b56dd146106a7578063e1b2e979146106e4578063e3d742431461070d576101e6565b8063ad575035116100d1578063ad575035146105b2578063b2b72bc4146105ef578063b88d4fde1461062c578063b9f46e5514610655576101e6565b80638da5cb5b146104f6578063917b8fd01461052157806395d89b411461055e578063a22cb46514610589576101e6565b80633c10bdc81161017a5780635005490e116101495780635005490e146104285780636352211e1461046557806370a08231146104a2578063715018a6146104df576101e6565b80633c10bdc81461035c57806342842e0e146103855780634843f148146103ae5780634b3cef44146103eb576101e6565b8063095ea7b3116101b6578063095ea7b3146102905780630e197dc9146102b957806316279055146102f657806323b872dd14610333576101e6565b806301ffc9a7146101eb57806306fdde0314610228578063081812fc14610253576101e6565b366101e657600080fd5b600080fd5b3480156101f757600080fd5b50610212600480360381019061020d919061307f565b6107dc565b60405161021f91906136ff565b60405180910390f35b34801561023457600080fd5b5061023d6108be565b60405161024a919061371a565b60405180910390f35b34801561025f57600080fd5b5061027a60048036038101906102759190613150565b610950565b6040516102879190613698565b60405180910390f35b34801561029c57600080fd5b506102b760048036038101906102b2919061301a565b6109d5565b005b3480156102c557600080fd5b506102e060048036038101906102db9190613150565b610aed565b6040516102ed91906136ff565b60405180910390f35b34801561030257600080fd5b5061031d60048036038101906103189190612e48565b610b17565b60405161032a91906136ff565b60405180910390f35b34801561033f57600080fd5b5061035a60048036038101906103559190612ead565b610b62565b005b34801561036857600080fd5b50610383600480360381019061037e9190613179565b610bc2565b005b34801561039157600080fd5b506103ac60048036038101906103a79190612ead565b610c6d565b005b3480156103ba57600080fd5b506103d560048036038101906103d09190613150565b610c8d565b6040516103e291906139fe565b60405180910390f35b3480156103f757600080fd5b50610412600480360381019061040d9190613150565b610caa565b60405161041f9190613698565b60405180910390f35b34801561043457600080fd5b5061044f600480360381019061044a9190613150565b610cc1565b60405161045c91906139fe565b60405180910390f35b34801561047157600080fd5b5061048c60048036038101906104879190613150565b610cd9565b6040516104999190613698565b60405180910390f35b3480156104ae57600080fd5b506104c960048036038101906104c49190612e48565b610d8b565b6040516104d691906139fe565b60405180910390f35b3480156104eb57600080fd5b506104f4610e43565b005b34801561050257600080fd5b5061050b610ecb565b6040516105189190613698565b60405180910390f35b34801561052d57600080fd5b5061054860048036038101906105439190613150565b610ef4565b60405161055591906139dc565b60405180910390f35b34801561056a57600080fd5b506105736110a3565b604051610580919061371a565b60405180910390f35b34801561059557600080fd5b506105b060048036038101906105ab9190612f77565b611135565b005b3480156105be57600080fd5b506105d960048036038101906105d49190612e48565b6112b6565b6040516105e691906139dc565b60405180910390f35b3480156105fb57600080fd5b5061061660048036038101906106119190612e48565b611457565b60405161062391906139fe565b60405180910390f35b34801561063857600080fd5b50610653600480360381019061064e9190612efc565b6115f5565b005b34801561066157600080fd5b5061067c60048036038101906106779190613056565b611657565b005b34801561068a57600080fd5b506106a560048036038101906106a091906130d1565b6116a7565b005b3480156106b357600080fd5b506106ce60048036038101906106c99190613150565b61172b565b6040516106db919061371a565b60405180910390f35b3480156106f057600080fd5b5061070b600480360381019061070691906131b5565b61187d565b005b34801561071957600080fd5b50610734600480360381019061072f9190612fb3565b61192b565b005b34801561074257600080fd5b5061074b611a35565b005b34801561075957600080fd5b50610774600480360381019061076f9190612e71565b611a49565b60405161078191906136ff565b60405180910390f35b34801561079657600080fd5b506107b160048036038101906107ac9190612e48565b611add565b005b3480156107bf57600080fd5b506107da60048036038101906107d59190612e71565b611bd5565b005b60007f80ac58cd000000000000000000000000000000000000000000000000000000007bffffffffffffffffffffffffffffffffffffffffffffffffffffffff1916827bffffffffffffffffffffffffffffffffffffffffffffffffffffffff191614806108a757507f5b5e139f000000000000000000000000000000000000000000000000000000007bffffffffffffffffffffffffffffffffffffffffffffffffffffffff1916827bffffffffffffffffffffffffffffffffffffffffffffffffffffffff1916145b806108b757506108b682611f2f565b5b9050919050565b6060600180546108cd90613c6f565b80601f01602080910402602001604051908101604052809291908181526020018280546108f990613c6f565b80156109465780601f1061091b57610100808354040283529160200191610946565b820191906000526020600020905b81548152906001019060200180831161092957829003601f168201915b5050505050905090565b600061095b82611f99565b61099a576040517f08c379a0000000000000000000000000000000000000000000000000000000008152600401610991906138fc565b60405180910390fd5b6005600083815260200190815260200160002060009054906101000a900473ffffffffffffffffffffffffffffffffffffffff169050919050565b60006109e082610cd9565b90508073ffffffffffffffffffffffffffffffffffffffff168373ffffffffffffffffffffffffffffffffffffffff161415610a51576040517f08c379a0000000000000000000000000000000000000000000000000000000008152600401610a489061397c565b60405180910390fd5b8073ffffffffffffffffffffffffffffffffffffffff16610a70612005565b73ffffffffffffffffffffffffffffffffffffffff161480610a9f5750610a9e81610a99612005565b611a49565b5b610ade576040517f08c379a0000000000000000000000000000000000000000000000000000000008152600401610ad59061383c565b60405180910390fd5b610ae8838361200d565b505050565b6000600b600083815260200190815260200160002060009054906101000a900460ff169050919050565b6000807fc5d2460186f7233c927e7db2dcc703c0e500b653ca82273b7bfad8045d85a47060001b90506000833f9050818114158015610b5957506000801b8114155b92505050919050565b610b73610b6d612005565b826120c6565b610bb2576040517f08c379a0000000000000000000000000000000000000000000000000000000008152600401610ba99061399c565b60405180910390fd5b610bbd8383836121a4565b505050565b610bca612005565b73ffffffffffffffffffffffffffffffffffffffff16610be8610ecb565b73ffffffffffffffffffffffffffffffffffffffff1614610c3e576040517f08c379a0000000000000000000000000000000000000000000000000000000008152600401610c359061391c565b60405180910390fd5b80600b600084815260200190815260200160002060006101000a81548160ff0219169083151502179055505050565b610c88838383604051806020016040528060008152506115f5565b505050565b600060096000838152602001908152602001600020549050919050565b600080610cb683610cd9565b905080915050919050565b60096020528060005260406000206000915090505481565b6000806003600084815260200190815260200160002060009054906101000a900473ffffffffffffffffffffffffffffffffffffffff169050600073ffffffffffffffffffffffffffffffffffffffff168173ffffffffffffffffffffffffffffffffffffffff161415610d82576040517f08c379a0000000000000000000000000000000000000000000000000000000008152600401610d799061387c565b60405180910390fd5b80915050919050565b60008073ffffffffffffffffffffffffffffffffffffffff168273ffffffffffffffffffffffffffffffffffffffff161415610dfc576040517f08c379a0000000000000000000000000000000000000000000000000000000008152600401610df39061385c565b60405180910390fd5b600460008373ffffffffffffffffffffffffffffffffffffffff1673ffffffffffffffffffffffffffffffffffffffff168152602001908152602001600020549050919050565b610e4b612005565b73ffffffffffffffffffffffffffffffffffffffff16610e69610ecb565b73ffffffffffffffffffffffffffffffffffffffff1614610ebf576040517f08c379a0000000000000000000000000000000000000000000000000000000008152600401610eb69061391c565b60405180910390fd5b610ec96000612400565b565b60008060009054906101000a900473ffffffffffffffffffffffffffffffffffffffff16905090565b610efc612c25565b6000610f0783610cd9565b90506000600a60008373ffffffffffffffffffffffffffffffffffffffff1673ffffffffffffffffffffffffffffffffffffffff1681526020019081526020016000206040518060a0016040529081600082015481526020016001820154815260200160028201548152602001600382018054610f8390613c6f565b80601f0160208091040260200160405190810160405280929190818152602001828054610faf90613c6f565b8015610ffc5780601f10610fd157610100808354040283529160200191610ffc565b820191906000526020600020905b815481529060010190602001808311610fdf57829003601f168201915b5050505050815260200160048201805461101590613c6f565b80601f016020809104026020016040519081016040528092919081815260200182805461104190613c6f565b801561108e5780601f106110635761010080835404028352916020019161108e565b820191906000526020600020905b81548152906001019060200180831161107157829003601f168201915b50505050508152505090508092505050919050565b6060600280546110b290613c6f565b80601f01602080910402602001604051908101604052809291908181526020018280546110de90613c6f565b801561112b5780601f106111005761010080835404028352916020019161112b565b820191906000526020600020905b81548152906001019060200180831161110e57829003601f168201915b5050505050905090565b61113d612005565b73ffffffffffffffffffffffffffffffffffffffff168273ffffffffffffffffffffffffffffffffffffffff1614156111ab576040517f08c379a00000000000000000000000000000000000000000000000000000000081526004016111a2906137dc565b60405180910390fd5b80600660006111b8612005565b73ffffffffffffffffffffffffffffffffffffffff1673ffffffffffffffffffffffffffffffffffffffff16815260200190815260200160002060008473ffffffffffffffffffffffffffffffffffffffff1673ffffffffffffffffffffffffffffffffffffffff16815260200190815260200160002060006101000a81548160ff0219169083151502179055508173ffffffffffffffffffffffffffffffffffffffff16611265612005565b73ffffffffffffffffffffffffffffffffffffffff167f17307eab39ab6107e8899845ad3d59bd9653f200f220920489ca2b5937696c31836040516112aa91906136ff565b60405180910390a35050565b6112be612c25565b6000600a60008473ffffffffffffffffffffffffffffffffffffffff1673ffffffffffffffffffffffffffffffffffffffff1681526020019081526020016000206040518060a001604052908160008201548152602001600182015481526020016002820154815260200160038201805461133890613c6f565b80601f016020809104026020016040519081016040528092919081815260200182805461136490613c6f565b80156113b15780601f10611386576101008083540402835291602001916113b1565b820191906000526020600020905b81548152906001019060200180831161139457829003601f168201915b505050505081526020016004820180546113ca90613c6f565b80601f01602080910402602001604051908101604052809291908181526020018280546113f690613c6f565b80156114435780601f1061141857610100808354040283529160200191611443565b820191906000526020600020905b81548152906001019060200180831161142657829003601f168201915b505050505081525050905080915050919050565b600080600a60008473ffffffffffffffffffffffffffffffffffffffff1673ffffffffffffffffffffffffffffffffffffffff1681526020019081526020016000206040518060a00160405290816000820154815260200160018201548152602001600282015481526020016003820180546114d290613c6f565b80601f01602080910402602001604051908101604052809291908181526020018280546114fe90613c6f565b801561154b5780601f106115205761010080835404028352916020019161154b565b820191906000526020600020905b81548152906001019060200180831161152e57829003601f168201915b5050505050815260200160048201805461156490613c6f565b80601f016020809104026020016040519081016040528092919081815260200182805461159090613c6f565b80156115dd5780601f106115b2576101008083540402835291602001916115dd565b820191906000526020600020905b8154815290600101906020018083116115c057829003601f168201915b50505050508152505090508060000151915050919050565b611606611600612005565b836120c6565b611645576040517f08c379a000000000000000000000000000000000000000000000000000000000815260040161163c9061399c565b60405180910390fd5b611651848484846124c4565b50505050565b6000600a60003373ffffffffffffffffffffffffffffffffffffffff1673ffffffffffffffffffffffffffffffffffffffff16815260200190815260200160002090508181600201819055505050565b6000600a60003373ffffffffffffffffffffffffffffffffffffffff1673ffffffffffffffffffffffffffffffffffffffff168152602001908152602001600020905083816003019080519060200190611702929190612c57565b508281600401908051906020019061171b929190612c57565b5081816001018190555050505050565b606061173682611f99565b611775576040517f08c379a000000000000000000000000000000000000000000000000000000000815260040161176c906138dc565b60405180910390fd5b600060076000848152602001908152602001600020805461179590613c6f565b80601f01602080910402602001604051908101604052809291908181526020018280546117c190613c6f565b801561180e5780601f106117e35761010080835404028352916020019161180e565b820191906000526020600020905b8154815290600101906020018083116117f157829003601f168201915b50505050509050600061181f612520565b9050600081511415611835578192505050611878565b60008251111561186a578082604051602001611852929190613674565b60405160208183030381529060405292505050611878565b61187384612537565b925050505b919050565b611885612005565b73ffffffffffffffffffffffffffffffffffffffff166118a3610ecb565b73ffffffffffffffffffffffffffffffffffffffff16146118f9576040517f08c379a00000000000000000000000000000000000000000000000000000000081526004016118f09061391c565b60405180910390fd5b61190360086125de565b82111561190f57600080fd5b8060096000848152602001908152602001600020819055505050565b611933612005565b73ffffffffffffffffffffffffffffffffffffffff16611951610ecb565b73ffffffffffffffffffffffffffffffffffffffff16146119a7576040517f08c379a000000000000000000000000000000000000000000000000000000000815260040161199e9061391c565b60405180910390fd5b6119b160086125ec565b60006119bd60086125de565b90506119c98482612602565b6119d381846127d0565b6119dd818361187d565b6119e8816001610bc2565b80600a60008673ffffffffffffffffffffffffffffffffffffffff1673ffffffffffffffffffffffffffffffffffffffff1681526020019081526020016000206000018190555050505050565b611a47611a40610ecb565b6001611135565b565b6000600660008473ffffffffffffffffffffffffffffffffffffffff1673ffffffffffffffffffffffffffffffffffffffff16815260200190815260200160002060008373ffffffffffffffffffffffffffffffffffffffff1673ffffffffffffffffffffffffffffffffffffffff16815260200190815260200160002060009054906101000a900460ff16905092915050565b611ae5612005565b73ffffffffffffffffffffffffffffffffffffffff16611b03610ecb565b73ffffffffffffffffffffffffffffffffffffffff1614611b59576040517f08c379a0000000000000000000000000000000000000000000000000000000008152600401611b509061391c565b60405180910390fd5b600073ffffffffffffffffffffffffffffffffffffffff168173ffffffffffffffffffffffffffffffffffffffff161415611bc9576040517f08c379a0000000000000000000000000000000000000000000000000000000008152600401611bc09061375c565b60405180910390fd5b611bd281612400565b50565b611bdd612005565b73ffffffffffffffffffffffffffffffffffffffff16611bfb610ecb565b73ffffffffffffffffffffffffffffffffffffffff1614611c51576040517f08c379a0000000000000000000000000000000000000000000000000000000008152600401611c489061391c565b60405180910390fd5b6000611c5c82610b17565b9050600115158115151415611ca6576040517f08c379a0000000000000000000000000000000000000000000000000000000008152600401611c9d9061377c565b60405180910390fd5b6000600a60008573ffffffffffffffffffffffffffffffffffffffff1673ffffffffffffffffffffffffffffffffffffffff1681526020019081526020016000206040518060a0016040529081600082015481526020016001820154815260200160028201548152602001600382018054611d2090613c6f565b80601f0160208091040260200160405190810160405280929190818152602001828054611d4c90613c6f565b8015611d995780601f10611d6e57610100808354040283529160200191611d99565b820191906000526020600020905b815481529060010190602001808311611d7c57829003601f168201915b50505050508152602001600482018054611db290613c6f565b80601f0160208091040260200160405190810160405280929190818152602001828054611dde90613c6f565b8015611e2b5780601f10611e0057610100808354040283529160200191611e2b565b820191906000526020600020905b815481529060010190602001808311611e0e57829003601f168201915b505050505081525050905060008160000151905060008111611e82576040517f08c379a0000000000000000000000000000000000000000000000000000000008152600401611e79906137fc565b60405180910390fd5b81600a60008673ffffffffffffffffffffffffffffffffffffffff1673ffffffffffffffffffffffffffffffffffffffff1681526020019081526020016000206000820151816000015560208201518160010155604082015181600201556060820151816003019080519060200190611efc929190612c57565b506080820151816004019080519060200190611f19929190612c57565b50905050611f28858583610b62565b5050505050565b60007f01ffc9a7000000000000000000000000000000000000000000000000000000007bffffffffffffffffffffffffffffffffffffffffffffffffffffffff1916827bffffffffffffffffffffffffffffffffffffffffffffffffffffffff1916149050919050565b60008073ffffffffffffffffffffffffffffffffffffffff166003600084815260200190815260200160002060009054906101000a900473ffffffffffffffffffffffffffffffffffffffff1673ffffffffffffffffffffffffffffffffffffffff1614159050919050565b600033905090565b816005600083815260200190815260200160002060006101000a81548173ffffffffffffffffffffffffffffffffffffffff021916908373ffffffffffffffffffffffffffffffffffffffff160217905550808273ffffffffffffffffffffffffffffffffffffffff1661208083610cd9565b73ffffffffffffffffffffffffffffffffffffffff167f8c5be1e5ebec7d5bd14f71427d1e84f3dd0314c0f7b2291e5b200ac8c7c3b92560405160405180910390a45050565b60006120d182611f99565b612110576040517f08c379a00000000000000000000000000000000000000000000000000000000081526004016121079061381c565b60405180910390fd5b600061211b83610cd9565b90508073ffffffffffffffffffffffffffffffffffffffff168473ffffffffffffffffffffffffffffffffffffffff16148061218a57508373ffffffffffffffffffffffffffffffffffffffff1661217284610950565b73ffffffffffffffffffffffffffffffffffffffff16145b8061219b575061219a8185611a49565b5b91505092915050565b8273ffffffffffffffffffffffffffffffffffffffff166121c482610cd9565b73ffffffffffffffffffffffffffffffffffffffff161461221a576040517f08c379a00000000000000000000000000000000000000000000000000000000081526004016122119061393c565b60405180910390fd5b600073ffffffffffffffffffffffffffffffffffffffff168273ffffffffffffffffffffffffffffffffffffffff16141561228a576040517f08c379a0000000000000000000000000000000000000000000000000000000008152600401612281906137bc565b60405180910390fd5b612295838383612844565b6122a060008261200d565b6001600460008573ffffffffffffffffffffffffffffffffffffffff1673ffffffffffffffffffffffffffffffffffffffff16815260200190815260200160002060008282546122f09190613b7b565b925050819055506001600460008473ffffffffffffffffffffffffffffffffffffffff1673ffffffffffffffffffffffffffffffffffffffff16815260200190815260200160002060008282546123479190613af4565b92505081905550816003600083815260200190815260200160002060006101000a81548173ffffffffffffffffffffffffffffffffffffffff021916908373ffffffffffffffffffffffffffffffffffffffff160217905550808273ffffffffffffffffffffffffffffffffffffffff168473ffffffffffffffffffffffffffffffffffffffff167fddf252ad1be2c89b69c2b068fc378daa952ba7f163c4a11628f55a4df523b3ef60405160405180910390a4505050565b60008060009054906101000a900473ffffffffffffffffffffffffffffffffffffffff169050816000806101000a81548173ffffffffffffffffffffffffffffffffffffffff021916908373ffffffffffffffffffffffffffffffffffffffff1602179055508173ffffffffffffffffffffffffffffffffffffffff168173ffffffffffffffffffffffffffffffffffffffff167f8be0079c531659141344cd1fd0a4f28419497f9722a3daafe3b4186f6b6457e060405160405180910390a35050565b6124cf8484846121a4565b6124db848484846128c9565b61251a576040517f08c379a00000000000000000000000000000000000000000000000000000000081526004016125119061373c565b60405180910390fd5b50505050565b606060405180602001604052806000815250905090565b606061254282611f99565b612581576040517f08c379a00000000000000000000000000000000000000000000000000000000081526004016125789061395c565b60405180910390fd5b600061258b612520565b905060008151116125ab57604051806020016040528060008152506125d6565b806125b584612a60565b6040516020016125c6929190613674565b6040516020818303038152906040525b915050919050565b600081600001549050919050565b6001816000016000828254019250508190555050565b600073ffffffffffffffffffffffffffffffffffffffff168273ffffffffffffffffffffffffffffffffffffffff161415612672576040517f08c379a0000000000000000000000000000000000000000000000000000000008152600401612669906138bc565b60405180910390fd5b61267b81611f99565b156126bb576040517f08c379a00000000000000000000000000000000000000000000000000000000081526004016126b29061379c565b60405180910390fd5b6126c760008383612844565b6001600460008473ffffffffffffffffffffffffffffffffffffffff1673ffffffffffffffffffffffffffffffffffffffff16815260200190815260200160002060008282546127179190613af4565b92505081905550816003600083815260200190815260200160002060006101000a81548173ffffffffffffffffffffffffffffffffffffffff021916908373ffffffffffffffffffffffffffffffffffffffff160217905550808273ffffffffffffffffffffffffffffffffffffffff16600073ffffffffffffffffffffffffffffffffffffffff167fddf252ad1be2c89b69c2b068fc378daa952ba7f163c4a11628f55a4df523b3ef60405160405180910390a45050565b6127d982611f99565b612818576040517f08c379a000000000000000000000000000000000000000000000000000000000815260040161280f9061389c565b60405180910390fd5b8060076000848152602001908152602001600020908051906020019061283f929190612c57565b505050565b61284f838383612c0d565b612857610ecb565b73ffffffffffffffffffffffffffffffffffffffff163373ffffffffffffffffffffffffffffffffffffffff16146128c4576040517f08c379a00000000000000000000000000000000000000000000000000000000081526004016128bb906139bc565b60405180910390fd5b505050565b60006128ea8473ffffffffffffffffffffffffffffffffffffffff16612c12565b15612a53578373ffffffffffffffffffffffffffffffffffffffff1663150b7a02612913612005565b8786866040518563ffffffff1660e01b815260040161293594939291906136b3565b602060405180830381600087803b15801561294f57600080fd5b505af192505050801561298057506040513d601f19601f8201168201806040525081019061297d91906130a8565b60015b612a03573d80600081146129b0576040519150601f19603f3d011682016040523d82523d6000602084013e6129b5565b606091505b506000815114156129fb576040517f08c379a00000000000000000000000000000000000000000000000000000000081526004016129f29061373c565b60405180910390fd5b805181602001fd5b63150b7a0260e01b7bffffffffffffffffffffffffffffffffffffffffffffffffffffffff1916817bffffffffffffffffffffffffffffffffffffffffffffffffffffffff191614915050612a58565b600190505b949350505050565b60606000821415612aa8576040518060400160405280600181526020017f30000000000000000000000000000000000000000000000000000000000000008152509050612c08565b600082905060005b60008214612ada578080612ac390613cd2565b915050600a82612ad39190613b4a565b9150612ab0565b60008167ffffffffffffffff811115612b1c577f4e487b7100000000000000000000000000000000000000000000000000000000600052604160045260246000fd5b6040519080825280601f01601f191660200182016040528015612b4e5781602001600182028036833780820191505090505b5090505b60008514612c0157600182612b679190613b7b565b9150600a85612b769190613d1b565b6030612b829190613af4565b60f81b818381518110612bbe577f4e487b7100000000000000000000000000000000000000000000000000000000600052603260045260246000fd5b60200101907effffffffffffffffffffffffffffffffffffffffffffffffffffffffffffff1916908160001a905350600a85612bfa9190613b4a565b9450612b52565b8093505050505b919050565b505050565b600080823b905060008111915050919050565b6040518060a0016040528060008152602001600081526020016000801916815260200160608152602001606081525090565b828054612c6390613c6f565b90600052602060002090601f016020900481019282612c855760008555612ccc565b82601f10612c9e57805160ff1916838001178555612ccc565b82800160010185558215612ccc579182015b82811115612ccb578251825591602001919060010190612cb0565b5b509050612cd99190612cdd565b5090565b5b80821115612cf6576000816000905550600101612cde565b5090565b6000612d0d612d0884613a3e565b613a19565b905082815260208101848484011115612d2557600080fd5b612d30848285613c2d565b509392505050565b6000612d4b612d4684613a6f565b613a19565b905082815260208101848484011115612d6357600080fd5b612d6e848285613c2d565b509392505050565b600081359050612d85816143b0565b92915050565b600081359050612d9a816143c7565b92915050565b600081359050612daf816143de565b92915050565b600081359050612dc4816143f5565b92915050565b600081519050612dd9816143f5565b92915050565b600082601f830112612df057600080fd5b8135612e00848260208601612cfa565b91505092915050565b600082601f830112612e1a57600080fd5b8135612e2a848260208601612d38565b91505092915050565b600081359050612e428161440c565b92915050565b600060208284031215612e5a57600080fd5b6000612e6884828501612d76565b91505092915050565b60008060408385031215612e8457600080fd5b6000612e9285828601612d76565b9250506020612ea385828601612d76565b9150509250929050565b600080600060608486031215612ec257600080fd5b6000612ed086828701612d76565b9350506020612ee186828701612d76565b9250506040612ef286828701612e33565b9150509250925092565b60008060008060808587031215612f1257600080fd5b6000612f2087828801612d76565b9450506020612f3187828801612d76565b9350506040612f4287828801612e33565b925050606085013567ffffffffffffffff811115612f5f57600080fd5b612f6b87828801612ddf565b91505092959194509250565b60008060408385031215612f8a57600080fd5b6000612f9885828601612d76565b9250506020612fa985828601612d8b565b9150509250929050565b600080600060608486031215612fc857600080fd5b6000612fd686828701612d76565b935050602084013567ffffffffffffffff811115612ff357600080fd5b612fff86828701612e09565b925050604061301086828701612e33565b9150509250925092565b6000806040838503121561302d57600080fd5b600061303b85828601612d76565b925050602061304c85828601612e33565b9150509250929050565b60006020828403121561306857600080fd5b600061307684828501612da0565b91505092915050565b60006020828403121561309157600080fd5b600061309f84828501612db5565b91505092915050565b6000602082840312156130ba57600080fd5b60006130c884828501612dca565b91505092915050565b6000806000606084860312156130e657600080fd5b600084013567ffffffffffffffff81111561310057600080fd5b61310c86828701612e09565b935050602084013567ffffffffffffffff81111561312957600080fd5b61313586828701612e09565b925050604061314686828701612e33565b9150509250925092565b60006020828403121561316257600080fd5b600061317084828501612e33565b91505092915050565b6000806040838503121561318c57600080fd5b600061319a85828601612e33565b92505060206131ab85828601612d8b565b9150509250929050565b600080604083850312156131c857600080fd5b60006131d685828601612e33565b92505060206131e785828601612e33565b9150509250929050565b6131fa81613baf565b82525050565b61320981613bc1565b82525050565b61321881613bcd565b82525050565b600061322982613aa0565b6132338185613ab6565b9350613243818560208601613c3c565b61324c81613e08565b840191505092915050565b600061326282613aab565b61326c8185613ac7565b935061327c818560208601613c3c565b61328581613e08565b840191505092915050565b600061329b82613aab565b6132a58185613ad8565b93506132b5818560208601613c3c565b6132be81613e08565b840191505092915050565b60006132d482613aab565b6132de8185613ae9565b93506132ee818560208601613c3c565b80840191505092915050565b6000613307603283613ad8565b915061331282613e19565b604082019050919050565b600061332a602683613ad8565b915061333582613e68565b604082019050919050565b600061334d602683613ad8565b915061335882613eb7565b604082019050919050565b6000613370601c83613ad8565b915061337b82613f06565b602082019050919050565b6000613393602483613ad8565b915061339e82613f2f565b604082019050919050565b60006133b6601983613ad8565b91506133c182613f7e565b602082019050919050565b60006133d9601883613ad8565b91506133e482613fa7565b602082019050919050565b60006133fc602c83613ad8565b915061340782613fd0565b604082019050919050565b600061341f603883613ad8565b915061342a8261401f565b604082019050919050565b6000613442602a83613ad8565b915061344d8261406e565b604082019050919050565b6000613465602983613ad8565b9150613470826140bd565b604082019050919050565b6000613488602e83613ad8565b91506134938261410c565b604082019050919050565b60006134ab602083613ad8565b91506134b68261415b565b602082019050919050565b60006134ce603183613ad8565b91506134d982614184565b604082019050919050565b60006134f1602c83613ad8565b91506134fc826141d3565b604082019050919050565b6000613514602083613ad8565b915061351f82614222565b602082019050919050565b6000613537602983613ad8565b91506135428261424b565b604082019050919050565b600061355a602f83613ad8565b91506135658261429a565b604082019050919050565b600061357d602183613ad8565b9150613588826142e9565b604082019050919050565b60006135a0603183613ad8565b91506135ab82614338565b604082019050919050565b60006135c3601483613ad8565b91506135ce82614387565b602082019050919050565b600060a0830160008301516135f16000860182613656565b5060208301516136046020860182613656565b506040830151613617604086018261320f565b506060830151848203606086015261362f8282613257565b915050608083015184820360808601526136498282613257565b9150508091505092915050565b61365f81613c23565b82525050565b61366e81613c23565b82525050565b600061368082856132c9565b915061368c82846132c9565b91508190509392505050565b60006020820190506136ad60008301846131f1565b92915050565b60006080820190506136c860008301876131f1565b6136d560208301866131f1565b6136e26040830185613665565b81810360608301526136f4818461321e565b905095945050505050565b60006020820190506137146000830184613200565b92915050565b600060208201905081810360008301526137348184613290565b905092915050565b60006020820190508181036000830152613755816132fa565b9050919050565b600060208201905081810360008301526137758161331d565b9050919050565b6000602082019050818103600083015261379581613340565b9050919050565b600060208201905081810360008301526137b581613363565b9050919050565b600060208201905081810360008301526137d581613386565b9050919050565b600060208201905081810360008301526137f5816133a9565b9050919050565b60006020820190508181036000830152613815816133cc565b9050919050565b60006020820190508181036000830152613835816133ef565b9050919050565b6000602082019050818103600083015261385581613412565b9050919050565b6000602082019050818103600083015261387581613435565b9050919050565b6000602082019050818103600083015261389581613458565b9050919050565b600060208201905081810360008301526138b58161347b565b9050919050565b600060208201905081810360008301526138d58161349e565b9050919050565b600060208201905081810360008301526138f5816134c1565b9050919050565b60006020820190508181036000830152613915816134e4565b9050919050565b6000602082019050818103600083015261393581613507565b9050919050565b600060208201905081810360008301526139558161352a565b9050919050565b600060208201905081810360008301526139758161354d565b9050919050565b6000602082019050818103600083015261399581613570565b9050919050565b600060208201905081810360008301526139b581613593565b9050919050565b600060208201905081810360008301526139d5816135b6565b9050919050565b600060208201905081810360008301526139f681846135d9565b905092915050565b6000602082019050613a136000830184613665565b92915050565b6000613a23613a34565b9050613a2f8282613ca1565b919050565b6000604051905090565b600067ffffffffffffffff821115613a5957613a58613dd9565b5b613a6282613e08565b9050602081019050919050565b600067ffffffffffffffff821115613a8a57613a89613dd9565b5b613a9382613e08565b9050602081019050919050565b600081519050919050565b600081519050919050565b600082825260208201905092915050565b600082825260208201905092915050565b600082825260208201905092915050565b600081905092915050565b6000613aff82613c23565b9150613b0a83613c23565b9250827fffffffffffffffffffffffffffffffffffffffffffffffffffffffffffffffff03821115613b3f57613b3e613d4c565b5b828201905092915050565b6000613b5582613c23565b9150613b6083613c23565b925082613b7057613b6f613d7b565b5b828204905092915050565b6000613b8682613c23565b9150613b9183613c23565b925082821015613ba457613ba3613d4c565b5b828203905092915050565b6000613bba82613c03565b9050919050565b60008115159050919050565b6000819050919050565b60007fffffffff0000000000000000000000000000000000000000000000000000000082169050919050565b600073ffffffffffffffffffffffffffffffffffffffff82169050919050565b6000819050919050565b82818337600083830152505050565b60005b83811015613c5a578082015181840152602081019050613c3f565b83811115613c69576000848401525b50505050565b60006002820490506001821680613c8757607f821691505b60208210811415613c9b57613c9a613daa565b5b50919050565b613caa82613e08565b810181811067ffffffffffffffff82111715613cc957613cc8613dd9565b5b80604052505050565b6000613cdd82613c23565b91507fffffffffffffffffffffffffffffffffffffffffffffffffffffffffffffffff821415613d1057613d0f613d4c565b5b600182019050919050565b6000613d2682613c23565b9150613d3183613c23565b925082613d4157613d40613d7b565b5b828206905092915050565b7f4e487b7100000000000000000000000000000000000000000000000000000000600052601160045260246000fd5b7f4e487b7100000000000000000000000000000000000000000000000000000000600052601260045260246000fd5b7f4e487b7100000000000000000000000000000000000000000000000000000000600052602260045260246000fd5b7f4e487b7100000000000000000000000000000000000000000000000000000000600052604160045260246000fd5b6000601f19601f8301169050919050565b7f4552433732313a207472616e7366657220746f206e6f6e20455243373231526560008201527f63656976657220696d706c656d656e7465720000000000000000000000000000602082015250565b7f4f776e61626c653a206e6577206f776e657220697320746865207a65726f206160008201527f6464726573730000000000000000000000000000000000000000000000000000602082015250565b7f546865206e657741646d696e2073686f756c6420626520616e20454f4120616360008201527f636f756e74210000000000000000000000000000000000000000000000000000602082015250565b7f4552433732313a20746f6b656e20616c7265616479206d696e74656400000000600082015250565b7f4552433732313a207472616e7366657220746f20746865207a65726f2061646460008201527f7265737300000000000000000000000000000000000000000000000000000000602082015250565b7f4552433732313a20617070726f766520746f2063616c6c657200000000000000600082015250565b7f546865207573657220646f6573206e6f74206578697374210000000000000000600082015250565b7f4552433732313a206f70657261746f7220717565727920666f72206e6f6e657860008201527f697374656e7420746f6b656e0000000000000000000000000000000000000000602082015250565b7f4552433732313a20617070726f76652063616c6c6572206973206e6f74206f7760008201527f6e6572206e6f7220617070726f76656420666f7220616c6c0000000000000000602082015250565b7f4552433732313a2062616c616e636520717565727920666f7220746865207a6560008201527f726f206164647265737300000000000000000000000000000000000000000000602082015250565b7f4552433732313a206f776e657220717565727920666f72206e6f6e657869737460008201527f656e7420746f6b656e0000000000000000000000000000000000000000000000602082015250565b7f45524337323155524953746f726167653a2055524920736574206f66206e6f6e60008201527f6578697374656e7420746f6b656e000000000000000000000000000000000000602082015250565b7f4552433732313a206d696e7420746f20746865207a65726f2061646472657373600082015250565b7f45524337323155524953746f726167653a2055524920717565727920666f722060008201527f6e6f6e6578697374656e7420746f6b656e000000000000000000000000000000602082015250565b7f4552433732313a20617070726f76656420717565727920666f72206e6f6e657860008201527f697374656e7420746f6b656e0000000000000000000000000000000000000000602082015250565b7f4f776e61626c653a2063616c6c6572206973206e6f7420746865206f776e6572600082015250565b7f4552433732313a207472616e73666572206f6620746f6b656e2074686174206960008201527f73206e6f74206f776e0000000000000000000000000000000000000000000000602082015250565b7f4552433732314d657461646174613a2055524920717565727920666f72206e6f60008201527f6e6578697374656e7420746f6b656e0000000000000000000000000000000000602082015250565b7f4552433732313a20617070726f76616c20746f2063757272656e74206f776e6560008201527f7200000000000000000000000000000000000000000000000000000000000000602082015250565b7f4552433732313a207472616e736665722063616c6c6572206973206e6f74206f60008201527f776e6572206e6f7220617070726f766564000000000000000000000000000000602082015250565b7f63616c6c6572206d757374206265206f776e6572000000000000000000000000600082015250565b6143b981613baf565b81146143c457600080fd5b50565b6143d081613bc1565b81146143db57600080fd5b50565b6143e781613bcd565b81146143f257600080fd5b50565b6143fe81613bd7565b811461440957600080fd5b50565b61441581613c23565b811461442057600080fd5b5056fea2646970667358221220bec7596d5e43990864d2aa4374fa37f5794c2a61eea408566e3a751b6af4380164736f6c63430008040033",
  "linkReferences": {},
  "deployedLinkReferences": {}
}