{
  "_format": "hh-sol-artifact-1",
  "contractName": "KYCManager",
  "sourceName": "contracts/KYCManager.sol",
  "abi": [
    {
      "anonymous": false,
      "inputs": [
        {
          "indexed": true,
          "internalType": "address",
          "name": "previousOwner",
          "type": "address"
        },
        {
          "indexed": true,
          "internalType": "address",
          "name": "newOwner",
          "type": "address"
        }
      ],
      "name": "OwnershipTransferred",
      "type": "event"
    },
    {
      "stateMutability": "payable",
      "type": "fallback"
    },
    {
      "inputs": [
        {
          "internalType": "address",
          "name": "managerAddr",
          "type": "address"
        }
      ],
      "name": "NFTIdOfManager",
      "outputs": [
        {
          "internalType": "uint256",
          "name": "",
          "type": "uint256"
        }
      ],
      "stateMutability": "view",
      "type": "function"
    },
    {
      "inputs": [
        {
          "internalType": "uint256",
          "name": "NFTid",
          "type": "uint256"
        }
      ],
      "name": "availableOfNFTId",
      "outputs": [
        {
          "internalType": "bool",
          "name": "",
          "type": "bool"
        }
      ],
      "stateMutability": "view",
      "type": "function"
    },
    {
      "inputs": [
        {
          "internalType": "string",
          "name": "tokenUrl",
          "type": "string"
        },
        {
          "internalType": "address",
          "name": "manager",
          "type": "address"
        },
        {
          "internalType": "uint256",
          "name": "expirationTime",
          "type": "uint256"
        }
      ],
      "name": "createKYCNFT",
      "outputs": [],
      "stateMutability": "nonpayable",
      "type": "function"
    },
    {
      "inputs": [
        {
          "internalType": "uint256",
          "name": "NFTid",
          "type": "uint256"
        },
        {
          "internalType": "address",
          "name": "manager",
          "type": "address"
        }
      ],
      "name": "initManagerAddr",
      "outputs": [],
      "stateMutability": "nonpayable",
      "type": "function"
    },
    {
      "inputs": [
        {
          "internalType": "uint256",
          "name": "NFTid",
          "type": "uint256"
        }
      ],
      "name": "managerOfNFTId",
      "outputs": [
        {
          "internalType": "address",
          "name": "",
          "type": "address"
        }
      ],
      "stateMutability": "view",
      "type": "function"
    },
    {
      "inputs": [
        {
          "internalType": "address",
          "name": "newManager",
          "type": "address"
        }
      ],
      "name": "modifyManagerAddr",
      "outputs": [],
      "stateMutability": "nonpayable",
      "type": "function"
    },
    {
      "inputs": [],
      "name": "owner",
      "outputs": [
        {
          "internalType": "address",
          "name": "",
          "type": "address"
        }
      ],
      "stateMutability": "view",
      "type": "function"
    },
    {
      "inputs": [],
      "name": "renounceOwnership",
      "outputs": [],
      "stateMutability": "nonpayable",
      "type": "function"
    },
    {
      "inputs": [
        {
          "internalType": "address",
          "name": "_kycnftContractAddr",
          "type": "address"
        }
      ],
      "name": "setKYCNFTContractAddress",
      "outputs": [],
      "stateMutability": "nonpayable",
      "type": "function"
    },
    {
      "inputs": [
        {
          "internalType": "uint256",
          "name": "NFTid",
          "type": "uint256"
        },
        {
          "internalType": "bool",
          "name": "_available",
          "type": "bool"
        }
      ],
      "name": "setNFTAvailableOfNFTId",
      "outputs": [],
      "stateMutability": "nonpayable",
      "type": "function"
    },
    {
      "inputs": [
        {
          "internalType": "address",
          "name": "newOwner",
          "type": "address"
        }
      ],
      "name": "transferOwnership",
      "outputs": [],
      "stateMutability": "nonpayable",
      "type": "function"
    },
    {
      "inputs": [
        {
          "internalType": "string",
          "name": "_accumulator",
          "type": "string"
        },
        {
          "internalType": "string",
          "name": "_n",
          "type": "string"
        },
        {
          "internalType": "uint256",
          "name": "_g",
          "type": "uint256"
        }
      ],
      "name": "updateAccumulator",
      "outputs": [],
      "stateMutability": "nonpayable",
      "type": "function"
    },
    {
      "inputs": [
        {
          "internalType": "string",
          "name": "_n",
          "type": "string"
        },
        {
          "internalType": "uint256",
          "name": "_g",
          "type": "uint256"
        }
      ],
      "name": "updateAccumulatorPublicKey",
      "outputs": [],
      "stateMutability": "nonpayable",
      "type": "function"
    },
    {
      "inputs": [
        {
          "internalType": "string",
          "name": "_accumulator",
          "type": "string"
        }
      ],
      "name": "updateAccumulatorValue",
      "outputs": [],
      "stateMutability": "nonpayable",
      "type": "function"
    },
    {
      "inputs": [
        {
          "internalType": "address",
          "name": "managerAddr",
          "type": "address"
        }
      ],
      "name": "userDataOfManager",
      "outputs": [
        {
          "components": [
            {
              "internalType": "uint256",
              "name": "NFTid",
              "type": "uint256"
            },
            {
              "internalType": "string",
              "name": "accumulator",
              "type": "string"
            },
            {
              "internalType": "string",
              "name": "n",
              "type": "string"
            },
            {
              "internalType": "uint256",
              "name": "g",
              "type": "uint256"
            }
          ],
          "internalType": "struct KYCManager.UserData",
          "name": "",
          "type": "tuple"
        }
      ],
      "stateMutability": "view",
      "type": "function"
    },
    {
      "inputs": [
        {
          "internalType": "uint256",
          "name": "NFTid",
          "type": "uint256"
        }
      ],
      "name": "userDataOfNFTId",
      "outputs": [
        {
          "components": [
            {
              "internalType": "uint256",
              "name": "NFTid",
              "type": "uint256"
            },
            {
              "internalType": "string",
              "name": "accumulator",
              "type": "string"
            },
            {
              "internalType": "string",
              "name": "n",
              "type": "string"
            },
            {
              "internalType": "uint256",
              "name": "g",
              "type": "uint256"
            }
          ],
          "internalType": "struct KYCManager.UserData",
          "name": "",
          "type": "tuple"
        }
      ],
      "stateMutability": "view",
      "type": "function"
    },
    {
      "inputs": [
        {
          "internalType": "bytes32",
          "name": "root",
          "type": "bytes32"
        },
        {
          "internalType": "bytes32",
          "name": "leaf",
          "type": "bytes32"
        },
        {
          "internalType": "bytes32[]",
          "name": "proof",
          "type": "bytes32[]"
        },
        {
          "internalType": "uint256[]",
          "name": "positions",
          "type": "uint256[]"
        }
      ],
      "name": "verify",
      "outputs": [
        {
          "internalType": "bool",
          "name": "",
          "type": "bool"
        }
      ],
      "stateMutability": "pure",
      "type": "function"
    },
    {
      "stateMutability": "payable",
      "type": "receive"
    }
  ],
  "bytecode": "0x608060405234801561001057600080fd5b5061002d61002261003260201b60201c565b61003a60201b60201c565b6100fe565b600033905090565b60008060009054906101000a900473ffffffffffffffffffffffffffffffffffffffff169050816000806101000a81548173ffffffffffffffffffffffffffffffffffffffff021916908373ffffffffffffffffffffffffffffffffffffffff1602179055508173ffffffffffffffffffffffffffffffffffffffff168173ffffffffffffffffffffffffffffffffffffffff167f8be0079c531659141344cd1fd0a4f28419497f9722a3daafe3b4186f6b6457e060405160405180910390a35050565b6120ac806200010e6000396000f3fe6080604052600436106101025760003560e01c80639bb6dcc811610095578063d1933ddd11610064578063d1933ddd14610365578063d6f70eb31461038e578063f2fde38b146103b7578063fa0e9e41146103e0578063fbc2cf13146104095761010c565b80639bb6dcc814610285578063ad575035146102c2578063b2b72bc4146102ff578063bafdee141461033c5761010c565b8063715018a6116100d1578063715018a6146101dd578063717b9b6c146101f45780638da5cb5b1461021d578063917b8fd0146102485761010c565b80630e197dc9146101115780631ff4bdf31461014e5780633960a892146101775780634b3cef44146101a05761010c565b3661010c57600080fd5b600080fd5b34801561011d57600080fd5b50610138600480360381019061013391906119c0565b610432565b6040516101459190611c76565b60405180910390f35b34801561015a57600080fd5b5061017560048036038101906101709190611781565b61045c565b005b34801561018357600080fd5b5061019e60048036038101906101999190611a12565b6106cd565b005b3480156101ac57600080fd5b506101c760048036038101906101c291906119c0565b6107e6565b6040516101d49190611c2b565b60405180910390f35b3480156101e957600080fd5b506101f2610828565b005b34801561020057600080fd5b5061021b60048036038101906102169190611a4e565b6108b0565b005b34801561022957600080fd5b5061023261095b565b60405161023f9190611c2b565b60405180910390f35b34801561025457600080fd5b5061026f600480360381019061026a91906119c0565b610984565b60405161027c9190611cd1565b60405180910390f35b34801561029157600080fd5b506102ac60048036038101906102a791906117aa565b610b54565b6040516102b99190611c76565b60405180910390f35b3480156102ce57600080fd5b506102e960048036038101906102e49190611781565b610c75565b6040516102f69190611cd1565b60405180910390f35b34801561030b57600080fd5b5061032660048036038101906103219190611781565b610e0c565b6040516103339190611cf3565b60405180910390f35b34801561034857600080fd5b50610363600480360381019061035e91906118ed565b610fa0565b005b34801561037157600080fd5b5061038c60048036038101906103879190611886565b611024565b005b34801561039a57600080fd5b506103b560048036038101906103b09190611845565b611203565b005b3480156103c357600080fd5b506103de60048036038101906103d99190611781565b611263565b005b3480156103ec57600080fd5b506104076004803603810190610402919061196c565b61135b565b005b34801561041557600080fd5b50610430600480360381019061042b9190611781565b6113c5565b005b60006004600083815260200190815260200160002060009054906101000a900460ff169050919050565b6000600360003373ffffffffffffffffffffffffffffffffffffffff1673ffffffffffffffffffffffffffffffffffffffff168152602001908152602001600020604051806080016040529081600082015481526020016001820180546104c290611e4e565b80601f01602080910402602001604051908101604052809291908181526020018280546104ee90611e4e565b801561053b5780601f106105105761010080835404028352916020019161053b565b820191906000526020600020905b81548152906001019060200180831161051e57829003601f168201915b5050505050815260200160028201805461055490611e4e565b80601f016020809104026020016040519081016040528092919081815260200182805461058090611e4e565b80156105cd5780601f106105a2576101008083540402835291602001916105cd565b820191906000526020600020905b8154815290600101906020018083116105b057829003601f168201915b50505050508152602001600382015481525050905080600360008473ffffffffffffffffffffffffffffffffffffffff1673ffffffffffffffffffffffffffffffffffffffff168152602001908152602001600020600082015181600001556020820151816001019080519060200190610648929190611551565b506040820151816002019080519060200190610665929190611551565b506060820151816003015590505081600260008360000151815260200190815260200160002060006101000a81548173ffffffffffffffffffffffffffffffffffffffff021916908373ffffffffffffffffffffffffffffffffffffffff1602179055505050565b6106d5611485565b73ffffffffffffffffffffffffffffffffffffffff166106f361095b565b73ffffffffffffffffffffffffffffffffffffffff1614610749576040517f08c379a000000000000000000000000000000000000000000000000000000000815260040161074090611cb1565b60405180910390fd5b806002600084815260200190815260200160002060006101000a81548173ffffffffffffffffffffffffffffffffffffffff021916908373ffffffffffffffffffffffffffffffffffffffff16021790555081600360008373ffffffffffffffffffffffffffffffffffffffff1673ffffffffffffffffffffffffffffffffffffffff168152602001908152602001600020600001819055505050565b6000806002600084815260200190815260200160002060009054906101000a900473ffffffffffffffffffffffffffffffffffffffff16905080915050919050565b610830611485565b73ffffffffffffffffffffffffffffffffffffffff1661084e61095b565b73ffffffffffffffffffffffffffffffffffffffff16146108a4576040517f08c379a000000000000000000000000000000000000000000000000000000000815260040161089b90611cb1565b60405180910390fd5b6108ae600061148d565b565b6108b8611485565b73ffffffffffffffffffffffffffffffffffffffff166108d661095b565b73ffffffffffffffffffffffffffffffffffffffff161461092c576040517f08c379a000000000000000000000000000000000000000000000000000000000815260040161092390611cb1565b60405180910390fd5b806004600084815260200190815260200160002060006101000a81548160ff0219169083151502179055505050565b60008060009054906101000a900473ffffffffffffffffffffffffffffffffffffffff16905090565b61098c6115d7565b60006002600084815260200190815260200160002060009054906101000a900473ffffffffffffffffffffffffffffffffffffffff1690506000600360008373ffffffffffffffffffffffffffffffffffffffff1673ffffffffffffffffffffffffffffffffffffffff16815260200190815260200160002060405180608001604052908160008201548152602001600182018054610a2a90611e4e565b80601f0160208091040260200160405190810160405280929190818152602001828054610a5690611e4e565b8015610aa35780601f10610a7857610100808354040283529160200191610aa3565b820191906000526020600020905b815481529060010190602001808311610a8657829003601f168201915b50505050508152602001600282018054610abc90611e4e565b80601f0160208091040260200160405190810160405280929190818152602001828054610ae890611e4e565b8015610b355780601f10610b0a57610100808354040283529160200191610b35565b820191906000526020600020905b815481529060010190602001808311610b1857829003601f168201915b5050505050815260200160038201548152505090508092505050919050565b60008086905060005b86869050811015610c64576000878783818110610ba3577f4e487b7100000000000000000000000000000000000000000000000000000000600052603260045260246000fd5b9050602002013590506001868684818110610be7577f4e487b7100000000000000000000000000000000000000000000000000000000600052603260045260246000fd5b905060200201351415610c24578281604051602001610c07929190611bff565b604051602081830303815290604052805190602001209250610c50565b8083604051602001610c37929190611bff565b6040516020818303038152906040528051906020012092505b508080610c5c90611eb1565b915050610b5d565b508781149150509695505050505050565b610c7d6115d7565b6000600360008473ffffffffffffffffffffffffffffffffffffffff1673ffffffffffffffffffffffffffffffffffffffff16815260200190815260200160002060405180608001604052908160008201548152602001600182018054610ce390611e4e565b80601f0160208091040260200160405190810160405280929190818152602001828054610d0f90611e4e565b8015610d5c5780601f10610d3157610100808354040283529160200191610d5c565b820191906000526020600020905b815481529060010190602001808311610d3f57829003601f168201915b50505050508152602001600282018054610d7590611e4e565b80601f0160208091040260200160405190810160405280929190818152602001828054610da190611e4e565b8015610dee5780601f10610dc357610100808354040283529160200191610dee565b820191906000526020600020905b815481529060010190602001808311610dd157829003601f168201915b50505050508152602001600382015481525050905080915050919050565b600080600360008473ffffffffffffffffffffffffffffffffffffffff1673ffffffffffffffffffffffffffffffffffffffff16815260200190815260200160002060405180608001604052908160008201548152602001600182018054610e7390611e4e565b80601f0160208091040260200160405190810160405280929190818152602001828054610e9f90611e4e565b8015610eec5780601f10610ec157610100808354040283529160200191610eec565b820191906000526020600020905b815481529060010190602001808311610ecf57829003601f168201915b50505050508152602001600282018054610f0590611e4e565b80601f0160208091040260200160405190810160405280929190818152602001828054610f3190611e4e565b8015610f7e5780601f10610f5357610100808354040283529160200191610f7e565b820191906000526020600020905b815481529060010190602001808311610f6157829003601f168201915b5050505050815260200160038201548152505090508060000151915050919050565b6000600360003373ffffffffffffffffffffffffffffffffffffffff1673ffffffffffffffffffffffffffffffffffffffff168152602001908152602001600020905083816001019080519060200190610ffb929190611551565b5082816002019080519060200190611014929190611551565b5081816003018190555050505050565b61102c611485565b73ffffffffffffffffffffffffffffffffffffffff1661104a61095b565b73ffffffffffffffffffffffffffffffffffffffff16146110a0576040517f08c379a000000000000000000000000000000000000000000000000000000000815260040161109790611cb1565b60405180910390fd5b60003090506000600160009054906101000a900473ffffffffffffffffffffffffffffffffffffffff1673ffffffffffffffffffffffffffffffffffffffff1663cf37834383876040518363ffffffff1660e01b8152600401611104929190611c46565b602060405180830381600087803b15801561111e57600080fd5b505af1158015611132573d6000803e3d6000fd5b505050506040513d601f19601f8201168201806040525081019061115691906119e9565b9050600160009054906101000a900473ffffffffffffffffffffffffffffffffffffffff1673ffffffffffffffffffffffffffffffffffffffff1663e1b2e97982856040518363ffffffff1660e01b81526004016111b5929190611d0e565b600060405180830381600087803b1580156111cf57600080fd5b505af11580156111e3573d6000803e3d6000fd5b505050506111f28160016108b0565b6111fc81856106cd565b5050505050565b6000600360003373ffffffffffffffffffffffffffffffffffffffff1673ffffffffffffffffffffffffffffffffffffffff16815260200190815260200160002090508181600101908051906020019061125e929190611551565b505050565b61126b611485565b73ffffffffffffffffffffffffffffffffffffffff1661128961095b565b73ffffffffffffffffffffffffffffffffffffffff16146112df576040517f08c379a00000000000000000000000000000000000000000000000000000000081526004016112d690611cb1565b60405180910390fd5b600073ffffffffffffffffffffffffffffffffffffffff168173ffffffffffffffffffffffffffffffffffffffff16141561134f576040517f08c379a000000000000000000000000000000000000000000000000000000000815260040161134690611c91565b60405180910390fd5b6113588161148d565b50565b6000600360003373ffffffffffffffffffffffffffffffffffffffff1673ffffffffffffffffffffffffffffffffffffffff1681526020019081526020016000209050828160020190805190602001906113b6929190611551565b50818160030181905550505050565b6113cd611485565b73ffffffffffffffffffffffffffffffffffffffff166113eb61095b565b73ffffffffffffffffffffffffffffffffffffffff1614611441576040517f08c379a000000000000000000000000000000000000000000000000000000000815260040161143890611cb1565b60405180910390fd5b80600160006101000a81548173ffffffffffffffffffffffffffffffffffffffff021916908373ffffffffffffffffffffffffffffffffffffffff16021790555050565b600033905090565b60008060009054906101000a900473ffffffffffffffffffffffffffffffffffffffff169050816000806101000a81548173ffffffffffffffffffffffffffffffffffffffff021916908373ffffffffffffffffffffffffffffffffffffffff1602179055508173ffffffffffffffffffffffffffffffffffffffff168173ffffffffffffffffffffffffffffffffffffffff167f8be0079c531659141344cd1fd0a4f28419497f9722a3daafe3b4186f6b6457e060405160405180910390a35050565b82805461155d90611e4e565b90600052602060002090601f01602090048101928261157f57600085556115c6565b82601f1061159857805160ff19168380011785556115c6565b828001600101855582156115c6579182015b828111156115c55782518255916020019190600101906115aa565b5b5090506115d391906115ff565b5090565b6040518060800160405280600081526020016060815260200160608152602001600081525090565b5b80821115611618576000816000905550600101611600565b5090565b600061162f61162a84611d5c565b611d37565b90508281526020810184848401111561164757600080fd5b611652848285611e0c565b509392505050565b6000813590506116698161201a565b92915050565b60008083601f84011261168157600080fd5b8235905067ffffffffffffffff81111561169a57600080fd5b6020830191508360208202830111156116b257600080fd5b9250929050565b60008083601f8401126116cb57600080fd5b8235905067ffffffffffffffff8111156116e457600080fd5b6020830191508360208202830111156116fc57600080fd5b9250929050565b60008135905061171281612031565b92915050565b60008135905061172781612048565b92915050565b600082601f83011261173e57600080fd5b813561174e84826020860161161c565b91505092915050565b6000813590506117668161205f565b92915050565b60008151905061177b8161205f565b92915050565b60006020828403121561179357600080fd5b60006117a18482850161165a565b91505092915050565b600080600080600080608087890312156117c357600080fd5b60006117d189828a01611718565b96505060206117e289828a01611718565b955050604087013567ffffffffffffffff8111156117ff57600080fd5b61180b89828a0161166f565b9450945050606087013567ffffffffffffffff81111561182a57600080fd5b61183689828a016116b9565b92509250509295509295509295565b60006020828403121561185757600080fd5b600082013567ffffffffffffffff81111561187157600080fd5b61187d8482850161172d565b91505092915050565b60008060006060848603121561189b57600080fd5b600084013567ffffffffffffffff8111156118b557600080fd5b6118c18682870161172d565b93505060206118d28682870161165a565b92505060406118e386828701611757565b9150509250925092565b60008060006060848603121561190257600080fd5b600084013567ffffffffffffffff81111561191c57600080fd5b6119288682870161172d565b935050602084013567ffffffffffffffff81111561194557600080fd5b6119518682870161172d565b925050604061196286828701611757565b9150509250925092565b6000806040838503121561197f57600080fd5b600083013567ffffffffffffffff81111561199957600080fd5b6119a58582860161172d565b92505060206119b685828601611757565b9150509250929050565b6000602082840312156119d257600080fd5b60006119e084828501611757565b91505092915050565b6000602082840312156119fb57600080fd5b6000611a098482850161176c565b91505092915050565b60008060408385031215611a2557600080fd5b6000611a3385828601611757565b9250506020611a448582860161165a565b9150509250929050565b60008060408385031215611a6157600080fd5b6000611a6f85828601611757565b9250506020611a8085828601611703565b9150509250929050565b611a9381611dba565b82525050565b611aa281611dcc565b82525050565b611ab9611ab482611dd8565b611efa565b82525050565b6000611aca82611d8d565b611ad48185611d98565b9350611ae4818560208601611e1b565b611aed81611f91565b840191505092915050565b6000611b0382611d8d565b611b0d8185611da9565b9350611b1d818560208601611e1b565b611b2681611f91565b840191505092915050565b6000611b3e602683611da9565b9150611b4982611fa2565b604082019050919050565b6000611b61602083611da9565b9150611b6c82611ff1565b602082019050919050565b6000608083016000830151611b8f6000860182611be1565b5060208301518482036020860152611ba78282611abf565b91505060408301518482036040860152611bc18282611abf565b9150506060830151611bd66060860182611be1565b508091505092915050565b611bea81611e02565b82525050565b611bf981611e02565b82525050565b6000611c0b8285611aa8565b602082019150611c1b8284611aa8565b6020820191508190509392505050565b6000602082019050611c406000830184611a8a565b92915050565b6000604082019050611c5b6000830185611a8a565b8181036020830152611c6d8184611af8565b90509392505050565b6000602082019050611c8b6000830184611a99565b92915050565b60006020820190508181036000830152611caa81611b31565b9050919050565b60006020820190508181036000830152611cca81611b54565b9050919050565b60006020820190508181036000830152611ceb8184611b77565b905092915050565b6000602082019050611d086000830184611bf0565b92915050565b6000604082019050611d236000830185611bf0565b611d306020830184611bf0565b9392505050565b6000611d41611d52565b9050611d4d8282611e80565b919050565b6000604051905090565b600067ffffffffffffffff821115611d7757611d76611f62565b5b611d8082611f91565b9050602081019050919050565b600081519050919050565b600082825260208201905092915050565b600082825260208201905092915050565b6000611dc582611de2565b9050919050565b60008115159050919050565b6000819050919050565b600073ffffffffffffffffffffffffffffffffffffffff82169050919050565b6000819050919050565b82818337600083830152505050565b60005b83811015611e39578082015181840152602081019050611e1e565b83811115611e48576000848401525b50505050565b60006002820490506001821680611e6657607f821691505b60208210811415611e7a57611e79611f33565b5b50919050565b611e8982611f91565b810181811067ffffffffffffffff82111715611ea857611ea7611f62565b5b80604052505050565b6000611ebc82611e02565b91507fffffffffffffffffffffffffffffffffffffffffffffffffffffffffffffffff821415611eef57611eee611f04565b5b600182019050919050565b6000819050919050565b7f4e487b7100000000000000000000000000000000000000000000000000000000600052601160045260246000fd5b7f4e487b7100000000000000000000000000000000000000000000000000000000600052602260045260246000fd5b7f4e487b7100000000000000000000000000000000000000000000000000000000600052604160045260246000fd5b6000601f19601f8301169050919050565b7f4f776e61626c653a206e6577206f776e657220697320746865207a65726f206160008201527f6464726573730000000000000000000000000000000000000000000000000000602082015250565b7f4f776e61626c653a2063616c6c6572206973206e6f7420746865206f776e6572600082015250565b61202381611dba565b811461202e57600080fd5b50565b61203a81611dcc565b811461204557600080fd5b50565b61205181611dd8565b811461205c57600080fd5b50565b61206881611e02565b811461207357600080fd5b5056fea2646970667358221220725ea564cc618b7145f65b9146c5403bed572e4ca6be0ac5dc1ece3f36f7c01b64736f6c63430008030033",
  "linkReferences": {},
  "deployedLinkReferences": {}
}