{
  "_format": "hh-sol-artifact-1",
  "contractName": "KYCManagerV1",
  "sourceName": "contracts/KYCManager.sol",
  "abi": [
    {
      "anonymous": false,
      "inputs": [
        {
          "indexed": true,
          "internalType": "address",
          "name": "previousOwner",
          "type": "address"
        },
        {
          "indexed": true,
          "internalType": "address",
          "name": "newOwner",
          "type": "address"
        }
      ],
      "name": "OwnershipTransferred",
      "type": "event"
    },
    {
      "stateMutability": "payable",
      "type": "fallback"
    },
    {
      "inputs": [
        {
          "internalType": "address",
          "name": "managerAddr",
          "type": "address"
        }
      ],
      "name": "NFTIdOfManager",
      "outputs": [
        {
          "internalType": "uint256",
          "name": "",
          "type": "uint256"
        }
      ],
      "stateMutability": "view",
      "type": "function"
    },
    {
      "inputs": [
        {
          "internalType": "uint256",
          "name": "NFTid",
          "type": "uint256"
        }
      ],
      "name": "availableOfNFTId",
      "outputs": [
        {
          "internalType": "bool",
          "name": "",
          "type": "bool"
        }
      ],
      "stateMutability": "view",
      "type": "function"
    },
    {
      "inputs": [
        {
          "internalType": "string",
          "name": "tokenUrl",
          "type": "string"
        },
        {
          "internalType": "address",
          "name": "manager",
          "type": "address"
        },
        {
          "internalType": "uint256",
          "name": "expirationTime",
          "type": "uint256"
        }
      ],
      "name": "createKYCNFT",
      "outputs": [],
      "stateMutability": "nonpayable",
      "type": "function"
    },
    {
      "inputs": [
        {
          "internalType": "uint256",
          "name": "NFTid",
          "type": "uint256"
        },
        {
          "internalType": "address",
          "name": "manager",
          "type": "address"
        }
      ],
      "name": "initManagerAddr",
      "outputs": [],
      "stateMutability": "nonpayable",
      "type": "function"
    },
    {
      "inputs": [
        {
          "internalType": "uint256",
          "name": "NFTid",
          "type": "uint256"
        }
      ],
      "name": "managerOfNFTId",
      "outputs": [
        {
          "internalType": "address",
          "name": "",
          "type": "address"
        }
      ],
      "stateMutability": "view",
      "type": "function"
    },
    {
      "inputs": [
        {
          "internalType": "address",
          "name": "newManager",
          "type": "address"
        }
      ],
      "name": "modifyManagerAddr",
      "outputs": [],
      "stateMutability": "nonpayable",
      "type": "function"
    },
    {
      "inputs": [],
      "name": "owner",
      "outputs": [
        {
          "internalType": "address",
          "name": "",
          "type": "address"
        }
      ],
      "stateMutability": "view",
      "type": "function"
    },
    {
      "inputs": [],
      "name": "renounceOwnership",
      "outputs": [],
      "stateMutability": "nonpayable",
      "type": "function"
    },
    {
      "inputs": [
        {
          "internalType": "address",
          "name": "_kycnftContractAddr",
          "type": "address"
        }
      ],
      "name": "setKYCNFTContractAddress",
      "outputs": [],
      "stateMutability": "nonpayable",
      "type": "function"
    },
    {
      "inputs": [
        {
          "internalType": "uint256",
          "name": "NFTid",
          "type": "uint256"
        },
        {
          "internalType": "bool",
          "name": "_available",
          "type": "bool"
        }
      ],
      "name": "setNFTAvailableOfNFTId",
      "outputs": [],
      "stateMutability": "nonpayable",
      "type": "function"
    },
    {
      "inputs": [
        {
          "internalType": "address",
          "name": "newOwner",
          "type": "address"
        }
      ],
      "name": "transferOwnership",
      "outputs": [],
      "stateMutability": "nonpayable",
      "type": "function"
    },
    {
      "inputs": [
        {
          "internalType": "string",
          "name": "_accumulator",
          "type": "string"
        },
        {
          "internalType": "string",
          "name": "_n",
          "type": "string"
        },
        {
          "internalType": "uint256",
          "name": "_g",
          "type": "uint256"
        }
      ],
      "name": "updateAccumulator",
      "outputs": [],
      "stateMutability": "nonpayable",
      "type": "function"
    },
    {
      "inputs": [
        {
          "internalType": "string",
          "name": "_n",
          "type": "string"
        },
        {
          "internalType": "uint256",
          "name": "_g",
          "type": "uint256"
        }
      ],
      "name": "updateAccumulatorPublicKey",
      "outputs": [],
      "stateMutability": "nonpayable",
      "type": "function"
    },
    {
      "inputs": [
        {
          "internalType": "string",
          "name": "_accumulator",
          "type": "string"
        }
      ],
      "name": "updateAccumulatorValue",
      "outputs": [],
      "stateMutability": "nonpayable",
      "type": "function"
    },
    {
      "inputs": [
        {
          "internalType": "address",
          "name": "managerAddr",
          "type": "address"
        }
      ],
      "name": "userDataOfManager",
      "outputs": [
        {
          "components": [
            {
              "internalType": "uint256",
              "name": "NFTid",
              "type": "uint256"
            },
            {
              "internalType": "string",
              "name": "accumulator",
              "type": "string"
            },
            {
              "internalType": "string",
              "name": "n",
              "type": "string"
            },
            {
              "internalType": "uint256",
              "name": "g",
              "type": "uint256"
            }
          ],
          "internalType": "struct KYCManagerV1.UserData",
          "name": "",
          "type": "tuple"
        }
      ],
      "stateMutability": "view",
      "type": "function"
    },
    {
      "inputs": [
        {
          "internalType": "uint256",
          "name": "NFTid",
          "type": "uint256"
        }
      ],
      "name": "userDataOfNFTId",
      "outputs": [
        {
          "components": [
            {
              "internalType": "uint256",
              "name": "NFTid",
              "type": "uint256"
            },
            {
              "internalType": "string",
              "name": "accumulator",
              "type": "string"
            },
            {
              "internalType": "string",
              "name": "n",
              "type": "string"
            },
            {
              "internalType": "uint256",
              "name": "g",
              "type": "uint256"
            }
          ],
          "internalType": "struct KYCManagerV1.UserData",
          "name": "",
          "type": "tuple"
        }
      ],
      "stateMutability": "view",
      "type": "function"
    },
    {
      "stateMutability": "payable",
      "type": "receive"
    }
  ],
  "bytecode": "0x608060405234801561001057600080fd5b5061002d61002261003260201b60201c565b61003a60201b60201c565b6100fe565b600033905090565b60008060009054906101000a900473ffffffffffffffffffffffffffffffffffffffff169050816000806101000a81548173ffffffffffffffffffffffffffffffffffffffff021916908373ffffffffffffffffffffffffffffffffffffffff1602179055508173ffffffffffffffffffffffffffffffffffffffff168173ffffffffffffffffffffffffffffffffffffffff167f8be0079c531659141344cd1fd0a4f28419497f9722a3daafe3b4186f6b6457e060405160405180910390a35050565b611d198061010d6000396000f3fe6080604052600436106100f75760003560e01c8063ad5750351161008a578063d6f70eb311610059578063d6f70eb314610346578063f2fde38b1461036f578063fa0e9e4114610398578063fbc2cf13146103c157610101565b8063ad5750351461027a578063b2b72bc4146102b7578063bafdee14146102f4578063d1933ddd1461031d57610101565b8063715018a6116100c6578063715018a6146101d2578063717b9b6c146101e95780638da5cb5b14610212578063917b8fd01461023d57610101565b80630e197dc9146101065780631ff4bdf3146101435780633960a8921461016c5780634b3cef441461019557610101565b3661010157600080fd5b600080fd5b34801561011257600080fd5b5061012d60048036038101906101289190611713565b6103ea565b60405161013a9190611986565b60405180910390f35b34801561014f57600080fd5b5061016a6004803603810190610165919061156f565b610414565b005b34801561017857600080fd5b50610193600480360381019061018e9190611765565b610685565b005b3480156101a157600080fd5b506101bc60048036038101906101b79190611713565b61079e565b6040516101c9919061193b565b60405180910390f35b3480156101de57600080fd5b506101e76107e0565b005b3480156101f557600080fd5b50610210600480360381019061020b91906117a1565b610868565b005b34801561021e57600080fd5b50610227610913565b604051610234919061193b565b60405180910390f35b34801561024957600080fd5b50610264600480360381019061025f9190611713565b61093c565b60405161027191906119e1565b60405180910390f35b34801561028657600080fd5b506102a1600480360381019061029c919061156f565b610b0c565b6040516102ae91906119e1565b60405180910390f35b3480156102c357600080fd5b506102de60048036038101906102d9919061156f565b610ca3565b6040516102eb9190611a03565b60405180910390f35b34801561030057600080fd5b5061031b60048036038101906103169190611640565b610e37565b005b34801561032957600080fd5b50610344600480360381019061033f91906115d9565b610ebb565b005b34801561035257600080fd5b5061036d60048036038101906103689190611598565b61109a565b005b34801561037b57600080fd5b506103966004803603810190610391919061156f565b6110fa565b005b3480156103a457600080fd5b506103bf60048036038101906103ba91906116bf565b6111f2565b005b3480156103cd57600080fd5b506103e860048036038101906103e3919061156f565b61125c565b005b60006004600083815260200190815260200160002060009054906101000a900460ff169050919050565b6000600360003373ffffffffffffffffffffffffffffffffffffffff1673ffffffffffffffffffffffffffffffffffffffff1681526020019081526020016000206040518060800160405290816000820154815260200160018201805461047a90611b54565b80601f01602080910402602001604051908101604052809291908181526020018280546104a690611b54565b80156104f35780601f106104c8576101008083540402835291602001916104f3565b820191906000526020600020905b8154815290600101906020018083116104d657829003601f168201915b5050505050815260200160028201805461050c90611b54565b80601f016020809104026020016040519081016040528092919081815260200182805461053890611b54565b80156105855780601f1061055a57610100808354040283529160200191610585565b820191906000526020600020905b81548152906001019060200180831161056857829003601f168201915b50505050508152602001600382015481525050905080600360008473ffffffffffffffffffffffffffffffffffffffff1673ffffffffffffffffffffffffffffffffffffffff1681526020019081526020016000206000820151816000015560208201518160010190805190602001906106009291906113e8565b50604082015181600201908051906020019061061d9291906113e8565b506060820151816003015590505081600260008360000151815260200190815260200160002060006101000a81548173ffffffffffffffffffffffffffffffffffffffff021916908373ffffffffffffffffffffffffffffffffffffffff1602179055505050565b61068d61131c565b73ffffffffffffffffffffffffffffffffffffffff166106ab610913565b73ffffffffffffffffffffffffffffffffffffffff1614610701576040517f08c379a00000000000000000000000000000000000000000000000000000000081526004016106f8906119c1565b60405180910390fd5b806002600084815260200190815260200160002060006101000a81548173ffffffffffffffffffffffffffffffffffffffff021916908373ffffffffffffffffffffffffffffffffffffffff16021790555081600360008373ffffffffffffffffffffffffffffffffffffffff1673ffffffffffffffffffffffffffffffffffffffff168152602001908152602001600020600001819055505050565b6000806002600084815260200190815260200160002060009054906101000a900473ffffffffffffffffffffffffffffffffffffffff16905080915050919050565b6107e861131c565b73ffffffffffffffffffffffffffffffffffffffff16610806610913565b73ffffffffffffffffffffffffffffffffffffffff161461085c576040517f08c379a0000000000000000000000000000000000000000000000000000000008152600401610853906119c1565b60405180910390fd5b6108666000611324565b565b61087061131c565b73ffffffffffffffffffffffffffffffffffffffff1661088e610913565b73ffffffffffffffffffffffffffffffffffffffff16146108e4576040517f08c379a00000000000000000000000000000000000000000000000000000000081526004016108db906119c1565b60405180910390fd5b806004600084815260200190815260200160002060006101000a81548160ff0219169083151502179055505050565b60008060009054906101000a900473ffffffffffffffffffffffffffffffffffffffff16905090565b61094461146e565b60006002600084815260200190815260200160002060009054906101000a900473ffffffffffffffffffffffffffffffffffffffff1690506000600360008373ffffffffffffffffffffffffffffffffffffffff1673ffffffffffffffffffffffffffffffffffffffff168152602001908152602001600020604051806080016040529081600082015481526020016001820180546109e290611b54565b80601f0160208091040260200160405190810160405280929190818152602001828054610a0e90611b54565b8015610a5b5780601f10610a3057610100808354040283529160200191610a5b565b820191906000526020600020905b815481529060010190602001808311610a3e57829003601f168201915b50505050508152602001600282018054610a7490611b54565b80601f0160208091040260200160405190810160405280929190818152602001828054610aa090611b54565b8015610aed5780601f10610ac257610100808354040283529160200191610aed565b820191906000526020600020905b815481529060010190602001808311610ad057829003601f168201915b5050505050815260200160038201548152505090508092505050919050565b610b1461146e565b6000600360008473ffffffffffffffffffffffffffffffffffffffff1673ffffffffffffffffffffffffffffffffffffffff16815260200190815260200160002060405180608001604052908160008201548152602001600182018054610b7a90611b54565b80601f0160208091040260200160405190810160405280929190818152602001828054610ba690611b54565b8015610bf35780601f10610bc857610100808354040283529160200191610bf3565b820191906000526020600020905b815481529060010190602001808311610bd657829003601f168201915b50505050508152602001600282018054610c0c90611b54565b80601f0160208091040260200160405190810160405280929190818152602001828054610c3890611b54565b8015610c855780601f10610c5a57610100808354040283529160200191610c85565b820191906000526020600020905b815481529060010190602001808311610c6857829003601f168201915b50505050508152602001600382015481525050905080915050919050565b600080600360008473ffffffffffffffffffffffffffffffffffffffff1673ffffffffffffffffffffffffffffffffffffffff16815260200190815260200160002060405180608001604052908160008201548152602001600182018054610d0a90611b54565b80601f0160208091040260200160405190810160405280929190818152602001828054610d3690611b54565b8015610d835780601f10610d5857610100808354040283529160200191610d83565b820191906000526020600020905b815481529060010190602001808311610d6657829003601f168201915b50505050508152602001600282018054610d9c90611b54565b80601f0160208091040260200160405190810160405280929190818152602001828054610dc890611b54565b8015610e155780601f10610dea57610100808354040283529160200191610e15565b820191906000526020600020905b815481529060010190602001808311610df857829003601f168201915b5050505050815260200160038201548152505090508060000151915050919050565b6000600360003373ffffffffffffffffffffffffffffffffffffffff1673ffffffffffffffffffffffffffffffffffffffff168152602001908152602001600020905083816001019080519060200190610e929291906113e8565b5082816002019080519060200190610eab9291906113e8565b5081816003018190555050505050565b610ec361131c565b73ffffffffffffffffffffffffffffffffffffffff16610ee1610913565b73ffffffffffffffffffffffffffffffffffffffff1614610f37576040517f08c379a0000000000000000000000000000000000000000000000000000000008152600401610f2e906119c1565b60405180910390fd5b60003090506000600160009054906101000a900473ffffffffffffffffffffffffffffffffffffffff1673ffffffffffffffffffffffffffffffffffffffff1663cf37834383876040518363ffffffff1660e01b8152600401610f9b929190611956565b602060405180830381600087803b158015610fb557600080fd5b505af1158015610fc9573d6000803e3d6000fd5b505050506040513d601f19601f82011682018060405250810190610fed919061173c565b9050600160009054906101000a900473ffffffffffffffffffffffffffffffffffffffff1673ffffffffffffffffffffffffffffffffffffffff1663e1b2e97982856040518363ffffffff1660e01b815260040161104c929190611a1e565b600060405180830381600087803b15801561106657600080fd5b505af115801561107a573d6000803e3d6000fd5b50505050611089816001610868565b6110938185610685565b5050505050565b6000600360003373ffffffffffffffffffffffffffffffffffffffff1673ffffffffffffffffffffffffffffffffffffffff1681526020019081526020016000209050818160010190805190602001906110f59291906113e8565b505050565b61110261131c565b73ffffffffffffffffffffffffffffffffffffffff16611120610913565b73ffffffffffffffffffffffffffffffffffffffff1614611176576040517f08c379a000000000000000000000000000000000000000000000000000000000815260040161116d906119c1565b60405180910390fd5b600073ffffffffffffffffffffffffffffffffffffffff168173ffffffffffffffffffffffffffffffffffffffff1614156111e6576040517f08c379a00000000000000000000000000000000000000000000000000000000081526004016111dd906119a1565b60405180910390fd5b6111ef81611324565b50565b6000600360003373ffffffffffffffffffffffffffffffffffffffff1673ffffffffffffffffffffffffffffffffffffffff16815260200190815260200160002090508281600201908051906020019061124d9291906113e8565b50818160030181905550505050565b61126461131c565b73ffffffffffffffffffffffffffffffffffffffff16611282610913565b73ffffffffffffffffffffffffffffffffffffffff16146112d8576040517f08c379a00000000000000000000000000000000000000000000000000000000081526004016112cf906119c1565b60405180910390fd5b80600160006101000a81548173ffffffffffffffffffffffffffffffffffffffff021916908373ffffffffffffffffffffffffffffffffffffffff16021790555050565b600033905090565b60008060009054906101000a900473ffffffffffffffffffffffffffffffffffffffff169050816000806101000a81548173ffffffffffffffffffffffffffffffffffffffff021916908373ffffffffffffffffffffffffffffffffffffffff1602179055508173ffffffffffffffffffffffffffffffffffffffff168173ffffffffffffffffffffffffffffffffffffffff167f8be0079c531659141344cd1fd0a4f28419497f9722a3daafe3b4186f6b6457e060405160405180910390a35050565b8280546113f490611b54565b90600052602060002090601f016020900481019282611416576000855561145d565b82601f1061142f57805160ff191683800117855561145d565b8280016001018555821561145d579182015b8281111561145c578251825591602001919060010190611441565b5b50905061146a9190611496565b5090565b6040518060800160405280600081526020016060815260200160608152602001600081525090565b5b808211156114af576000816000905550600101611497565b5090565b60006114c66114c184611a6c565b611a47565b9050828152602081018484840111156114de57600080fd5b6114e9848285611b12565b509392505050565b60008135905061150081611c9e565b92915050565b60008135905061151581611cb5565b92915050565b600082601f83011261152c57600080fd5b813561153c8482602086016114b3565b91505092915050565b60008135905061155481611ccc565b92915050565b60008151905061156981611ccc565b92915050565b60006020828403121561158157600080fd5b600061158f848285016114f1565b91505092915050565b6000602082840312156115aa57600080fd5b600082013567ffffffffffffffff8111156115c457600080fd5b6115d08482850161151b565b91505092915050565b6000806000606084860312156115ee57600080fd5b600084013567ffffffffffffffff81111561160857600080fd5b6116148682870161151b565b9350506020611625868287016114f1565b925050604061163686828701611545565b9150509250925092565b60008060006060848603121561165557600080fd5b600084013567ffffffffffffffff81111561166f57600080fd5b61167b8682870161151b565b935050602084013567ffffffffffffffff81111561169857600080fd5b6116a48682870161151b565b92505060406116b586828701611545565b9150509250925092565b600080604083850312156116d257600080fd5b600083013567ffffffffffffffff8111156116ec57600080fd5b6116f88582860161151b565b925050602061170985828601611545565b9150509250929050565b60006020828403121561172557600080fd5b600061173384828501611545565b91505092915050565b60006020828403121561174e57600080fd5b600061175c8482850161155a565b91505092915050565b6000806040838503121561177857600080fd5b600061178685828601611545565b9250506020611797858286016114f1565b9150509250929050565b600080604083850312156117b457600080fd5b60006117c285828601611545565b92505060206117d385828601611506565b9150509250929050565b6117e681611aca565b82525050565b6117f581611adc565b82525050565b600061180682611a9d565b6118108185611aa8565b9350611820818560208601611b21565b61182981611c15565b840191505092915050565b600061183f82611a9d565b6118498185611ab9565b9350611859818560208601611b21565b61186281611c15565b840191505092915050565b600061187a602683611ab9565b915061188582611c26565b604082019050919050565b600061189d602083611ab9565b91506118a882611c75565b602082019050919050565b60006080830160008301516118cb600086018261191d565b50602083015184820360208601526118e382826117fb565b915050604083015184820360408601526118fd82826117fb565b9150506060830151611912606086018261191d565b508091505092915050565b61192681611b08565b82525050565b61193581611b08565b82525050565b600060208201905061195060008301846117dd565b92915050565b600060408201905061196b60008301856117dd565b818103602083015261197d8184611834565b90509392505050565b600060208201905061199b60008301846117ec565b92915050565b600060208201905081810360008301526119ba8161186d565b9050919050565b600060208201905081810360008301526119da81611890565b9050919050565b600060208201905081810360008301526119fb81846118b3565b905092915050565b6000602082019050611a18600083018461192c565b92915050565b6000604082019050611a33600083018561192c565b611a40602083018461192c565b9392505050565b6000611a51611a62565b9050611a5d8282611b86565b919050565b6000604051905090565b600067ffffffffffffffff821115611a8757611a86611be6565b5b611a9082611c15565b9050602081019050919050565b600081519050919050565b600082825260208201905092915050565b600082825260208201905092915050565b6000611ad582611ae8565b9050919050565b60008115159050919050565b600073ffffffffffffffffffffffffffffffffffffffff82169050919050565b6000819050919050565b82818337600083830152505050565b60005b83811015611b3f578082015181840152602081019050611b24565b83811115611b4e576000848401525b50505050565b60006002820490506001821680611b6c57607f821691505b60208210811415611b8057611b7f611bb7565b5b50919050565b611b8f82611c15565b810181811067ffffffffffffffff82111715611bae57611bad611be6565b5b80604052505050565b7f4e487b7100000000000000000000000000000000000000000000000000000000600052602260045260246000fd5b7f4e487b7100000000000000000000000000000000000000000000000000000000600052604160045260246000fd5b6000601f19601f8301169050919050565b7f4f776e61626c653a206e6577206f776e657220697320746865207a65726f206160008201527f6464726573730000000000000000000000000000000000000000000000000000602082015250565b7f4f776e61626c653a2063616c6c6572206973206e6f7420746865206f776e6572600082015250565b611ca781611aca565b8114611cb257600080fd5b50565b611cbe81611adc565b8114611cc957600080fd5b50565b611cd581611b08565b8114611ce057600080fd5b5056fea26469706673582212201529343815057cd0c58b9f1dae248e5363d756ba2f517685d8784b20f1d1f0d964736f6c63430008030033",
  "linkReferences": {},
  "deployedLinkReferences": {}
}